{
  "contractName": "MoreMissilesPlz",
  "abi": [
    {
      "inputs": [
        {
          "internalType": "contract LeaderStore",
          "name": "leaderStore",
          "type": "address"
        },
        {
          "internalType": "contract MissileMaker",
          "name": "missileMaker",
          "type": "address"
        },
        {
          "internalType": "contract UfoInvasion",
          "name": "ufoInvasion",
          "type": "address"
        }
      ],
      "stateMutability": "nonpayable",
      "type": "constructor"
    },
    {
      "anonymous": false,
      "inputs": [
        {
          "indexed": false,
          "internalType": "uint256",
          "name": "gameNumber",
          "type": "uint256"
        },
        {
          "indexed": false,
          "internalType": "uint256",
          "name": "totalUfoHp",
          "type": "uint256"
        },
        {
          "indexed": false,
          "internalType": "uint256[]",
          "name": "ufoIds",
          "type": "uint256[]"
        },
        {
          "indexed": false,
          "internalType": "address",
          "name": "winner",
          "type": "address"
        },
        {
          "indexed": false,
          "internalType": "uint256",
          "name": "gameLengthinSeconds",
          "type": "uint256"
        },
        {
          "indexed": false,
          "internalType": "uint256",
          "name": "gameStartTimeinSeconds",
          "type": "uint256"
        }
      ],
      "name": "GameOver",
      "type": "event"
    },
    {
      "anonymous": false,
      "inputs": [
        {
          "indexed": false,
          "internalType": "address",
          "name": "owner",
          "type": "address"
        },
        {
          "indexed": false,
          "internalType": "uint256[]",
          "name": "leaderNftIds",
          "type": "uint256[]"
        },
        {
          "indexed": false,
          "internalType": "uint256",
          "name": "missileNftId",
          "type": "uint256"
        },
        {
          "indexed": false,
          "internalType": "uint256",
          "name": "damage",
          "type": "uint256"
        }
      ],
      "name": "MissileCreated",
      "type": "event"
    },
    {
      "anonymous": false,
      "inputs": [
        {
          "indexed": true,
          "internalType": "address",
          "name": "previousOwner",
          "type": "address"
        },
        {
          "indexed": true,
          "internalType": "address",
          "name": "newOwner",
          "type": "address"
        }
      ],
      "name": "OwnershipTransferred",
      "type": "event"
    },
    {
      "anonymous": false,
      "inputs": [
        {
          "indexed": false,
          "internalType": "uint256",
          "name": "ufoId",
          "type": "uint256"
        },
        {
          "indexed": false,
          "internalType": "uint256",
          "name": "missileId",
          "type": "uint256"
        },
        {
          "indexed": false,
          "internalType": "address",
          "name": "locationAddress",
          "type": "address"
        },
        {
          "indexed": false,
          "internalType": "address",
          "name": "killerAddress",
          "type": "address"
        }
      ],
      "name": "UfoDestroyed",
      "type": "event"
    },
    {
      "inputs": [],
      "name": "owner",
      "outputs": [
        {
          "internalType": "address",
          "name": "",
          "type": "address"
        }
      ],
      "stateMutability": "view",
      "type": "function"
    },
    {
      "inputs": [],
      "name": "renounceOwnership",
      "outputs": [],
      "stateMutability": "nonpayable",
      "type": "function"
    },
    {
      "inputs": [
        {
          "internalType": "address",
          "name": "newOwner",
          "type": "address"
        }
      ],
      "name": "transferOwnership",
      "outputs": [],
      "stateMutability": "nonpayable",
      "type": "function"
    },
    {
      "inputs": [
        {
          "internalType": "string",
          "name": "leaderName",
          "type": "string"
        }
      ],
      "name": "getWorldLeaderMintContract",
      "outputs": [
        {
          "internalType": "address",
          "name": "",
          "type": "address"
        }
      ],
      "stateMutability": "view",
      "type": "function"
    },
    {
      "inputs": [],
      "name": "canUserRollAnyMissiles",
      "outputs": [
        {
          "internalType": "bool",
          "name": "",
          "type": "bool"
        }
      ],
      "stateMutability": "view",
      "type": "function"
    },
    {
      "inputs": [],
      "name": "numMissilesReadyToRoll",
      "outputs": [
        {
          "internalType": "uint256",
          "name": "",
          "type": "uint256"
        }
      ],
      "stateMutability": "view",
      "type": "function"
    },
    {
      "inputs": [
        {
          "internalType": "uint256",
          "name": "randVal",
          "type": "uint256"
        }
      ],
      "name": "maybeGetMissiles",
      "outputs": [],
      "stateMutability": "nonpayable",
      "type": "function"
    },
    {
      "inputs": [
        {
          "internalType": "address",
          "name": "contractAddress",
          "type": "address"
        }
      ],
      "name": "addLeaderContract",
      "outputs": [],
      "stateMutability": "nonpayable",
      "type": "function"
    },
    {
      "inputs": [
        {
          "internalType": "uint256",
          "name": "randVal",
          "type": "uint256"
        }
      ],
      "name": "startNewUfoInvasionGame",
      "outputs": [],
      "stateMutability": "nonpayable",
      "type": "function"
    },
    {
      "inputs": [
        {
          "internalType": "uint256[]",
          "name": "missileIds",
          "type": "uint256[]"
        },
        {
          "internalType": "uint256",
          "name": "ufoId",
          "type": "uint256"
        }
      ],
      "name": "attackUFO",
      "outputs": [],
      "stateMutability": "nonpayable",
      "type": "function"
    },
    {
      "inputs": [],
      "name": "getUfoInvasionAddress",
      "outputs": [
        {
          "internalType": "address",
          "name": "",
          "type": "address"
        }
      ],
      "stateMutability": "view",
      "type": "function"
    },
    {
      "inputs": [],
      "name": "withdraw",
      "outputs": [],
      "stateMutability": "nonpayable",
      "type": "function"
    },
    {
      "inputs": [],
      "name": "getWorldLeaderBalance",
      "outputs": [
        {
          "internalType": "uint256",
          "name": "",
          "type": "uint256"
        }
      ],
      "stateMutability": "view",
      "type": "function"
    },
    {
      "inputs": [
        {
          "internalType": "address payable[]",
          "name": "recipients",
          "type": "address[]"
        }
      ],
      "name": "setRecipients",
      "outputs": [],
      "stateMutability": "nonpayable",
      "type": "function"
    },
    {
      "inputs": [
        {
          "internalType": "address payable",
          "name": "recipient",
          "type": "address"
        }
      ],
      "name": "isRecipient",
      "outputs": [
        {
          "internalType": "bool",
          "name": "",
          "type": "bool"
        }
      ],
      "stateMutability": "view",
      "type": "function"
    },
    {
      "inputs": [
        {
          "internalType": "address",
          "name": "_owner",
          "type": "address"
        }
      ],
      "name": "tokensOfOwner",
      "outputs": [
        {
          "internalType": "uint256[]",
          "name": "",
          "type": "uint256[]"
        }
      ],
      "stateMutability": "view",
      "type": "function"
    },
    {
      "inputs": [],
      "name": "getGameStartTime",
      "outputs": [
        {
          "internalType": "uint256",
          "name": "",
          "type": "uint256"
        }
      ],
      "stateMutability": "view",
      "type": "function"
    },
    {
      "inputs": [],
      "name": "isGameActive",
      "outputs": [
        {
          "internalType": "bool",
          "name": "",
          "type": "bool"
        }
      ],
      "stateMutability": "view",
      "type": "function"
    },
    {
      "inputs": [
        {
          "internalType": "address",
          "name": "userAddr",
          "type": "address"
        }
      ],
      "name": "getUserMissiles",
      "outputs": [
        {
          "internalType": "uint256[]",
          "name": "",
          "type": "uint256[]"
        }
      ],
      "stateMutability": "view",
      "type": "function"
    },
    {
      "inputs": [],
      "name": "getCurGameNumUFOs",
      "outputs": [
        {
          "internalType": "uint256",
          "name": "",
          "type": "uint256"
        }
      ],
      "stateMutability": "view",
      "type": "function"
    },
    {
      "inputs": [
        {
          "internalType": "uint256",
          "name": "idx",
          "type": "uint256"
        }
      ],
      "name": "getUfoAtIdx",
      "outputs": [
        {
          "components": [
            {
              "internalType": "address",
              "name": "locationAddress",
              "type": "address"
            },
            {
              "internalType": "uint256",
              "name": "ufoId",
              "type": "uint256"
            },
            {
              "internalType": "uint256",
              "name": "curHp",
              "type": "uint256"
            },
            {
              "internalType": "uint256",
              "name": "startingHp",
              "type": "uint256"
            }
          ],
          "internalType": "struct UfoInvasion.UfoState",
          "name": "",
          "type": "tuple"
        }
      ],
      "stateMutability": "view",
      "type": "function"
    },
    {
      "inputs": [],
      "name": "getCurGameNumPlayers",
      "outputs": [
        {
          "internalType": "uint256",
          "name": "",
          "type": "uint256"
        }
      ],
      "stateMutability": "view",
      "type": "function"
    },
    {
      "inputs": [
        {
          "internalType": "uint256",
          "name": "idx",
          "type": "uint256"
        }
      ],
      "name": "getCurGamePlayerAtIdx",
      "outputs": [
        {
          "components": [
            {
              "internalType": "address",
              "name": "playerAddress",
              "type": "address"
            },
            {
              "internalType": "uint256",
              "name": "score",
              "type": "uint256"
            },
            {
              "internalType": "uint256",
              "name": "nukesUsed",
              "type": "uint256"
            },
            {
              "internalType": "bool",
              "name": "active",
              "type": "bool"
            }
          ],
          "internalType": "struct UfoInvasion.CurGameScore",
          "name": "",
          "type": "tuple"
        }
      ],
      "stateMutability": "view",
      "type": "function"
    },
    {
      "inputs": [],
      "name": "getNumLeaderboardPlayers",
      "outputs": [
        {
          "internalType": "uint256",
          "name": "",
          "type": "uint256"
        }
      ],
      "stateMutability": "view",
      "type": "function"
    },
    {
      "inputs": [
        {
          "internalType": "uint256",
          "name": "idx",
          "type": "uint256"
        }
      ],
      "name": "getLeaderboardPlayerAtIdx",
      "outputs": [
        {
          "components": [
            {
              "internalType": "address",
              "name": "playerAddress",
              "type": "address"
            },
            {
              "internalType": "uint256",
              "name": "score",
              "type": "uint256"
            },
            {
              "internalType": "uint256",
              "name": "wins",
              "type": "uint256"
            },
            {
              "internalType": "uint256",
              "name": "nukesUsed",
              "type": "uint256"
            },
            {
              "internalType": "bool",
              "name": "exists",
              "type": "bool"
            }
          ],
          "internalType": "struct UfoInvasion.AllTimeLeaderboard",
          "name": "",
          "type": "tuple"
        }
      ],
      "stateMutability": "view",
      "type": "function"
    },
    {
      "inputs": [],
      "name": "getTotalNumberOfGames",
      "outputs": [
        {
          "internalType": "uint256",
          "name": "",
          "type": "uint256"
        }
      ],
      "stateMutability": "view",
      "type": "function"
    },
    {
      "inputs": [
        {
          "internalType": "uint256",
          "name": "idx",
          "type": "uint256"
        }
      ],
      "name": "getGameStatsByGameIdx",
      "outputs": [
        {
          "components": [
            {
              "internalType": "uint256",
              "name": "gameNumber",
              "type": "uint256"
            },
            {
              "internalType": "uint256",
              "name": "totalUfoHp",
              "type": "uint256"
            },
            {
              "internalType": "uint256[]",
              "name": "ufoIds",
              "type": "uint256[]"
            },
            {
              "internalType": "address",
              "name": "winner",
              "type": "address"
            },
            {
              "internalType": "uint256",
              "name": "gameLengthInSeconds",
              "type": "uint256"
            },
            {
              "internalType": "uint256",
              "name": "gameStartTimeInSeconds",
              "type": "uint256"
            }
          ],
          "internalType": "struct UfoInvasion.GameStats",
          "name": "",
          "type": "tuple"
        }
      ],
      "stateMutability": "view",
      "type": "function"
    },
    {
      "inputs": [
        {
          "internalType": "address",
          "name": "sender",
          "type": "address"
        },
        {
          "internalType": "uint256[]",
          "name": "leaderNftIds",
          "type": "uint256[]"
        },
        {
          "internalType": "uint256",
          "name": "missileNftId",
          "type": "uint256"
        },
        {
          "internalType": "uint256",
          "name": "dmg",
          "type": "uint256"
        }
      ],
      "name": "emitMissileCreated",
      "outputs": [],
      "stateMutability": "nonpayable",
      "type": "function"
    },
    {
      "inputs": [
        {
          "internalType": "uint256",
          "name": "ufoId",
          "type": "uint256"
        },
        {
          "internalType": "uint256",
          "name": "missileId",
          "type": "uint256"
        },
        {
          "internalType": "address",
          "name": "locationAddress",
          "type": "address"
        },
        {
          "internalType": "address",
          "name": "killerAddress",
          "type": "address"
        }
      ],
      "name": "emitUfoDestroyed",
      "outputs": [],
      "stateMutability": "nonpayable",
      "type": "function"
    },
    {
      "inputs": [
        {
          "components": [
            {
              "internalType": "uint256",
              "name": "gameNumber",
              "type": "uint256"
            },
            {
              "internalType": "uint256",
              "name": "totalUfoHp",
              "type": "uint256"
            },
            {
              "internalType": "uint256[]",
              "name": "ufoIds",
              "type": "uint256[]"
            },
            {
              "internalType": "address",
              "name": "winner",
              "type": "address"
            },
            {
              "internalType": "uint256",
              "name": "gameLengthInSeconds",
              "type": "uint256"
            },
            {
              "internalType": "uint256",
              "name": "gameStartTimeInSeconds",
              "type": "uint256"
            }
          ],
          "internalType": "struct UfoInvasion.GameStats",
          "name": "gameStats",
          "type": "tuple"
        }
      ],
      "name": "emitGameOver",
      "outputs": [],
      "stateMutability": "nonpayable",
      "type": "function"
    },
    {
      "inputs": [
        {
          "internalType": "address",
          "name": "newMissileMaker",
          "type": "address"
        }
      ],
      "name": "updateMissileMaker",
      "outputs": [],
      "stateMutability": "nonpayable",
      "type": "function"
    },
    {
      "inputs": [
        {
          "internalType": "address",
          "name": "newUfoInvasion",
          "type": "address"
        }
      ],
      "name": "updateUfoInvasion",
      "outputs": [],
      "stateMutability": "nonpayable",
      "type": "function"
    },
    {
      "inputs": [
        {
          "internalType": "address",
          "name": "newWorldLeaderStore",
          "type": "address"
        }
      ],
      "name": "updateLeaderStore",
      "outputs": [],
      "stateMutability": "nonpayable",
      "type": "function"
    }
  ],
  "bytecode": "0x60806040523480156200001157600080fd5b5060405162002d4038038062002d408339810160408190526200003491620000d2565b6200003f3362000082565b600280546001600160a01b039485166001600160a01b0319918216179091556001805493851693821693909317909255600380549190931691161790556200013e565b600080546001600160a01b038381166001600160a01b0319831681178455604051919092169283917f8be0079c531659141344cd1fd0a4f28419497f9722a3daafe3b4186f6b6457e09190a35050565b600080600060608486031215620000e7578283fd5b8351620000f48162000125565b6020850151909350620001078162000125565b60408501519092506200011a8162000125565b809150509250925092565b6001600160a01b03811681146200013b57600080fd5b50565b612bf2806200014e6000396000f3fe608060405234801561001057600080fd5b50600436106101bb5760003560e01c80638462151c116100fa578063b2e02d671161009d578063b2e02d67146103f0578063b698a94d146103f8578063c263d7d01461040b578063d286b96814610413578063d53794ef1461041b578063de35173e14610476578063f1a8057c1461047e578063f2fde38b14610491578063f98a8e6a146104a457600080fd5b80638462151c14610379578063884495e01461038c5780638b397ba01461039f5780638c5143ea146103b25780638da5cb5b146103c557806395f82efd146103cd578063b082e4e2146103e0578063b17b02a2146103e857600080fd5b806349699c731161016257806349699c73146102ac5780634b50c9f0146102fd5780634e7602d31461030557806359426d08146103185780636a50b2291461032b5780636f56891e1461033e578063715018a6146103515780637f7602f81461035957600080fd5b80630c0ef2b0146101c057806311c6a020146101dd57806317fe58b4146101f75780631a71c68b1461020c57806320f97a3e1461022c5780632858faad14610242578063319ec841146102915780633ccfd60b146102a4575b600080fd5b6101c86104b7565b60405190151581526020015b60405180910390f35b6003546001600160a01b03165b6040516101d49190612808565b61020a61020536600461212d565b610538565b005b61021f61021a366004612721565b610592565b6040516101d49190612974565b61023461065a565b6040519081526020016101d4565b610255610250366004612721565b6106d7565b6040516101d4919081516001600160a01b0316815260208083015190820152604080830151908201526060918201519181019190915260800190565b61020a61029f36600461212d565b610787565b61020a61081b565b6102bf6102ba366004612721565b610969565b6040516101d4919081516001600160a01b03168152602080830151908201526040808301519082015260609182015115159181019190915260800190565b610234610a05565b61020a6103133660046121fd565b610a4a565b61020a61032636600461212d565b610bea565b61020a610339366004612751565b610cc2565b61020a61034c36600461212d565b610d42565b61020a610e1a565b61036c61036736600461212d565b610e55565b6040516101d491906128ae565b61036c61038736600461212d565b610eda565b61020a61039a366004612721565b611200565b61020a6103ad36600461216c565b6114ed565b6101c86103c036600461212d565b61155d565b6101ea6116f2565b6101ea6103db366004612413565b611701565b6101c8611782565b6102346118ec565b610234611a50565b61020a610406366004612361565b611a95565b610234611c03565b610234611c48565b61042e610429366004612721565b611c8d565b6040516101d4919081516001600160a01b0316815260208083015190820152604080830151908201526060808301519082015260809182015115159181019190915260a00190565b610234611d46565b61020a61048c36600461256e565b611ebc565b61020a61049f36600461212d565b611f53565b61020a6104b2366004612721565b611ff3565b6003546040805162c0ef2b60e41b815290516000926001600160a01b031691630c0ef2b0916004808301926020929190829003018186803b1580156104fb57600080fd5b505afa15801561050f573d6000803e3d6000fd5b505050506040513d601f19601f8201168201806040525081019061053391906123f9565b905090565b336105416116f2565b6001600160a01b0316146105705760405162461bcd60e51b81526004016105679061293f565b60405180910390fd5b600380546001600160a01b0319166001600160a01b0392909216919091179055565b6105d46040518060c0016040528060008152602001600081526020016060815260200160006001600160a01b0316815260200160008152602001600081525090565b600354604051631a71c68b60e01b8152600481018490526001600160a01b0390911690631a71c68b9060240160006040518083038186803b15801561061857600080fd5b505afa15801561062c573d6000803e3d6000fd5b505050506040513d6000823e601f3d908101601f1916820160405261065491908101906125a5565b92915050565b6003546040805163107cbd1f60e11b815290516000926001600160a01b0316916320f97a3e916004808301926020929190829003018186803b15801561069f57600080fd5b505afa1580156106b3573d6000803e3d6000fd5b505050506040513d601f19601f820116820180604052508101906105339190612739565b61070b604051806080016040528060006001600160a01b031681526020016000815260200160008152602001600081525090565b600354604051632858faad60e01b8152600481018490526001600160a01b0390911690632858faad9060240160806040518083038186803b15801561074f57600080fd5b505afa158015610763573d6000803e3d6000fd5b505050506040513d601f19601f8201168201806040525081019061065491906126d1565b336107906116f2565b6001600160a01b0316146107b65760405162461bcd60e51b81526004016105679061293f565b60025460405163319ec84160e01b81526001600160a01b039091169063319ec841906107e6908490600401612808565b600060405180830381600087803b15801561080057600080fd5b505af1158015610814573d6000803e3d6000fd5b5050505050565b336108246116f2565b6001600160a01b03161461084a5760405162461bcd60e51b81526004016105679061293f565b6002546040805163e8abdb6560e01b815290516000926001600160a01b03169163e8abdb659160048083019286929190829003018186803b15801561088e57600080fd5b505afa1580156108a2573d6000803e3d6000fd5b505050506040513d6000823e601f3d908101601f191682016040526108ca9190810190612298565b905060005b8151811015610965578181815181106108f857634e487b7160e01b600052603260045260246000fd5b60200260200101516001600160a01b0316633ccfd60b6040518163ffffffff1660e01b8152600401600060405180830381600087803b15801561093a57600080fd5b505af115801561094e573d6000803e3d6000fd5b50505050808061095d90612b40565b9150506108cf565b5050565b60408051608081018252600080825260208201819052818301819052606082015260035491516349699c7360e01b81526004810184905290916001600160a01b0316906349699c739060240160806040518083038186803b1580156109cd57600080fd5b505afa1580156109e1573d6000803e3d6000fd5b505050506040513d601f19601f82011682018060405250810190610654919061251a565b600354604080516304b50c9f60e41b815290516000926001600160a01b031691634b50c9f0916004808301926020929190829003018186803b15801561069f57600080fd5b33610a536116f2565b6001600160a01b031614610a795760405162461bcd60e51b81526004016105679061293f565b6002546040805163e8abdb6560e01b815290516000926001600160a01b03169163e8abdb659160048083019286929190829003018186803b158015610abd57600080fd5b505afa158015610ad1573d6000803e3d6000fd5b505050506040513d6000823e601f3d908101601f19168201604052610af99190810190612298565b905060005b8151811015610be55760005b8351811015610bd257828281518110610b3357634e487b7160e01b600052603260045260246000fd5b60200260200101516001600160a01b0316633bbed4a0858381518110610b6957634e487b7160e01b600052603260045260246000fd5b60200260200101516040518263ffffffff1660e01b8152600401610b8d9190612808565b600060405180830381600087803b158015610ba757600080fd5b505af1158015610bbb573d6000803e3d6000fd5b505050508080610bca90612b40565b915050610b0a565b5080610bdd81612b40565b915050610afe565b505050565b33610bf36116f2565b6001600160a01b031614610c195760405162461bcd60e51b81526004016105679061293f565b600280546001600160a01b0319166001600160a01b0383811691909117909155600154604051630b284da160e31b81529116906359426d0890610c60908490600401612808565b600060405180830381600087803b158015610c7a57600080fd5b505af1158015610c8e573d6000803e3d6000fd5b5050600354604051630b284da160e31b81526001600160a01b0390911692506359426d0891506107e6908490600401612808565b6003546001600160a01b03163314610cec5760405162461bcd60e51b815260040161056790612914565b60408051858152602081018590526001600160a01b03848116828401528316606082015290517f8eb5b0a3ce4d91bdbe4e28d77335a119e988b4b373477ef2250be1c6ce7dea239181900360800190a150505050565b33610d4b6116f2565b6001600160a01b031614610d715760405162461bcd60e51b81526004016105679061293f565b600180546001600160a01b0319166001600160a01b03838116919091179091556003546040516337ab448f60e11b8152911690636f56891e90610db8908490600401612808565b600060405180830381600087803b158015610dd257600080fd5b505af1158015610de6573d6000803e3d6000fd5b505060025460405163259cb82b60e01b81526001600160a01b03909116925063259cb82b91506107e6908490600401612808565b33610e236116f2565b6001600160a01b031614610e495760405162461bcd60e51b81526004016105679061293f565b610e536000612053565b565b600154604051630feec05f60e31b81526060916001600160a01b031690637f7602f890610e86908590600401612808565b60006040518083038186803b158015610e9e57600080fd5b505afa158015610eb2573d6000803e3d6000fd5b505050506040513d6000823e601f3d908101601f191682016040526106549190810190612327565b60606000600260009054906101000a90046001600160a01b03166001600160a01b031663e8abdb656040518163ffffffff1660e01b815260040160006040518083038186803b158015610f2c57600080fd5b505afa158015610f40573d6000803e3d6000fd5b505050506040513d6000823e601f3d908101601f19168201604052610f689190810190612298565b90506000805b825181101561103d57828181518110610f9757634e487b7160e01b600052603260045260246000fd5b60200260200101516001600160a01b0316638462151c866040518263ffffffff1660e01b8152600401610fca9190612808565b60006040518083038186803b158015610fe257600080fd5b505afa158015610ff6573d6000803e3d6000fd5b505050506040513d6000823e601f3d908101601f1916820160405261101e9190810190612327565b516110299083612b09565b91508061103581612b40565b915050610f6e565b506000816001600160401b0381111561106657634e487b7160e01b600052604160045260246000fd5b60405190808252806020026020018201604052801561108f578160200160208202803683370190505b50905060005b83518110156111f75760008482815181106110c057634e487b7160e01b600052603260045260246000fd5b60200260200101516001600160a01b0316638462151c886040518263ffffffff1660e01b81526004016110f39190612808565b60006040518083038186803b15801561110b57600080fd5b505afa15801561111f573d6000803e3d6000fd5b505050506040513d6000823e601f3d908101601f191682016040526111479190810190612327565b905060005b81518110156111e257855160009082906111668187612b5b565b6111709190612b21565b61117a9190612b09565b905082828151811061119c57634e487b7160e01b600052603260045260246000fd5b60200260200101518582815181106111c457634e487b7160e01b600052603260045260246000fd5b602090810291909101015250806111da81612b40565b91505061114c565b505080806111ef90612b40565b915050611095565b50949350505050565b6002546040805163e8abdb6560e01b815290516000926001600160a01b03169163e8abdb659160048083019286929190829003018186803b15801561124457600080fd5b505afa158015611258573d6000803e3d6000fd5b505050506040513d6000823e601f3d908101601f191682016040526112809190810190612298565b905060005b8151811015610be5578181815181106112ae57634e487b7160e01b600052603260045260246000fd5b60200260200101516001600160a01b0316634d7e3321336040518263ffffffff1660e01b81526004016112e19190612808565b60206040518083038186803b1580156112f957600080fd5b505afa15801561130d573d6000803e3d6000fd5b505050506040513d601f19601f8201168201806040525081019061133191906123f9565b156114db57600082828151811061135857634e487b7160e01b600052603260045260246000fd5b60200260200101516001600160a01b0316633d131a6b3386600160009054906101000a90046001600160a01b03166001600160a01b0316636828f0c86040518163ffffffff1660e01b815260040160206040518083038186803b1580156113be57600080fd5b505afa1580156113d2573d6000803e3d6000fd5b505050506040513d601f19601f820116820180604052508101906113f69190612739565b6040518463ffffffff1660e01b81526004016114149392919061288d565b600060405180830381600087803b15801561142e57600080fd5b505af1158015611442573d6000803e3d6000fd5b505050506040513d6000823e601f3d908101601f1916820160405261146a9190810190612649565b60015460208201518251604051635313130960e11b81529394506001600160a01b039092169263a6262612926114a79233928a9290600401612855565b600060405180830381600087803b1580156114c157600080fd5b505af11580156114d5573d6000803e3d6000fd5b50505050505b806114e581612b40565b915050611285565b6001546001600160a01b031633146115175760405162461bcd60e51b815260040161056790612914565b7f22a3359fa093c907c6ff91d15ae76cc6c5e30a739b56f522450ef9c103d9d65f858585858560405161154e95949392919061281c565b60405180910390a15050505050565b6000336115686116f2565b6001600160a01b03161461158e5760405162461bcd60e51b81526004016105679061293f565b6002546040805163e8abdb6560e01b815290516000926001600160a01b03169163e8abdb659160048083019286929190829003018186803b1580156115d257600080fd5b505afa1580156115e6573d6000803e3d6000fd5b505050506040513d6000823e601f3d908101601f1916820160405261160e9190810190612298565b90508051600014156116235750600092915050565b600160005b82518110156116e85782818151811061165157634e487b7160e01b600052603260045260246000fd5b60200260200101516001600160a01b0316638c5143ea866040518263ffffffff1660e01b81526004016116849190612808565b60206040518083038186803b15801561169c57600080fd5b505afa1580156116b0573d6000803e3d6000fd5b505050506040513d601f19601f820116820180604052508101906116d491906123f9565b9150806116e081612b40565b915050611628565b509150505b919050565b6000546001600160a01b031690565b6002546040516310365c4f60e11b81526000916001600160a01b03169063206cb89e906117329085906004016128c1565b60206040518083038186803b15801561174a57600080fd5b505afa15801561175e573d6000803e3d6000fd5b505050506040513d601f19601f820116820180604052508101906106549190612150565b600080600260009054906101000a90046001600160a01b03166001600160a01b031663e8abdb656040518163ffffffff1660e01b815260040160006040518083038186803b1580156117d357600080fd5b505afa1580156117e7573d6000803e3d6000fd5b505050506040513d6000823e601f3d908101601f1916820160405261180f9190810190612298565b905060005b81518110156118e357600082828151811061183f57634e487b7160e01b600052603260045260246000fd5b60200260200101516001600160a01b0316638f90b2f0336040518263ffffffff1660e01b81526004016118729190612808565b60206040518083038186803b15801561188a57600080fd5b505afa15801561189e573d6000803e3d6000fd5b505050506040513d601f19601f820116820180604052508101906118c29190612739565b11156118d15760019250505090565b806118db81612b40565b915050611814565b50600091505090565b600080600260009054906101000a90046001600160a01b03166001600160a01b031663e8abdb656040518163ffffffff1660e01b815260040160006040518083038186803b15801561193d57600080fd5b505afa158015611951573d6000803e3d6000fd5b505050506040513d6000823e601f3d908101601f191682016040526119799190810190612298565b90506000805b8251811015611a49578281815181106119a857634e487b7160e01b600052603260045260246000fd5b60200260200101516001600160a01b0316638f90b2f0336040518263ffffffff1660e01b81526004016119db9190612808565b60206040518083038186803b1580156119f357600080fd5b505afa158015611a07573d6000803e3d6000fd5b505050506040513d601f19601f82011682018060405250810190611a2b9190612739565b611a359083612b09565b915080611a4181612b40565b91505061197f565b5092915050565b6003546040805163b2e02d6760e01b815290516000926001600160a01b03169163b2e02d67916004808301926020929190829003018186803b15801561069f57600080fd5b60005b8251811015610be55760035483516000916001600160a01b031690631ed31554903390879086908110611adb57634e487b7160e01b600052603260045260246000fd5b6020026020010151866040518463ffffffff1660e01b8152600401611b029392919061288d565b602060405180830381600087803b158015611b1c57600080fd5b505af1158015611b30573d6000803e3d6000fd5b505050506040513d601f19601f82011682018060405250810190611b5491906123f9565b60015485519192506001600160a01b03169063604ce99690869085908110611b8c57634e487b7160e01b600052603260045260246000fd5b60200260200101516040518263ffffffff1660e01b8152600401611bb291815260200190565b600060405180830381600087803b158015611bcc57600080fd5b505af1158015611be0573d6000803e3d6000fd5b505050508015611bf05750505050565b5080611bfb81612b40565b915050611a98565b60035460408051630c263d7d60e41b815290516000926001600160a01b03169163c263d7d0916004808301926020929190829003018186803b15801561069f57600080fd5b60035460408051631a50d72d60e31b815290516000926001600160a01b03169163d286b968916004808301926020929190829003018186803b15801561069f57600080fd5b611cca6040518060a0016040528060006001600160a01b031681526020016000815260200160008152602001600081526020016000151581525090565b60035460405163d53794ef60e01b8152600481018490526001600160a01b039091169063d53794ef9060240160a06040518083038186803b158015611d0e57600080fd5b505afa158015611d22573d6000803e3d6000fd5b505050506040513d601f19601f82011682018060405250810190610654919061249f565b600033611d516116f2565b6001600160a01b031614611d775760405162461bcd60e51b81526004016105679061293f565b6002546040805163e8abdb6560e01b815290516000926001600160a01b03169163e8abdb659160048083019286929190829003018186803b158015611dbb57600080fd5b505afa158015611dcf573d6000803e3d6000fd5b505050506040513d6000823e601f3d908101601f19168201604052611df79190810190612298565b90506000805b8251811015611a4957828181518110611e2657634e487b7160e01b600052603260045260246000fd5b60200260200101516001600160a01b03166312065fe06040518163ffffffff1660e01b815260040160206040518083038186803b158015611e6657600080fd5b505afa158015611e7a573d6000803e3d6000fd5b505050506040513d601f19601f82011682018060405250810190611e9e9190612739565b611ea89083612b09565b915080611eb481612b40565b915050611dfd565b6003546001600160a01b03163314611ee65760405162461bcd60e51b815260040161056790612914565b7ff226d74391466af0f3c4f040050f00c0ceedb6f5bcd65386d6922481f21446c381356020830135611f1b6040850185612a1e565b611f2b608087016060880161212d565b86608001358760a00135604051611f4897969594939291906129d6565b60405180910390a150565b33611f5c6116f2565b6001600160a01b031614611f825760405162461bcd60e51b81526004016105679061293f565b6001600160a01b038116611fe75760405162461bcd60e51b815260206004820152602660248201527f4f776e61626c653a206e6577206f776e657220697320746865207a65726f206160448201526564647265737360d01b6064820152608401610567565b611ff081612053565b50565b33611ffc6116f2565b6001600160a01b0316146120225760405162461bcd60e51b81526004016105679061293f565b600354604051637cc5473560e11b8152600481018390526001600160a01b039091169063f98a8e6a906024016107e6565b600080546001600160a01b038381166001600160a01b0319831681178455604051919092169283917f8be0079c531659141344cd1fd0a4f28419497f9722a3daafe3b4186f6b6457e09190a35050565b80516116ed81612ba7565b600082601f8301126120be578081fd5b815160206120d36120ce83612ae6565b612ab6565b80838252828201915082860187848660051b89010111156120f2578586fd5b855b85811015612110578151845292840192908401906001016120f4565b5090979650505050505050565b805180151581146116ed57600080fd5b60006020828403121561213e578081fd5b813561214981612ba7565b9392505050565b600060208284031215612161578081fd5b815161214981612ba7565b600080600080600060808688031215612183578081fd5b853561218e81612ba7565b945060208601356001600160401b03808211156121a9578283fd5b818801915088601f8301126121bc578283fd5b8135818111156121ca578384fd5b8960208260051b85010111156121de578384fd5b9699602092909201985095966040810135965060600135945092505050565b6000602080838503121561220f578182fd5b82356001600160401b03811115612224578283fd5b8301601f81018513612234578283fd5b80356122426120ce82612ae6565b80828252848201915084840188868560051b8701011115612261578687fd5b8694505b8385101561228c57803561227881612ba7565b835260019490940193918501918501612265565b50979650505050505050565b600060208083850312156122aa578182fd5b82516001600160401b038111156122bf578283fd5b8301601f810185136122cf578283fd5b80516122dd6120ce82612ae6565b80828252848201915084840188868560051b87010111156122fc578687fd5b8694505b8385101561228c57805161231381612ba7565b835260019490940193918501918501612300565b600060208284031215612338578081fd5b81516001600160401b0381111561234d578182fd5b612359848285016120ae565b949350505050565b60008060408385031215612373578182fd5b82356001600160401b03811115612388578283fd5b8301601f81018513612398578283fd5b803560206123a86120ce83612ae6565b80838252828201915082850189848660051b88010111156123c7578788fd5b8795505b848610156123e95780358352600195909501949183019183016123cb565b5098969091013596505050505050565b60006020828403121561240a578081fd5b6121498261211d565b60006020808385031215612425578182fd5b82356001600160401b038082111561243b578384fd5b818501915085601f83011261244e578384fd5b81358181111561246057612460612b91565b612472601f8201601f19168501612ab6565b91508082528684828501011115612487578485fd5b80848401858401378101909201929092529392505050565b600060a082840312156124b0578081fd5b60405160a081018181106001600160401b03821117156124d2576124d2612b91565b60405282516124e081612ba7565b8082525060208301516020820152604083015160408201526060830151606082015261250e6080840161211d565b60808201529392505050565b60006080828403121561252b578081fd5b612533612a6c565b825161253e81612ba7565b8082525060208301516020820152604083015160408201526125626060840161211d565b60608201529392505050565b60006020828403121561257f578081fd5b81356001600160401b03811115612594578182fd5b820160c08185031215612149578182fd5b6000602082840312156125b6578081fd5b81516001600160401b03808211156125cc578283fd5b9083019060c082860312156125df578283fd5b6125e7612a94565b8251815260208301516020820152604083015182811115612606578485fd5b612612878286016120ae565b604083015250612624606084016120a3565b60608201526080830151608082015260a083015160a082015280935050505092915050565b60006020828403121561265a578081fd5b81516001600160401b0380821115612670578283fd5b9083019060408286031215612683578283fd5b60405160408101818110838211171561269e5761269e612b91565b604052825181526020830151828111156126b6578485fd5b6126c2878286016120ae565b60208301525095945050505050565b6000608082840312156126e2578081fd5b6126ea612a6c565b82516126f581612ba7565b808252506020830151602082015260408301516040820152606083015160608201528091505092915050565b600060208284031215612732578081fd5b5035919050565b60006020828403121561274a578081fd5b5051919050565b60008060008060808587031215612766578182fd5b8435935060208501359250604085013561277f81612ba7565b9150606085013561278f81612ba7565b939692955090935050565b81835260006001600160fb1b038311156127b2578081fd5b8260051b80836020870137939093016020019283525090919050565b6000815180845260208085019450808401835b838110156127fd578151875295820195908201906001016127e1565b509495945050505050565b6001600160a01b0391909116815260200190565b6001600160a01b0386168152608060208201819052600090612841908301868861279a565b604083019490945250606001529392505050565b60018060a01b038516815283602082015260806040820152600061287c60808301856127ce565b905082606083015295945050505050565b6001600160a01b039390931683526020830191909152604082015260600190565b60208152600061214960208301846127ce565b6000602080835283518082850152825b818110156128ed578581018301518582016040015282016128d1565b818111156128fe5783604083870101525b50601f01601f1916929092016040019392505050565b6020808252601190820152701e5bdd4818d85b89dd08191bc81d1a185d607a1b604082015260600190565b6020808252818101527f4f776e61626c653a2063616c6c6572206973206e6f7420746865206f776e6572604082015260600190565b6020815281516020820152602082015160408201526000604083015160c060608401526129a460e08401826127ce565b905060018060a01b036060850151166080840152608084015160a084015260a084015160c08401528091505092915050565b87815286602082015260c0604082015260006129f660c08301878961279a565b6001600160a01b0395909516606083015250608081019290925260a090910152949350505050565b6000808335601e19843603018112612a34578283fd5b8301803591506001600160401b03821115612a4d578283fd5b6020019150600581901b3603821315612a6557600080fd5b9250929050565b604051608081016001600160401b0381118282101715612a8e57612a8e612b91565b60405290565b60405160c081016001600160401b0381118282101715612a8e57612a8e612b91565b604051601f8201601f191681016001600160401b0381118282101715612ade57612ade612b91565b604052919050565b60006001600160401b03821115612aff57612aff612b91565b5060051b60200190565b60008219821115612b1c57612b1c612b7b565b500190565b6000816000190483118215151615612b3b57612b3b612b7b565b500290565b6000600019821415612b5457612b54612b7b565b5060010190565b600082612b7657634e487b7160e01b81526012600452602481fd5b500690565b634e487b7160e01b600052601160045260246000fd5b634e487b7160e01b600052604160045260246000fd5b6001600160a01b0381168114611ff057600080fdfea2646970667358221220cfe251dff6e3adbd9abe0ca5ca2573c4db9d3f33d067f878f7a0472fa206d84a64736f6c63430008040033",
  "immutableReferences": {},
  "source": "// SPDX-License-Identifier: MIT\r\npragma solidity ^0.8.4;\r\n\r\nimport \"./MissileMaker.sol\";\r\nimport \"./UfoInvasion.sol\";\r\nimport \"./WorldLeader.sol\";\r\nimport \"./LeaderStore.sol\";\r\nimport \"@openzeppelin/contracts/access/Ownable.sol\";\r\n\r\n///////////////////////////////////////////////////////////////////////////////////////////////////////////////////////\r\n// main client interface for the project\r\n///////////////////////////////////////////////////////////////////////////////////////////////////////////////////////\r\ncontract MoreMissilesPlz is Ownable {\r\n    MissileMaker internal _missileMaker;\r\n    LeaderStore internal _leaderStore;\r\n    UfoInvasion internal _ufoInvasion;\r\n\r\n    event MissileCreated(address owner, uint[] leaderNftIds, uint missileNftId, uint damage);\r\n\r\n    constructor(\r\n        LeaderStore leaderStore,\r\n        MissileMaker missileMaker,\r\n        UfoInvasion ufoInvasion\r\n    ) {\r\n        _leaderStore = leaderStore;\r\n        _missileMaker = missileMaker;\r\n        _ufoInvasion = ufoInvasion;\r\n    }\r\n\r\n    function getWorldLeaderMintContract(string memory leaderName) public view returns (address) {\r\n        return _leaderStore.getLeaderContractAddressByName(leaderName);\r\n    }\r\n\r\n    function canUserRollAnyMissiles() public view returns (bool) {\r\n        WorldLeader[] memory leaders = _leaderStore.getLeaders();\r\n        for (uint i = 0; i < leaders.length; i++) {\r\n            if (leaders[i].numMissilesReadyToRoll(msg.sender) > 0) {\r\n                return true;\r\n            }\r\n        }\r\n        return false;\r\n    }\r\n\r\n    function numMissilesReadyToRoll() public view returns (uint) {\r\n        WorldLeader[] memory leaders = _leaderStore.getLeaders();\r\n        uint numReady = 0;\r\n        for (uint i = 0; i < leaders.length; i++) {\r\n            numReady += leaders[i].numMissilesReadyToRoll(msg.sender);\r\n        }\r\n        return numReady;\r\n    }\r\n\r\n    // method for users to call when they want to roll for a chance at getting a missile\r\n    //\r\n    function maybeGetMissiles(uint randVal) public {\r\n        WorldLeader[] memory leaders = _leaderStore.getLeaders();\r\n        for (uint i = 0; i < leaders.length; i++) {\r\n            if (leaders[i].doesUserOwnAnyOfThisWorldLeader(msg.sender)) {\r\n                WorldLeader.MissileOdds memory missileOdds = leaders[i].maybeGetMissiles(msg.sender, randVal, _missileMaker.missileChancePerc());\r\n                _missileMaker.createMissiles(msg.sender, randVal, missileOdds.leaderNftIds, missileOdds.numMissilesToMint);\r\n            }\r\n        }\r\n    }\r\n\r\n    // for adding a new world leader NFT collection to the game. for e.g., if you wanted to add a \"Putin\"\r\n    //  collection later on you'd use this\r\n    //\r\n    function addLeaderContract(address contractAddress) public onlyOwner {\r\n        _leaderStore.addLeaderContract(contractAddress);\r\n    }\r\n\r\n    // starts a new ufo invasion game match\r\n    //\r\n    function startNewUfoInvasionGame(uint randVal) public onlyOwner {\r\n        _ufoInvasion.startNewUfoInvasionGame(randVal);\r\n    }\r\n\r\n    // the method for a user using their missile to attack a UFO\r\n    function attackUFO(uint[] memory missileIds, uint ufoId) public {\r\n        for (uint i = 0; i < missileIds.length; i++) {\r\n//            require(_missileMaker.ownerOf(missileIds[i]) == msg.sender, \"you can't do that\");\r\n//            require(!_missileMaker.isMissileConsumed(missileIds[i]), \"this cannot be used again\");\r\n//            require(!_ufoInvasion.isUfoDestroyed(ufoId), \"this cannot be attacked anymore\");\r\n            bool ufoTargetDead = _ufoInvasion.attackUFO(msg.sender, missileIds[i], ufoId);\r\n            _missileMaker.burnMissile(missileIds[i]);\r\n            if (ufoTargetDead) {\r\n                break;\r\n            }\r\n        }\r\n    }\r\n\r\n    function getUfoInvasionAddress() public view returns (address) {\r\n        return address(_ufoInvasion);\r\n    }\r\n\r\n    function withdraw() public onlyOwner {\r\n        WorldLeader[] memory leaders = _leaderStore.getLeaders();\r\n        for (uint i = 0; i < leaders.length; i++) {\r\n            leaders[i].withdraw();\r\n        }\r\n    }\r\n\r\n    function getWorldLeaderBalance() public onlyOwner view returns (uint) {\r\n        WorldLeader[] memory leaders = _leaderStore.getLeaders();\r\n        uint totalBalance = 0;\r\n        for (uint i = 0; i < leaders.length; i++) {\r\n            totalBalance += leaders[i].getBalance();\r\n        }\r\n        return totalBalance;\r\n    }\r\n\r\n    function setRecipients(address payable[] memory recipients) public onlyOwner {\r\n        WorldLeader[] memory leaders = _leaderStore.getLeaders();\r\n        for (uint i = 0; i < leaders.length; i++) {\r\n            for (uint j = 0; j < recipients.length; j++) {\r\n                leaders[i].setRecipient(recipients[j]);\r\n            }\r\n        }\r\n    }\r\n\r\n    function isRecipient(address payable recipient) public view onlyOwner returns(bool) {\r\n        WorldLeader[] memory leaders = _leaderStore.getLeaders();\r\n        if (leaders.length == 0) {\r\n            return false;\r\n        }\r\n        bool isRecip = true;\r\n        for (uint i = 0; i < leaders.length; i++) {\r\n            isRecip = leaders[i].isRecipient(recipient);\r\n        }\r\n        return isRecip;\r\n    }\r\n\r\n    function tokensOfOwner(address _owner) public view returns (uint[] memory) {\r\n        WorldLeader[] memory leaders = _leaderStore.getLeaders();\r\n        uint numOwned = 0;\r\n        for (uint i = 0; i < leaders.length; i++) {\r\n            numOwned += leaders[i].tokensOfOwner(_owner).length;\r\n        }\r\n        uint[] memory tokensOwned = new uint[](numOwned);\r\n        for (uint i = 0; i < leaders.length; i++) {\r\n            uint[] memory ownedTokens = leaders[i].tokensOfOwner(_owner);\r\n            for (uint j = 0; j < ownedTokens.length; j++) {\r\n                uint256 idx = ((i % leaders.length) * leaders.length) + j;\r\n                tokensOwned[idx] = ownedTokens[j];\r\n            }\r\n        }\r\n        return tokensOwned;\r\n    }\r\n\r\n    function getGameStartTime() public view returns (uint) {\r\n        return _ufoInvasion.getGameStartTime();\r\n    }\r\n\r\n    function isGameActive() public view returns (bool) {\r\n        return _ufoInvasion.isGameActive();\r\n    }\r\n\r\n    function getUserMissiles(address userAddr) public view returns (uint[] memory) {\r\n        return _missileMaker.getUserMissiles(userAddr);\r\n    }\r\n\r\n    // functions for getting data about the ufo invasion game state\r\n    //\r\n\r\n    function getCurGameNumUFOs() public view returns (uint) {\r\n        return _ufoInvasion.getCurGameNumUFOs();\r\n    }\r\n\r\n    function getUfoAtIdx(uint idx) public view returns (UfoInvasion.UfoState memory) {\r\n        return _ufoInvasion.getUfoAtIdx(idx);\r\n    }\r\n\r\n    function getCurGameNumPlayers() public view returns (uint) {\r\n        return _ufoInvasion.getCurGameNumPlayers();\r\n    }\r\n\r\n    function getCurGamePlayerAtIdx(uint idx) public view returns (UfoInvasion.CurGameScore memory) {\r\n        return _ufoInvasion.getCurGamePlayerAtIdx(idx);\r\n    }\r\n\r\n    function getNumLeaderboardPlayers() public view returns (uint) {\r\n        return _ufoInvasion.getNumLeaderboardPlayers();\r\n    }\r\n\r\n    function getLeaderboardPlayerAtIdx(uint idx) public view returns (UfoInvasion.AllTimeLeaderboard memory) {\r\n        return _ufoInvasion.getLeaderboardPlayerAtIdx(idx);\r\n    }\r\n\r\n    function getTotalNumberOfGames() public view returns (uint) {\r\n        return _ufoInvasion.getTotalNumberOfGames();\r\n    }\r\n\r\n    function getGameStatsByGameIdx(uint idx) public view returns (UfoInvasion.GameStats memory) {\r\n        return _ufoInvasion.getGameStatsByGameIdx(idx);\r\n    }\r\n    event UfoDestroyed(uint ufoId, uint missileId, address locationAddress, address killerAddress);\r\n    event GameOver(uint gameNumber, uint totalUfoHp, uint[] ufoIds, address winner, uint gameLengthinSeconds, uint gameStartTimeinSeconds);\r\n    // event fns\r\n    function emitMissileCreated(address sender, uint[] calldata leaderNftIds, uint missileNftId, uint dmg) external {\r\n        require(msg.sender == address(_missileMaker), \"you can't do that\");\r\n        emit MissileCreated(sender, leaderNftIds, missileNftId, dmg);\r\n    }\r\n\r\n    function emitUfoDestroyed(uint ufoId, uint missileId, address locationAddress, address killerAddress) external {\r\n        require(msg.sender == address(_ufoInvasion), \"you can't do that\");\r\n        emit UfoDestroyed(ufoId, missileId, locationAddress, killerAddress);\r\n    }\r\n\r\n    function emitGameOver(UfoInvasion.GameStats calldata gameStats) external {\r\n        require(msg.sender == address(_ufoInvasion), \"you can't do that\");\r\n        emit GameOver(gameStats.gameNumber, gameStats.totalUfoHp, gameStats.ufoIds, gameStats.winner, gameStats.gameLengthInSeconds, gameStats.gameStartTimeInSeconds);\r\n    }\r\n    // if you need to change contract for the game (make sure you've mapped the data from the existing one first)\r\n    //\r\n    function updateMissileMaker(address newMissileMaker) public onlyOwner {\r\n        _missileMaker = MissileMaker(newMissileMaker);\r\n        _ufoInvasion.updateMissileMaker(newMissileMaker);\r\n        _leaderStore.updateMissileMakerForLeaders(newMissileMaker);\r\n    }\r\n\r\n    function updateUfoInvasion(address newUfoInvasion) public onlyOwner {\r\n        _ufoInvasion = UfoInvasion(newUfoInvasion);\r\n    }\r\n\r\n    function updateLeaderStore(address newWorldLeaderStore) public onlyOwner {\r\n        _leaderStore = LeaderStore(newWorldLeaderStore);\r\n        _missileMaker.updateLeaderStore(newWorldLeaderStore);\r\n        _ufoInvasion.updateLeaderStore(newWorldLeaderStore);\r\n    }\r\n}\r\n\r\n",
  "sourcePath": "C:\\data\\source\\Webstorm Projects\\metis-nfts\\contracts\\MoreMissilesPlz.sol",
  "compiler": {
    "name": "solc",
    "version": "0.8.4+commit.c7e474f2.Emscripten.clang"
  },
  "schemaVersion": "3.4.5",
  "updatedAt": "2022-03-24T06:05:55.569Z",
  "devdoc": {
    "kind": "dev",
    "methods": {
      "owner()": {
        "details": "Returns the address of the current owner."
      },
      "renounceOwnership()": {
        "details": "Leaves the contract without owner. It will not be possible to call `onlyOwner` functions anymore. Can only be called by the current owner. NOTE: Renouncing ownership will leave the contract without an owner, thereby removing any functionality that is only available to the owner."
      },
      "transferOwnership(address)": {
        "details": "Transfers ownership of the contract to a new account (`newOwner`). Can only be called by the current owner."
      }
    },
    "version": 1
  },
  "userdoc": {
    "kind": "user",
    "methods": {},
    "version": 1
  }
}