{
  "contractName": "MoreMissilesPlz",
  "abi": [
    {
      "inputs": [
        {
          "internalType": "contract LeaderStore",
          "name": "leaderStore",
          "type": "address"
        },
        {
          "internalType": "contract MissileMaker",
          "name": "missileMaker",
          "type": "address"
        },
        {
          "internalType": "contract UfoInvasion",
          "name": "ufoInvasion",
          "type": "address"
        }
      ],
      "stateMutability": "nonpayable",
      "type": "constructor"
    },
    {
      "anonymous": false,
      "inputs": [
        {
          "indexed": false,
          "internalType": "uint256",
          "name": "gameNumber",
          "type": "uint256"
        },
        {
          "indexed": false,
          "internalType": "uint256",
          "name": "totalUfoHp",
          "type": "uint256"
        },
        {
          "indexed": false,
          "internalType": "uint256",
          "name": "numUFOs",
          "type": "uint256"
        },
        {
          "indexed": false,
          "internalType": "address",
          "name": "winner",
          "type": "address"
        },
        {
          "indexed": false,
          "internalType": "uint256",
          "name": "gameLengthinSeconds",
          "type": "uint256"
        },
        {
          "indexed": false,
          "internalType": "uint256",
          "name": "gameStartTimeinSeconds",
          "type": "uint256"
        }
      ],
      "name": "GameOver",
      "type": "event"
    },
    {
      "anonymous": false,
      "inputs": [
        {
          "indexed": false,
          "internalType": "address",
          "name": "owner",
          "type": "address"
        },
        {
          "indexed": false,
          "internalType": "uint256[]",
          "name": "leaderNftIds",
          "type": "uint256[]"
        },
        {
          "indexed": false,
          "internalType": "uint256",
          "name": "missileNftId",
          "type": "uint256"
        },
        {
          "indexed": false,
          "internalType": "uint256",
          "name": "damage",
          "type": "uint256"
        }
      ],
      "name": "MissileCreated",
      "type": "event"
    },
    {
      "anonymous": false,
      "inputs": [
        {
          "indexed": true,
          "internalType": "address",
          "name": "previousOwner",
          "type": "address"
        },
        {
          "indexed": true,
          "internalType": "address",
          "name": "newOwner",
          "type": "address"
        }
      ],
      "name": "OwnershipTransferred",
      "type": "event"
    },
    {
      "anonymous": false,
      "inputs": [
        {
          "indexed": false,
          "internalType": "uint256",
          "name": "ufoId",
          "type": "uint256"
        },
        {
          "indexed": false,
          "internalType": "uint256",
          "name": "missileId",
          "type": "uint256"
        },
        {
          "indexed": false,
          "internalType": "address",
          "name": "locationAddress",
          "type": "address"
        },
        {
          "indexed": false,
          "internalType": "address",
          "name": "killerAddress",
          "type": "address"
        }
      ],
      "name": "UfoDestroyed",
      "type": "event"
    },
    {
      "inputs": [],
      "name": "owner",
      "outputs": [
        {
          "internalType": "address",
          "name": "",
          "type": "address"
        }
      ],
      "stateMutability": "view",
      "type": "function"
    },
    {
      "inputs": [],
      "name": "renounceOwnership",
      "outputs": [],
      "stateMutability": "nonpayable",
      "type": "function"
    },
    {
      "inputs": [
        {
          "internalType": "address",
          "name": "newOwner",
          "type": "address"
        }
      ],
      "name": "transferOwnership",
      "outputs": [],
      "stateMutability": "nonpayable",
      "type": "function"
    },
    {
      "inputs": [
        {
          "internalType": "string",
          "name": "leaderName",
          "type": "string"
        }
      ],
      "name": "getWorldLeaderMintContract",
      "outputs": [
        {
          "internalType": "address",
          "name": "",
          "type": "address"
        }
      ],
      "stateMutability": "view",
      "type": "function"
    },
    {
      "inputs": [],
      "name": "canUserRollAnyMissiles",
      "outputs": [
        {
          "internalType": "bool",
          "name": "",
          "type": "bool"
        }
      ],
      "stateMutability": "view",
      "type": "function"
    },
    {
      "inputs": [],
      "name": "numMissilesReadyToRoll",
      "outputs": [
        {
          "internalType": "uint256",
          "name": "",
          "type": "uint256"
        }
      ],
      "stateMutability": "view",
      "type": "function"
    },
    {
      "inputs": [
        {
          "internalType": "uint256",
          "name": "randVal",
          "type": "uint256"
        }
      ],
      "name": "maybeGetMissiles",
      "outputs": [],
      "stateMutability": "nonpayable",
      "type": "function"
    },
    {
      "inputs": [
        {
          "internalType": "address",
          "name": "contractAddress",
          "type": "address"
        }
      ],
      "name": "addLeaderContract",
      "outputs": [],
      "stateMutability": "nonpayable",
      "type": "function"
    },
    {
      "inputs": [
        {
          "internalType": "uint256",
          "name": "randVal",
          "type": "uint256"
        }
      ],
      "name": "startNewUfoInvasionGame",
      "outputs": [],
      "stateMutability": "nonpayable",
      "type": "function"
    },
    {
      "inputs": [
        {
          "internalType": "uint256[]",
          "name": "missileIds",
          "type": "uint256[]"
        },
        {
          "internalType": "uint256",
          "name": "ufoId",
          "type": "uint256"
        }
      ],
      "name": "attackUFO",
      "outputs": [],
      "stateMutability": "nonpayable",
      "type": "function"
    },
    {
      "inputs": [],
      "name": "getUfoInvasionAddress",
      "outputs": [
        {
          "internalType": "address",
          "name": "",
          "type": "address"
        }
      ],
      "stateMutability": "view",
      "type": "function"
    },
    {
      "inputs": [],
      "name": "withdraw",
      "outputs": [],
      "stateMutability": "nonpayable",
      "type": "function"
    },
    {
      "inputs": [],
      "name": "getWorldLeaderBalance",
      "outputs": [
        {
          "internalType": "uint256",
          "name": "",
          "type": "uint256"
        }
      ],
      "stateMutability": "view",
      "type": "function"
    },
    {
      "inputs": [
        {
          "internalType": "address payable[]",
          "name": "recipients",
          "type": "address[]"
        }
      ],
      "name": "setRecipients",
      "outputs": [],
      "stateMutability": "nonpayable",
      "type": "function"
    },
    {
      "inputs": [
        {
          "internalType": "address payable",
          "name": "recipient",
          "type": "address"
        }
      ],
      "name": "isRecipient",
      "outputs": [
        {
          "internalType": "bool",
          "name": "",
          "type": "bool"
        }
      ],
      "stateMutability": "view",
      "type": "function"
    },
    {
      "inputs": [
        {
          "internalType": "address",
          "name": "_owner",
          "type": "address"
        }
      ],
      "name": "tokensOfOwner",
      "outputs": [
        {
          "internalType": "uint256[]",
          "name": "",
          "type": "uint256[]"
        }
      ],
      "stateMutability": "view",
      "type": "function"
    },
    {
      "inputs": [],
      "name": "getGameStartTime",
      "outputs": [
        {
          "internalType": "uint256",
          "name": "",
          "type": "uint256"
        }
      ],
      "stateMutability": "view",
      "type": "function"
    },
    {
      "inputs": [],
      "name": "isGameActive",
      "outputs": [
        {
          "internalType": "bool",
          "name": "",
          "type": "bool"
        }
      ],
      "stateMutability": "view",
      "type": "function"
    },
    {
      "inputs": [
        {
          "internalType": "address",
          "name": "userAddr",
          "type": "address"
        }
      ],
      "name": "getUserMissiles",
      "outputs": [
        {
          "internalType": "uint256[]",
          "name": "",
          "type": "uint256[]"
        }
      ],
      "stateMutability": "view",
      "type": "function"
    },
    {
      "inputs": [],
      "name": "getCurGameNumUFOs",
      "outputs": [
        {
          "internalType": "uint256",
          "name": "",
          "type": "uint256"
        }
      ],
      "stateMutability": "view",
      "type": "function"
    },
    {
      "inputs": [
        {
          "internalType": "uint256",
          "name": "idx",
          "type": "uint256"
        }
      ],
      "name": "getUfoAtIdx",
      "outputs": [
        {
          "components": [
            {
              "internalType": "address",
              "name": "locationAddress",
              "type": "address"
            },
            {
              "internalType": "uint256",
              "name": "ufoId",
              "type": "uint256"
            },
            {
              "internalType": "uint256",
              "name": "curHp",
              "type": "uint256"
            },
            {
              "internalType": "uint256",
              "name": "startingHp",
              "type": "uint256"
            }
          ],
          "internalType": "struct UfoInvasion.UfoState",
          "name": "",
          "type": "tuple"
        }
      ],
      "stateMutability": "view",
      "type": "function"
    },
    {
      "inputs": [],
      "name": "getCurGameNumPlayers",
      "outputs": [
        {
          "internalType": "uint256",
          "name": "",
          "type": "uint256"
        }
      ],
      "stateMutability": "view",
      "type": "function"
    },
    {
      "inputs": [
        {
          "internalType": "uint256",
          "name": "idx",
          "type": "uint256"
        }
      ],
      "name": "getCurGamePlayerAtIdx",
      "outputs": [
        {
          "components": [
            {
              "internalType": "address",
              "name": "playerAddress",
              "type": "address"
            },
            {
              "internalType": "uint256",
              "name": "score",
              "type": "uint256"
            },
            {
              "internalType": "uint256",
              "name": "nukesUsed",
              "type": "uint256"
            },
            {
              "internalType": "bool",
              "name": "active",
              "type": "bool"
            }
          ],
          "internalType": "struct UfoInvasion.CurGameScore",
          "name": "",
          "type": "tuple"
        }
      ],
      "stateMutability": "view",
      "type": "function"
    },
    {
      "inputs": [],
      "name": "getNumLeaderboardPlayers",
      "outputs": [
        {
          "internalType": "uint256",
          "name": "",
          "type": "uint256"
        }
      ],
      "stateMutability": "view",
      "type": "function"
    },
    {
      "inputs": [
        {
          "internalType": "uint256",
          "name": "idx",
          "type": "uint256"
        }
      ],
      "name": "getLeaderboardPlayerAtIdx",
      "outputs": [
        {
          "components": [
            {
              "internalType": "address",
              "name": "playerAddress",
              "type": "address"
            },
            {
              "internalType": "uint256",
              "name": "score",
              "type": "uint256"
            },
            {
              "internalType": "uint256",
              "name": "wins",
              "type": "uint256"
            },
            {
              "internalType": "uint256",
              "name": "nukesUsed",
              "type": "uint256"
            },
            {
              "internalType": "bool",
              "name": "exists",
              "type": "bool"
            }
          ],
          "internalType": "struct UfoInvasion.AllTimeLeaderboard",
          "name": "",
          "type": "tuple"
        }
      ],
      "stateMutability": "view",
      "type": "function"
    },
    {
      "inputs": [],
      "name": "getTotalNumberOfGames",
      "outputs": [
        {
          "internalType": "uint256",
          "name": "",
          "type": "uint256"
        }
      ],
      "stateMutability": "view",
      "type": "function"
    },
    {
      "inputs": [
        {
          "internalType": "uint256",
          "name": "idx",
          "type": "uint256"
        }
      ],
      "name": "getGameStatsByGameIdx",
      "outputs": [
        {
          "components": [
            {
              "internalType": "uint256",
              "name": "gameNumber",
              "type": "uint256"
            },
            {
              "internalType": "uint256",
              "name": "totalUfoHp",
              "type": "uint256"
            },
            {
              "internalType": "uint256",
              "name": "numUFOs",
              "type": "uint256"
            },
            {
              "internalType": "address",
              "name": "winner",
              "type": "address"
            },
            {
              "internalType": "uint256",
              "name": "gameLengthInSeconds",
              "type": "uint256"
            },
            {
              "internalType": "uint256",
              "name": "gameStartTimeInSeconds",
              "type": "uint256"
            }
          ],
          "internalType": "struct UfoInvasion.GameStats",
          "name": "",
          "type": "tuple"
        }
      ],
      "stateMutability": "view",
      "type": "function"
    },
    {
      "inputs": [
        {
          "internalType": "address",
          "name": "sender",
          "type": "address"
        },
        {
          "internalType": "uint256[]",
          "name": "leaderNftIds",
          "type": "uint256[]"
        },
        {
          "internalType": "uint256",
          "name": "missileNftId",
          "type": "uint256"
        },
        {
          "internalType": "uint256",
          "name": "dmg",
          "type": "uint256"
        }
      ],
      "name": "emitMissileCreated",
      "outputs": [],
      "stateMutability": "nonpayable",
      "type": "function"
    },
    {
      "inputs": [
        {
          "internalType": "uint256",
          "name": "ufoId",
          "type": "uint256"
        },
        {
          "internalType": "uint256",
          "name": "missileId",
          "type": "uint256"
        },
        {
          "internalType": "address",
          "name": "locationAddress",
          "type": "address"
        },
        {
          "internalType": "address",
          "name": "killerAddress",
          "type": "address"
        }
      ],
      "name": "emitUfoDestroyed",
      "outputs": [],
      "stateMutability": "nonpayable",
      "type": "function"
    },
    {
      "inputs": [
        {
          "components": [
            {
              "internalType": "uint256",
              "name": "gameNumber",
              "type": "uint256"
            },
            {
              "internalType": "uint256",
              "name": "totalUfoHp",
              "type": "uint256"
            },
            {
              "internalType": "uint256",
              "name": "numUFOs",
              "type": "uint256"
            },
            {
              "internalType": "address",
              "name": "winner",
              "type": "address"
            },
            {
              "internalType": "uint256",
              "name": "gameLengthInSeconds",
              "type": "uint256"
            },
            {
              "internalType": "uint256",
              "name": "gameStartTimeInSeconds",
              "type": "uint256"
            }
          ],
          "internalType": "struct UfoInvasion.GameStats",
          "name": "gameStats",
          "type": "tuple"
        }
      ],
      "name": "emitGameOver",
      "outputs": [],
      "stateMutability": "nonpayable",
      "type": "function"
    },
    {
      "inputs": [
        {
          "internalType": "address",
          "name": "newMissileMaker",
          "type": "address"
        }
      ],
      "name": "updateMissileMaker",
      "outputs": [],
      "stateMutability": "nonpayable",
      "type": "function"
    },
    {
      "inputs": [
        {
          "internalType": "address",
          "name": "newUfoInvasion",
          "type": "address"
        }
      ],
      "name": "updateUfoInvasion",
      "outputs": [],
      "stateMutability": "nonpayable",
      "type": "function"
    },
    {
      "inputs": [
        {
          "internalType": "address",
          "name": "newWorldLeaderStore",
          "type": "address"
        }
      ],
      "name": "updateLeaderStore",
      "outputs": [],
      "stateMutability": "nonpayable",
      "type": "function"
    }
  ],
  "bytecode": "0x60806040523480156200001157600080fd5b5060405162002c1138038062002c118339810160408190526200003491620000d2565b6200003f3362000082565b600280546001600160a01b039485166001600160a01b0319918216179091556001805493851693821693909317909255600380549190931691161790556200013e565b600080546001600160a01b038381166001600160a01b0319831681178455604051919092169283917f8be0079c531659141344cd1fd0a4f28419497f9722a3daafe3b4186f6b6457e09190a35050565b600080600060608486031215620000e7578283fd5b8351620000f48162000125565b6020850151909350620001078162000125565b60408501519092506200011a8162000125565b809150509250925092565b6001600160a01b03811681146200013b57600080fd5b50565b612ac3806200014e6000396000f3fe608060405234801561001057600080fd5b50600436106101bb5760003560e01c80638462151c116100fa578063b2e02d671161009d578063b2e02d6714610433578063b3b072061461043b578063b698a94d1461044e578063c263d7d014610461578063d286b96814610469578063d53794ef14610471578063de35173e146104cc578063f2fde38b146104d4578063f98a8e6a146104e757600080fd5b80638462151c146103bc578063884495e0146103cf5780638b397ba0146103e25780638c5143ea146103f55780638da5cb5b1461040857806395f82efd14610410578063b082e4e214610423578063b17b02a21461042b57600080fd5b806349699c731161016257806349699c73146102ef5780634b50c9f0146103405780634e7602d31461034857806359426d081461035b5780636a50b2291461036e5780636f56891e14610381578063715018a6146103945780637f7602f81461039c57600080fd5b80630c0ef2b0146101c057806311c6a020146101dd57806317fe58b4146101f75780631a71c68b1461020c57806320f97a3e1461026f5780632858faad14610285578063319ec841146102d45780633ccfd60b146102e7575b600080fd5b6101c86104fa565b60405190151581526020015b60405180910390f35b6003546001600160a01b03165b6040516101d491906127d7565b61020a610205366004612174565b61057b565b005b61021f61021a366004612724565b6105d5565b6040516101d491908151815260208083015190820152604080830151908201526060808301516001600160a01b0316908201526080808301519082015260a0918201519181019190915260c00190565b610277610699565b6040519081526020016101d4565b610298610293366004612724565b610716565b6040516101d4919081516001600160a01b0316815260208083015190820152604080830151908201526060918201519181019190915260800190565b61020a6102e2366004612174565b6107c6565b61020a61085a565b6103026102fd366004612724565b6109a8565b6040516101d4919081516001600160a01b03168152602080830151908201526040808301519082015260609182015115159181019190915260800190565b610277610a44565b61020a610356366004612244565b610a89565b61020a610369366004612174565b610c29565b61020a61037c366004612754565b610d01565b61020a61038f366004612174565b610d81565b61020a610e59565b6103af6103aa366004612174565b610e94565b6040516101d49190612899565b6103af6103ca366004612174565b610f19565b61020a6103dd366004612724565b61123f565b61020a6103f03660046121b3565b61152c565b6101c8610403366004612174565b61159c565b6101ea611731565b6101ea61041e36600461245a565b611740565b6101c86117c1565b61027761192b565b610277611a8f565b61020a6104493660046125b5565b611ad4565b61020a61045c3660046123a8565b611b7e565b610277611cec565b610277611d31565b61048461047f366004612724565b611d76565b6040516101d4919081516001600160a01b0316815260208083015190820152604080830151908201526060808301519082015260809182015115159181019190915260a00190565b610277611e2f565b61020a6104e2366004612174565b611fa5565b61020a6104f5366004612724565b612045565b6003546040805162c0ef2b60e41b815290516000926001600160a01b031691630c0ef2b0916004808301926020929190829003018186803b15801561053e57600080fd5b505afa158015610552573d6000803e3d6000fd5b505050506040513d601f19601f820116820180604052508101906105769190612440565b905090565b33610584611731565b6001600160a01b0316146105b35760405162461bcd60e51b81526004016105aa9061292a565b60405180910390fd5b600380546001600160a01b0319166001600160a01b0392909216919091179055565b6106176040518060c0016040528060008152602001600081526020016000815260200160006001600160a01b0316815260200160008152602001600081525090565b600354604051631a71c68b60e01b8152600481018490526001600160a01b0390911690631a71c68b9060240160c06040518083038186803b15801561065b57600080fd5b505afa15801561066f573d6000803e3d6000fd5b505050506040513d601f19601f8201168201806040525081019061069391906125cc565b92915050565b6003546040805163107cbd1f60e11b815290516000926001600160a01b0316916320f97a3e916004808301926020929190829003018186803b1580156106de57600080fd5b505afa1580156106f2573d6000803e3d6000fd5b505050506040513d601f19601f82011682018060405250810190610576919061273c565b61074a604051806080016040528060006001600160a01b031681526020016000815260200160008152602001600081525090565b600354604051632858faad60e01b8152600481018490526001600160a01b0390911690632858faad9060240160806040518083038186803b15801561078e57600080fd5b505afa1580156107a2573d6000803e3d6000fd5b505050506040513d601f19601f8201168201806040525081019061069391906126d4565b336107cf611731565b6001600160a01b0316146107f55760405162461bcd60e51b81526004016105aa9061292a565b60025460405163319ec84160e01b81526001600160a01b039091169063319ec841906108259084906004016127d7565b600060405180830381600087803b15801561083f57600080fd5b505af1158015610853573d6000803e3d6000fd5b5050505050565b33610863611731565b6001600160a01b0316146108895760405162461bcd60e51b81526004016105aa9061292a565b6002546040805163e8abdb6560e01b815290516000926001600160a01b03169163e8abdb659160048083019286929190829003018186803b1580156108cd57600080fd5b505afa1580156108e1573d6000803e3d6000fd5b505050506040513d6000823e601f3d908101601f1916820160405261090991908101906122df565b905060005b81518110156109a45781818151811061093757634e487b7160e01b600052603260045260246000fd5b60200260200101516001600160a01b0316633ccfd60b6040518163ffffffff1660e01b8152600401600060405180830381600087803b15801561097957600080fd5b505af115801561098d573d6000803e3d6000fd5b50505050808061099c90612a11565b91505061090e565b5050565b60408051608081018252600080825260208201819052818301819052606082015260035491516349699c7360e01b81526004810184905290916001600160a01b0316906349699c739060240160806040518083038186803b158015610a0c57600080fd5b505afa158015610a20573d6000803e3d6000fd5b505050506040513d601f19601f820116820180604052508101906106939190612561565b600354604080516304b50c9f60e41b815290516000926001600160a01b031691634b50c9f0916004808301926020929190829003018186803b1580156106de57600080fd5b33610a92611731565b6001600160a01b031614610ab85760405162461bcd60e51b81526004016105aa9061292a565b6002546040805163e8abdb6560e01b815290516000926001600160a01b03169163e8abdb659160048083019286929190829003018186803b158015610afc57600080fd5b505afa158015610b10573d6000803e3d6000fd5b505050506040513d6000823e601f3d908101601f19168201604052610b3891908101906122df565b905060005b8151811015610c245760005b8351811015610c1157828281518110610b7257634e487b7160e01b600052603260045260246000fd5b60200260200101516001600160a01b0316633bbed4a0858381518110610ba857634e487b7160e01b600052603260045260246000fd5b60200260200101516040518263ffffffff1660e01b8152600401610bcc91906127d7565b600060405180830381600087803b158015610be657600080fd5b505af1158015610bfa573d6000803e3d6000fd5b505050508080610c0990612a11565b915050610b49565b5080610c1c81612a11565b915050610b3d565b505050565b33610c32611731565b6001600160a01b031614610c585760405162461bcd60e51b81526004016105aa9061292a565b600280546001600160a01b0319166001600160a01b0383811691909117909155600154604051630b284da160e31b81529116906359426d0890610c9f9084906004016127d7565b600060405180830381600087803b158015610cb957600080fd5b505af1158015610ccd573d6000803e3d6000fd5b5050600354604051630b284da160e31b81526001600160a01b0390911692506359426d0891506108259084906004016127d7565b6003546001600160a01b03163314610d2b5760405162461bcd60e51b81526004016105aa906128ff565b60408051858152602081018590526001600160a01b03848116828401528316606082015290517f8eb5b0a3ce4d91bdbe4e28d77335a119e988b4b373477ef2250be1c6ce7dea239181900360800190a150505050565b33610d8a611731565b6001600160a01b031614610db05760405162461bcd60e51b81526004016105aa9061292a565b600180546001600160a01b0319166001600160a01b03838116919091179091556003546040516337ab448f60e11b8152911690636f56891e90610df79084906004016127d7565b600060405180830381600087803b158015610e1157600080fd5b505af1158015610e25573d6000803e3d6000fd5b505060025460405163259cb82b60e01b81526001600160a01b03909116925063259cb82b91506108259084906004016127d7565b33610e62611731565b6001600160a01b031614610e885760405162461bcd60e51b81526004016105aa9061292a565b610e9260006120a5565b565b600154604051630feec05f60e31b81526060916001600160a01b031690637f7602f890610ec59085906004016127d7565b60006040518083038186803b158015610edd57600080fd5b505afa158015610ef1573d6000803e3d6000fd5b505050506040513d6000823e601f3d908101601f19168201604052610693919081019061236e565b60606000600260009054906101000a90046001600160a01b03166001600160a01b031663e8abdb656040518163ffffffff1660e01b815260040160006040518083038186803b158015610f6b57600080fd5b505afa158015610f7f573d6000803e3d6000fd5b505050506040513d6000823e601f3d908101601f19168201604052610fa791908101906122df565b90506000805b825181101561107c57828181518110610fd657634e487b7160e01b600052603260045260246000fd5b60200260200101516001600160a01b0316638462151c866040518263ffffffff1660e01b815260040161100991906127d7565b60006040518083038186803b15801561102157600080fd5b505afa158015611035573d6000803e3d6000fd5b505050506040513d6000823e601f3d908101601f1916820160405261105d919081019061236e565b5161106890836129da565b91508061107481612a11565b915050610fad565b506000816001600160401b038111156110a557634e487b7160e01b600052604160045260246000fd5b6040519080825280602002602001820160405280156110ce578160200160208202803683370190505b50905060005b83518110156112365760008482815181106110ff57634e487b7160e01b600052603260045260246000fd5b60200260200101516001600160a01b0316638462151c886040518263ffffffff1660e01b815260040161113291906127d7565b60006040518083038186803b15801561114a57600080fd5b505afa15801561115e573d6000803e3d6000fd5b505050506040513d6000823e601f3d908101601f19168201604052611186919081019061236e565b905060005b815181101561122157855160009082906111a58187612a2c565b6111af91906129f2565b6111b991906129da565b90508282815181106111db57634e487b7160e01b600052603260045260246000fd5b602002602001015185828151811061120357634e487b7160e01b600052603260045260246000fd5b6020908102919091010152508061121981612a11565b91505061118b565b5050808061122e90612a11565b9150506110d4565b50949350505050565b6002546040805163e8abdb6560e01b815290516000926001600160a01b03169163e8abdb659160048083019286929190829003018186803b15801561128357600080fd5b505afa158015611297573d6000803e3d6000fd5b505050506040513d6000823e601f3d908101601f191682016040526112bf91908101906122df565b905060005b8151811015610c24578181815181106112ed57634e487b7160e01b600052603260045260246000fd5b60200260200101516001600160a01b0316634d7e3321336040518263ffffffff1660e01b815260040161132091906127d7565b60206040518083038186803b15801561133857600080fd5b505afa15801561134c573d6000803e3d6000fd5b505050506040513d601f19601f820116820180604052508101906113709190612440565b1561151a57600082828151811061139757634e487b7160e01b600052603260045260246000fd5b60200260200101516001600160a01b0316633d131a6b3386600160009054906101000a90046001600160a01b03166001600160a01b0316636828f0c86040518163ffffffff1660e01b815260040160206040518083038186803b1580156113fd57600080fd5b505afa158015611411573d6000803e3d6000fd5b505050506040513d601f19601f82011682018060405250810190611435919061273c565b6040518463ffffffff1660e01b815260040161145393929190612878565b600060405180830381600087803b15801561146d57600080fd5b505af1158015611481573d6000803e3d6000fd5b505050506040513d6000823e601f3d908101601f191682016040526114a9919081019061264c565b60015460208201518251604051635313130960e11b81529394506001600160a01b039092169263a6262612926114e69233928a9290600401612840565b600060405180830381600087803b15801561150057600080fd5b505af1158015611514573d6000803e3d6000fd5b50505050505b8061152481612a11565b9150506112c4565b6001546001600160a01b031633146115565760405162461bcd60e51b81526004016105aa906128ff565b7f22a3359fa093c907c6ff91d15ae76cc6c5e30a739b56f522450ef9c103d9d65f858585858560405161158d9594939291906127eb565b60405180910390a15050505050565b6000336115a7611731565b6001600160a01b0316146115cd5760405162461bcd60e51b81526004016105aa9061292a565b6002546040805163e8abdb6560e01b815290516000926001600160a01b03169163e8abdb659160048083019286929190829003018186803b15801561161157600080fd5b505afa158015611625573d6000803e3d6000fd5b505050506040513d6000823e601f3d908101601f1916820160405261164d91908101906122df565b90508051600014156116625750600092915050565b600160005b82518110156117275782818151811061169057634e487b7160e01b600052603260045260246000fd5b60200260200101516001600160a01b0316638c5143ea866040518263ffffffff1660e01b81526004016116c391906127d7565b60206040518083038186803b1580156116db57600080fd5b505afa1580156116ef573d6000803e3d6000fd5b505050506040513d601f19601f820116820180604052508101906117139190612440565b91508061171f81612a11565b915050611667565b509150505b919050565b6000546001600160a01b031690565b6002546040516310365c4f60e11b81526000916001600160a01b03169063206cb89e906117719085906004016128ac565b60206040518083038186803b15801561178957600080fd5b505afa15801561179d573d6000803e3d6000fd5b505050506040513d601f19601f820116820180604052508101906106939190612197565b600080600260009054906101000a90046001600160a01b03166001600160a01b031663e8abdb656040518163ffffffff1660e01b815260040160006040518083038186803b15801561181257600080fd5b505afa158015611826573d6000803e3d6000fd5b505050506040513d6000823e601f3d908101601f1916820160405261184e91908101906122df565b905060005b815181101561192257600082828151811061187e57634e487b7160e01b600052603260045260246000fd5b60200260200101516001600160a01b0316638f90b2f0336040518263ffffffff1660e01b81526004016118b191906127d7565b60206040518083038186803b1580156118c957600080fd5b505afa1580156118dd573d6000803e3d6000fd5b505050506040513d601f19601f82011682018060405250810190611901919061273c565b11156119105760019250505090565b8061191a81612a11565b915050611853565b50600091505090565b600080600260009054906101000a90046001600160a01b03166001600160a01b031663e8abdb656040518163ffffffff1660e01b815260040160006040518083038186803b15801561197c57600080fd5b505afa158015611990573d6000803e3d6000fd5b505050506040513d6000823e601f3d908101601f191682016040526119b891908101906122df565b90506000805b8251811015611a88578281815181106119e757634e487b7160e01b600052603260045260246000fd5b60200260200101516001600160a01b0316638f90b2f0336040518263ffffffff1660e01b8152600401611a1a91906127d7565b60206040518083038186803b158015611a3257600080fd5b505afa158015611a46573d6000803e3d6000fd5b505050506040513d601f19601f82011682018060405250810190611a6a919061273c565b611a7490836129da565b915080611a8081612a11565b9150506119be565b5092915050565b6003546040805163b2e02d6760e01b815290516000926001600160a01b03169163b2e02d67916004808301926020929190829003018186803b1580156106de57600080fd5b6003546001600160a01b03163314611afe5760405162461bcd60e51b81526004016105aa906128ff565b7f4f56a203dd7dce199d577d3665134437e86c09a484d99e5a8a2cdaf085204791813560208301356040840135611b3b6080860160608701612174565b604080519485526020850193909352918301526001600160a01b031660608201526080808401359082015260a0808401359082015260c00160405180910390a150565b60005b8251811015610c245760035483516000916001600160a01b031690631ed31554903390879086908110611bc457634e487b7160e01b600052603260045260246000fd5b6020026020010151866040518463ffffffff1660e01b8152600401611beb93929190612878565b602060405180830381600087803b158015611c0557600080fd5b505af1158015611c19573d6000803e3d6000fd5b505050506040513d601f19601f82011682018060405250810190611c3d9190612440565b60015485519192506001600160a01b03169063604ce99690869085908110611c7557634e487b7160e01b600052603260045260246000fd5b60200260200101516040518263ffffffff1660e01b8152600401611c9b91815260200190565b600060405180830381600087803b158015611cb557600080fd5b505af1158015611cc9573d6000803e3d6000fd5b505050508015611cd95750505050565b5080611ce481612a11565b915050611b81565b60035460408051630c263d7d60e41b815290516000926001600160a01b03169163c263d7d0916004808301926020929190829003018186803b1580156106de57600080fd5b60035460408051631a50d72d60e31b815290516000926001600160a01b03169163d286b968916004808301926020929190829003018186803b1580156106de57600080fd5b611db36040518060a0016040528060006001600160a01b031681526020016000815260200160008152602001600081526020016000151581525090565b60035460405163d53794ef60e01b8152600481018490526001600160a01b039091169063d53794ef9060240160a06040518083038186803b158015611df757600080fd5b505afa158015611e0b573d6000803e3d6000fd5b505050506040513d601f19601f8201168201806040525081019061069391906124e6565b600033611e3a611731565b6001600160a01b031614611e605760405162461bcd60e51b81526004016105aa9061292a565b6002546040805163e8abdb6560e01b815290516000926001600160a01b03169163e8abdb659160048083019286929190829003018186803b158015611ea457600080fd5b505afa158015611eb8573d6000803e3d6000fd5b505050506040513d6000823e601f3d908101601f19168201604052611ee091908101906122df565b90506000805b8251811015611a8857828181518110611f0f57634e487b7160e01b600052603260045260246000fd5b60200260200101516001600160a01b03166312065fe06040518163ffffffff1660e01b815260040160206040518083038186803b158015611f4f57600080fd5b505afa158015611f63573d6000803e3d6000fd5b505050506040513d601f19601f82011682018060405250810190611f87919061273c565b611f9190836129da565b915080611f9d81612a11565b915050611ee6565b33611fae611731565b6001600160a01b031614611fd45760405162461bcd60e51b81526004016105aa9061292a565b6001600160a01b0381166120395760405162461bcd60e51b815260206004820152602660248201527f4f776e61626c653a206e6577206f776e657220697320746865207a65726f206160448201526564647265737360d01b60648201526084016105aa565b612042816120a5565b50565b3361204e611731565b6001600160a01b0316146120745760405162461bcd60e51b81526004016105aa9061292a565b600354604051637cc5473560e11b8152600481018390526001600160a01b039091169063f98a8e6a90602401610825565b600080546001600160a01b038381166001600160a01b0319831681178455604051919092169283917f8be0079c531659141344cd1fd0a4f28419497f9722a3daafe3b4186f6b6457e09190a35050565b600082601f830112612105578081fd5b8151602061211a612115836129b7565b612987565b80838252828201915082860187848660051b8901011115612139578586fd5b855b858110156121575781518452928401929084019060010161213b565b5090979650505050505050565b8051801515811461172c57600080fd5b600060208284031215612185578081fd5b813561219081612a78565b9392505050565b6000602082840312156121a8578081fd5b815161219081612a78565b6000806000806000608086880312156121ca578081fd5b85356121d581612a78565b945060208601356001600160401b03808211156121f0578283fd5b818801915088601f830112612203578283fd5b813581811115612211578384fd5b8960208260051b8501011115612225578384fd5b9699602092909201985095966040810135965060600135945092505050565b60006020808385031215612256578182fd5b82356001600160401b0381111561226b578283fd5b8301601f8101851361227b578283fd5b8035612289612115826129b7565b80828252848201915084840188868560051b87010111156122a8578687fd5b8694505b838510156122d35780356122bf81612a78565b8352600194909401939185019185016122ac565b50979650505050505050565b600060208083850312156122f1578182fd5b82516001600160401b03811115612306578283fd5b8301601f81018513612316578283fd5b8051612324612115826129b7565b80828252848201915084840188868560051b8701011115612343578687fd5b8694505b838510156122d357805161235a81612a78565b835260019490940193918501918501612347565b60006020828403121561237f578081fd5b81516001600160401b03811115612394578182fd5b6123a0848285016120f5565b949350505050565b600080604083850312156123ba578182fd5b82356001600160401b038111156123cf578283fd5b8301601f810185136123df578283fd5b803560206123ef612115836129b7565b80838252828201915082850189848660051b880101111561240e578788fd5b8795505b84861015612430578035835260019590950194918301918301612412565b5098969091013596505050505050565b600060208284031215612451578081fd5b61219082612164565b6000602080838503121561246c578182fd5b82356001600160401b0380821115612482578384fd5b818501915085601f830112612495578384fd5b8135818111156124a7576124a7612a62565b6124b9601f8201601f19168501612987565b915080825286848285010111156124ce578485fd5b80848401858401378101909201929092529392505050565b600060a082840312156124f7578081fd5b60405160a081018181106001600160401b038211171561251957612519612a62565b604052825161252781612a78565b8082525060208301516020820152604083015160408201526060830151606082015261255560808401612164565b60808201529392505050565b600060808284031215612572578081fd5b61257a61295f565b825161258581612a78565b8082525060208301516020820152604083015160408201526125a960608401612164565b60608201529392505050565b600060c082840312156125c6578081fd5b50919050565b600060c082840312156125dd578081fd5b60405160c081018181106001600160401b03821117156125ff576125ff612a62565b8060405250825181526020830151602082015260408301516040820152606083015161262a81612a78565b60608201526080838101519082015260a0928301519281019290925250919050565b60006020828403121561265d578081fd5b81516001600160401b0380821115612673578283fd5b9083019060408286031215612686578283fd5b6040516040810181811083821117156126a1576126a1612a62565b604052825181526020830151828111156126b9578485fd5b6126c5878286016120f5565b60208301525095945050505050565b6000608082840312156126e5578081fd5b6126ed61295f565b82516126f881612a78565b808252506020830151602082015260408301516040820152606083015160608201528091505092915050565b600060208284031215612735578081fd5b5035919050565b60006020828403121561274d578081fd5b5051919050565b60008060008060808587031215612769578182fd5b8435935060208501359250604085013561278281612a78565b9150606085013561279281612a78565b939692955090935050565b6000815180845260208085019450808401835b838110156127cc578151875295820195908201906001016127b0565b509495945050505050565b6001600160a01b0391909116815260200190565b6001600160a01b0386168152608060208201819052810184905260006001600160fb1b0385111561281a578081fd5b8460051b808760a0850137820160a0019081526040820193909352606001529392505050565b60018060a01b0385168152836020820152608060408201526000612867608083018561279d565b905082606083015295945050505050565b6001600160a01b039390931683526020830191909152604082015260600190565b602081526000612190602083018461279d565b6000602080835283518082850152825b818110156128d8578581018301518582016040015282016128bc565b818111156128e95783604083870101525b50601f01601f1916929092016040019392505050565b6020808252601190820152701e5bdd4818d85b89dd08191bc81d1a185d607a1b604082015260600190565b6020808252818101527f4f776e61626c653a2063616c6c6572206973206e6f7420746865206f776e6572604082015260600190565b604051608081016001600160401b038111828210171561298157612981612a62565b60405290565b604051601f8201601f191681016001600160401b03811182821017156129af576129af612a62565b604052919050565b60006001600160401b038211156129d0576129d0612a62565b5060051b60200190565b600082198211156129ed576129ed612a4c565b500190565b6000816000190483118215151615612a0c57612a0c612a4c565b500290565b6000600019821415612a2557612a25612a4c565b5060010190565b600082612a4757634e487b7160e01b81526012600452602481fd5b500690565b634e487b7160e01b600052601160045260246000fd5b634e487b7160e01b600052604160045260246000fd5b6001600160a01b038116811461204257600080fdfea264697066735822122058b7c291e1ddc4c3e52bf178f1e060a6ff9acdc113e7f396a330498e316a2adf64736f6c63430008040033",
  "immutableReferences": {},
  "source": "// SPDX-License-Identifier: MIT\r\npragma solidity ^0.8.4;\r\n\r\nimport \"./MissileMaker.sol\";\r\nimport \"./UfoInvasion.sol\";\r\nimport \"./WorldLeader.sol\";\r\nimport \"./LeaderStore.sol\";\r\nimport \"@openzeppelin/contracts/access/Ownable.sol\";\r\n\r\n///////////////////////////////////////////////////////////////////////////////////////////////////////////////////////\r\n// main client interface for the project\r\n///////////////////////////////////////////////////////////////////////////////////////////////////////////////////////\r\ncontract MoreMissilesPlz is Ownable {\r\n    MissileMaker internal _missileMaker;\r\n    LeaderStore internal _leaderStore;\r\n    UfoInvasion internal _ufoInvasion;\r\n\r\n\r\n    event MissileCreated(address owner, uint[] leaderNftIds, uint missileNftId, uint damage);\r\n\r\n    constructor(\r\n        LeaderStore leaderStore,\r\n        MissileMaker missileMaker,\r\n        UfoInvasion ufoInvasion\r\n    ) {\r\n        _leaderStore = leaderStore;\r\n        _missileMaker = missileMaker;\r\n        _ufoInvasion = ufoInvasion;\r\n    }\r\n\r\n    function getWorldLeaderMintContract(string memory leaderName) public view returns (address) {\r\n        return _leaderStore.getLeaderContractAddressByName(leaderName);\r\n    }\r\n\r\n    function canUserRollAnyMissiles() public view returns (bool) {\r\n        WorldLeader[] memory leaders = _leaderStore.getLeaders();\r\n        for (uint i = 0; i < leaders.length; i++) {\r\n            if (leaders[i].numMissilesReadyToRoll(msg.sender) > 0) {\r\n                return true;\r\n            }\r\n        }\r\n        return false;\r\n    }\r\n\r\n    function numMissilesReadyToRoll() public view returns (uint) {\r\n        WorldLeader[] memory leaders = _leaderStore.getLeaders();\r\n        uint numReady = 0;\r\n        for (uint i = 0; i < leaders.length; i++) {\r\n            numReady += leaders[i].numMissilesReadyToRoll(msg.sender);\r\n        }\r\n        return numReady;\r\n    }\r\n\r\n    // method for users to call when they want to roll for a chance at getting a missile\r\n    //\r\n    function maybeGetMissiles(uint randVal) public {\r\n        WorldLeader[] memory leaders = _leaderStore.getLeaders();\r\n        for (uint i = 0; i < leaders.length; i++) {\r\n            if (leaders[i].doesUserOwnAnyOfThisWorldLeader(msg.sender)) {\r\n                WorldLeader.MissileOdds memory missileOdds = leaders[i].maybeGetMissiles(msg.sender, randVal, _missileMaker.missileChancePerc());\r\n                _missileMaker.createMissiles(msg.sender, randVal, missileOdds.leaderNftIds, missileOdds.numMissilesToMint);\r\n            }\r\n        }\r\n    }\r\n\r\n    // for adding a new world leader NFT collection to the game. for e.g., if you wanted to add a \"Putin\"\r\n    //  collection later on you'd use this\r\n    //\r\n    function addLeaderContract(address contractAddress) public onlyOwner {\r\n        _leaderStore.addLeaderContract(contractAddress);\r\n    }\r\n\r\n    // starts a new ufo invasion game match\r\n    //\r\n    function startNewUfoInvasionGame(uint randVal) public onlyOwner {\r\n        _ufoInvasion.startNewUfoInvasionGame(randVal);\r\n    }\r\n\r\n    // the method for a user using their missile to attack a UFO\r\n    function attackUFO(uint[] memory missileIds, uint ufoId) public {\r\n        for (uint i = 0; i < missileIds.length; i++) {\r\n//            require(_missileMaker.ownerOf(missileIds[i]) == msg.sender, \"you can't do that\");\r\n//            require(!_missileMaker.isMissileConsumed(missileIds[i]), \"this cannot be used again\");\r\n//            require(!_ufoInvasion.isUfoDestroyed(ufoId), \"this cannot be attacked anymore\");\r\n            bool ufoTargetDead = _ufoInvasion.attackUFO(msg.sender, missileIds[i], ufoId);\r\n            _missileMaker.burnMissile(missileIds[i]);\r\n            if (ufoTargetDead) {\r\n                break;\r\n            }\r\n        }\r\n    }\r\n\r\n    function getUfoInvasionAddress() public view returns (address) {\r\n        return address(_ufoInvasion);\r\n    }\r\n\r\n    function withdraw() public onlyOwner {\r\n        WorldLeader[] memory leaders = _leaderStore.getLeaders();\r\n        for (uint i = 0; i < leaders.length; i++) {\r\n            leaders[i].withdraw();\r\n        }\r\n    }\r\n\r\n    function getWorldLeaderBalance() public onlyOwner view returns (uint) {\r\n        WorldLeader[] memory leaders = _leaderStore.getLeaders();\r\n        uint totalBalance = 0;\r\n        for (uint i = 0; i < leaders.length; i++) {\r\n            totalBalance += leaders[i].getBalance();\r\n        }\r\n        return totalBalance;\r\n    }\r\n\r\n    function setRecipients(address payable[] memory recipients) public onlyOwner {\r\n        WorldLeader[] memory leaders = _leaderStore.getLeaders();\r\n        for (uint i = 0; i < leaders.length; i++) {\r\n            for (uint j = 0; j < recipients.length; j++) {\r\n                leaders[i].setRecipient(recipients[j]);\r\n            }\r\n        }\r\n    }\r\n\r\n    function isRecipient(address payable recipient) public view onlyOwner returns(bool) {\r\n        WorldLeader[] memory leaders = _leaderStore.getLeaders();\r\n        if (leaders.length == 0) {\r\n            return false;\r\n        }\r\n        bool isRecip = true;\r\n        for (uint i = 0; i < leaders.length; i++) {\r\n            isRecip = leaders[i].isRecipient(recipient);\r\n        }\r\n        return isRecip;\r\n    }\r\n\r\n    function tokensOfOwner(address _owner) public view returns (uint[] memory) {\r\n        WorldLeader[] memory leaders = _leaderStore.getLeaders();\r\n        uint numOwned = 0;\r\n        for (uint i = 0; i < leaders.length; i++) {\r\n            numOwned += leaders[i].tokensOfOwner(_owner).length;\r\n        }\r\n        uint[] memory tokensOwned = new uint[](numOwned);\r\n        for (uint i = 0; i < leaders.length; i++) {\r\n            uint[] memory ownedTokens = leaders[i].tokensOfOwner(_owner);\r\n            for (uint j = 0; j < ownedTokens.length; j++) {\r\n                uint256 idx = ((i % leaders.length) * leaders.length) + j;\r\n                tokensOwned[idx] = ownedTokens[j];\r\n            }\r\n        }\r\n        return tokensOwned;\r\n    }\r\n\r\n    function getGameStartTime() public view returns (uint) {\r\n        return _ufoInvasion.getGameStartTime();\r\n    }\r\n\r\n    function isGameActive() public view returns (bool) {\r\n        return _ufoInvasion.isGameActive();\r\n    }\r\n\r\n    function getUserMissiles(address userAddr) public view returns (uint[] memory) {\r\n        return _missileMaker.getUserMissiles(userAddr);\r\n    }\r\n\r\n    // functions for getting data about the ufo invasion game state\r\n    //\r\n\r\n    function getCurGameNumUFOs() public view returns (uint) {\r\n        return _ufoInvasion.getCurGameNumUFOs();\r\n    }\r\n\r\n    function getUfoAtIdx(uint idx) public view returns (UfoInvasion.UfoState memory) {\r\n        return _ufoInvasion.getUfoAtIdx(idx);\r\n    }\r\n\r\n    function getCurGameNumPlayers() public view returns (uint) {\r\n        return _ufoInvasion.getCurGameNumPlayers();\r\n    }\r\n\r\n    function getCurGamePlayerAtIdx(uint idx) public view returns (UfoInvasion.CurGameScore memory) {\r\n        return _ufoInvasion.getCurGamePlayerAtIdx(idx);\r\n    }\r\n\r\n    function getNumLeaderboardPlayers() public view returns (uint) {\r\n        return _ufoInvasion.getNumLeaderboardPlayers();\r\n    }\r\n\r\n    function getLeaderboardPlayerAtIdx(uint idx) public view returns (UfoInvasion.AllTimeLeaderboard memory) {\r\n        return _ufoInvasion.getLeaderboardPlayerAtIdx(idx);\r\n    }\r\n\r\n    function getTotalNumberOfGames() public view returns (uint) {\r\n        return _ufoInvasion.getTotalNumberOfGames();\r\n    }\r\n\r\n    function getGameStatsByGameIdx(uint idx) public view returns (UfoInvasion.GameStats memory) {\r\n        return _ufoInvasion.getGameStatsByGameIdx(idx);\r\n    }\r\n    event UfoDestroyed(uint ufoId, uint missileId, address locationAddress, address killerAddress);\r\n    event GameOver(uint gameNumber, uint totalUfoHp, uint numUFOs, address winner, uint gameLengthinSeconds, uint gameStartTimeinSeconds);\r\n    // event fns\r\n    function emitMissileCreated(address sender, uint[] calldata leaderNftIds, uint missileNftId, uint dmg) external {\r\n        require(msg.sender == address(_missileMaker), \"you can't do that\");\r\n        emit MissileCreated(sender, leaderNftIds, missileNftId, dmg);\r\n    }\r\n\r\n    function emitUfoDestroyed(uint ufoId, uint missileId, address locationAddress, address killerAddress) external {\r\n        require(msg.sender == address(_ufoInvasion), \"you can't do that\");\r\n        emit UfoDestroyed(ufoId, missileId, locationAddress, killerAddress);\r\n    }\r\n\r\n    function emitGameOver(UfoInvasion.GameStats calldata gameStats) external {\r\n        require(msg.sender == address(_ufoInvasion), \"you can't do that\");\r\n        emit GameOver(gameStats.gameNumber, gameStats.totalUfoHp, gameStats.numUFOs, gameStats.winner, gameStats.gameLengthInSeconds, gameStats.gameStartTimeInSeconds);\r\n    }\r\n    // if you need to change contract for the game (make sure you've mapped the data from the existing one first)\r\n    //\r\n    function updateMissileMaker(address newMissileMaker) public onlyOwner {\r\n        _missileMaker = MissileMaker(newMissileMaker);\r\n        _ufoInvasion.updateMissileMaker(newMissileMaker);\r\n        _leaderStore.updateMissileMakerForLeaders(newMissileMaker);\r\n    }\r\n\r\n    function updateUfoInvasion(address newUfoInvasion) public onlyOwner {\r\n        _ufoInvasion = UfoInvasion(newUfoInvasion);\r\n    }\r\n\r\n    function updateLeaderStore(address newWorldLeaderStore) public onlyOwner {\r\n        _leaderStore = LeaderStore(newWorldLeaderStore);\r\n        _missileMaker.updateLeaderStore(newWorldLeaderStore);\r\n        _ufoInvasion.updateLeaderStore(newWorldLeaderStore);\r\n    }\r\n}\r\n\r\n",
  "sourcePath": "C:\\data\\source\\Webstorm Projects\\metis-nfts\\contracts\\MoreMissilesPlz.sol",
  "compiler": {
    "name": "solc",
    "version": "0.8.4+commit.c7e474f2.Emscripten.clang"
  },
  "schemaVersion": "3.4.5",
  "updatedAt": "2022-03-24T04:59:48.269Z",
  "devdoc": {
    "kind": "dev",
    "methods": {
      "owner()": {
        "details": "Returns the address of the current owner."
      },
      "renounceOwnership()": {
        "details": "Leaves the contract without owner. It will not be possible to call `onlyOwner` functions anymore. Can only be called by the current owner. NOTE: Renouncing ownership will leave the contract without an owner, thereby removing any functionality that is only available to the owner."
      },
      "transferOwnership(address)": {
        "details": "Transfers ownership of the contract to a new account (`newOwner`). Can only be called by the current owner."
      }
    },
    "version": 1
  },
  "userdoc": {
    "kind": "user",
    "methods": {},
    "version": 1
  }
}