{
  "contractName": "WorldLeader",
  "abi": [
    {
      "inputs": [
        {
          "internalType": "string",
          "name": "name",
          "type": "string"
        },
        {
          "internalType": "address",
          "name": "leaderStoreAddress",
          "type": "address"
        },
        {
          "internalType": "contract MissileMaker",
          "name": "missileMaker",
          "type": "address"
        }
      ],
      "stateMutability": "nonpayable",
      "type": "constructor"
    },
    {
      "anonymous": false,
      "inputs": [
        {
          "indexed": true,
          "internalType": "address",
          "name": "owner",
          "type": "address"
        },
        {
          "indexed": true,
          "internalType": "address",
          "name": "approved",
          "type": "address"
        },
        {
          "indexed": true,
          "internalType": "uint256",
          "name": "tokenId",
          "type": "uint256"
        }
      ],
      "name": "Approval",
      "type": "event"
    },
    {
      "anonymous": false,
      "inputs": [
        {
          "indexed": true,
          "internalType": "address",
          "name": "owner",
          "type": "address"
        },
        {
          "indexed": true,
          "internalType": "address",
          "name": "operator",
          "type": "address"
        },
        {
          "indexed": false,
          "internalType": "bool",
          "name": "approved",
          "type": "bool"
        }
      ],
      "name": "ApprovalForAll",
      "type": "event"
    },
    {
      "anonymous": false,
      "inputs": [
        {
          "indexed": true,
          "internalType": "address",
          "name": "previousOwner",
          "type": "address"
        },
        {
          "indexed": true,
          "internalType": "address",
          "name": "newOwner",
          "type": "address"
        }
      ],
      "name": "OwnershipTransferred",
      "type": "event"
    },
    {
      "anonymous": false,
      "inputs": [
        {
          "indexed": false,
          "internalType": "address payable",
          "name": "recipient",
          "type": "address"
        }
      ],
      "name": "SetRecipient",
      "type": "event"
    },
    {
      "anonymous": false,
      "inputs": [
        {
          "indexed": true,
          "internalType": "address",
          "name": "from",
          "type": "address"
        },
        {
          "indexed": true,
          "internalType": "address",
          "name": "to",
          "type": "address"
        },
        {
          "indexed": true,
          "internalType": "uint256",
          "name": "tokenId",
          "type": "uint256"
        }
      ],
      "name": "Transfer",
      "type": "event"
    },
    {
      "inputs": [],
      "name": "MAX_PER_MINT",
      "outputs": [
        {
          "internalType": "uint256",
          "name": "",
          "type": "uint256"
        }
      ],
      "stateMutability": "view",
      "type": "function"
    },
    {
      "inputs": [],
      "name": "MAX_SUPPLY",
      "outputs": [
        {
          "internalType": "uint256",
          "name": "",
          "type": "uint256"
        }
      ],
      "stateMutability": "view",
      "type": "function"
    },
    {
      "inputs": [],
      "name": "PRICE",
      "outputs": [
        {
          "internalType": "uint256",
          "name": "",
          "type": "uint256"
        }
      ],
      "stateMutability": "view",
      "type": "function"
    },
    {
      "inputs": [
        {
          "internalType": "uint256",
          "name": "_count",
          "type": "uint256"
        }
      ],
      "name": "_mintNFTs",
      "outputs": [],
      "stateMutability": "payable",
      "type": "function"
    },
    {
      "inputs": [
        {
          "internalType": "address",
          "name": "_addr",
          "type": "address"
        }
      ],
      "name": "addressToString",
      "outputs": [
        {
          "internalType": "string",
          "name": "",
          "type": "string"
        }
      ],
      "stateMutability": "pure",
      "type": "function"
    },
    {
      "inputs": [
        {
          "internalType": "address",
          "name": "to",
          "type": "address"
        },
        {
          "internalType": "uint256",
          "name": "tokenId",
          "type": "uint256"
        }
      ],
      "name": "approve",
      "outputs": [],
      "stateMutability": "nonpayable",
      "type": "function"
    },
    {
      "inputs": [
        {
          "internalType": "address",
          "name": "owner",
          "type": "address"
        }
      ],
      "name": "balanceOf",
      "outputs": [
        {
          "internalType": "uint256",
          "name": "",
          "type": "uint256"
        }
      ],
      "stateMutability": "view",
      "type": "function"
    },
    {
      "inputs": [],
      "name": "baseTokenURI",
      "outputs": [
        {
          "internalType": "string",
          "name": "",
          "type": "string"
        }
      ],
      "stateMutability": "view",
      "type": "function"
    },
    {
      "inputs": [
        {
          "internalType": "uint256",
          "name": "nftId",
          "type": "uint256"
        }
      ],
      "name": "exists",
      "outputs": [
        {
          "internalType": "bool",
          "name": "",
          "type": "bool"
        }
      ],
      "stateMutability": "view",
      "type": "function"
    },
    {
      "inputs": [
        {
          "internalType": "uint256",
          "name": "tokenId",
          "type": "uint256"
        }
      ],
      "name": "getApproved",
      "outputs": [
        {
          "internalType": "address",
          "name": "",
          "type": "address"
        }
      ],
      "stateMutability": "view",
      "type": "function"
    },
    {
      "inputs": [
        {
          "internalType": "address",
          "name": "owner",
          "type": "address"
        },
        {
          "internalType": "address",
          "name": "operator",
          "type": "address"
        }
      ],
      "name": "isApprovedForAll",
      "outputs": [
        {
          "internalType": "bool",
          "name": "",
          "type": "bool"
        }
      ],
      "stateMutability": "view",
      "type": "function"
    },
    {
      "inputs": [
        {
          "internalType": "address payable",
          "name": "recipient",
          "type": "address"
        }
      ],
      "name": "isRecipient",
      "outputs": [
        {
          "internalType": "bool",
          "name": "",
          "type": "bool"
        }
      ],
      "stateMutability": "view",
      "type": "function"
    },
    {
      "inputs": [],
      "name": "leaderName",
      "outputs": [
        {
          "internalType": "string",
          "name": "",
          "type": "string"
        }
      ],
      "stateMutability": "view",
      "type": "function"
    },
    {
      "inputs": [],
      "name": "mainContract",
      "outputs": [
        {
          "internalType": "address",
          "name": "",
          "type": "address"
        }
      ],
      "stateMutability": "view",
      "type": "function"
    },
    {
      "inputs": [],
      "name": "name",
      "outputs": [
        {
          "internalType": "string",
          "name": "",
          "type": "string"
        }
      ],
      "stateMutability": "view",
      "type": "function"
    },
    {
      "inputs": [],
      "name": "owner",
      "outputs": [
        {
          "internalType": "address",
          "name": "",
          "type": "address"
        }
      ],
      "stateMutability": "view",
      "type": "function"
    },
    {
      "inputs": [
        {
          "internalType": "uint256",
          "name": "tokenId",
          "type": "uint256"
        }
      ],
      "name": "ownerOf",
      "outputs": [
        {
          "internalType": "address",
          "name": "",
          "type": "address"
        }
      ],
      "stateMutability": "view",
      "type": "function"
    },
    {
      "inputs": [],
      "name": "renounceOwnership",
      "outputs": [],
      "stateMutability": "nonpayable",
      "type": "function"
    },
    {
      "inputs": [],
      "name": "reserveNFTs",
      "outputs": [],
      "stateMutability": "nonpayable",
      "type": "function"
    },
    {
      "inputs": [
        {
          "internalType": "address",
          "name": "from",
          "type": "address"
        },
        {
          "internalType": "address",
          "name": "to",
          "type": "address"
        },
        {
          "internalType": "uint256",
          "name": "tokenId",
          "type": "uint256"
        }
      ],
      "name": "safeTransferFrom",
      "outputs": [],
      "stateMutability": "nonpayable",
      "type": "function"
    },
    {
      "inputs": [
        {
          "internalType": "address",
          "name": "from",
          "type": "address"
        },
        {
          "internalType": "address",
          "name": "to",
          "type": "address"
        },
        {
          "internalType": "uint256",
          "name": "tokenId",
          "type": "uint256"
        },
        {
          "internalType": "bytes",
          "name": "_data",
          "type": "bytes"
        }
      ],
      "name": "safeTransferFrom",
      "outputs": [],
      "stateMutability": "nonpayable",
      "type": "function"
    },
    {
      "inputs": [
        {
          "internalType": "address",
          "name": "operator",
          "type": "address"
        },
        {
          "internalType": "bool",
          "name": "approved",
          "type": "bool"
        }
      ],
      "name": "setApprovalForAll",
      "outputs": [],
      "stateMutability": "nonpayable",
      "type": "function"
    },
    {
      "inputs": [
        {
          "internalType": "string",
          "name": "_baseTokenURI",
          "type": "string"
        }
      ],
      "name": "setBaseURI",
      "outputs": [],
      "stateMutability": "nonpayable",
      "type": "function"
    },
    {
      "inputs": [
        {
          "internalType": "address",
          "name": "to",
          "type": "address"
        }
      ],
      "name": "setMainContract",
      "outputs": [],
      "stateMutability": "nonpayable",
      "type": "function"
    },
    {
      "inputs": [
        {
          "internalType": "address payable",
          "name": "recipient",
          "type": "address"
        }
      ],
      "name": "setRecipient",
      "outputs": [],
      "stateMutability": "nonpayable",
      "type": "function"
    },
    {
      "inputs": [
        {
          "internalType": "bytes4",
          "name": "interfaceId",
          "type": "bytes4"
        }
      ],
      "name": "supportsInterface",
      "outputs": [
        {
          "internalType": "bool",
          "name": "",
          "type": "bool"
        }
      ],
      "stateMutability": "view",
      "type": "function"
    },
    {
      "inputs": [],
      "name": "symbol",
      "outputs": [
        {
          "internalType": "string",
          "name": "",
          "type": "string"
        }
      ],
      "stateMutability": "view",
      "type": "function"
    },
    {
      "inputs": [
        {
          "internalType": "uint256",
          "name": "index",
          "type": "uint256"
        }
      ],
      "name": "tokenByIndex",
      "outputs": [
        {
          "internalType": "uint256",
          "name": "",
          "type": "uint256"
        }
      ],
      "stateMutability": "view",
      "type": "function"
    },
    {
      "inputs": [
        {
          "internalType": "address",
          "name": "owner",
          "type": "address"
        },
        {
          "internalType": "uint256",
          "name": "index",
          "type": "uint256"
        }
      ],
      "name": "tokenOfOwnerByIndex",
      "outputs": [
        {
          "internalType": "uint256",
          "name": "",
          "type": "uint256"
        }
      ],
      "stateMutability": "view",
      "type": "function"
    },
    {
      "inputs": [
        {
          "internalType": "uint256",
          "name": "tokenId",
          "type": "uint256"
        }
      ],
      "name": "tokenURI",
      "outputs": [
        {
          "internalType": "string",
          "name": "",
          "type": "string"
        }
      ],
      "stateMutability": "view",
      "type": "function"
    },
    {
      "inputs": [
        {
          "internalType": "address",
          "name": "_owner",
          "type": "address"
        }
      ],
      "name": "tokensOfOwner",
      "outputs": [
        {
          "internalType": "uint256[]",
          "name": "",
          "type": "uint256[]"
        }
      ],
      "stateMutability": "view",
      "type": "function"
    },
    {
      "inputs": [],
      "name": "totalSupply",
      "outputs": [
        {
          "internalType": "uint256",
          "name": "",
          "type": "uint256"
        }
      ],
      "stateMutability": "view",
      "type": "function"
    },
    {
      "inputs": [
        {
          "internalType": "address",
          "name": "from",
          "type": "address"
        },
        {
          "internalType": "address",
          "name": "to",
          "type": "address"
        },
        {
          "internalType": "uint256",
          "name": "tokenId",
          "type": "uint256"
        }
      ],
      "name": "transferFrom",
      "outputs": [],
      "stateMutability": "nonpayable",
      "type": "function"
    },
    {
      "inputs": [
        {
          "internalType": "address",
          "name": "newOwner",
          "type": "address"
        }
      ],
      "name": "transferOwnership",
      "outputs": [],
      "stateMutability": "nonpayable",
      "type": "function"
    },
    {
      "inputs": [],
      "name": "withdraw",
      "outputs": [],
      "stateMutability": "nonpayable",
      "type": "function"
    },
    {
      "inputs": [
        {
          "internalType": "uint256",
          "name": "amount",
          "type": "uint256"
        }
      ],
      "name": "withdrawAuto",
      "outputs": [],
      "stateMutability": "nonpayable",
      "type": "function"
    },
    {
      "inputs": [
        {
          "internalType": "uint256",
          "name": "count",
          "type": "uint256"
        }
      ],
      "name": "mintNFTs",
      "outputs": [],
      "stateMutability": "payable",
      "type": "function"
    },
    {
      "inputs": [
        {
          "internalType": "address",
          "name": "addr",
          "type": "address"
        }
      ],
      "name": "doesUserOwnAnyOfThisWorldLeader",
      "outputs": [
        {
          "internalType": "bool",
          "name": "",
          "type": "bool"
        }
      ],
      "stateMutability": "view",
      "type": "function"
    },
    {
      "inputs": [
        {
          "internalType": "address",
          "name": "sender",
          "type": "address"
        }
      ],
      "name": "numMissilesReadyToRoll",
      "outputs": [
        {
          "internalType": "uint256",
          "name": "",
          "type": "uint256"
        }
      ],
      "stateMutability": "view",
      "type": "function"
    },
    {
      "inputs": [
        {
          "internalType": "address",
          "name": "sender",
          "type": "address"
        },
        {
          "internalType": "uint256",
          "name": "randVal",
          "type": "uint256"
        },
        {
          "internalType": "uint256",
          "name": "missilePercChance",
          "type": "uint256"
        }
      ],
      "name": "maybeGetMissiles",
      "outputs": [
        {
          "components": [
            {
              "internalType": "uint256",
              "name": "numMissilesToMint",
              "type": "uint256"
            },
            {
              "internalType": "uint256[]",
              "name": "leaderNftIds",
              "type": "uint256[]"
            }
          ],
          "internalType": "struct WorldLeader.MissileOdds",
          "name": "",
          "type": "tuple"
        }
      ],
      "stateMutability": "nonpayable",
      "type": "function"
    },
    {
      "inputs": [],
      "name": "getBalance",
      "outputs": [
        {
          "internalType": "uint256",
          "name": "",
          "type": "uint256"
        }
      ],
      "stateMutability": "view",
      "type": "function"
    },
    {
      "inputs": [
        {
          "internalType": "address",
          "name": "newMissileMaker",
          "type": "address"
        }
      ],
      "name": "updateMissileMaker",
      "outputs": [],
      "stateMutability": "nonpayable",
      "type": "function"
    },
    {
      "inputs": [
        {
          "internalType": "address",
          "name": "to",
          "type": "address"
        }
      ],
      "name": "setMoreMissilesPlzAddress",
      "outputs": [],
      "stateMutability": "nonpayable",
      "type": "function"
    }
  ],
  "bytecode": "0x60806040526000600d553480156200001657600080fd5b50604051620038923803806200389283398101604081905262000039916200022b565b826040516020016200004c919062000306565b604051602081830303815290604052604051806040016040528060068152602001652622a0a222a960d11b815250818181600090805190602001906200009492919062000168565b508051620000aa90600190602084019062000168565b505050620000c7620000c16200011260201b60201c565b62000116565b50508251620000de90601090602086019062000168565b50601480546001600160a01b039384166001600160a01b0319918216179091556013805492909316911617905550620003c3565b3390565b600a80546001600160a01b038381166001600160a01b0319831681179093556040519116919082907f8be0079c531659141344cd1fd0a4f28419497f9722a3daafe3b4186f6b6457e090600090a35050565b828054620001769062000370565b90600052602060002090601f0160209004810192826200019a5760008555620001e5565b82601f10620001b557805160ff1916838001178555620001e5565b82800160010185558215620001e5579182015b82811115620001e5578251825591602001919060010190620001c8565b50620001f3929150620001f7565b5090565b5b80821115620001f35760008155600101620001f8565b80516001600160a01b03811681146200022657600080fd5b919050565b60008060006060848603121562000240578283fd5b83516001600160401b038082111562000257578485fd5b818601915086601f8301126200026b578485fd5b815181811115620002805762000280620003ad565b604051601f8201601f19908116603f01168101908382118183101715620002ab57620002ab620003ad565b81604052828152896020848701011115620002c4578788fd5b620002d78360208301602088016200033d565b8097505050505050620002ed602085016200020e565b9150620002fd604085016200020e565b90509250925092565b6c02bb7b93632102632b0b232b91609d1b8152600082516200033081600d8501602087016200033d565b91909101600d0192915050565b60005b838110156200035a57818101518382015260200162000340565b838111156200036a576000848401525b50505050565b600181811c908216806200038557607f821691505b60208210811415620003a757634e487b7160e01b600052602260045260246000fd5b50919050565b634e487b7160e01b600052604160045260246000fd5b6134bf80620003d36000396000f3fe60806040526004361061025c5760003560e01c806355f804b31161014457806395d89b41116100b6578063d270e7ab1161007a578063d270e7ab146106e5578063d547cfb7146106fa578063e985e9c51461070f578063ebcc19851461072f578063f2d3024b14610742578063f2fde38b1461075757600080fd5b806395d89b4114610650578063a22cb46514610665578063b88d4fde14610685578063c0aa503f146106a5578063c87b56dd146106c557600080fd5b8063715018a611610108578063715018a61461059f5780638462151c146105b45780638c5143ea146105e15780638d859f3e146106015780638da5cb5b1461061b5780638f90b2f01461063057600080fd5b806355f804b3146104ff5780635e57966d1461051f5780636352211e1461053f5780636f56891e1461055f57806370a082311461057f57600080fd5b806332cb6b0c116101dd5780633ded33bc116101a15780633ded33bc1461043f57806342842e0e1461045f5780634d7e33211461047f5780634f558e791461049f5780634f6ccce7146104bf57806350810a2a146104df57600080fd5b806332cb6b0c146103b45780633b4b1381146103ca5780633bbed4a0146103dd5780633ccfd60b146103fd5780633d131a6b1461041257600080fd5b806312065fe01161022457806312065fe014610335578063144100c71461034a57806318160ddd1461035f57806323b872dd146103745780632f745c591461039457600080fd5b806301ffc9a71461026157806306fdde0314610296578063081812fc146102b8578063095ea7b3146102f057806309d42b3014610312575b600080fd5b34801561026d57600080fd5b5061028161027c366004612f48565b610777565b60405190151581526020015b60405180910390f35b3480156102a257600080fd5b506102ab6107a2565b60405161028d919061315c565b3480156102c457600080fd5b506102d86102d3366004612fc6565b610834565b6040516001600160a01b03909116815260200161028d565b3480156102fc57600080fd5b5061031061030b366004612ecd565b6108c1565b005b34801561031e57600080fd5b50610327601581565b60405190815260200161028d565b34801561034157600080fd5b506103276109d2565b34801561035657600080fd5b50610310610a66565b34801561036b57600080fd5b50600854610327565b34801561038057600080fd5b5061031061038f366004612de3565b610b27565b3480156103a057600080fd5b506103276103af366004612ecd565b610b58565b3480156103c057600080fd5b5061032761271081565b6103106103d8366004612fc6565b610bee565b3480156103e957600080fd5b506103106103f8366004612d8f565b610bfa565b34801561040957600080fd5b50610310610d60565b34801561041e57600080fd5b5061043261042d366004612ef8565b610f25565b60405161028d91906132be565b34801561044b57600080fd5b5061031061045a366004612d8f565b61126c565b34801561046b57600080fd5b5061031061047a366004612de3565b6112bd565b34801561048b57600080fd5b5061028161049a366004612d8f565b6112d8565b3480156104ab57600080fd5b506102816104ba366004612fc6565b6112eb565b3480156104cb57600080fd5b506103276104da366004612fc6565b6112f6565b3480156104eb57600080fd5b506103106104fa366004612d8f565b611397565b34801561050b57600080fd5b5061031061051a366004612f80565b611445565b34801561052b57600080fd5b506102ab61053a366004612d8f565b611487565b34801561054b57600080fd5b506102d861055a366004612fc6565b6116e2565b34801561056b57600080fd5b5061031061057a366004612d8f565b611759565b34801561058b57600080fd5b5061032761059a366004612d8f565b61181b565b3480156105ab57600080fd5b506103106118a2565b3480156105c057600080fd5b506105d46105cf366004612d8f565b6118dd565b60405161028d9190613118565b3480156105ed57600080fd5b506102816105fc366004612d8f565b61199b565b34801561060d57600080fd5b506103276509184e72a00081565b34801561062757600080fd5b506102d8611a9a565b34801561063c57600080fd5b5061032761064b366004612d8f565b611aa9565b34801561065c57600080fd5b506102ab611bc1565b34801561067157600080fd5b50610310610680366004612ea0565b611bd0565b34801561069157600080fd5b506103106106a0366004612e23565b611bdb565b3480156106b157600080fd5b506103106106c0366004612fc6565b611c13565b3480156106d157600080fd5b506102ab6106e0366004612fc6565b611d52565b3480156106f157600080fd5b506102d8611e1d565b34801561070657600080fd5b506102ab611e2c565b34801561071b57600080fd5b5061028161072a366004612dab565b611eba565b61031061073d366004612fc6565b611ee8565b34801561074e57600080fd5b506102ab61203b565b34801561076357600080fd5b50610310610772366004612d8f565b612048565b60006001600160e01b0319821663780e9d6360e01b148061079c575061079c826120e5565b92915050565b6060600080546107b1906133a4565b80601f01602080910402602001604051908101604052809291908181526020018280546107dd906133a4565b801561082a5780601f106107ff5761010080835404028352916020019161082a565b820191906000526020600020905b81548152906001019060200180831161080d57829003601f168201915b5050505050905090565b600061083f82612135565b6108a55760405162461bcd60e51b815260206004820152602c60248201527f4552433732313a20617070726f76656420717565727920666f72206e6f6e657860448201526b34b9ba32b73a103a37b5b2b760a11b60648201526084015b60405180910390fd5b506000908152600460205260409020546001600160a01b031690565b60006108cc826116e2565b9050806001600160a01b0316836001600160a01b0316141561093a5760405162461bcd60e51b815260206004820152602160248201527f4552433732313a20617070726f76616c20746f2063757272656e74206f776e656044820152603960f91b606482015260840161089c565b336001600160a01b038216148061095657506109568133611eba565b6109c35760405162461bcd60e51b815260206004820152603860248201527f4552433732313a20617070726f76652063616c6c6572206973206e6f74206f776044820152771b995c881b9bdc88185c1c1c9bdd995908199bdc88185b1b60421b606482015260840161089c565b6109cd8383612152565b505050565b6000336109dd611a9a565b6001600160a01b03161480610a015750336109f6611e1d565b6001600160a01b0316145b610a0a33611487565b610a1561053a611a9a565b610a2061053a611e1d565b604051602001610a3293929190613039565b60405160208183030381529060405290610a5f5760405162461bcd60e51b815260040161089c919061315c565b5047905090565b33610a6f611a9a565b6001600160a01b031614610a955760405162461bcd60e51b815260040161089c906131c1565b6000610aa0600c5490565b9050612710610ab08260646121c0565b10610afd5760405162461bcd60e51b815260206004820152601f60248201527f4e6f7420656e6f756768204e465473206c65667420746f207265736572766500604482015260640161089c565b60005b6064811015610b2357610b116121cc565b80610b1b816133df565b915050610b00565b5050565b610b3133826121f1565b610b4d5760405162461bcd60e51b815260040161089c90613220565b6109cd8383836122bb565b6000610b638361181b565b8210610bc55760405162461bcd60e51b815260206004820152602b60248201527f455243373231456e756d657261626c653a206f776e657220696e646578206f7560448201526a74206f6620626f756e647360a81b606482015260840161089c565b506001600160a01b03919091166000908152600660209081526040808320938352929052205490565b610bf781611ee8565b50565b33610c03611a9a565b6001600160a01b03161480610c27575033610c1c611e1d565b6001600160a01b0316145b610c3033611487565b610c3b61053a611a9a565b610c4661053a611e1d565b604051602001610c5893929190613039565b60405160208183030381529060405290610c855760405162461bcd60e51b815260040161089c919061315c565b50610c8f8161199b565b15610cdc5760405162461bcd60e51b815260206004820152601d60248201527f7468697320726563697069656e7420616c726561647920657869737473000000604482015260640161089c565b600e80546001810182556000919091527fbb7b4a454dc3493923482f07822329ed19e8244eff582cc204f8554c3620c3fd0180546001600160a01b0319166001600160a01b0383169081179091556040519081527f6289af53036db620876878549739b5988b2b5efa2ddf870235821d774f8b37d79060200160405180910390a150565b33610d69611a9a565b6001600160a01b03161480610d8d575033610d82611e1d565b6001600160a01b0316145b610d9633611487565b610da161053a611a9a565b610dac61053a611e1d565b604051602001610dbe93929190613039565b60405160208183030381529060405290610deb5760405162461bcd60e51b815260040161089c919061315c565b50600e54610e0b5760405162461bcd60e51b815260040161089c90613271565b4780610e555760405162461bcd60e51b81526020600482015260196024820152784e6f206574686572206c65667420746f20776974686472617760381b604482015260640161089c565b600e54600090610e66908390612462565b905060005b600e548110156109cd576000600e8281548110610e9857634e487b7160e01b600052603260045260246000fd5b60009182526020822001546040516001600160a01b039091169185919081818185875af1925050503d8060008114610eec576040519150601f19603f3d011682016040523d82523d6000602084013e610ef1565b606091505b5050905080610f125760405162461bcd60e51b815260040161089c906131f6565b5080610f1d816133df565b915050610e6b565b60408051808201909152600081526060602082015233610f43611a9a565b6001600160a01b03161480610f67575033610f5c611e1d565b6001600160a01b0316145b610f7033611487565b610f7b61053a611a9a565b610f8661053a611e1d565b604051602001610f9893929190613039565b60405160208183030381529060405290610fc55760405162461bcd60e51b815260040161089c919061315c565b506000610fd1856118dd565b905060008060005b83518110156112305761101284828151811061100557634e487b7160e01b600052603260045260246000fd5b6020026020010151612135565b6110595760405162461bcd60e51b815260206004820152601860248201527774686973206e667420646f6573206e6f742065786973742160401b604482015260640161089c565b876001600160a01b031661109385838151811061108657634e487b7160e01b600052603260045260246000fd5b60200260200101516116e2565b6001600160a01b0316146110df5760405162461bcd60e51b8152602060048201526013602482015272796f7520646f6e2774206f776e20746869732160681b604482015260640161089c565b60135484516001600160a01b0390911690633f0090c39060129060009088908690811061111c57634e487b7160e01b600052603260045260246000fd5b60200260200101518152602001908152602001600020546040518263ffffffff1660e01b815260040161115191815260200190565b60206040518083038186803b15801561116957600080fd5b505afa15801561117d573d6000803e3d6000fd5b505050506040513d601f19601f820116820180604052508101906111a19190612f2c565b1561121e5742601260008684815181106111cb57634e487b7160e01b600052603260045260246000fd5b60200260200101518152602001908152602001600020819055506111f886846121c090919063ffffffff16565b92506064831061121e578161120c816133df565b925061121b905083606461246e565b92505b80611228816133df565b915050610fd9565b5061123b868361247a565b1561124e578061124a816133df565b9150505b60408051808201909152908152602081019290925250949350505050565b33611275611a9a565b6001600160a01b03161461129b5760405162461bcd60e51b815260040161089c906131c1565b600b80546001600160a01b0319166001600160a01b0392909216919091179055565b6109cd83838360405180602001604052806000815250611bdb565b6000806112e48361181b565b1192915050565b600061079c82612135565b600061130160085490565b82106113645760405162461bcd60e51b815260206004820152602c60248201527f455243373231456e756d657261626c653a20676c6f62616c20696e646578206f60448201526b7574206f6620626f756e647360a01b606482015260840161089c565b6008828154811061138557634e487b7160e01b600052603260045260246000fd5b90600052602060002001549050919050565b336113a0611a9a565b6001600160a01b031614806113c45750336113b9611e1d565b6001600160a01b0316145b6113cd33611487565b6113d861053a611a9a565b6113e361053a611e1d565b6040516020016113f593929190613039565b604051602081830303815290604052906114225760405162461bcd60e51b815260040161089c919061315c565b50601180546001600160a01b0319166001600160a01b0392909216919091179055565b3361144e611a9a565b6001600160a01b0316146114745760405162461bcd60e51b815260040161089c906131c1565b8051610b2390600f906020840190612c80565b604080518082018252601081526f181899199a1a9b1b9c1cb0b131b232b360811b60208201528151603380825260608281019094526001600160a01b0385169291600091602082018180368337019050509050600360fc1b8160008151811061150057634e487b7160e01b600052603260045260246000fd5b60200101906001600160f81b031916908160001a905350600f60fb1b8160018151811061153d57634e487b7160e01b600052603260045260246000fd5b60200101906001600160f81b031916908160001a90535060005b60148110156116d9578260048561156f84600c613316565b6020811061158d57634e487b7160e01b600052603260045260246000fd5b1a60f81b6001600160f81b031916901c60f81c60ff16815181106115c157634e487b7160e01b600052603260045260246000fd5b01602001516001600160f81b031916826115dc836002613342565b6115e7906002613316565b8151811061160557634e487b7160e01b600052603260045260246000fd5b60200101906001600160f81b031916908160001a905350828461162983600c613316565b6020811061164757634e487b7160e01b600052603260045260246000fd5b825191901a600f1690811061166c57634e487b7160e01b600052603260045260246000fd5b01602001516001600160f81b03191682611687836002613342565b611692906003613316565b815181106116b057634e487b7160e01b600052603260045260246000fd5b60200101906001600160f81b031916908160001a905350806116d1816133df565b915050611557565b50949350505050565b6000818152600260205260408120546001600160a01b03168061079c5760405162461bcd60e51b815260206004820152602960248201527f4552433732313a206f776e657220717565727920666f72206e6f6e657869737460448201526832b73a103a37b5b2b760b91b606482015260840161089c565b6014546001600160a01b031633148061178a5750611775611e1d565b6001600160a01b0316336001600160a01b0316145b806117ad5750611798611a9a565b6001600160a01b0316336001600160a01b0316145b6117f95760405162461bcd60e51b815260206004820152601f60248201527f796f7520617265206e6f7420616c6c6f77656420746f20646f20746861742100604482015260640161089c565b601380546001600160a01b0319166001600160a01b0392909216919091179055565b60006001600160a01b0382166118865760405162461bcd60e51b815260206004820152602a60248201527f4552433732313a2062616c616e636520717565727920666f7220746865207a65604482015269726f206164647265737360b01b606482015260840161089c565b506001600160a01b031660009081526003602052604090205490565b336118ab611a9a565b6001600160a01b0316146118d15760405162461bcd60e51b815260040161089c906131c1565b6118db60006124c4565b565b606060006118ea8361181b565b905060008167ffffffffffffffff81111561191557634e487b7160e01b600052604160045260246000fd5b60405190808252806020026020018201604052801561193e578160200160208202803683370190505b50905060005b82811015611993576119568582610b58565b82828151811061197657634e487b7160e01b600052603260045260246000fd5b60209081029190910101528061198b816133df565b915050611944565b509392505050565b6000336119a6611a9a565b6001600160a01b031614806119ca5750336119bf611e1d565b6001600160a01b0316145b6119d333611487565b6119de61053a611a9a565b6119e961053a611e1d565b6040516020016119fb93929190613039565b60405160208183030381529060405290611a285760405162461bcd60e51b815260040161089c919061315c565b5060005b600e54811015611a9157600e8181548110611a5757634e487b7160e01b600052603260045260246000fd5b6000918252602090912001546001600160a01b0384811691161415611a7f5750600192915050565b80611a89816133df565b915050611a2c565b50600092915050565b600a546001600160a01b031690565b6000611ab48261181b565b611ac057506000919050565b6000611acb836118dd565b90506000805b82518110156119935760135483516001600160a01b0390911690633f0090c390601290600090879086908110611b1757634e487b7160e01b600052603260045260246000fd5b60200260200101518152602001908152602001600020546040518263ffffffff1660e01b8152600401611b4c91815260200190565b60206040518083038186803b158015611b6457600080fd5b505afa158015611b78573d6000803e3d6000fd5b505050506040513d601f19601f82011682018060405250810190611b9c9190612f2c565b15611baf5781611bab816133df565b9250505b80611bb9816133df565b915050611ad1565b6060600180546107b1906133a4565b610b23338383612516565b611be533836121f1565b611c015760405162461bcd60e51b815260040161089c90613220565b611c0d848484846125e1565b50505050565b600e54611c325760405162461bcd60e51b815260040161089c90613271565b60008111611c825760405162461bcd60e51b815260206004820152601e60248201527f4e6f206574686572206c65667420746f206175746f2077697468647261770000604482015260640161089c565b600e54600090611c93908390612462565b905060005b600e548110156109cd576000600e8281548110611cc557634e487b7160e01b600052603260045260246000fd5b60009182526020822001546040516001600160a01b039091169185919081818185875af1925050503d8060008114611d19576040519150601f19603f3d011682016040523d82523d6000602084013e611d1e565b606091505b5050905080611d3f5760405162461bcd60e51b815260040161089c906131f6565b5080611d4a816133df565b915050611c98565b6060611d5d82612135565b611dc15760405162461bcd60e51b815260206004820152602f60248201527f4552433732314d657461646174613a2055524920717565727920666f72206e6f60448201526e3732bc34b9ba32b73a103a37b5b2b760891b606482015260840161089c565b6000611dcb612614565b90506000815111611deb5760405180602001604052806000815250611e16565b80611df584612623565b604051602001611e0692919061300a565b6040516020818303038152906040525b9392505050565b600b546001600160a01b031690565b600f8054611e39906133a4565b80601f0160208091040260200160405190810160405280929190818152602001828054611e65906133a4565b8015611eb25780601f10611e8757610100808354040283529160200191611eb2565b820191906000526020600020905b815481529060010190602001808311611e9557829003601f168201915b505050505081565b6001600160a01b03918216600090815260056020908152604080832093909416825291909152205460ff1690565b6000611ef3600c5490565b9050600082600a1415611f085750600c611f1c565b8260111415611f1957506015611f1c565b50815b612710611f2983836121c0565b1115611f6f5760405162461bcd60e51b81526020600482015260156024820152744e6f7420656e6f756768204e465473206c6566742160581b604482015260640161089c565b600083118015611f80575060158311155b611fbb5760405162461bcd60e51b815260206004820152600c60248201526b2bb937b73390373ab6b132b960a11b604482015260640161089c565b611fcb6509184e72a0008461273d565b34101561200c5760405162461bcd60e51b815260206004820152600f60248201526e4e656564206d6f7265204d6574697360881b604482015260640161089c565b60005b818110156120315761201f6121cc565b80612029816133df565b91505061200f565b506109cd34611c13565b60108054611e39906133a4565b33612051611a9a565b6001600160a01b0316146120775760405162461bcd60e51b815260040161089c906131c1565b6001600160a01b0381166120dc5760405162461bcd60e51b815260206004820152602660248201527f4f776e61626c653a206e6577206f776e657220697320746865207a65726f206160448201526564647265737360d01b606482015260840161089c565b610bf7816124c4565b60006001600160e01b031982166380ac58cd60e01b148061211657506001600160e01b03198216635b5e139f60e01b145b8061079c57506301ffc9a760e01b6001600160e01b031983161461079c565b6000908152600260205260409020546001600160a01b0316151590565b600081815260046020526040902080546001600160a01b0319166001600160a01b0384169081179091558190612187826116e2565b6001600160a01b03167f8c5be1e5ebec7d5bd14f71427d1e84f3dd0314c0f7b2291e5b200ac8c7c3b92560405160405180910390a45050565b6000611e168284613316565b60006121d7600c5490565b90506121e33382612749565b610bf7600c80546001019055565b60006121fc82612135565b61225d5760405162461bcd60e51b815260206004820152602c60248201527f4552433732313a206f70657261746f7220717565727920666f72206e6f6e657860448201526b34b9ba32b73a103a37b5b2b760a11b606482015260840161089c565b6000612268836116e2565b9050806001600160a01b0316846001600160a01b031614806122a35750836001600160a01b031661229884610834565b6001600160a01b0316145b806122b357506122b38185611eba565b949350505050565b826001600160a01b03166122ce826116e2565b6001600160a01b0316146123325760405162461bcd60e51b815260206004820152602560248201527f4552433732313a207472616e736665722066726f6d20696e636f72726563742060448201526437bbb732b960d91b606482015260840161089c565b6001600160a01b0382166123945760405162461bcd60e51b8152602060048201526024808201527f4552433732313a207472616e7366657220746f20746865207a65726f206164646044820152637265737360e01b606482015260840161089c565b61239f838383612763565b6123aa600082612152565b6001600160a01b03831660009081526003602052604081208054600192906123d3908490613361565b90915550506001600160a01b0382166000908152600360205260408120805460019290612401908490613316565b909155505060008181526002602052604080822080546001600160a01b0319166001600160a01b0386811691821790925591518493918716917fddf252ad1be2c89b69c2b068fc378daa952ba7f163c4a11628f55a4df523b3ef91a4505050565b6000611e16828461332e565b6000611e168284613361565b6000806124b960646124b38642604080516020808201939093528082019390935280518084038201815260609093019052815191012090565b9061281b565b909210159392505050565b600a80546001600160a01b038381166001600160a01b0319831681179093556040519116919082907f8be0079c531659141344cd1fd0a4f28419497f9722a3daafe3b4186f6b6457e090600090a35050565b816001600160a01b0316836001600160a01b031614156125745760405162461bcd60e51b815260206004820152601960248201527822a9219b99189d1030b8383937bb32903a379031b0b63632b960391b604482015260640161089c565b6001600160a01b03838116600081815260056020908152604080832094871680845294825291829020805460ff191686151590811790915591519182527f17307eab39ab6107e8899845ad3d59bd9653f200f220920489ca2b5937696c31910160405180910390a3505050565b6125ec8484846122bb565b6125f88484848461283b565b611c0d5760405162461bcd60e51b815260040161089c9061316f565b6060600f80546107b1906133a4565b6060816126475750506040805180820190915260018152600360fc1b602082015290565b8160005b8115612671578061265b816133df565b915061266a9050600a8361332e565b915061264b565b60008167ffffffffffffffff81111561269a57634e487b7160e01b600052604160045260246000fd5b6040519080825280601f01601f1916602001820160405280156126c4576020820181803683370190505b5090505b84156122b3576126d9600183613361565b91506126e6600a866133fa565b6126f1906030613316565b60f81b81838151811061271457634e487b7160e01b600052603260045260246000fd5b60200101906001600160f81b031916908160001a905350612736600a8661332e565b94506126c8565b6000611e168284613342565b610b23828260405180602001604052806000815250612948565b6001600160a01b0383166127be576127b981600880546000838152600960205260408120829055600182018355919091527ff3f7a9fe364faab93b216da50a3214154f22a0a2b415b23a84c8169e8b636ee30155565b6127e1565b816001600160a01b0316836001600160a01b0316146127e1576127e1838261297b565b6001600160a01b0382166127f8576109cd81612a18565b826001600160a01b0316826001600160a01b0316146109cd576109cd8282612af1565b6000806000831161282d57600161282f565b825b90506122b38482612b35565b60006001600160a01b0384163b1561293d57604051630a85bd0160e11b81526001600160a01b0385169063150b7a029061287f9033908990889088906004016130db565b602060405180830381600087803b15801561289957600080fd5b505af19250505080156128c9575060408051601f3d908101601f191682019092526128c691810190612f64565b60015b612923573d8080156128f7576040519150601f19603f3d011682016040523d82523d6000602084013e6128fc565b606091505b50805161291b5760405162461bcd60e51b815260040161089c9061316f565b805181602001fd5b6001600160e01b031916630a85bd0160e11b1490506122b3565b506001949350505050565b6129528383612b41565b61295f600084848461283b565b6109cd5760405162461bcd60e51b815260040161089c9061316f565b600060016129888461181b565b6129929190613361565b6000838152600760205260409020549091508082146129e5576001600160a01b03841660009081526006602090815260408083208584528252808320548484528184208190558352600790915290208190555b5060009182526007602090815260408084208490556001600160a01b039094168352600681528383209183525290812055565b600854600090612a2a90600190613361565b60008381526009602052604081205460088054939450909284908110612a6057634e487b7160e01b600052603260045260246000fd5b906000526020600020015490508060088381548110612a8f57634e487b7160e01b600052603260045260246000fd5b6000918252602080832090910192909255828152600990915260408082208490558582528120556008805480612ad557634e487b7160e01b600052603160045260246000fd5b6001900381819060005260206000200160009055905550505050565b6000612afc8361181b565b6001600160a01b039093166000908152600660209081526040808320868452825280832085905593825260079052919091209190915550565b6000611e1682846133fa565b6001600160a01b038216612b975760405162461bcd60e51b815260206004820181905260248201527f4552433732313a206d696e7420746f20746865207a65726f2061646472657373604482015260640161089c565b612ba081612135565b15612bed5760405162461bcd60e51b815260206004820152601c60248201527f4552433732313a20746f6b656e20616c7265616479206d696e74656400000000604482015260640161089c565b612bf960008383612763565b6001600160a01b0382166000908152600360205260408120805460019290612c22908490613316565b909155505060008181526002602052604080822080546001600160a01b0319166001600160a01b03861690811790915590518392907fddf252ad1be2c89b69c2b068fc378daa952ba7f163c4a11628f55a4df523b3ef908290a45050565b828054612c8c906133a4565b90600052602060002090601f016020900481019282612cae5760008555612cf4565b82601f10612cc757805160ff1916838001178555612cf4565b82800160010185558215612cf4579182015b82811115612cf4578251825591602001919060010190612cd9565b50612d00929150612d04565b5090565b5b80821115612d005760008155600101612d05565b600067ffffffffffffffff80841115612d3457612d3461343a565b604051601f8501601f19908116603f01168101908282118183101715612d5c57612d5c61343a565b81604052809350858152868686011115612d7557600080fd5b858560208301376000602087830101525050509392505050565b600060208284031215612da0578081fd5b8135611e1681613450565b60008060408385031215612dbd578081fd5b8235612dc881613450565b91506020830135612dd881613450565b809150509250929050565b600080600060608486031215612df7578081fd5b8335612e0281613450565b92506020840135612e1281613450565b929592945050506040919091013590565b60008060008060808587031215612e38578081fd5b8435612e4381613450565b93506020850135612e5381613450565b925060408501359150606085013567ffffffffffffffff811115612e75578182fd5b8501601f81018713612e85578182fd5b612e9487823560208401612d19565b91505092959194509250565b60008060408385031215612eb2578182fd5b8235612ebd81613450565b91506020830135612dd881613465565b60008060408385031215612edf578182fd5b8235612eea81613450565b946020939093013593505050565b600080600060608486031215612f0c578283fd5b8335612f1781613450565b95602085013595506040909401359392505050565b600060208284031215612f3d578081fd5b8151611e1681613465565b600060208284031215612f59578081fd5b8135611e1681613473565b600060208284031215612f75578081fd5b8151611e1681613473565b600060208284031215612f91578081fd5b813567ffffffffffffffff811115612fa7578182fd5b8201601f81018413612fb7578182fd5b6122b384823560208401612d19565b600060208284031215612fd7578081fd5b5035919050565b60008151808452612ff6816020860160208601613378565b601f01601f19169290920160200192915050565b6000835161301c818460208801613378565b835190830190613030818360208801613378565b01949350505050565b7f4f776e61626c654f724d61696e436f6e74726163743a2063616c6c65722069738152600160fd1b60208201526000845161307b816021850160208901613378565b6d010313aba1032bc3832b1ba32b2160951b60219184019182015284516130a981602f840160208901613378565b6301037b9160e51b602f929091019182015283516130ce816033840160208801613378565b0160330195945050505050565b6001600160a01b038581168252841660208201526040810183905260806060820181905260009061310e90830184612fde565b9695505050505050565b6020808252825182820181905260009190848201906040850190845b8181101561315057835183529284019291840191600101613134565b50909695505050505050565b602081526000611e166020830184612fde565b60208082526032908201527f4552433732313a207472616e7366657220746f206e6f6e20455243373231526560408201527131b2b4bb32b91034b6b83632b6b2b73a32b960711b606082015260800190565b6020808252818101527f4f776e61626c653a2063616c6c6572206973206e6f7420746865206f776e6572604082015260600190565b60208082526010908201526f2a3930b739b332b9103330b4b632b21760811b604082015260600190565b60208082526031908201527f4552433732313a207472616e736665722063616c6c6572206973206e6f74206f6040820152701ddb995c881b9bdc88185c1c1c9bdd9959607a1b606082015260800190565b6020808252602d908201527f6e6f20726563697069656e74732068617665206265656e20616464656420746f60408201526c20776974686472617720746f2160981b606082015260800190565b60208082528251828201528281015160408084015280516060840181905260009291820190839060808601905b8083101561330b57835182529284019260019290920191908401906132eb565b509695505050505050565b600082198211156133295761332961340e565b500190565b60008261333d5761333d613424565b500490565b600081600019048311821515161561335c5761335c61340e565b500290565b6000828210156133735761337361340e565b500390565b60005b8381101561339357818101518382015260200161337b565b83811115611c0d5750506000910152565b600181811c908216806133b857607f821691505b602082108114156133d957634e487b7160e01b600052602260045260246000fd5b50919050565b60006000198214156133f3576133f361340e565b5060010190565b60008261340957613409613424565b500690565b634e487b7160e01b600052601160045260246000fd5b634e487b7160e01b600052601260045260246000fd5b634e487b7160e01b600052604160045260246000fd5b6001600160a01b0381168114610bf757600080fd5b8015158114610bf757600080fd5b6001600160e01b031981168114610bf757600080fdfea26469706673582212202763361d29f0b598246251088fd194e62dc5177e210e82ad2aee46b654c2944364736f6c63430008040033",
  "immutableReferences": {},
  "source": "// SPDX-License-Identifier: MIT\r\npragma solidity ^0.8.4;\r\n\r\nimport \"./MetisERC721.sol\";\r\nimport \"./MissileMaker.sol\";\r\nimport \"./Helpers.sol\";\r\n///////////////////////////////////////////////////////////////////////////////////////////////////////////////////////\r\n// a world leader MoreMissilesPlz NFT collection\r\n///////////////////////////////////////////////////////////////////////////////////////////////////////////////////////\r\ncontract WorldLeader is MetisERC721 {\r\n    using SafeMath for uint;\r\n    using Helpers for uint;\r\n\r\n    string public leaderName;\r\n    address internal _moreMissilesPlzAddress;\r\n\r\n    mapping(uint => uint) _lastRunLookup;\r\n\r\n    MissileMaker internal _missileMaker;\r\n    address internal _leaderStoreAddress;\r\n\r\n    struct MissileOdds {\r\n        uint numMissilesToMint;\r\n        uint[] leaderNftIds;\r\n    }\r\n\r\n//    mapping(uint => uint) _leaderLevel;\r\n\r\n    constructor(\r\n        string memory name,\r\n        address leaderStoreAddress,\r\n        MissileMaker missileMaker\r\n    ) MetisERC721(string(abi.encodePacked(\"World Leader \", name)), \"LEADER\") {\r\n        leaderName = name;\r\n        _leaderStoreAddress = leaderStoreAddress;\r\n        _missileMaker = missileMaker;\r\n\r\n    }\r\n\r\n    function mintNFTs(uint count) public payable {\r\n        _mintNFTs(count);\r\n    }\r\n\r\n    function doesUserOwnAnyOfThisWorldLeader(address addr) external view returns (bool) {\r\n        return balanceOf(addr) > 0;\r\n    }\r\n\r\n    function numMissilesReadyToRoll(address sender) public view returns (uint) {\r\n        if (balanceOf(sender) == 0) {\r\n            return 0;\r\n        }\r\n        uint[] memory leaderNftIds = tokensOfOwner(sender);\r\n        uint numReady = 0;\r\n        for (uint i = 0; i < leaderNftIds.length; i++) {\r\n            if (_missileMaker.isRollForMissileReady(_lastRunLookup[leaderNftIds[i]])) {\r\n                numReady++;\r\n            }\r\n        }\r\n        return numReady;\r\n    }\r\n\r\n    function maybeGetMissiles(address sender, uint randVal, uint missilePercChance) public onlyOwnerOrMain returns (MissileOdds memory) {\r\n        uint[] memory leaderNftIds = tokensOfOwner(sender);\r\n        uint currentPercentage = 0;\r\n        uint numMissilesToMint = 0;\r\n\r\n        //\r\n        // increment the % chance of rolling a missile according to the missilePercChance depending on number of NFTs owned.\r\n        // when this reaches or exceeds 100%, consider this a guaranteed missile for the user and start back at 0 again\r\n        // for their chance of rolling another one. repeat this for the amount of NFTs they own until you have an\r\n        // amount of guaranteed missiles, and a % chance of getting one more.\r\n        //\r\n        // each unique world leader collection calculates these odds separately.\r\n        //\r\n        for (uint i = 0; i < leaderNftIds.length; i++) {\r\n            require(_exists(leaderNftIds[i]), \"this nft does not exist!\");\r\n            require(ownerOf(leaderNftIds[i]) == sender, \"you don't own this!\");\r\n            if (_missileMaker.isRollForMissileReady(_lastRunLookup[leaderNftIds[i]])) {\r\n                _lastRunLookup[leaderNftIds[i]] = block.timestamp;\r\n                currentPercentage = currentPercentage.add(missilePercChance);\r\n                if (currentPercentage >= 100) {\r\n                    numMissilesToMint++;\r\n                    currentPercentage = currentPercentage.sub(100);\r\n                }\r\n            }\r\n        }\r\n\r\n        if (userDidRollMissile(randVal, currentPercentage)) {\r\n            numMissilesToMint++;\r\n        }\r\n\r\n        return MissileOdds(numMissilesToMint, leaderNftIds);\r\n    }\r\n\r\n    function userDidRollMissile(uint randVal, uint thisMissilePercChance) internal view returns (bool){\r\n        uint num = uint(randVal.randomize(block.timestamp).modSafe(100));\r\n//        uint num = uint(keccak256(abi.encodePacked(block.timestamp, randVal, block.difficulty, sender))).mod(100);\r\n        return num <= thisMissilePercChance;\r\n    }\r\n\r\n    function getBalance() external view onlyOwnerOrMain returns (uint) {\r\n        return address(this).balance;\r\n    }\r\n\r\n    // see MoreMissilesPlz.sol bottom section before using\r\n    //\r\n    function updateMissileMaker(address newMissileMaker) public {\r\n        require(msg.sender == _leaderStoreAddress || msg.sender == mainContract() || msg.sender == owner(), \"you are not allowed to do that!\");\r\n        _missileMaker = MissileMaker(newMissileMaker);\r\n    }\r\n\r\n    function setMoreMissilesPlzAddress(address to) public onlyOwnerOrMain {\r\n        _moreMissilesPlzAddress = to;\r\n    }\r\n\r\n//    function getLeaderLevel(uint leaderId) public view returns (uint) {\r\n//        return _leaderLevel[leaderId];\r\n//    }\r\n//\r\n//    function increaseLeaderLevel(uint leaderId) public onlyOwnerOrMain {\r\n//        _leaderLevel[leaderId]++;\r\n//    }\r\n}\r\n\r\n\r\n",
  "sourcePath": "C:\\data\\source\\Webstorm Projects\\metis-nfts\\contracts\\WorldLeader.sol",
  "compiler": {
    "name": "solc",
    "version": "0.8.4+commit.c7e474f2.Emscripten.clang"
  },
  "schemaVersion": "3.4.5",
  "updatedAt": "2022-03-24T06:05:55.605Z",
  "devdoc": {
    "kind": "dev",
    "methods": {
      "approve(address,uint256)": {
        "details": "See {IERC721-approve}."
      },
      "balanceOf(address)": {
        "details": "See {IERC721-balanceOf}."
      },
      "getApproved(uint256)": {
        "details": "See {IERC721-getApproved}."
      },
      "isApprovedForAll(address,address)": {
        "details": "See {IERC721-isApprovedForAll}."
      },
      "name()": {
        "details": "See {IERC721Metadata-name}."
      },
      "owner()": {
        "details": "Returns the address of the current owner."
      },
      "ownerOf(uint256)": {
        "details": "See {IERC721-ownerOf}."
      },
      "renounceOwnership()": {
        "details": "Leaves the contract without owner. It will not be possible to call `onlyOwner` functions anymore. Can only be called by the current owner. NOTE: Renouncing ownership will leave the contract without an owner, thereby removing any functionality that is only available to the owner."
      },
      "safeTransferFrom(address,address,uint256)": {
        "details": "See {IERC721-safeTransferFrom}."
      },
      "safeTransferFrom(address,address,uint256,bytes)": {
        "details": "See {IERC721-safeTransferFrom}."
      },
      "setApprovalForAll(address,bool)": {
        "details": "See {IERC721-setApprovalForAll}."
      },
      "supportsInterface(bytes4)": {
        "details": "See {IERC165-supportsInterface}."
      },
      "symbol()": {
        "details": "See {IERC721Metadata-symbol}."
      },
      "tokenByIndex(uint256)": {
        "details": "See {IERC721Enumerable-tokenByIndex}."
      },
      "tokenOfOwnerByIndex(address,uint256)": {
        "details": "See {IERC721Enumerable-tokenOfOwnerByIndex}."
      },
      "tokenURI(uint256)": {
        "details": "See {IERC721Metadata-tokenURI}."
      },
      "totalSupply()": {
        "details": "See {IERC721Enumerable-totalSupply}."
      },
      "transferFrom(address,address,uint256)": {
        "details": "See {IERC721-transferFrom}."
      },
      "transferOwnership(address)": {
        "details": "Transfers ownership of the contract to a new account (`newOwner`). Can only be called by the current owner."
      }
    },
    "version": 1
  },
  "userdoc": {
    "kind": "user",
    "methods": {},
    "version": 1
  }
}