{
  "contractName": "MissileMaker",
  "abi": [
    {
      "inputs": [],
      "stateMutability": "nonpayable",
      "type": "constructor"
    },
    {
      "anonymous": false,
      "inputs": [
        {
          "indexed": true,
          "internalType": "address",
          "name": "owner",
          "type": "address"
        },
        {
          "indexed": true,
          "internalType": "address",
          "name": "approved",
          "type": "address"
        },
        {
          "indexed": true,
          "internalType": "uint256",
          "name": "tokenId",
          "type": "uint256"
        }
      ],
      "name": "Approval",
      "type": "event"
    },
    {
      "anonymous": false,
      "inputs": [
        {
          "indexed": true,
          "internalType": "address",
          "name": "owner",
          "type": "address"
        },
        {
          "indexed": true,
          "internalType": "address",
          "name": "operator",
          "type": "address"
        },
        {
          "indexed": false,
          "internalType": "bool",
          "name": "approved",
          "type": "bool"
        }
      ],
      "name": "ApprovalForAll",
      "type": "event"
    },
    {
      "anonymous": false,
      "inputs": [
        {
          "indexed": false,
          "internalType": "uint256",
          "name": "missileCreatedEventId",
          "type": "uint256"
        },
        {
          "indexed": false,
          "internalType": "address",
          "name": "createdForAddress",
          "type": "address"
        }
      ],
      "name": "MissilesCreated",
      "type": "event"
    },
    {
      "anonymous": false,
      "inputs": [
        {
          "indexed": true,
          "internalType": "address",
          "name": "previousOwner",
          "type": "address"
        },
        {
          "indexed": true,
          "internalType": "address",
          "name": "newOwner",
          "type": "address"
        }
      ],
      "name": "OwnershipTransferred",
      "type": "event"
    },
    {
      "anonymous": false,
      "inputs": [
        {
          "indexed": true,
          "internalType": "address",
          "name": "from",
          "type": "address"
        },
        {
          "indexed": true,
          "internalType": "address",
          "name": "to",
          "type": "address"
        },
        {
          "indexed": true,
          "internalType": "uint256",
          "name": "tokenId",
          "type": "uint256"
        }
      ],
      "name": "Transfer",
      "type": "event"
    },
    {
      "inputs": [],
      "name": "_hoursBetweenCutoffs",
      "outputs": [
        {
          "internalType": "uint256",
          "name": "",
          "type": "uint256"
        }
      ],
      "stateMutability": "view",
      "type": "function"
    },
    {
      "inputs": [
        {
          "internalType": "address",
          "name": "leader",
          "type": "address"
        },
        {
          "internalType": "address",
          "name": "missileMaker",
          "type": "address"
        },
        {
          "internalType": "address",
          "name": "ufoInvasion",
          "type": "address"
        }
      ],
      "name": "_setOwnedContracts",
      "outputs": [],
      "stateMutability": "nonpayable",
      "type": "function"
    },
    {
      "inputs": [
        {
          "internalType": "address",
          "name": "to",
          "type": "address"
        },
        {
          "internalType": "uint256",
          "name": "tokenId",
          "type": "uint256"
        }
      ],
      "name": "approve",
      "outputs": [],
      "stateMutability": "nonpayable",
      "type": "function"
    },
    {
      "inputs": [
        {
          "internalType": "address",
          "name": "owner",
          "type": "address"
        }
      ],
      "name": "balanceOf",
      "outputs": [
        {
          "internalType": "uint256",
          "name": "",
          "type": "uint256"
        }
      ],
      "stateMutability": "view",
      "type": "function"
    },
    {
      "inputs": [],
      "name": "baseTokenURI",
      "outputs": [
        {
          "internalType": "string",
          "name": "",
          "type": "string"
        }
      ],
      "stateMutability": "view",
      "type": "function"
    },
    {
      "inputs": [
        {
          "internalType": "uint256",
          "name": "tokenId",
          "type": "uint256"
        }
      ],
      "name": "existsOrBurned",
      "outputs": [
        {
          "internalType": "bool",
          "name": "",
          "type": "bool"
        }
      ],
      "stateMutability": "view",
      "type": "function"
    },
    {
      "inputs": [
        {
          "internalType": "uint256",
          "name": "tokenId",
          "type": "uint256"
        }
      ],
      "name": "getApproved",
      "outputs": [
        {
          "internalType": "address",
          "name": "",
          "type": "address"
        }
      ],
      "stateMutability": "view",
      "type": "function"
    },
    {
      "inputs": [
        {
          "internalType": "address",
          "name": "owner",
          "type": "address"
        },
        {
          "internalType": "address",
          "name": "operator",
          "type": "address"
        }
      ],
      "name": "isApprovedForAll",
      "outputs": [
        {
          "internalType": "bool",
          "name": "",
          "type": "bool"
        }
      ],
      "stateMutability": "view",
      "type": "function"
    },
    {
      "inputs": [
        {
          "internalType": "uint256",
          "name": "tokenId",
          "type": "uint256"
        }
      ],
      "name": "isBurned",
      "outputs": [
        {
          "internalType": "bool",
          "name": "",
          "type": "bool"
        }
      ],
      "stateMutability": "view",
      "type": "function"
    },
    {
      "inputs": [],
      "name": "missileChancePerc",
      "outputs": [
        {
          "internalType": "uint256",
          "name": "",
          "type": "uint256"
        }
      ],
      "stateMutability": "view",
      "type": "function"
    },
    {
      "inputs": [],
      "name": "name",
      "outputs": [
        {
          "internalType": "string",
          "name": "",
          "type": "string"
        }
      ],
      "stateMutability": "view",
      "type": "function"
    },
    {
      "inputs": [],
      "name": "owner",
      "outputs": [
        {
          "internalType": "address",
          "name": "",
          "type": "address"
        }
      ],
      "stateMutability": "view",
      "type": "function"
    },
    {
      "inputs": [
        {
          "internalType": "uint256",
          "name": "tokenId",
          "type": "uint256"
        }
      ],
      "name": "ownerOf",
      "outputs": [
        {
          "internalType": "address",
          "name": "",
          "type": "address"
        }
      ],
      "stateMutability": "view",
      "type": "function"
    },
    {
      "inputs": [],
      "name": "renounceOwnership",
      "outputs": [],
      "stateMutability": "nonpayable",
      "type": "function"
    },
    {
      "inputs": [
        {
          "internalType": "address",
          "name": "from",
          "type": "address"
        },
        {
          "internalType": "address",
          "name": "to",
          "type": "address"
        },
        {
          "internalType": "uint256",
          "name": "tokenId",
          "type": "uint256"
        }
      ],
      "name": "safeTransferFrom",
      "outputs": [],
      "stateMutability": "nonpayable",
      "type": "function"
    },
    {
      "inputs": [
        {
          "internalType": "address",
          "name": "from",
          "type": "address"
        },
        {
          "internalType": "address",
          "name": "to",
          "type": "address"
        },
        {
          "internalType": "uint256",
          "name": "tokenId",
          "type": "uint256"
        },
        {
          "internalType": "bytes",
          "name": "_data",
          "type": "bytes"
        }
      ],
      "name": "safeTransferFrom",
      "outputs": [],
      "stateMutability": "nonpayable",
      "type": "function"
    },
    {
      "inputs": [
        {
          "internalType": "address",
          "name": "operator",
          "type": "address"
        },
        {
          "internalType": "bool",
          "name": "approved",
          "type": "bool"
        }
      ],
      "name": "setApprovalForAll",
      "outputs": [],
      "stateMutability": "nonpayable",
      "type": "function"
    },
    {
      "inputs": [
        {
          "internalType": "string",
          "name": "_baseTokenURI",
          "type": "string"
        }
      ],
      "name": "setBaseURI",
      "outputs": [],
      "stateMutability": "nonpayable",
      "type": "function"
    },
    {
      "inputs": [
        {
          "internalType": "bytes4",
          "name": "interfaceId",
          "type": "bytes4"
        }
      ],
      "name": "supportsInterface",
      "outputs": [
        {
          "internalType": "bool",
          "name": "",
          "type": "bool"
        }
      ],
      "stateMutability": "view",
      "type": "function"
    },
    {
      "inputs": [],
      "name": "symbol",
      "outputs": [
        {
          "internalType": "string",
          "name": "",
          "type": "string"
        }
      ],
      "stateMutability": "view",
      "type": "function"
    },
    {
      "inputs": [
        {
          "internalType": "uint256",
          "name": "index",
          "type": "uint256"
        }
      ],
      "name": "tokenByIndex",
      "outputs": [
        {
          "internalType": "uint256",
          "name": "",
          "type": "uint256"
        }
      ],
      "stateMutability": "view",
      "type": "function"
    },
    {
      "inputs": [],
      "name": "tokenIdx",
      "outputs": [
        {
          "internalType": "uint256",
          "name": "_value",
          "type": "uint256"
        }
      ],
      "stateMutability": "view",
      "type": "function"
    },
    {
      "inputs": [
        {
          "internalType": "address",
          "name": "owner",
          "type": "address"
        },
        {
          "internalType": "uint256",
          "name": "index",
          "type": "uint256"
        }
      ],
      "name": "tokenOfOwnerByIndex",
      "outputs": [
        {
          "internalType": "uint256",
          "name": "",
          "type": "uint256"
        }
      ],
      "stateMutability": "view",
      "type": "function"
    },
    {
      "inputs": [
        {
          "internalType": "uint256",
          "name": "tokenId",
          "type": "uint256"
        }
      ],
      "name": "tokenURI",
      "outputs": [
        {
          "internalType": "string",
          "name": "",
          "type": "string"
        }
      ],
      "stateMutability": "view",
      "type": "function"
    },
    {
      "inputs": [
        {
          "internalType": "address",
          "name": "_owner",
          "type": "address"
        }
      ],
      "name": "tokensOfOwner",
      "outputs": [
        {
          "internalType": "uint256[]",
          "name": "",
          "type": "uint256[]"
        }
      ],
      "stateMutability": "view",
      "type": "function"
    },
    {
      "inputs": [],
      "name": "totalSupply",
      "outputs": [
        {
          "internalType": "uint256",
          "name": "",
          "type": "uint256"
        }
      ],
      "stateMutability": "view",
      "type": "function"
    },
    {
      "inputs": [
        {
          "internalType": "address",
          "name": "from",
          "type": "address"
        },
        {
          "internalType": "address",
          "name": "to",
          "type": "address"
        },
        {
          "internalType": "uint256",
          "name": "tokenId",
          "type": "uint256"
        }
      ],
      "name": "transferFrom",
      "outputs": [],
      "stateMutability": "nonpayable",
      "type": "function"
    },
    {
      "inputs": [
        {
          "internalType": "address",
          "name": "newOwner",
          "type": "address"
        }
      ],
      "name": "transferOwnership",
      "outputs": [],
      "stateMutability": "nonpayable",
      "type": "function"
    },
    {
      "inputs": [
        {
          "internalType": "uint256",
          "name": "missileNftId",
          "type": "uint256"
        }
      ],
      "name": "getMissileCreatedInfo",
      "outputs": [
        {
          "components": [
            {
              "internalType": "uint16",
              "name": "dmg",
              "type": "uint16"
            },
            {
              "internalType": "uint32",
              "name": "missileCreatedEventId",
              "type": "uint32"
            },
            {
              "internalType": "address",
              "name": "owner",
              "type": "address"
            },
            {
              "internalType": "uint256",
              "name": "missileNftId",
              "type": "uint256"
            }
          ],
          "internalType": "struct MissileMaker.MissileCreatedState",
          "name": "",
          "type": "tuple"
        }
      ],
      "stateMutability": "view",
      "type": "function"
    },
    {
      "inputs": [
        {
          "internalType": "uint256",
          "name": "randVal",
          "type": "uint256"
        }
      ],
      "name": "maybeGetMissiles",
      "outputs": [],
      "stateMutability": "nonpayable",
      "type": "function"
    },
    {
      "inputs": [
        {
          "internalType": "address",
          "name": "sender",
          "type": "address"
        },
        {
          "internalType": "uint256",
          "name": "missileId",
          "type": "uint256"
        }
      ],
      "name": "_getMissileDmg",
      "outputs": [
        {
          "internalType": "uint64",
          "name": "",
          "type": "uint64"
        }
      ],
      "stateMutability": "nonpayable",
      "type": "function"
    },
    {
      "inputs": [],
      "name": "getMissilePercChance",
      "outputs": [
        {
          "internalType": "uint256",
          "name": "",
          "type": "uint256"
        }
      ],
      "stateMutability": "view",
      "type": "function"
    },
    {
      "inputs": [
        {
          "internalType": "address",
          "name": "userAddr",
          "type": "address"
        }
      ],
      "name": "getUserMissiles",
      "outputs": [
        {
          "internalType": "uint256[]",
          "name": "",
          "type": "uint256[]"
        }
      ],
      "stateMutability": "view",
      "type": "function"
    },
    {
      "inputs": [
        {
          "internalType": "uint256",
          "name": "missileId",
          "type": "uint256"
        }
      ],
      "name": "getMissileDmg",
      "outputs": [
        {
          "internalType": "uint64",
          "name": "",
          "type": "uint64"
        }
      ],
      "stateMutability": "view",
      "type": "function"
    },
    {
      "inputs": [],
      "name": "numMissilesReadyToRoll",
      "outputs": [
        {
          "internalType": "uint256",
          "name": "",
          "type": "uint256"
        }
      ],
      "stateMutability": "view",
      "type": "function"
    },
    {
      "inputs": [
        {
          "internalType": "uint256",
          "name": "newDaysBetweenCutoff",
          "type": "uint256"
        }
      ],
      "name": "setHoursBetweenCutoffs",
      "outputs": [],
      "stateMutability": "nonpayable",
      "type": "function"
    },
    {
      "inputs": [
        {
          "internalType": "uint256",
          "name": "newChancePerc",
          "type": "uint256"
        }
      ],
      "name": "setMissilePercChance",
      "outputs": [],
      "stateMutability": "nonpayable",
      "type": "function"
    }
  ],
  "bytecode": "0x6080604052601860125560646013556063601555602b60165560056017553480156200002a57600080fd5b50604080518082018252600d81526c26b4b9b9b4b6329026b0b5b2b960991b6020808301918252835180850190945260048452635532333560e01b90840152815191929183918391620000809160009162000115565b5080516200009690600190602084019062000115565b505050620000b3620000ad620000bf60201b60201c565b620000c3565b505042601155620001f8565b3390565b600b80546001600160a01b038381166001600160a01b0319831681179093556040519116919082907f8be0079c531659141344cd1fd0a4f28419497f9722a3daafe3b4186f6b6457e090600090a35050565b8280546200012390620001bb565b90600052602060002090601f01602090048101928262000147576000855562000192565b82601f106200016257805160ff191683800117855562000192565b8280016001018555821562000192579182015b828111156200019257825182559160200191906001019062000175565b50620001a0929150620001a4565b5090565b5b80821115620001a05760008155600101620001a5565b600181811c90821680620001d057607f821691505b60208210811415620001f257634e487b7160e01b600052602260045260246000fd5b50919050565b612c1380620002086000396000f3fe608060405234801561001057600080fd5b50600436106101c75760003560e01c8063788edf9511610100578063788edf95146103875780637f7602f81461038f57806383156412146103af5780638462151c146103c2578063884495e0146103d55780638b9ad6f6146103e85780638da5cb5b146103f157806395d89b41146103f9578063a22cb46514610401578063b17b02a214610414578063b88d4fde1461041c578063c87b56dd1461042f578063cab27f0c14610442578063d547cfb714610455578063db44fe071461045d578063e985e9c514610470578063f2fde38b14610483578063f71e1d2a14610496578063fa407920146104a957600080fd5b806301ffc9a7146101cc57806306fdde03146101f4578063081812fc14610209578063095ea7b31461022957806318160ddd1461023e5780631f4139fb1461025057806323b872dd1461027b5780632f745c591461028e5780633395e5fb146102a157806342842e0e146102fa5780634f6ccce71461030d57806355f804b3146103205780636352211e1461033357806364d081da146103465780636828f0c81461035057806370198b0f1461035957806370a082311461036c578063715018a61461037f575b600080fd5b6101df6101da366004612774565b6104bc565b60405190151581526020015b60405180910390f35b6101fc6104e7565b6040516101eb9190612911565b61021c6102173660046127f1565b610579565b6040516101eb919061287c565b61023c6102373660046126a4565b610606565b005b6008545b6040519081526020016101eb565b61026361025e3660046126a4565b610717565b6040516001600160401b0390911681526020016101eb565b61023c6102893660046125b7565b6107e5565b61024261029c3660046126a4565b610816565b6102b46102af3660046127f1565b6108ac565b6040516101eb9190815161ffff16815260208083015163ffffffff16908201526040808301516001600160a01b0316908201526060918201519181019190915260800190565b61023c6103083660046125b7565b61099e565b61024261031b3660046127f1565b6109b9565b61023c61032e3660046127ac565b610a5a565b61021c6103413660046127f1565b610aa0565b600f546102429081565b61024260135481565b61023c6103673660046127f1565b610b17565b61024261037a366004612529565b610b4b565b61023c610bd2565b601354610242565b6103a261039d366004612529565b610c0d565b6040516101eb91906128cd565b6102636103bd3660046127f1565b610c18565b6103a26103d0366004612529565b610ceb565b61023c6103e33660046127f1565b610da8565b61024260125481565b61021c610dd6565b6101fc610de5565b61023c61040f36600461266a565b610df4565b610242610dff565b61023c61042a3660046125f2565b610f88565b6101fc61043d3660046127f1565b610fc0565b6101df6104503660046127f1565b61108a565b6101fc611095565b6101df61046b3660046127f1565b611123565b6101df61047e366004612543565b61113a565b61023c610491366004612529565b611168565b61023c6104a43660046127f1565b611208565b61023c6104b7366004612575565b61123c565b60006001600160e01b0319821663780e9d6360e01b14806104e157506104e1826112c4565b92915050565b6060600080546104f690612ad7565b80601f016020809104026020016040519081016040528092919081815260200182805461052290612ad7565b801561056f5780601f106105445761010080835404028352916020019161056f565b820191906000526020600020905b81548152906001019060200180831161055257829003601f168201915b5050505050905090565b600061058482611314565b6105ea5760405162461bcd60e51b815260206004820152602c60248201527f4552433732313a20617070726f76656420717565727920666f72206e6f6e657860448201526b34b9ba32b73a103a37b5b2b760a11b60648201526084015b60405180910390fd5b506000908152600460205260409020546001600160a01b031690565b600061061182610aa0565b9050806001600160a01b0316836001600160a01b0316141561067f5760405162461bcd60e51b815260206004820152602160248201527f4552433732313a20617070726f76616c20746f2063757272656e74206f776e656044820152603960f91b60648201526084016105e1565b336001600160a01b038216148061069b575061069b813361113a565b6107085760405162461bcd60e51b815260206004820152603860248201527f4552433732313a20617070726f76652063616c6c6572206973206e6f74206f776044820152771b995c881b9bdc88185c1c1c9bdd995908199bdc88185b1b60421b60648201526084016105e1565b6107128383611331565b505050565b600e546000906001600160a01b031633148061074b5750610736610dd6565b6001600160a01b0316336001600160a01b0316145b61075457600080fd5b826001600160a01b031661076783610aa0565b6001600160a01b0316146107c85760405162461bcd60e51b815260206004820152602260248201527f6765744d697373696c65446d67203a3a20796f752063616e277420646f207468604482015261185d60f21b60648201526084016105e1565b60006107d383610c18565b90506107de8361139f565b9392505050565b6107ef33826113c1565b61080b5760405162461bcd60e51b81526004016105e1906129ab565b61071283838361148b565b600061082183610b4b565b82106108835760405162461bcd60e51b815260206004820152602b60248201527f455243373231456e756d657261626c653a206f776e657220696e646578206f7560448201526a74206f6620626f756e647360a81b60648201526084016105e1565b506001600160a01b03919091166000908152600660209081526040808320938352929052205490565b6040805160808101825260008082526020820181905291810182905260608101919091526000828152601a602052604090205461ffff166109415760405162461bcd60e51b815260206004820152602960248201527f74686973206d697373696c652063726561746564206576656e7420646f65736e60448201526827742065786973742160b81b60648201526084016105e1565b506000908152601a60209081526040918290208251608081018452815461ffff8116825262010000810463ffffffff1693820193909352600160301b9092046001600160a01b031692820192909252600190910154606082015290565b61071283838360405180602001604052806000815250610f88565b60006109c460085490565b8210610a275760405162461bcd60e51b815260206004820152602c60248201527f455243373231456e756d657261626c653a20676c6f62616c20696e646578206f60448201526b7574206f6620626f756e647360a01b60648201526084016105e1565b60088281548110610a4857634e487b7160e01b600052603260045260246000fd5b90600052602060002001549050919050565b33610a63610dd6565b6001600160a01b031614610a895760405162461bcd60e51b81526004016105e190612976565b8051610a9c90601090602084019061241d565b5050565b6000818152600260205260408120546001600160a01b0316806104e15760405162461bcd60e51b815260206004820152602960248201527f4552433732313a206f776e657220717565727920666f72206e6f6e657869737460448201526832b73a103a37b5b2b760b91b60648201526084016105e1565b33610b20610dd6565b6001600160a01b031614610b465760405162461bcd60e51b81526004016105e190612976565b601255565b60006001600160a01b038216610bb65760405162461bcd60e51b815260206004820152602a60248201527f4552433732313a2062616c616e636520717565727920666f7220746865207a65604482015269726f206164647265737360b01b60648201526084016105e1565b506001600160a01b031660009081526003602052604090205490565b33610bdb610dd6565b6001600160a01b031614610c015760405162461bcd60e51b81526004016105e190612976565b610c0b6000611620565b565b60606104e182610ceb565b6000818152600a602052604081205460ff1615610c835760405162461bcd60e51b815260206004820152602360248201527f74686973206d697373696c652068617320616c7265616479206265656e20757360448201526265642160e81b60648201526084016105e1565b610c8c82611314565b610ccf5760405162461bcd60e51b81526020600482015260146024820152737468697320646f6573206e6f742065786973742160601b60448201526064016105e1565b506000908152601860205260409020546001600160401b031690565b60606000610cf883610b4b565b90506000816001600160401b03811115610d2257634e487b7160e01b600052604160045260246000fd5b604051908082528060200260200182016040528015610d4b578160200160208202803683370190505b50905060005b82811015610da057610d638582610816565b828281518110610d8357634e487b7160e01b600052603260045260246000fd5b602090810291909101015280610d9881612b12565b915050610d51565b509392505050565b601154610db89082904290611672565b90506000610dc933836013546116bc565b9050610a9c3383836118b1565b600b546001600160a01b031690565b6060600180546104f690612ad7565b610a9c338383611a28565b600c546040516370a0823160e01b81526000916001600160a01b03169081906370a0823190610e3290339060040161287c565b60206040518083038186803b158015610e4a57600080fd5b505afa158015610e5e573d6000803e3d6000fd5b505050506040513d601f19601f82011682018060405250810190610e829190612809565b610e8e57600091505090565b604051632118854760e21b81526000906001600160a01b03831690638462151c90610ebd90339060040161287c565b60006040518083038186803b158015610ed557600080fd5b505afa158015610ee9573d6000803e3d6000fd5b505050506040513d6000823e601f3d908101601f19168201604052610f1191908101906126cd565b90506000805b8251811015610da057610f6360146000858481518110610f4757634e487b7160e01b600052603260045260246000fd5b6020026020010151815260200190815260200160002054611af3565b15610f765781610f7281612b12565b9250505b80610f8081612b12565b915050610f17565b610f9233836113c1565b610fae5760405162461bcd60e51b81526004016105e1906129ab565b610fba84848484611b3b565b50505050565b6060610fcb82611314565b61102f5760405162461bcd60e51b815260206004820152602f60248201527f4552433732314d657461646174613a2055524920717565727920666f72206e6f60448201526e3732bc34b9ba32b73a103a37b5b2b760891b60648201526084016105e1565b6000611039611b6e565b9050600081511161105957604051806020016040528060008152506107de565b8061106384611b7d565b60405160200161107492919061284d565b6040516020818303038152906040529392505050565b60006104e182611c96565b601080546110a290612ad7565b80601f01602080910402602001604051908101604052809291908181526020018280546110ce90612ad7565b801561111b5780601f106110f05761010080835404028352916020019161111b565b820191906000526020600020905b8154815290600101906020018083116110fe57829003601f168201915b505050505081565b6000818152600a602052604081205460ff166104e1565b6001600160a01b03918216600090815260056020908152604080832093909416825291909152205460ff1690565b33611171610dd6565b6001600160a01b0316146111975760405162461bcd60e51b81526004016105e190612976565b6001600160a01b0381166111fc5760405162461bcd60e51b815260206004820152602660248201527f4f776e61626c653a206e6577206f776e657220697320746865207a65726f206160448201526564647265737360d01b60648201526084016105e1565b61120581611620565b50565b33611211610dd6565b6001600160a01b0316146112375760405162461bcd60e51b81526004016105e190612976565b601355565b33611245610dd6565b6001600160a01b03161461126b5760405162461bcd60e51b81526004016105e190612976565b604080516060810182526001600160a01b0394851680825293851660208201819052929094169301839052600c80546001600160a01b03199081169093179055600d805483169091179055600e80549091169091179055565b60006001600160e01b031982166380ac58cd60e01b14806112f557506001600160e01b03198216635b5e139f60e01b145b806104e157506301ffc9a760e01b6001600160e01b03198316146104e1565b6000908152600260205260409020546001600160a01b0316151590565b600081815260046020526040902080546001600160a01b0319166001600160a01b038416908117909155819061136682610aa0565b6001600160a01b03167f8c5be1e5ebec7d5bd14f71427d1e84f3dd0314c0f7b2291e5b200ac8c7c3b92560405160405180910390a45050565b6000818152600a60205260409020805460ff1916600117905561120581611cb7565b60006113cc82611314565b61142d5760405162461bcd60e51b815260206004820152602c60248201527f4552433732313a206f70657261746f7220717565727920666f72206e6f6e657860448201526b34b9ba32b73a103a37b5b2b760a11b60648201526084016105e1565b600061143883610aa0565b9050806001600160a01b0316846001600160a01b031614806114735750836001600160a01b031661146884610579565b6001600160a01b0316145b806114835750611483818561113a565b949350505050565b826001600160a01b031661149e82610aa0565b6001600160a01b0316146115025760405162461bcd60e51b815260206004820152602560248201527f4552433732313a207472616e736665722066726f6d20696e636f72726563742060448201526437bbb732b960d91b60648201526084016105e1565b6001600160a01b0382166115645760405162461bcd60e51b8152602060048201526024808201527f4552433732313a207472616e7366657220746f20746865207a65726f206164646044820152637265737360e01b60648201526084016105e1565b61156f838383611d4c565b61157a600082611331565b6001600160a01b03831660009081526003602052604081208054600192906115a3908490612a94565b90915550506001600160a01b03821660009081526003602052604081208054600192906115d1908490612a49565b909155505060008181526002602052604080822080546001600160a01b0319166001600160a01b038681169182179092559151849391871691600080516020612bbe83398151915291a4505050565b600b80546001600160a01b038381166001600160a01b0319831681179093556040519116919082907f8be0079c531659141344cd1fd0a4f28419497f9722a3daafe3b4186f6b6457e090600090a35050565b60008261168a611683846001611e04565b8690611e04565b60408051602081019390935282015260600160408051601f198184030181529190528051602090910120949350505050565b600c546040516370a0823160e01b81526000916001600160a01b03169081906370a08231906116ef90889060040161287c565b60206040518083038186803b15801561170757600080fd5b505afa15801561171b573d6000803e3d6000fd5b505050506040513d601f19601f8201168201806040525081019061173f9190612809565b61174d5760009150506107de565b604051632118854760e21b81526000906001600160a01b03831690638462151c9061177c90899060040161287c565b60006040518083038186803b15801561179457600080fd5b505afa1580156117a8573d6000803e3d6000fd5b505050506040513d6000823e601f3d908101601f191682016040526117d091908101906126cd565b90506000806000805b845181101561188757600085828151811061180457634e487b7160e01b600052603260045260246000fd5b6020026020010151905061182a6014600083815260200190815260200160002054611af3565b156118745760008181526014602052604090204290556001925061184e858a611e04565b945060648510611874578361186281612b12565b94506118719050856064611e10565b94505b508061187f81612b12565b9150506117d9565b506118928884611e1c565b156118a557816118a181612b12565b9250505b50979650505050505050565b60005b818110156119a25760006118c785611e66565b905060006118d58584611e8c565b6000838152601860209081526040808320805467ffffffffffffffff191661ffff958616908117909155815160808101835290815260195463ffffffff9081168285019081526001600160a01b03808e16848601908152606085018b81529a8852601a909652939095209151825495519451909316600160301b02600160301b600160d01b031994909116620100000265ffffffffffff1990951692909516919091179290921716919091178155915160019290920191909155508061199a81612b12565b9150506118b4565b506019546040805163ffffffff90921682526001600160a01b03851660208301527ff3842580f250d6f26c94777034e934933d7e47956921360b32c658572b1f3e23910160405180910390a16019805463ffffffff16906000611a0483612b2d565b91906101000a81548163ffffffff021916908363ffffffff16021790555050505050565b816001600160a01b0316836001600160a01b03161415611a865760405162461bcd60e51b815260206004820152601960248201527822a9219b99189d1030b8383937bb32903a379031b0b63632b960391b60448201526064016105e1565b6001600160a01b03838116600081815260056020908152604080832094871680845294825291829020805460ff191686151590811790915591519182527f17307eab39ab6107e8899845ad3d59bd9653f200f220920489ca2b5937696c31910160405180910390a3505050565b600080611afe611eea565b90508215806107de5750611b29603c611b23603c601254611f4990919063ffffffff16565b90611f49565b611b338285611e10565b119392505050565b611b4684848461148b565b611b5284848484611f55565b610fba5760405162461bcd60e51b81526004016105e190612924565b6060601080546104f690612ad7565b606081611ba15750506040805180820190915260018152600360fc1b602082015290565b8160005b8115611bcb5780611bb581612b12565b9150611bc49050600a83612a61565b9150611ba5565b6000816001600160401b03811115611bf357634e487b7160e01b600052604160045260246000fd5b6040519080825280601f01601f191660200182016040528015611c1d576020820181803683370190505b5090505b841561148357611c32600183612a94565b9150611c3f600a86612b51565b611c4a906030612a49565b60f81b818381518110611c6d57634e487b7160e01b600052603260045260246000fd5b60200101906001600160f81b031916908160001a905350611c8f600a86612a61565b9450611c21565b6000818152600a602052604081205460ff16806104e157506104e182611314565b6000611cc282610aa0565b9050611cd081600084611d4c565b611cdb600083611331565b6001600160a01b0381166000908152600360205260408120805460019290611d04908490612a94565b909155505060008281526002602052604080822080546001600160a01b0319169055518391906001600160a01b03841690600080516020612bbe833981519152908390a45050565b6001600160a01b038316611da757611da281600880546000838152600960205260408120829055600182018355919091527ff3f7a9fe364faab93b216da50a3214154f22a0a2b415b23a84c8169e8b636ee30155565b611dca565b816001600160a01b0316836001600160a01b031614611dca57611dca8382612062565b6001600160a01b038216611de157610712816120ff565b826001600160a01b0316826001600160a01b0316146107125761071282826121d8565b60006107de8284612a49565b60006107de8284612a94565b600080611e5b6064611e558642604080516020808201939093528082019390935280518084038201815260609093019052815191012090565b9061221c565b909210159392505050565b600080611e72600f5490565b9050611e7e838261223c565b6104e1600f80546001019055565b600080805b601754811015610da057611ecc601654611ec6611ebb601654601554611e1090919063ffffffff16565b611e5589428a611672565b90611e04565b611ed69083612a2c565b915080611ee281612b12565b915050611e91565b600080611f0a611f0560115442611e1090919063ffffffff16565b612256565b90506000611f23611f1a83612270565b60115490611e04565b90506000611f36601254611ec684612284565b9050611f4181612295565b935050505090565b60006107de8284612a75565b60006001600160a01b0384163b1561205757604051630a85bd0160e11b81526001600160a01b0385169063150b7a0290611f99903390899088908890600401612890565b602060405180830381600087803b158015611fb357600080fd5b505af1925050508015611fe3575060408051601f3d908101601f19168201909252611fe091810190612790565b60015b61203d573d808015612011576040519150601f19603f3d011682016040523d82523d6000602084013e612016565b606091505b5080516120355760405162461bcd60e51b81526004016105e190612924565b805181602001fd5b6001600160e01b031916630a85bd0160e11b149050611483565b506001949350505050565b6000600161206f84610b4b565b6120799190612a94565b6000838152600760205260409020549091508082146120cc576001600160a01b03841660009081526006602090815260408083208584528252808320548484528184208190558352600790915290208190555b5060009182526007602090815260408084208490556001600160a01b039094168352600681528383209183525290812055565b60085460009061211190600190612a94565b6000838152600960205260408120546008805493945090928490811061214757634e487b7160e01b600052603260045260246000fd5b90600052602060002001549050806008838154811061217657634e487b7160e01b600052603260045260246000fd5b60009182526020808320909101929092558281526009909152604080822084905585825281205560088054806121bc57634e487b7160e01b600052603160045260246000fd5b6001900381819060005260206000200160009055905550505050565b60006121e383610b4b565b6001600160a01b039093166000908152600660209081526040808320868452825280832085905593825260079052919091209190915550565b6000806000831161222e576001612230565b825b905061148384826122a6565b610a9c8282604051806020016040528060008152506122b2565b60006104e1601861226a603c8186826122e5565b906122e5565b60006104e16018611b23603c818682611f49565b60006104e1603c61226a84826122e5565b60006104e1603c611b238482611f49565b60006107de8284612b51565b6122bc83836122f1565b6122c96000848484611f55565b6107125760405162461bcd60e51b81526004016105e190612924565b60006107de8284612a61565b6001600160a01b0382166123475760405162461bcd60e51b815260206004820181905260248201527f4552433732313a206d696e7420746f20746865207a65726f206164647265737360448201526064016105e1565b61235081611314565b1561239c5760405162461bcd60e51b815260206004820152601c60248201527b115490cdcc8c4e881d1bdad95b88185b1c9958591e481b5a5b9d195960221b60448201526064016105e1565b6123a860008383611d4c565b6001600160a01b03821660009081526003602052604081208054600192906123d1908490612a49565b909155505060008181526002602052604080822080546001600160a01b0319166001600160a01b0386169081179091559051839290600080516020612bbe833981519152908290a45050565b82805461242990612ad7565b90600052602060002090601f01602090048101928261244b5760008555612491565b82601f1061246457805160ff1916838001178555612491565b82800160010185558215612491579182015b82811115612491578251825591602001919060010190612476565b5061249d9291506124a1565b5090565b5b8082111561249d57600081556001016124a2565b60006001600160401b038311156124cf576124cf612b91565b6124e2601f8401601f19166020016129fc565b90508281528383830111156124f657600080fd5b828260208301376000602084830101529392505050565b80356001600160a01b038116811461252457600080fd5b919050565b60006020828403121561253a578081fd5b6107de8261250d565b60008060408385031215612555578081fd5b61255e8361250d565b915061256c6020840161250d565b90509250929050565b600080600060608486031215612589578081fd5b6125928461250d565b92506125a06020850161250d565b91506125ae6040850161250d565b90509250925092565b6000806000606084860312156125cb578283fd5b6125d48461250d565b92506125e26020850161250d565b9150604084013590509250925092565b60008060008060808587031215612607578081fd5b6126108561250d565b935061261e6020860161250d565b92506040850135915060608501356001600160401b0381111561263f578182fd5b8501601f8101871361264f578182fd5b61265e878235602084016124b6565b91505092959194509250565b6000806040838503121561267c578182fd5b6126858361250d565b915060208301358015158114612699578182fd5b809150509250929050565b600080604083850312156126b6578182fd5b6126bf8361250d565b946020939093013593505050565b600060208083850312156126df578182fd5b82516001600160401b03808211156126f5578384fd5b818501915085601f830112612708578384fd5b81518181111561271a5761271a612b91565b8060051b915061272b8483016129fc565b8181528481019084860184860187018a1015612745578788fd5b8795505b83861015612767578051835260019590950194918601918601612749565b5098975050505050505050565b600060208284031215612785578081fd5b81356107de81612ba7565b6000602082840312156127a1578081fd5b81516107de81612ba7565b6000602082840312156127bd578081fd5b81356001600160401b038111156127d2578182fd5b8201601f810184136127e2578182fd5b611483848235602084016124b6565b600060208284031215612802578081fd5b5035919050565b60006020828403121561281a578081fd5b5051919050565b60008151808452612839816020860160208601612aab565b601f01601f19169290920160200192915050565b6000835161285f818460208801612aab565b835190830190612873818360208801612aab565b01949350505050565b6001600160a01b0391909116815260200190565b6001600160a01b03858116825284166020820152604081018390526080606082018190526000906128c390830184612821565b9695505050505050565b6020808252825182820181905260009190848201906040850190845b81811015612905578351835292840192918401916001016128e9565b50909695505050505050565b6020815260006107de6020830184612821565b60208082526032908201527f4552433732313a207472616e7366657220746f206e6f6e20455243373231526560408201527131b2b4bb32b91034b6b83632b6b2b73a32b960711b606082015260800190565b6020808252818101527f4f776e61626c653a2063616c6c6572206973206e6f7420746865206f776e6572604082015260600190565b60208082526031908201527f4552433732313a207472616e736665722063616c6c6572206973206e6f74206f6040820152701ddb995c881b9bdc88185c1c1c9bdd9959607a1b606082015260800190565b604051601f8201601f191681016001600160401b0381118282101715612a2457612a24612b91565b604052919050565b600061ffff80831681851680830382111561287357612873612b65565b60008219821115612a5c57612a5c612b65565b500190565b600082612a7057612a70612b7b565b500490565b6000816000190483118215151615612a8f57612a8f612b65565b500290565b600082821015612aa657612aa6612b65565b500390565b60005b83811015612ac6578181015183820152602001612aae565b83811115610fba5750506000910152565b600181811c90821680612aeb57607f821691505b60208210811415612b0c57634e487b7160e01b600052602260045260246000fd5b50919050565b6000600019821415612b2657612b26612b65565b5060010190565b600063ffffffff80831681811415612b4757612b47612b65565b6001019392505050565b600082612b6057612b60612b7b565b500690565b634e487b7160e01b600052601160045260246000fd5b634e487b7160e01b600052601260045260246000fd5b634e487b7160e01b600052604160045260246000fd5b6001600160e01b03198116811461120557600080fdfeddf252ad1be2c89b69c2b068fc378daa952ba7f163c4a11628f55a4df523b3efa2646970667358221220315a615fe750f0fe92b904ebc44a3e0f36915076af781efb25546ca14d15b96e64736f6c63430008040033",
  "immutableReferences": {},
  "source": "// SPDX-License-Identifier: MIT\r\npragma solidity ^0.8.4;\r\n\r\nimport \"./Helpers.sol\";\r\nimport \"./BaseNft.sol\";\r\nimport \"./WorldLeader.sol\";\r\n\r\n///////////////////////////////////////////////////////////////////////////////////////////////////////////////////////\r\n// handles creating new missiles & the RNG for doing so, their damage, & the intervals for how often players can\r\n// try to roll more missiles again\r\n///////////////////////////////////////////////////////////////////////////////////////////////////////////////////////\r\ncontract MissileMaker is BaseNft {\r\n    using Helpers for uint;\r\n    using SafeMath for uint;\r\n    using Counters for Counters.Counter;\r\n    uint private _creationTime;\r\n\r\n    // how many hours make up one interval (within which a leader NFT can only attempt to roll for a missile once)\r\n    //\r\n    uint public _hoursBetweenCutoffs = 24;\r\n    uint public missileChancePerc = 100;\r\n\r\n    mapping(uint => uint) _lastRunLookup;\r\n    uint _maxDmgPerRoll = 99;\r\n    uint _minDmgPerRoll = 43;\r\n    uint _numDmgRolls = 5;\r\n\r\n    struct MissileOdds {\r\n        uint numMissilesToMint;\r\n        bool isOkay;\r\n    }\r\n    mapping(uint => uint64) _missileDmgLookup;\r\n\r\n    uint32 _missileCreatedEventId;\r\n    struct MissileCreatedState {\r\n        uint16 dmg;\r\n        uint32 missileCreatedEventId;\r\n        address owner;\r\n        uint missileNftId;\r\n    }\r\n\r\n    mapping(uint => MissileCreatedState) _missileCreatedLookup;\r\n\r\n    function getMissileCreatedInfo(uint missileNftId) public view returns (MissileCreatedState memory) {\r\n        require(_missileCreatedLookup[missileNftId].dmg > 0, \"this missile created event doesn't exist!\");\r\n        return _missileCreatedLookup[missileNftId];\r\n    }\r\n\r\n    event MissilesCreated(uint missileCreatedEventId, address createdForAddress);\r\n\r\n    constructor() BaseNft(\"Missile Maker\", \"U235\") {\r\n        _creationTime = block.timestamp;\r\n    }\r\n\r\n    function getNextCutoffInSecondsSinceEpoch() private view returns (uint) {\r\n        uint timeSinceCreationInDays = block.timestamp.sub(_creationTime).secsToDays();\r\n        uint startOfThisStepInSecs = _creationTime.add(timeSinceCreationInDays.daysToSecs());\r\n        uint nextCutoffHours = startOfThisStepInSecs.secsToHours().add(_hoursBetweenCutoffs);\r\n        return nextCutoffHours.hoursToSecs();\r\n    }\r\n\r\n    function isRollForMissileReady(uint lastRun) private view returns (bool) {\r\n        uint nextCutoff = getNextCutoffInSecondsSinceEpoch();\r\n        return lastRun == 0 || nextCutoff.sub(lastRun) > _hoursBetweenCutoffs.mul(60).mul(60);\r\n    }\r\n\r\n    function _maybeGetMissiles(address sender, uint randVal, uint missilePercChance) private returns (uint) {\r\n        WorldLeader thisWorldLeader = WorldLeader(_ownedContracts.leader);\r\n        if (thisWorldLeader.balanceOf(sender) == 0) {\r\n            return 0;\r\n        }\r\n        uint[] memory leaderNftIds = thisWorldLeader.tokensOfOwner(sender);\r\n        uint currentPercentage = 0;\r\n        uint numMissilesToMint = 0;\r\n\r\n        bool anyReady = false;\r\n        //\r\n        // increment the % chance of rolling a missile according to the missilePercChance depending on number of NFTs owned.\r\n        // when this reaches or exceeds 100%, consider this a guaranteed missile for the user and start back at 0 again\r\n        // for their chance of rolling another one. repeat this for the amount of NFTs they own until you have an\r\n        // amount of guaranteed missiles, and a % chance of getting one more.\r\n        //\r\n        // each unique world leader collection calculates these odds separately.\r\n        //\r\n        for (uint i = 0; i < leaderNftIds.length; i++) {\r\n            uint leaderNftId = leaderNftIds[i];\r\n            if (isRollForMissileReady(_lastRunLookup[leaderNftId])) {\r\n                anyReady = true;\r\n                _lastRunLookup[leaderNftId] = block.timestamp;\r\n                currentPercentage = currentPercentage.add(missilePercChance);\r\n                if (currentPercentage >= 100) {\r\n                    numMissilesToMint++;\r\n                    currentPercentage = currentPercentage.sub(100);\r\n                }\r\n            }\r\n        }\r\n\r\n        if (userDidRollMissile(randVal, currentPercentage)) {\r\n            numMissilesToMint++;\r\n        }\r\n\r\n        return numMissilesToMint;\r\n    }\r\n\r\n    function userDidRollMissile(uint randVal, uint thisMissilePercChance) internal view returns (bool){\r\n        uint num = uint(randVal.randomize(block.timestamp).modSafe(100));\r\n        return num <= thisMissilePercChance;\r\n    }\r\n\r\n    function maybeGetMissiles(uint randVal) external {\r\n        randVal = randVal.randomize(block.timestamp, _creationTime);\r\n        uint numMissilesToMint = _maybeGetMissiles(msg.sender, randVal, missileChancePerc);\r\n        createMissiles(msg.sender, randVal, numMissilesToMint);\r\n    }\r\n\r\n    function createMissiles(address sender, uint randVal, uint numMissilesToMint) private {\r\n        for (uint i = 0; i < numMissilesToMint; i++) {\r\n            uint missileNftId = _mintSingleNFT(sender);\r\n            uint16 dmg = rollMissileDmg(randVal, i);\r\n            _missileDmgLookup[missileNftId] = dmg;\r\n            _missileCreatedLookup[missileNftId] = MissileCreatedState(dmg, _missileCreatedEventId, sender, missileNftId);\r\n        }\r\n        emit MissilesCreated(_missileCreatedEventId, sender);\r\n        _missileCreatedEventId++;\r\n    }\r\n\r\n    function _mintSingleNFT(address to) internal returns (uint) {\r\n        uint newTokenID = tokenIdx.current();\r\n        _safeMint(to, newTokenID);\r\n        tokenIdx.increment();\r\n        return newTokenID;\r\n    }\r\n\r\n    function _getMissileDmg(address sender, uint256 missileId) external returns (uint64) {\r\n        require(msg.sender == _ownedContracts.ufoInvasion || msg.sender == owner());\r\n        require(ownerOf(missileId) == sender, \"getMissileDmg :: you can't do that\");\r\n        uint64 missileDmg = getMissileDmg(missileId);\r\n        burn(missileId);\r\n        return missileDmg;\r\n    }\r\n\r\n    function rollMissileDmg(uint randVal, uint idx) internal view returns (uint16){\r\n        uint16 dmg = 0;\r\n        for (uint i = 0; i < _numDmgRolls; i++) {\r\n            dmg += uint16(randVal.randomize(block.timestamp, idx).modSafe(_maxDmgPerRoll.sub(_minDmgPerRoll)).add(_minDmgPerRoll));\r\n        }\r\n        return dmg;\r\n    }\r\n\r\n    // ********** PUBLIC DATA QUERY METHODS **********\r\n\r\n    // returns the percentage chance each World Leader NFT has at rolling a missile\r\n    function getMissilePercChance() public view returns (uint) {\r\n        return missileChancePerc;\r\n    }\r\n\r\n    // returns the missile ids of the missiles owned by the user\r\n    function getUserMissiles(address userAddr) external view returns (uint[] memory) {\r\n        return tokensOfOwner(userAddr);\r\n    }\r\n\r\n    // returns the amount of damage the missile with the id `missileId` does\r\n    function getMissileDmg(uint256 missileId) public view returns (uint64) {\r\n        require(!_isBurned(missileId), \"this missile has already been used!\");\r\n        require(_exists(missileId), \"this does not exist!\");\r\n        return _missileDmgLookup[missileId];\r\n    }\r\n\r\n    // returns the number of missiles rolling attempts the message sender has available currently\r\n    function numMissilesReadyToRoll() public view returns (uint) {\r\n        WorldLeader leader = WorldLeader(_ownedContracts.leader);\r\n        if (leader.balanceOf(msg.sender) == 0) {\r\n            return 0;\r\n        }\r\n        uint[] memory leaderNftIds = leader.tokensOfOwner(msg.sender);\r\n        uint numReady = 0;\r\n        for (uint i = 0; i < leaderNftIds.length; i++) {\r\n            if (isRollForMissileReady(_lastRunLookup[leaderNftIds[i]])) {\r\n                numReady++;\r\n            }\r\n        }\r\n        return numReady;\r\n    }\r\n\r\n    // ********** ONLY OWNER PARAMETER CHANGING **********\r\n\r\n    function setHoursBetweenCutoffs(uint newDaysBetweenCutoff) public onlyOwner {\r\n        _hoursBetweenCutoffs = newDaysBetweenCutoff;\r\n    }\r\n\r\n    function setMissilePercChance(uint newChancePerc) public onlyOwner {\r\n        missileChancePerc = newChancePerc;\r\n    }\r\n}\r\n",
  "sourcePath": "C:\\data\\source\\Webstorm Projects\\metis-nfts\\contracts\\MissileMaker.sol",
  "compiler": {
    "name": "solc",
    "version": "0.8.4+commit.c7e474f2.Emscripten.clang"
  },
  "schemaVersion": "3.4.5",
  "updatedAt": "2022-03-29T22:34:55.809Z",
  "devdoc": {
    "kind": "dev",
    "methods": {
      "approve(address,uint256)": {
        "details": "See {IERC721-approve}."
      },
      "balanceOf(address)": {
        "details": "See {IERC721-balanceOf}."
      },
      "getApproved(uint256)": {
        "details": "See {IERC721-getApproved}."
      },
      "isApprovedForAll(address,address)": {
        "details": "See {IERC721-isApprovedForAll}."
      },
      "name()": {
        "details": "See {IERC721Metadata-name}."
      },
      "owner()": {
        "details": "Returns the address of the current owner."
      },
      "ownerOf(uint256)": {
        "details": "See {IERC721-ownerOf}."
      },
      "renounceOwnership()": {
        "details": "Leaves the contract without owner. It will not be possible to call `onlyOwner` functions anymore. Can only be called by the current owner. NOTE: Renouncing ownership will leave the contract without an owner, thereby removing any functionality that is only available to the owner."
      },
      "safeTransferFrom(address,address,uint256)": {
        "details": "See {IERC721-safeTransferFrom}."
      },
      "safeTransferFrom(address,address,uint256,bytes)": {
        "details": "See {IERC721-safeTransferFrom}."
      },
      "setApprovalForAll(address,bool)": {
        "details": "See {IERC721-setApprovalForAll}."
      },
      "supportsInterface(bytes4)": {
        "details": "See {IERC165-supportsInterface}."
      },
      "symbol()": {
        "details": "See {IERC721Metadata-symbol}."
      },
      "tokenByIndex(uint256)": {
        "details": "See {IERC721Enumerable-tokenByIndex}."
      },
      "tokenOfOwnerByIndex(address,uint256)": {
        "details": "See {IERC721Enumerable-tokenOfOwnerByIndex}."
      },
      "tokenURI(uint256)": {
        "details": "See {IERC721Metadata-tokenURI}."
      },
      "totalSupply()": {
        "details": "See {IERC721Enumerable-totalSupply}."
      },
      "transferFrom(address,address,uint256)": {
        "details": "See {IERC721-transferFrom}."
      },
      "transferOwnership(address)": {
        "details": "Transfers ownership of the contract to a new account (`newOwner`). Can only be called by the current owner."
      }
    },
    "version": 1
  },
  "userdoc": {
    "kind": "user",
    "methods": {},
    "version": 1
  }
}