{
  "contractName": "MissileMaker",
  "abi": [
    {
      "inputs": [],
      "stateMutability": "nonpayable",
      "type": "constructor"
    },
    {
      "anonymous": false,
      "inputs": [
        {
          "indexed": true,
          "internalType": "address",
          "name": "owner",
          "type": "address"
        },
        {
          "indexed": true,
          "internalType": "address",
          "name": "approved",
          "type": "address"
        },
        {
          "indexed": true,
          "internalType": "uint256",
          "name": "tokenId",
          "type": "uint256"
        }
      ],
      "name": "Approval",
      "type": "event"
    },
    {
      "anonymous": false,
      "inputs": [
        {
          "indexed": true,
          "internalType": "address",
          "name": "owner",
          "type": "address"
        },
        {
          "indexed": true,
          "internalType": "address",
          "name": "operator",
          "type": "address"
        },
        {
          "indexed": false,
          "internalType": "bool",
          "name": "approved",
          "type": "bool"
        }
      ],
      "name": "ApprovalForAll",
      "type": "event"
    },
    {
      "anonymous": false,
      "inputs": [
        {
          "indexed": false,
          "internalType": "uint256",
          "name": "missileCreatedEventId",
          "type": "uint256"
        },
        {
          "indexed": false,
          "internalType": "address",
          "name": "createdForAddress",
          "type": "address"
        }
      ],
      "name": "MissilesCreated",
      "type": "event"
    },
    {
      "anonymous": false,
      "inputs": [
        {
          "indexed": true,
          "internalType": "address",
          "name": "previousOwner",
          "type": "address"
        },
        {
          "indexed": true,
          "internalType": "address",
          "name": "newOwner",
          "type": "address"
        }
      ],
      "name": "OwnershipTransferred",
      "type": "event"
    },
    {
      "anonymous": false,
      "inputs": [
        {
          "indexed": true,
          "internalType": "address",
          "name": "from",
          "type": "address"
        },
        {
          "indexed": true,
          "internalType": "address",
          "name": "to",
          "type": "address"
        },
        {
          "indexed": true,
          "internalType": "uint256",
          "name": "tokenId",
          "type": "uint256"
        }
      ],
      "name": "Transfer",
      "type": "event"
    },
    {
      "inputs": [],
      "name": "_creationTime",
      "outputs": [
        {
          "internalType": "uint256",
          "name": "",
          "type": "uint256"
        }
      ],
      "stateMutability": "view",
      "type": "function"
    },
    {
      "inputs": [],
      "name": "_hoursBetweenCutoffs",
      "outputs": [
        {
          "internalType": "uint256",
          "name": "",
          "type": "uint256"
        }
      ],
      "stateMutability": "view",
      "type": "function"
    },
    {
      "inputs": [
        {
          "internalType": "address",
          "name": "leader",
          "type": "address"
        },
        {
          "internalType": "address",
          "name": "missileMaker",
          "type": "address"
        },
        {
          "internalType": "address",
          "name": "ufoInvasion",
          "type": "address"
        }
      ],
      "name": "_setOwnedContracts",
      "outputs": [],
      "stateMutability": "nonpayable",
      "type": "function"
    },
    {
      "inputs": [
        {
          "internalType": "address",
          "name": "to",
          "type": "address"
        },
        {
          "internalType": "uint256",
          "name": "tokenId",
          "type": "uint256"
        }
      ],
      "name": "approve",
      "outputs": [],
      "stateMutability": "nonpayable",
      "type": "function"
    },
    {
      "inputs": [
        {
          "internalType": "address",
          "name": "owner",
          "type": "address"
        }
      ],
      "name": "balanceOf",
      "outputs": [
        {
          "internalType": "uint256",
          "name": "",
          "type": "uint256"
        }
      ],
      "stateMutability": "view",
      "type": "function"
    },
    {
      "inputs": [],
      "name": "baseTokenURI",
      "outputs": [
        {
          "internalType": "string",
          "name": "",
          "type": "string"
        }
      ],
      "stateMutability": "view",
      "type": "function"
    },
    {
      "inputs": [
        {
          "internalType": "uint256",
          "name": "tokenId",
          "type": "uint256"
        }
      ],
      "name": "getApproved",
      "outputs": [
        {
          "internalType": "address",
          "name": "",
          "type": "address"
        }
      ],
      "stateMutability": "view",
      "type": "function"
    },
    {
      "inputs": [
        {
          "internalType": "address",
          "name": "owner",
          "type": "address"
        },
        {
          "internalType": "address",
          "name": "operator",
          "type": "address"
        }
      ],
      "name": "isApprovedForAll",
      "outputs": [
        {
          "internalType": "bool",
          "name": "",
          "type": "bool"
        }
      ],
      "stateMutability": "view",
      "type": "function"
    },
    {
      "inputs": [],
      "name": "missileChancePerc",
      "outputs": [
        {
          "internalType": "uint256",
          "name": "",
          "type": "uint256"
        }
      ],
      "stateMutability": "view",
      "type": "function"
    },
    {
      "inputs": [],
      "name": "name",
      "outputs": [
        {
          "internalType": "string",
          "name": "",
          "type": "string"
        }
      ],
      "stateMutability": "view",
      "type": "function"
    },
    {
      "inputs": [],
      "name": "owner",
      "outputs": [
        {
          "internalType": "address",
          "name": "",
          "type": "address"
        }
      ],
      "stateMutability": "view",
      "type": "function"
    },
    {
      "inputs": [
        {
          "internalType": "uint256",
          "name": "tokenId",
          "type": "uint256"
        }
      ],
      "name": "ownerOf",
      "outputs": [
        {
          "internalType": "address",
          "name": "",
          "type": "address"
        }
      ],
      "stateMutability": "view",
      "type": "function"
    },
    {
      "inputs": [],
      "name": "renounceOwnership",
      "outputs": [],
      "stateMutability": "nonpayable",
      "type": "function"
    },
    {
      "inputs": [
        {
          "internalType": "address",
          "name": "from",
          "type": "address"
        },
        {
          "internalType": "address",
          "name": "to",
          "type": "address"
        },
        {
          "internalType": "uint256",
          "name": "tokenId",
          "type": "uint256"
        }
      ],
      "name": "safeTransferFrom",
      "outputs": [],
      "stateMutability": "nonpayable",
      "type": "function"
    },
    {
      "inputs": [
        {
          "internalType": "address",
          "name": "from",
          "type": "address"
        },
        {
          "internalType": "address",
          "name": "to",
          "type": "address"
        },
        {
          "internalType": "uint256",
          "name": "tokenId",
          "type": "uint256"
        },
        {
          "internalType": "bytes",
          "name": "_data",
          "type": "bytes"
        }
      ],
      "name": "safeTransferFrom",
      "outputs": [],
      "stateMutability": "nonpayable",
      "type": "function"
    },
    {
      "inputs": [
        {
          "internalType": "address",
          "name": "operator",
          "type": "address"
        },
        {
          "internalType": "bool",
          "name": "approved",
          "type": "bool"
        }
      ],
      "name": "setApprovalForAll",
      "outputs": [],
      "stateMutability": "nonpayable",
      "type": "function"
    },
    {
      "inputs": [
        {
          "internalType": "string",
          "name": "_baseTokenURI",
          "type": "string"
        }
      ],
      "name": "setBaseURI",
      "outputs": [],
      "stateMutability": "nonpayable",
      "type": "function"
    },
    {
      "inputs": [
        {
          "internalType": "bytes4",
          "name": "interfaceId",
          "type": "bytes4"
        }
      ],
      "name": "supportsInterface",
      "outputs": [
        {
          "internalType": "bool",
          "name": "",
          "type": "bool"
        }
      ],
      "stateMutability": "view",
      "type": "function"
    },
    {
      "inputs": [],
      "name": "symbol",
      "outputs": [
        {
          "internalType": "string",
          "name": "",
          "type": "string"
        }
      ],
      "stateMutability": "view",
      "type": "function"
    },
    {
      "inputs": [
        {
          "internalType": "uint256",
          "name": "index",
          "type": "uint256"
        }
      ],
      "name": "tokenByIndex",
      "outputs": [
        {
          "internalType": "uint256",
          "name": "",
          "type": "uint256"
        }
      ],
      "stateMutability": "view",
      "type": "function"
    },
    {
      "inputs": [],
      "name": "tokenIdx",
      "outputs": [
        {
          "internalType": "uint256",
          "name": "_value",
          "type": "uint256"
        }
      ],
      "stateMutability": "view",
      "type": "function"
    },
    {
      "inputs": [
        {
          "internalType": "address",
          "name": "owner",
          "type": "address"
        },
        {
          "internalType": "uint256",
          "name": "index",
          "type": "uint256"
        }
      ],
      "name": "tokenOfOwnerByIndex",
      "outputs": [
        {
          "internalType": "uint256",
          "name": "",
          "type": "uint256"
        }
      ],
      "stateMutability": "view",
      "type": "function"
    },
    {
      "inputs": [
        {
          "internalType": "uint256",
          "name": "tokenId",
          "type": "uint256"
        }
      ],
      "name": "tokenURI",
      "outputs": [
        {
          "internalType": "string",
          "name": "",
          "type": "string"
        }
      ],
      "stateMutability": "view",
      "type": "function"
    },
    {
      "inputs": [
        {
          "internalType": "address",
          "name": "_owner",
          "type": "address"
        }
      ],
      "name": "tokensOfOwner",
      "outputs": [
        {
          "internalType": "uint256[]",
          "name": "",
          "type": "uint256[]"
        }
      ],
      "stateMutability": "view",
      "type": "function"
    },
    {
      "inputs": [],
      "name": "totalSupply",
      "outputs": [
        {
          "internalType": "uint256",
          "name": "",
          "type": "uint256"
        }
      ],
      "stateMutability": "view",
      "type": "function"
    },
    {
      "inputs": [
        {
          "internalType": "address",
          "name": "from",
          "type": "address"
        },
        {
          "internalType": "address",
          "name": "to",
          "type": "address"
        },
        {
          "internalType": "uint256",
          "name": "tokenId",
          "type": "uint256"
        }
      ],
      "name": "transferFrom",
      "outputs": [],
      "stateMutability": "nonpayable",
      "type": "function"
    },
    {
      "inputs": [
        {
          "internalType": "address",
          "name": "newOwner",
          "type": "address"
        }
      ],
      "name": "transferOwnership",
      "outputs": [],
      "stateMutability": "nonpayable",
      "type": "function"
    },
    {
      "inputs": [
        {
          "internalType": "uint256",
          "name": "missileNftId",
          "type": "uint256"
        }
      ],
      "name": "getMissileCreatedInfo",
      "outputs": [
        {
          "components": [
            {
              "internalType": "uint16",
              "name": "dmg",
              "type": "uint16"
            },
            {
              "internalType": "uint32",
              "name": "missileCreatedEventId",
              "type": "uint32"
            },
            {
              "internalType": "address",
              "name": "owner",
              "type": "address"
            },
            {
              "internalType": "uint256",
              "name": "missileNftId",
              "type": "uint256"
            }
          ],
          "internalType": "struct MissileMaker.MissileCreatedState",
          "name": "",
          "type": "tuple"
        }
      ],
      "stateMutability": "view",
      "type": "function"
    },
    {
      "inputs": [
        {
          "internalType": "uint256[]",
          "name": "missileIds",
          "type": "uint256[]"
        }
      ],
      "name": "allMissilesExist",
      "outputs": [
        {
          "internalType": "bool",
          "name": "",
          "type": "bool"
        }
      ],
      "stateMutability": "view",
      "type": "function"
    },
    {
      "inputs": [
        {
          "internalType": "uint256",
          "name": "randVal",
          "type": "uint256"
        }
      ],
      "name": "maybeGetMissiles",
      "outputs": [],
      "stateMutability": "nonpayable",
      "type": "function"
    },
    {
      "inputs": [],
      "name": "numMissilesReadyToRoll",
      "outputs": [
        {
          "internalType": "uint256",
          "name": "",
          "type": "uint256"
        }
      ],
      "stateMutability": "view",
      "type": "function"
    },
    {
      "inputs": [
        {
          "internalType": "address",
          "name": "sender",
          "type": "address"
        },
        {
          "internalType": "uint256",
          "name": "missileId",
          "type": "uint256"
        }
      ],
      "name": "getMissileDmg",
      "outputs": [
        {
          "internalType": "uint64",
          "name": "",
          "type": "uint64"
        }
      ],
      "stateMutability": "view",
      "type": "function"
    },
    {
      "inputs": [
        {
          "internalType": "address",
          "name": "sender",
          "type": "address"
        },
        {
          "internalType": "uint256",
          "name": "missileId",
          "type": "uint256"
        }
      ],
      "name": "_getMissileDmg",
      "outputs": [
        {
          "internalType": "uint64",
          "name": "",
          "type": "uint64"
        }
      ],
      "stateMutability": "nonpayable",
      "type": "function"
    },
    {
      "inputs": [
        {
          "internalType": "uint256",
          "name": "newChancePerc",
          "type": "uint256"
        }
      ],
      "name": "setMissilePercChance",
      "outputs": [],
      "stateMutability": "nonpayable",
      "type": "function"
    },
    {
      "inputs": [],
      "name": "getMissilePercChance",
      "outputs": [
        {
          "internalType": "uint256",
          "name": "",
          "type": "uint256"
        }
      ],
      "stateMutability": "view",
      "type": "function"
    },
    {
      "inputs": [
        {
          "internalType": "uint256",
          "name": "newDaysBetweenCutoff",
          "type": "uint256"
        }
      ],
      "name": "setHoursBetweenCutoffs",
      "outputs": [],
      "stateMutability": "nonpayable",
      "type": "function"
    },
    {
      "inputs": [
        {
          "internalType": "address",
          "name": "userAddr",
          "type": "address"
        }
      ],
      "name": "getUserMissiles",
      "outputs": [
        {
          "internalType": "uint256[]",
          "name": "",
          "type": "uint256[]"
        }
      ],
      "stateMutability": "view",
      "type": "function"
    }
  ],
  "bytecode": "0x6080604052601860115560646012556063601455602b60155560056016553480156200002a57600080fd5b50604080518082018252600d81526c26b4b9b9b4b6329026b0b5b2b960991b6020808301918252835180850190945260048452635532333560e01b90840152815191929183918391620000809160009162000115565b5080516200009690600190602084019062000115565b505050620000b3620000ad620000bf60201b60201c565b620000c3565b505042601055620001f8565b3390565b600a80546001600160a01b038381166001600160a01b0319831681179093556040519116919082907f8be0079c531659141344cd1fd0a4f28419497f9722a3daafe3b4186f6b6457e090600090a35050565b8280546200012390620001bb565b90600052602060002090601f01602090048101928262000147576000855562000192565b82601f106200016257805160ff191683800117855562000192565b8280016001018555821562000192579182015b828111156200019257825182559160200191906001019062000175565b50620001a0929150620001a4565b5090565b5b80821115620001a05760008155600101620001a5565b600181811c90821680620001d057607f821691505b60208210811415620001f257634e487b7160e01b600052602260045260246000fd5b50919050565b612bfc80620002086000396000f3fe608060405234801561001057600080fd5b50600436106101c75760003560e01c806370a082311161010057806370a0823114610392578063715018a6146103a5578063788edf95146103ad5780637f7602f8146103b55780638462151c146103d5578063884495e0146103e85780638b9ad6f6146103fb5780638da5cb5b1461040457806395d89b411461040c578063a22cb46514610414578063b17b02a214610427578063b88d4fde1461042f578063c87b56dd14610442578063d547cfb714610455578063db4800361461045d578063e985e9c514610466578063f2fde38b14610479578063f71e1d2a1461048c578063fa4079201461049f57600080fd5b806301ffc9a7146101cc57806306fdde03146101f4578063081812fc14610209578063095ea7b31461022957806318160ddd1461023e5780631f4139fb1461025057806323b872dd1461027b5780632f745c591461028e5780633395e5fb146102a157806342842e0e146102fa5780634f6ccce71461030d578063552f6a951461032057806355f804b31461033357806362070715146103465780636352211e1461035957806364d081da1461036c5780636828f0c81461037657806370198b0f1461037f575b600080fd5b6101df6101da36600461275d565b6104b2565b60405190151581526020015b60405180910390f35b6101fc6104dd565b6040516101eb91906128fa565b61021c6102173660046127da565b61056f565b6040516101eb9190612865565b61023c61023736600461261e565b6105fc565b005b6008545b6040519081526020016101eb565b61026361025e36600461261e565b61070d565b6040516001600160401b0390911681526020016101eb565b61023c610289366004612531565b610768565b61024261029c36600461261e565b610799565b6102b46102af3660046127da565b61082f565b6040516101eb9190815161ffff16815260208083015163ffffffff16908201526040808301516001600160a01b0316908201526060918201519181019190915260800190565b61023c610308366004612531565b610921565b61024261031b3660046127da565b61093c565b61026361032e36600461261e565b6109dd565b61023c610341366004612795565b610abd565b6101df610354366004612647565b610b03565b61021c6103673660046127da565b610b68565b600e546102429081565b61024260125481565b61023c61038d3660046127da565b610bdf565b6102426103a03660046124a3565b610c13565b61023c610c9a565b601254610242565b6103c86103c33660046124a3565b610cd5565b6040516101eb91906128b6565b6103c86103e33660046124a3565b610cdc565b61023c6103f63660046127da565b610d99565b61024260115481565b61021c610db5565b6101fc610dc4565b61023c6104223660046125e4565b610dd3565b610242610dde565b61023c61043d36600461256c565b610f67565b6101fc6104503660046127da565b610f9f565b6101fc611069565b61024260105481565b6101df6104743660046124bd565b6110f7565b61023c6104873660046124a3565b611125565b61023c61049a3660046127da565b6111c5565b61023c6104ad3660046124ef565b6111f9565b60006001600160e01b0319821663780e9d6360e01b14806104d757506104d782611281565b92915050565b6060600080546104ec90612ac0565b80601f016020809104026020016040519081016040528092919081815260200182805461051890612ac0565b80156105655780601f1061053a57610100808354040283529160200191610565565b820191906000526020600020905b81548152906001019060200180831161054857829003601f168201915b5050505050905090565b600061057a826112d1565b6105e05760405162461bcd60e51b815260206004820152602c60248201527f4552433732313a20617070726f76656420717565727920666f72206e6f6e657860448201526b34b9ba32b73a103a37b5b2b760a11b60648201526084015b60405180910390fd5b506000908152600460205260409020546001600160a01b031690565b600061060782610b68565b9050806001600160a01b0316836001600160a01b031614156106755760405162461bcd60e51b815260206004820152602160248201527f4552433732313a20617070726f76616c20746f2063757272656e74206f776e656044820152603960f91b60648201526084016105d7565b336001600160a01b0382161480610691575061069181336110f7565b6106fe5760405162461bcd60e51b815260206004820152603860248201527f4552433732313a20617070726f76652063616c6c6572206973206e6f74206f776044820152771b995c881b9bdc88185c1c1c9bdd995908199bdc88185b1b60421b60648201526084016105d7565b61070883836112ee565b505050565b600d546000906001600160a01b0316331480610741575061072c610db5565b6001600160a01b0316336001600160a01b0316145b61074a57600080fd5b600061075684846109dd565b90506107618361135c565b9392505050565b61077233826113f1565b61078e5760405162461bcd60e51b81526004016105d790612994565b6107088383836114bb565b60006107a483610c13565b82106108065760405162461bcd60e51b815260206004820152602b60248201527f455243373231456e756d657261626c653a206f776e657220696e646578206f7560448201526a74206f6620626f756e647360a81b60648201526084016105d7565b506001600160a01b03919091166000908152600660209081526040808320938352929052205490565b60408051608081018252600080825260208201819052918101829052606081019190915260008281526019602052604090205461ffff166108c45760405162461bcd60e51b815260206004820152602960248201527f74686973206d697373696c652063726561746564206576656e7420646f65736e60448201526827742065786973742160b81b60648201526084016105d7565b506000908152601960209081526040918290208251608081018452815461ffff8116825262010000810463ffffffff1693820193909352600160301b9092046001600160a01b031692820192909252600190910154606082015290565b61070883838360405180602001604052806000815250610f67565b600061094760085490565b82106109aa5760405162461bcd60e51b815260206004820152602c60248201527f455243373231456e756d657261626c653a20676c6f62616c20696e646578206f60448201526b7574206f6620626f756e647360a01b60648201526084016105d7565b600882815481106109cb57634e487b7160e01b600052603260045260246000fd5b90600052602060002001549050919050565b60006109e8826112d1565b610a2b5760405162461bcd60e51b81526020600482015260146024820152737468697320646f6573206e6f742065786973742160601b60448201526064016105d7565b826001600160a01b0316610a3e83610b68565b6001600160a01b031614610a9f5760405162461bcd60e51b815260206004820152602260248201527f6765744d697373696c65446d67203a3a20796f752063616e277420646f207468604482015261185d60f21b60648201526084016105d7565b506000908152601760205260409020546001600160401b0316919050565b33610ac6610db5565b6001600160a01b031614610aec5760405162461bcd60e51b81526004016105d79061295f565b8051610aff90600f906020840190612397565b5050565b6000805b82811015610b5e57610b3e848483818110610b3257634e487b7160e01b600052603260045260246000fd5b905060200201356112d1565b610b4c5760009150506104d7565b80610b5681612afb565b915050610b07565b5060019392505050565b6000818152600260205260408120546001600160a01b0316806104d75760405162461bcd60e51b815260206004820152602960248201527f4552433732313a206f776e657220717565727920666f72206e6f6e657869737460448201526832b73a103a37b5b2b760b91b60648201526084016105d7565b33610be8610db5565b6001600160a01b031614610c0e5760405162461bcd60e51b81526004016105d79061295f565b601155565b60006001600160a01b038216610c7e5760405162461bcd60e51b815260206004820152602a60248201527f4552433732313a2062616c616e636520717565727920666f7220746865207a65604482015269726f206164647265737360b01b60648201526084016105d7565b506001600160a01b031660009081526003602052604090205490565b33610ca3610db5565b6001600160a01b031614610cc95760405162461bcd60e51b81526004016105d79061295f565b610cd36000611650565b565b60606104d7825b60606000610ce983610c13565b90506000816001600160401b03811115610d1357634e487b7160e01b600052604160045260246000fd5b604051908082528060200260200182016040528015610d3c578160200160208202803683370190505b50905060005b82811015610d9157610d548582610799565b828281518110610d7457634e487b7160e01b600052603260045260246000fd5b602090810291909101015280610d8981612afb565b915050610d42565b509392505050565b6000610da833836012546116a2565b9050610aff338383611897565b600a546001600160a01b031690565b6060600180546104ec90612ac0565b610aff338383611a0e565b600b546040516370a0823160e01b81526000916001600160a01b03169081906370a0823190610e11903390600401612865565b60206040518083038186803b158015610e2957600080fd5b505afa158015610e3d573d6000803e3d6000fd5b505050506040513d601f19601f82011682018060405250810190610e6191906127f2565b610e6d57600091505090565b604051632118854760e21b81526000906001600160a01b03831690638462151c90610e9c903390600401612865565b60006040518083038186803b158015610eb457600080fd5b505afa158015610ec8573d6000803e3d6000fd5b505050506040513d6000823e601f3d908101601f19168201604052610ef091908101906126b6565b90506000805b8251811015610d9157610f4260136000858481518110610f2657634e487b7160e01b600052603260045260246000fd5b6020026020010151815260200190815260200160002054611ad9565b15610f555781610f5181612afb565b9250505b80610f5f81612afb565b915050610ef6565b610f7133836113f1565b610f8d5760405162461bcd60e51b81526004016105d790612994565b610f9984848484611b21565b50505050565b6060610faa826112d1565b61100e5760405162461bcd60e51b815260206004820152602f60248201527f4552433732314d657461646174613a2055524920717565727920666f72206e6f60448201526e3732bc34b9ba32b73a103a37b5b2b760891b60648201526084016105d7565b6000611018611b54565b905060008151116110385760405180602001604052806000815250610761565b8061104284611b63565b604051602001611053929190612836565b6040516020818303038152906040529392505050565b600f805461107690612ac0565b80601f01602080910402602001604051908101604052809291908181526020018280546110a290612ac0565b80156110ef5780601f106110c4576101008083540402835291602001916110ef565b820191906000526020600020905b8154815290600101906020018083116110d257829003601f168201915b505050505081565b6001600160a01b03918216600090815260056020908152604080832093909416825291909152205460ff1690565b3361112e610db5565b6001600160a01b0316146111545760405162461bcd60e51b81526004016105d79061295f565b6001600160a01b0381166111b95760405162461bcd60e51b815260206004820152602660248201527f4f776e61626c653a206e6577206f776e657220697320746865207a65726f206160448201526564647265737360d01b60648201526084016105d7565b6111c281611650565b50565b336111ce610db5565b6001600160a01b0316146111f45760405162461bcd60e51b81526004016105d79061295f565b601255565b33611202610db5565b6001600160a01b0316146112285760405162461bcd60e51b81526004016105d79061295f565b604080516060810182526001600160a01b0394851680825293851660208201819052929094169301839052600b80546001600160a01b03199081169093179055600c805483169091179055600d80549091169091179055565b60006001600160e01b031982166380ac58cd60e01b14806112b257506001600160e01b03198216635b5e139f60e01b145b806104d757506301ffc9a760e01b6001600160e01b03198316146104d7565b6000908152600260205260409020546001600160a01b0316151590565b600081815260046020526040902080546001600160a01b0319166001600160a01b038416908117909155819061132382610b68565b6001600160a01b03167f8c5be1e5ebec7d5bd14f71427d1e84f3dd0314c0f7b2291e5b200ac8c7c3b92560405160405180910390a45050565b600061136782610b68565b905061137581600084611c7c565b6113806000836112ee565b6001600160a01b03811660009081526003602052604081208054600192906113a9908490612a7d565b909155505060008281526002602052604080822080546001600160a01b0319169055518391906001600160a01b03841690600080516020612ba7833981519152908390a45050565b60006113fc826112d1565b61145d5760405162461bcd60e51b815260206004820152602c60248201527f4552433732313a206f70657261746f7220717565727920666f72206e6f6e657860448201526b34b9ba32b73a103a37b5b2b760a11b60648201526084016105d7565b600061146883610b68565b9050806001600160a01b0316846001600160a01b031614806114a35750836001600160a01b03166114988461056f565b6001600160a01b0316145b806114b357506114b381856110f7565b949350505050565b826001600160a01b03166114ce82610b68565b6001600160a01b0316146115325760405162461bcd60e51b815260206004820152602560248201527f4552433732313a207472616e736665722066726f6d20696e636f72726563742060448201526437bbb732b960d91b60648201526084016105d7565b6001600160a01b0382166115945760405162461bcd60e51b8152602060048201526024808201527f4552433732313a207472616e7366657220746f20746865207a65726f206164646044820152637265737360e01b60648201526084016105d7565b61159f838383611c7c565b6115aa6000826112ee565b6001600160a01b03831660009081526003602052604081208054600192906115d3908490612a7d565b90915550506001600160a01b0382166000908152600360205260408120805460019290611601908490612a32565b909155505060008181526002602052604080822080546001600160a01b0319166001600160a01b038681169182179092559151849391871691600080516020612ba783398151915291a4505050565b600a80546001600160a01b038381166001600160a01b0319831681179093556040519116919082907f8be0079c531659141344cd1fd0a4f28419497f9722a3daafe3b4186f6b6457e090600090a35050565b600b546040516370a0823160e01b81526000916001600160a01b03169081906370a08231906116d5908890600401612865565b60206040518083038186803b1580156116ed57600080fd5b505afa158015611701573d6000803e3d6000fd5b505050506040513d601f19601f8201168201806040525081019061172591906127f2565b611733576000915050610761565b604051632118854760e21b81526000906001600160a01b03831690638462151c90611762908990600401612865565b60006040518083038186803b15801561177a57600080fd5b505afa15801561178e573d6000803e3d6000fd5b505050506040513d6000823e601f3d908101601f191682016040526117b691908101906126b6565b90506000806000805b845181101561186d5760008582815181106117ea57634e487b7160e01b600052603260045260246000fd5b602002602001015190506118106013600083815260200190815260200160002054611ad9565b1561185a57600081815260136020526040902042905560019250611834858a611d34565b94506064851061185a578361184881612afb565b94506118579050856064611d40565b94505b508061186581612afb565b9150506117bf565b506118788884611d4c565b1561188b578161188781612afb565b9250505b50979650505050505050565b60005b818110156119885760006118ad85611d96565b905060006118bb8584611dbc565b6000838152601760209081526040808320805467ffffffffffffffff191661ffff958616908117909155815160808101835290815260185463ffffffff9081168285019081526001600160a01b03808e16848601908152606085018b81529a88526019909652939095209151825495519451909316600160301b02600160301b600160d01b031994909116620100000265ffffffffffff1990951692909516919091179290921716919091178155915160019290920191909155508061198081612afb565b91505061189a565b506018546040805163ffffffff90921682526001600160a01b03851660208301527ff3842580f250d6f26c94777034e934933d7e47956921360b32c658572b1f3e23910160405180910390a16018805463ffffffff169060006119ea83612b16565b91906101000a81548163ffffffff021916908363ffffffff16021790555050505050565b816001600160a01b0316836001600160a01b03161415611a6c5760405162461bcd60e51b815260206004820152601960248201527822a9219b99189d1030b8383937bb32903a379031b0b63632b960391b60448201526064016105d7565b6001600160a01b03838116600081815260056020908152604080832094871680845294825291829020805460ff191686151590811790915591519182527f17307eab39ab6107e8899845ad3d59bd9653f200f220920489ca2b5937696c31910160405180910390a3505050565b600080611ae4611e1a565b90508215806107615750611b0f603c611b09603c601154611e7990919063ffffffff16565b90611e79565b611b198285611d40565b119392505050565b611b2c8484846114bb565b611b3884848484611e85565b610f995760405162461bcd60e51b81526004016105d79061290d565b6060600f80546104ec90612ac0565b606081611b875750506040805180820190915260018152600360fc1b602082015290565b8160005b8115611bb15780611b9b81612afb565b9150611baa9050600a83612a4a565b9150611b8b565b6000816001600160401b03811115611bd957634e487b7160e01b600052604160045260246000fd5b6040519080825280601f01601f191660200182016040528015611c03576020820181803683370190505b5090505b84156114b357611c18600183612a7d565b9150611c25600a86612b3a565b611c30906030612a32565b60f81b818381518110611c5357634e487b7160e01b600052603260045260246000fd5b60200101906001600160f81b031916908160001a905350611c75600a86612a4a565b9450611c07565b6001600160a01b038316611cd757611cd281600880546000838152600960205260408120829055600182018355919091527ff3f7a9fe364faab93b216da50a3214154f22a0a2b415b23a84c8169e8b636ee30155565b611cfa565b816001600160a01b0316836001600160a01b031614611cfa57611cfa8382611f92565b6001600160a01b038216611d11576107088161202f565b826001600160a01b0316826001600160a01b031614610708576107088282612108565b60006107618284612a32565b60006107618284612a7d565b600080611d8b6064611d858642604080516020808201939093528082019390935280518084038201815260609093019052815191012090565b9061214c565b909210159392505050565b600080611da2600e5490565b9050611dae838261216c565b6104d7600e80546001019055565b600080805b601654811015610d9157611dfc601554611df6611deb601554601454611d4090919063ffffffff16565b611d8589428a612186565b90611d34565b611e069083612a15565b915080611e1281612afb565b915050611dc1565b600080611e3a611e3560105442611d4090919063ffffffff16565b6121d0565b90506000611e53611e4a836121ea565b60105490611d34565b90506000611e66601154611df6846121fe565b9050611e718161220f565b935050505090565b60006107618284612a5e565b60006001600160a01b0384163b15611f8757604051630a85bd0160e11b81526001600160a01b0385169063150b7a0290611ec9903390899088908890600401612879565b602060405180830381600087803b158015611ee357600080fd5b505af1925050508015611f13575060408051601f3d908101601f19168201909252611f1091810190612779565b60015b611f6d573d808015611f41576040519150601f19603f3d011682016040523d82523d6000602084013e611f46565b606091505b508051611f655760405162461bcd60e51b81526004016105d79061290d565b805181602001fd5b6001600160e01b031916630a85bd0160e11b1490506114b3565b506001949350505050565b60006001611f9f84610c13565b611fa99190612a7d565b600083815260076020526040902054909150808214611ffc576001600160a01b03841660009081526006602090815260408083208584528252808320548484528184208190558352600790915290208190555b5060009182526007602090815260408084208490556001600160a01b039094168352600681528383209183525290812055565b60085460009061204190600190612a7d565b6000838152600960205260408120546008805493945090928490811061207757634e487b7160e01b600052603260045260246000fd5b9060005260206000200154905080600883815481106120a657634e487b7160e01b600052603260045260246000fd5b60009182526020808320909101929092558281526009909152604080822084905585825281205560088054806120ec57634e487b7160e01b600052603160045260246000fd5b6001900381819060005260206000200160009055905550505050565b600061211383610c13565b6001600160a01b039093166000908152600660209081526040808320868452825280832085905593825260079052919091209190915550565b6000806000831161215e576001612160565b825b90506114b38482612220565b610aff82826040518060200160405280600081525061222c565b60008261219e612197846001611d34565b8690611d34565b60408051602081019390935282015260600160408051601f198184030181529190528051602090910120949350505050565b60006104d760186121e4603c81868261225f565b9061225f565b60006104d76018611b09603c818682611e79565b60006104d7603c6121e4848261225f565b60006104d7603c611b098482611e79565b60006107618284612b3a565b612236838361226b565b6122436000848484611e85565b6107085760405162461bcd60e51b81526004016105d79061290d565b60006107618284612a4a565b6001600160a01b0382166122c15760405162461bcd60e51b815260206004820181905260248201527f4552433732313a206d696e7420746f20746865207a65726f206164647265737360448201526064016105d7565b6122ca816112d1565b156123165760405162461bcd60e51b815260206004820152601c60248201527b115490cdcc8c4e881d1bdad95b88185b1c9958591e481b5a5b9d195960221b60448201526064016105d7565b61232260008383611c7c565b6001600160a01b038216600090815260036020526040812080546001929061234b908490612a32565b909155505060008181526002602052604080822080546001600160a01b0319166001600160a01b0386169081179091559051839290600080516020612ba7833981519152908290a45050565b8280546123a390612ac0565b90600052602060002090601f0160209004810192826123c5576000855561240b565b82601f106123de57805160ff191683800117855561240b565b8280016001018555821561240b579182015b8281111561240b5782518255916020019190600101906123f0565b5061241792915061241b565b5090565b5b80821115612417576000815560010161241c565b60006001600160401b0383111561244957612449612b7a565b61245c601f8401601f19166020016129e5565b905082815283838301111561247057600080fd5b828260208301376000602084830101529392505050565b80356001600160a01b038116811461249e57600080fd5b919050565b6000602082840312156124b4578081fd5b61076182612487565b600080604083850312156124cf578081fd5b6124d883612487565b91506124e660208401612487565b90509250929050565b600080600060608486031215612503578081fd5b61250c84612487565b925061251a60208501612487565b915061252860408501612487565b90509250925092565b600080600060608486031215612545578283fd5b61254e84612487565b925061255c60208501612487565b9150604084013590509250925092565b60008060008060808587031215612581578081fd5b61258a85612487565b935061259860208601612487565b92506040850135915060608501356001600160401b038111156125b9578182fd5b8501601f810187136125c9578182fd5b6125d887823560208401612430565b91505092959194509250565b600080604083850312156125f6578182fd5b6125ff83612487565b915060208301358015158114612613578182fd5b809150509250929050565b60008060408385031215612630578182fd5b61263983612487565b946020939093013593505050565b60008060208385031215612659578182fd5b82356001600160401b038082111561266f578384fd5b818501915085601f830112612682578384fd5b813581811115612690578485fd5b8660208260051b85010111156126a4578485fd5b60209290920196919550909350505050565b600060208083850312156126c8578182fd5b82516001600160401b03808211156126de578384fd5b818501915085601f8301126126f1578384fd5b81518181111561270357612703612b7a565b8060051b91506127148483016129e5565b8181528481019084860184860187018a101561272e578788fd5b8795505b83861015612750578051835260019590950194918601918601612732565b5098975050505050505050565b60006020828403121561276e578081fd5b813561076181612b90565b60006020828403121561278a578081fd5b815161076181612b90565b6000602082840312156127a6578081fd5b81356001600160401b038111156127bb578182fd5b8201601f810184136127cb578182fd5b6114b384823560208401612430565b6000602082840312156127eb578081fd5b5035919050565b600060208284031215612803578081fd5b5051919050565b60008151808452612822816020860160208601612a94565b601f01601f19169290920160200192915050565b60008351612848818460208801612a94565b83519083019061285c818360208801612a94565b01949350505050565b6001600160a01b0391909116815260200190565b6001600160a01b03858116825284166020820152604081018390526080606082018190526000906128ac9083018461280a565b9695505050505050565b6020808252825182820181905260009190848201906040850190845b818110156128ee578351835292840192918401916001016128d2565b50909695505050505050565b602081526000610761602083018461280a565b60208082526032908201527f4552433732313a207472616e7366657220746f206e6f6e20455243373231526560408201527131b2b4bb32b91034b6b83632b6b2b73a32b960711b606082015260800190565b6020808252818101527f4f776e61626c653a2063616c6c6572206973206e6f7420746865206f776e6572604082015260600190565b60208082526031908201527f4552433732313a207472616e736665722063616c6c6572206973206e6f74206f6040820152701ddb995c881b9bdc88185c1c1c9bdd9959607a1b606082015260800190565b604051601f8201601f191681016001600160401b0381118282101715612a0d57612a0d612b7a565b604052919050565b600061ffff80831681851680830382111561285c5761285c612b4e565b60008219821115612a4557612a45612b4e565b500190565b600082612a5957612a59612b64565b500490565b6000816000190483118215151615612a7857612a78612b4e565b500290565b600082821015612a8f57612a8f612b4e565b500390565b60005b83811015612aaf578181015183820152602001612a97565b83811115610f995750506000910152565b600181811c90821680612ad457607f821691505b60208210811415612af557634e487b7160e01b600052602260045260246000fd5b50919050565b6000600019821415612b0f57612b0f612b4e565b5060010190565b600063ffffffff80831681811415612b3057612b30612b4e565b6001019392505050565b600082612b4957612b49612b64565b500690565b634e487b7160e01b600052601160045260246000fd5b634e487b7160e01b600052601260045260246000fd5b634e487b7160e01b600052604160045260246000fd5b6001600160e01b0319811681146111c257600080fdfeddf252ad1be2c89b69c2b068fc378daa952ba7f163c4a11628f55a4df523b3efa264697066735822122065b119e70283c82fe64f692c9da8d7d698e0a594e87bd0a902407e1180af1c5664736f6c63430008040033",
  "immutableReferences": {},
  "source": "// SPDX-License-Identifier: MIT\r\npragma solidity ^0.8.4;\r\n\r\nimport \"./Helpers.sol\";\r\nimport \"./BaseNft.sol\";\r\nimport \"./WorldLeader.sol\";\r\n\r\n///////////////////////////////////////////////////////////////////////////////////////////////////////////////////////\r\n// handles creating new missiles & the RNG for doing so, their damage, & the intervals for how often players can\r\n// try to roll more missiles again\r\n///////////////////////////////////////////////////////////////////////////////////////////////////////////////////////\r\ncontract MissileMaker is BaseNft {\r\n    using Helpers for uint;\r\n    using SafeMath for uint;\r\n    using Counters for Counters.Counter;\r\n    uint public _creationTime;\r\n\r\n    // how many hours make up one interval (within which a leader NFT can only attempt to roll for a missile once)\r\n    //\r\n    uint public _hoursBetweenCutoffs = 24;\r\n    uint public missileChancePerc = 100;\r\n\r\n    mapping(uint => uint) _lastRunLookup;\r\n    uint _maxDmgPerRoll = 99;\r\n    uint _minDmgPerRoll = 43;\r\n    uint _numDmgRolls = 5;\r\n\r\n    struct MissileOdds {\r\n        uint numMissilesToMint;\r\n        bool isOkay;\r\n    }\r\n    mapping(uint => uint64) _missileDmgLookup;\r\n\r\n    uint32 _missileCreatedEventId;\r\n    struct MissileCreatedState {\r\n        uint16 dmg;\r\n        uint32 missileCreatedEventId;\r\n        address owner;\r\n        uint missileNftId;\r\n    }\r\n    mapping(uint => MissileCreatedState) _missileCreatedLookup;\r\n    function getMissileCreatedInfo(uint missileNftId) public view returns (MissileCreatedState memory) {\r\n        require(_missileCreatedLookup[missileNftId].dmg > 0, \"this missile created event doesn't exist!\");\r\n        return _missileCreatedLookup[missileNftId];\r\n    }\r\n\r\n    function allMissilesExist(uint[] calldata missileIds) external view returns (bool) {\r\n        for (uint i = 0; i < missileIds.length; i++) {\r\n            if (!_exists(missileIds[i])) {\r\n                return false;\r\n            }\r\n        }\r\n        return true;\r\n    }\r\n\r\n    event MissilesCreated(uint missileCreatedEventId, address createdForAddress);\r\n\r\n    constructor() BaseNft(\"Missile Maker\", \"U235\") {\r\n        _creationTime = block.timestamp;\r\n    }\r\n    function getNextCutoffInSecondsSinceEpoch() private view returns (uint) {\r\n        uint timeSinceCreationInDays = block.timestamp.sub(_creationTime).secsToDays();\r\n        uint startOfThisStepInSecs = _creationTime.add(timeSinceCreationInDays.daysToSecs());\r\n        uint nextCutoffHours = startOfThisStepInSecs.secsToHours().add(_hoursBetweenCutoffs);\r\n        return nextCutoffHours.hoursToSecs();\r\n    }\r\n\r\n    function isRollForMissileReady(uint lastRun) private view returns (bool) {\r\n        uint nextCutoff = getNextCutoffInSecondsSinceEpoch();\r\n        return lastRun == 0 || nextCutoff.sub(lastRun) > _hoursBetweenCutoffs.mul(60).mul(60);\r\n    }\r\n\r\n    function _maybeGetMissiles(address sender, uint randVal, uint missilePercChance) private returns (uint) {\r\n        WorldLeader thisWorldLeader = WorldLeader(_ownedContracts.leader);\r\n        if (thisWorldLeader.balanceOf(sender) == 0) {\r\n            return 0;\r\n        }\r\n        uint[] memory leaderNftIds = thisWorldLeader.tokensOfOwner(sender);\r\n        uint currentPercentage = 0;\r\n        uint numMissilesToMint = 0;\r\n\r\n        bool anyReady = false;\r\n        //\r\n        // increment the % chance of rolling a missile according to the missilePercChance depending on number of NFTs owned.\r\n        // when this reaches or exceeds 100%, consider this a guaranteed missile for the user and start back at 0 again\r\n        // for their chance of rolling another one. repeat this for the amount of NFTs they own until you have an\r\n        // amount of guaranteed missiles, and a % chance of getting one more.\r\n        //\r\n        // each unique world leader collection calculates these odds separately.\r\n        //\r\n        for (uint i = 0; i < leaderNftIds.length; i++) {\r\n            uint leaderNftId = leaderNftIds[i];\r\n            if (isRollForMissileReady(_lastRunLookup[leaderNftId])) {\r\n                anyReady = true;\r\n                _lastRunLookup[leaderNftId] = block.timestamp;\r\n                currentPercentage = currentPercentage.add(missilePercChance);\r\n                if (currentPercentage >= 100) {\r\n                    numMissilesToMint++;\r\n                    currentPercentage = currentPercentage.sub(100);\r\n                }\r\n            }\r\n        }\r\n\r\n        if (userDidRollMissile(randVal, currentPercentage)) {\r\n            numMissilesToMint++;\r\n        }\r\n\r\n        return numMissilesToMint;\r\n    }\r\n\r\n    function userDidRollMissile(uint randVal, uint thisMissilePercChance) internal view returns (bool){\r\n        uint num = uint(randVal.randomize(block.timestamp).modSafe(100));\r\n        return num <= thisMissilePercChance;\r\n    }\r\n\r\n    function maybeGetMissiles(uint randVal) external {\r\n        uint numMissilesToMint = _maybeGetMissiles(msg.sender, randVal, missileChancePerc);\r\n        createMissiles(msg.sender, randVal, numMissilesToMint);\r\n    }\r\n\r\n    function numMissilesReadyToRoll() public view returns (uint) {\r\n        WorldLeader leader = WorldLeader(_ownedContracts.leader);\r\n        if (leader.balanceOf(msg.sender) == 0) {\r\n            return 0;\r\n        }\r\n        uint[] memory leaderNftIds = leader.tokensOfOwner(msg.sender);\r\n        uint numReady = 0;\r\n        for (uint i = 0; i < leaderNftIds.length; i++) {\r\n            if (isRollForMissileReady(_lastRunLookup[leaderNftIds[i]])) {\r\n                numReady++;\r\n            }\r\n        }\r\n        return numReady;\r\n    }\r\n\r\n    function createMissiles(address sender, uint randVal, uint numMissilesToMint) private {\r\n        for (uint i = 0; i < numMissilesToMint; i++) {\r\n            uint missileNftId = _mintSingleNFT(sender);\r\n            uint16 dmg = rollMissileDmg(randVal, i);\r\n            _missileDmgLookup[missileNftId] = dmg;\r\n            _missileCreatedLookup[missileNftId] = MissileCreatedState(dmg, _missileCreatedEventId, sender, missileNftId);\r\n        }\r\n        emit MissilesCreated(_missileCreatedEventId, sender);\r\n        _missileCreatedEventId++;\r\n    }\r\n\r\n    function _mintSingleNFT(address to) internal returns (uint) {\r\n        uint newTokenID = tokenIdx.current();\r\n        _safeMint(to, newTokenID);\r\n        tokenIdx.increment();\r\n        return newTokenID;\r\n    }\r\n\r\n    function getMissileDmg(address sender, uint256 missileId) public view returns (uint64) {\r\n        require(_exists(missileId), \"this does not exist!\");\r\n        require(ownerOf(missileId) == sender, \"getMissileDmg :: you can't do that\");\r\n        return _missileDmgLookup[missileId];\r\n    }\r\n\r\n    function _getMissileDmg(address sender, uint256 missileId) public returns (uint64) {\r\n        require(msg.sender == _ownedContracts.ufoInvasion || msg.sender == owner());\r\n        uint64 missileDmg = getMissileDmg(sender, missileId);\r\n        _burn(missileId);\r\n        return missileDmg;\r\n    }\r\n\r\n    function rollMissileDmg(uint randVal, uint idx) internal view returns (uint16){\r\n        uint16 dmg = 0;\r\n        for (uint i = 0; i < _numDmgRolls; i++) {\r\n            dmg += uint16(randVal.randomize(block.timestamp, idx).modSafe(_maxDmgPerRoll.sub(_minDmgPerRoll)).add(_minDmgPerRoll));\r\n        }\r\n        return dmg;\r\n    }\r\n\r\n    function setMissilePercChance(uint newChancePerc) public onlyOwner {\r\n        missileChancePerc = newChancePerc;\r\n    }\r\n\r\n    function getMissilePercChance() public view returns (uint) {\r\n        return missileChancePerc;\r\n    }\r\n\r\n    function setHoursBetweenCutoffs(uint newDaysBetweenCutoff) public onlyOwner {\r\n        _hoursBetweenCutoffs = newDaysBetweenCutoff;\r\n    }\r\n\r\n    function getUserMissiles(address userAddr) external view returns (uint[] memory) {\r\n        return tokensOfOwner(userAddr);\r\n    }\r\n\r\n}\r\n",
  "sourcePath": "C:\\data\\source\\Webstorm Projects\\metis-nfts\\contracts\\MissileMaker.sol",
  "compiler": {
    "name": "solc",
    "version": "0.8.4+commit.c7e474f2.Emscripten.clang"
  },
  "schemaVersion": "3.4.5",
  "updatedAt": "2022-03-27T07:15:54.081Z",
  "devdoc": {
    "kind": "dev",
    "methods": {
      "approve(address,uint256)": {
        "details": "See {IERC721-approve}."
      },
      "balanceOf(address)": {
        "details": "See {IERC721-balanceOf}."
      },
      "getApproved(uint256)": {
        "details": "See {IERC721-getApproved}."
      },
      "isApprovedForAll(address,address)": {
        "details": "See {IERC721-isApprovedForAll}."
      },
      "name()": {
        "details": "See {IERC721Metadata-name}."
      },
      "owner()": {
        "details": "Returns the address of the current owner."
      },
      "ownerOf(uint256)": {
        "details": "See {IERC721-ownerOf}."
      },
      "renounceOwnership()": {
        "details": "Leaves the contract without owner. It will not be possible to call `onlyOwner` functions anymore. Can only be called by the current owner. NOTE: Renouncing ownership will leave the contract without an owner, thereby removing any functionality that is only available to the owner."
      },
      "safeTransferFrom(address,address,uint256)": {
        "details": "See {IERC721-safeTransferFrom}."
      },
      "safeTransferFrom(address,address,uint256,bytes)": {
        "details": "See {IERC721-safeTransferFrom}."
      },
      "setApprovalForAll(address,bool)": {
        "details": "See {IERC721-setApprovalForAll}."
      },
      "supportsInterface(bytes4)": {
        "details": "See {IERC165-supportsInterface}."
      },
      "symbol()": {
        "details": "See {IERC721Metadata-symbol}."
      },
      "tokenByIndex(uint256)": {
        "details": "See {IERC721Enumerable-tokenByIndex}."
      },
      "tokenOfOwnerByIndex(address,uint256)": {
        "details": "See {IERC721Enumerable-tokenOfOwnerByIndex}."
      },
      "tokenURI(uint256)": {
        "details": "See {IERC721Metadata-tokenURI}."
      },
      "totalSupply()": {
        "details": "See {IERC721Enumerable-totalSupply}."
      },
      "transferFrom(address,address,uint256)": {
        "details": "See {IERC721-transferFrom}."
      },
      "transferOwnership(address)": {
        "details": "Transfers ownership of the contract to a new account (`newOwner`). Can only be called by the current owner."
      }
    },
    "version": 1
  },
  "userdoc": {
    "kind": "user",
    "methods": {},
    "version": 1
  }
}