{
  "contractName": "MoreMissilesPlz",
  "abi": [
    {
      "inputs": [
        {
          "internalType": "uint256",
          "name": "randVal",
          "type": "uint256"
        },
        {
          "internalType": "contract LeaderStore",
          "name": "leaderStore",
          "type": "address"
        },
        {
          "internalType": "contract MissileMaker",
          "name": "missileMaker",
          "type": "address"
        },
        {
          "internalType": "contract UfoInvasion",
          "name": "ufoInvasion",
          "type": "address"
        }
      ],
      "stateMutability": "nonpayable",
      "type": "constructor"
    },
    {
      "anonymous": false,
      "inputs": [
        {
          "indexed": false,
          "internalType": "uint256",
          "name": "gameNumber",
          "type": "uint256"
        },
        {
          "indexed": false,
          "internalType": "uint256",
          "name": "totalUfoHp",
          "type": "uint256"
        },
        {
          "indexed": false,
          "internalType": "uint256[]",
          "name": "ufoIds",
          "type": "uint256[]"
        },
        {
          "indexed": false,
          "internalType": "address",
          "name": "winner",
          "type": "address"
        },
        {
          "indexed": false,
          "internalType": "uint256",
          "name": "gameLengthinSeconds",
          "type": "uint256"
        },
        {
          "indexed": false,
          "internalType": "uint256",
          "name": "gameStartTimeinSeconds",
          "type": "uint256"
        }
      ],
      "name": "GameOver",
      "type": "event"
    },
    {
      "anonymous": false,
      "inputs": [
        {
          "indexed": false,
          "internalType": "uint256",
          "name": "missileAttackId",
          "type": "uint256"
        },
        {
          "indexed": false,
          "internalType": "address",
          "name": "attacker",
          "type": "address"
        },
        {
          "indexed": false,
          "internalType": "uint256",
          "name": "missileId",
          "type": "uint256"
        },
        {
          "indexed": false,
          "internalType": "uint256",
          "name": "ufoId",
          "type": "uint256"
        },
        {
          "indexed": false,
          "internalType": "address",
          "name": "locationAddress",
          "type": "address"
        },
        {
          "indexed": false,
          "internalType": "uint256",
          "name": "dmg",
          "type": "uint256"
        },
        {
          "indexed": false,
          "internalType": "uint256",
          "name": "hpBefore",
          "type": "uint256"
        },
        {
          "indexed": false,
          "internalType": "uint256",
          "name": "hpAfter",
          "type": "uint256"
        }
      ],
      "name": "MissileAttackedUFO",
      "type": "event"
    },
    {
      "anonymous": false,
      "inputs": [
        {
          "indexed": false,
          "internalType": "address",
          "name": "owner",
          "type": "address"
        },
        {
          "indexed": false,
          "internalType": "uint256[]",
          "name": "leaderNftIds",
          "type": "uint256[]"
        },
        {
          "indexed": false,
          "internalType": "uint256",
          "name": "missileNftId",
          "type": "uint256"
        },
        {
          "indexed": false,
          "internalType": "uint256",
          "name": "dmg",
          "type": "uint256"
        }
      ],
      "name": "MissileCreated",
      "type": "event"
    },
    {
      "anonymous": false,
      "inputs": [
        {
          "indexed": false,
          "internalType": "uint256",
          "name": "gameNum",
          "type": "uint256"
        },
        {
          "indexed": false,
          "internalType": "address[]",
          "name": "locations",
          "type": "address[]"
        },
        {
          "indexed": false,
          "internalType": "uint256",
          "name": "totalUfoHp",
          "type": "uint256"
        },
        {
          "indexed": false,
          "internalType": "uint256",
          "name": "gameStartTimeInSeconds",
          "type": "uint256"
        }
      ],
      "name": "NewGame",
      "type": "event"
    },
    {
      "anonymous": false,
      "inputs": [
        {
          "indexed": true,
          "internalType": "address",
          "name": "previousOwner",
          "type": "address"
        },
        {
          "indexed": true,
          "internalType": "address",
          "name": "newOwner",
          "type": "address"
        }
      ],
      "name": "OwnershipTransferred",
      "type": "event"
    },
    {
      "anonymous": false,
      "inputs": [
        {
          "indexed": false,
          "internalType": "uint256",
          "name": "ufoId",
          "type": "uint256"
        },
        {
          "indexed": false,
          "internalType": "uint256",
          "name": "missileId",
          "type": "uint256"
        },
        {
          "indexed": false,
          "internalType": "address",
          "name": "locationAddress",
          "type": "address"
        },
        {
          "indexed": false,
          "internalType": "address",
          "name": "killerAddress",
          "type": "address"
        }
      ],
      "name": "UfoDestroyed",
      "type": "event"
    },
    {
      "inputs": [],
      "name": "owner",
      "outputs": [
        {
          "internalType": "address",
          "name": "",
          "type": "address"
        }
      ],
      "stateMutability": "view",
      "type": "function"
    },
    {
      "inputs": [],
      "name": "renounceOwnership",
      "outputs": [],
      "stateMutability": "nonpayable",
      "type": "function"
    },
    {
      "inputs": [
        {
          "internalType": "address",
          "name": "newOwner",
          "type": "address"
        }
      ],
      "name": "transferOwnership",
      "outputs": [],
      "stateMutability": "nonpayable",
      "type": "function"
    },
    {
      "inputs": [],
      "name": "getRandVal",
      "outputs": [
        {
          "internalType": "uint256",
          "name": "",
          "type": "uint256"
        }
      ],
      "stateMutability": "nonpayable",
      "type": "function"
    },
    {
      "inputs": [
        {
          "internalType": "string",
          "name": "leaderName",
          "type": "string"
        }
      ],
      "name": "getWorldLeaderMintContract",
      "outputs": [
        {
          "internalType": "address",
          "name": "",
          "type": "address"
        }
      ],
      "stateMutability": "view",
      "type": "function"
    },
    {
      "inputs": [],
      "name": "canUserRollAnyMissiles",
      "outputs": [
        {
          "internalType": "bool",
          "name": "",
          "type": "bool"
        }
      ],
      "stateMutability": "view",
      "type": "function"
    },
    {
      "inputs": [],
      "name": "numMissilesReadyToRoll",
      "outputs": [
        {
          "internalType": "uint256",
          "name": "",
          "type": "uint256"
        }
      ],
      "stateMutability": "view",
      "type": "function"
    },
    {
      "inputs": [
        {
          "internalType": "uint256",
          "name": "randVal",
          "type": "uint256"
        }
      ],
      "name": "maybeGetMissiles",
      "outputs": [],
      "stateMutability": "nonpayable",
      "type": "function"
    },
    {
      "inputs": [
        {
          "internalType": "address",
          "name": "contractAddress",
          "type": "address"
        }
      ],
      "name": "addLeaderContract",
      "outputs": [],
      "stateMutability": "nonpayable",
      "type": "function"
    },
    {
      "inputs": [
        {
          "internalType": "uint256",
          "name": "randVal",
          "type": "uint256"
        }
      ],
      "name": "startNewUfoInvasionGame",
      "outputs": [],
      "stateMutability": "nonpayable",
      "type": "function"
    },
    {
      "inputs": [
        {
          "internalType": "uint256[]",
          "name": "missileIds",
          "type": "uint256[]"
        },
        {
          "internalType": "uint256",
          "name": "ufoId",
          "type": "uint256"
        }
      ],
      "name": "attackUFO",
      "outputs": [],
      "stateMutability": "nonpayable",
      "type": "function"
    },
    {
      "inputs": [
        {
          "internalType": "uint256",
          "name": "randVal",
          "type": "uint256"
        },
        {
          "internalType": "uint256[]",
          "name": "missileIds",
          "type": "uint256[]"
        },
        {
          "internalType": "uint256",
          "name": "amountUFOs",
          "type": "uint256"
        }
      ],
      "name": "attackRandomUFOs",
      "outputs": [],
      "stateMutability": "nonpayable",
      "type": "function"
    },
    {
      "inputs": [],
      "name": "getUfoInvasionAddress",
      "outputs": [
        {
          "internalType": "address",
          "name": "",
          "type": "address"
        }
      ],
      "stateMutability": "view",
      "type": "function"
    },
    {
      "inputs": [],
      "name": "withdraw",
      "outputs": [],
      "stateMutability": "nonpayable",
      "type": "function"
    },
    {
      "inputs": [],
      "name": "getWorldLeaderBalance",
      "outputs": [
        {
          "internalType": "uint256",
          "name": "",
          "type": "uint256"
        }
      ],
      "stateMutability": "view",
      "type": "function"
    },
    {
      "inputs": [
        {
          "internalType": "address payable[]",
          "name": "recipients",
          "type": "address[]"
        }
      ],
      "name": "setRecipients",
      "outputs": [],
      "stateMutability": "nonpayable",
      "type": "function"
    },
    {
      "inputs": [
        {
          "internalType": "address payable",
          "name": "recipient",
          "type": "address"
        }
      ],
      "name": "isRecipient",
      "outputs": [
        {
          "internalType": "bool",
          "name": "",
          "type": "bool"
        }
      ],
      "stateMutability": "view",
      "type": "function"
    },
    {
      "inputs": [
        {
          "internalType": "address",
          "name": "_owner",
          "type": "address"
        }
      ],
      "name": "tokensOfOwner",
      "outputs": [
        {
          "internalType": "uint256[]",
          "name": "",
          "type": "uint256[]"
        }
      ],
      "stateMutability": "view",
      "type": "function"
    },
    {
      "inputs": [],
      "name": "getGameStartTime",
      "outputs": [
        {
          "internalType": "uint256",
          "name": "",
          "type": "uint256"
        }
      ],
      "stateMutability": "view",
      "type": "function"
    },
    {
      "inputs": [],
      "name": "isGameActive",
      "outputs": [
        {
          "internalType": "bool",
          "name": "",
          "type": "bool"
        }
      ],
      "stateMutability": "view",
      "type": "function"
    },
    {
      "inputs": [
        {
          "internalType": "address",
          "name": "userAddr",
          "type": "address"
        }
      ],
      "name": "getUserMissiles",
      "outputs": [
        {
          "internalType": "uint256[]",
          "name": "",
          "type": "uint256[]"
        }
      ],
      "stateMutability": "view",
      "type": "function"
    },
    {
      "inputs": [],
      "name": "getCurGameNumUFOs",
      "outputs": [
        {
          "internalType": "uint256",
          "name": "",
          "type": "uint256"
        }
      ],
      "stateMutability": "view",
      "type": "function"
    },
    {
      "inputs": [
        {
          "internalType": "uint256",
          "name": "idx",
          "type": "uint256"
        }
      ],
      "name": "getUfoAtIdx",
      "outputs": [
        {
          "components": [
            {
              "internalType": "address",
              "name": "locationAddress",
              "type": "address"
            },
            {
              "internalType": "uint256",
              "name": "ufoId",
              "type": "uint256"
            },
            {
              "internalType": "uint256",
              "name": "curHp",
              "type": "uint256"
            },
            {
              "internalType": "uint256",
              "name": "startingHp",
              "type": "uint256"
            },
            {
              "internalType": "uint256",
              "name": "gameNumber",
              "type": "uint256"
            }
          ],
          "internalType": "struct UfoInvasion.UfoState",
          "name": "",
          "type": "tuple"
        }
      ],
      "stateMutability": "view",
      "type": "function"
    },
    {
      "inputs": [],
      "name": "getCurGameNumPlayers",
      "outputs": [
        {
          "internalType": "uint256",
          "name": "",
          "type": "uint256"
        }
      ],
      "stateMutability": "view",
      "type": "function"
    },
    {
      "inputs": [
        {
          "internalType": "uint256",
          "name": "idx",
          "type": "uint256"
        }
      ],
      "name": "getCurGamePlayerAtIdx",
      "outputs": [
        {
          "components": [
            {
              "internalType": "address",
              "name": "playerAddress",
              "type": "address"
            },
            {
              "internalType": "uint256",
              "name": "score",
              "type": "uint256"
            },
            {
              "internalType": "uint256",
              "name": "nukesUsed",
              "type": "uint256"
            },
            {
              "internalType": "bool",
              "name": "active",
              "type": "bool"
            }
          ],
          "internalType": "struct UfoInvasion.CurGameScore",
          "name": "",
          "type": "tuple"
        }
      ],
      "stateMutability": "view",
      "type": "function"
    },
    {
      "inputs": [],
      "name": "getNumLeaderboardPlayers",
      "outputs": [
        {
          "internalType": "uint256",
          "name": "",
          "type": "uint256"
        }
      ],
      "stateMutability": "view",
      "type": "function"
    },
    {
      "inputs": [
        {
          "internalType": "uint256",
          "name": "idx",
          "type": "uint256"
        }
      ],
      "name": "getLeaderboardPlayerAtIdx",
      "outputs": [
        {
          "components": [
            {
              "internalType": "address",
              "name": "playerAddress",
              "type": "address"
            },
            {
              "internalType": "uint256",
              "name": "score",
              "type": "uint256"
            },
            {
              "internalType": "uint256",
              "name": "wins",
              "type": "uint256"
            },
            {
              "internalType": "uint256",
              "name": "nukesUsed",
              "type": "uint256"
            },
            {
              "internalType": "bool",
              "name": "exists",
              "type": "bool"
            }
          ],
          "internalType": "struct UfoInvasion.AllTimeLeaderboard",
          "name": "",
          "type": "tuple"
        }
      ],
      "stateMutability": "view",
      "type": "function"
    },
    {
      "inputs": [],
      "name": "getTotalNumberOfGames",
      "outputs": [
        {
          "internalType": "uint256",
          "name": "",
          "type": "uint256"
        }
      ],
      "stateMutability": "view",
      "type": "function"
    },
    {
      "inputs": [
        {
          "internalType": "uint256",
          "name": "idx",
          "type": "uint256"
        }
      ],
      "name": "getGameStatsByGameIdx",
      "outputs": [
        {
          "components": [
            {
              "internalType": "uint256",
              "name": "gameNumber",
              "type": "uint256"
            },
            {
              "internalType": "uint256",
              "name": "totalUfoHp",
              "type": "uint256"
            },
            {
              "internalType": "uint256[]",
              "name": "ufoIds",
              "type": "uint256[]"
            },
            {
              "internalType": "address",
              "name": "winner",
              "type": "address"
            },
            {
              "internalType": "uint256",
              "name": "gameLengthInSeconds",
              "type": "uint256"
            },
            {
              "internalType": "uint256",
              "name": "gameStartTimeInSeconds",
              "type": "uint256"
            }
          ],
          "internalType": "struct UfoInvasion.GameStats",
          "name": "",
          "type": "tuple"
        }
      ],
      "stateMutability": "view",
      "type": "function"
    },
    {
      "inputs": [
        {
          "internalType": "uint256",
          "name": "gameNum",
          "type": "uint256"
        },
        {
          "internalType": "address[]",
          "name": "locations",
          "type": "address[]"
        },
        {
          "internalType": "uint256",
          "name": "totalUfoHp",
          "type": "uint256"
        },
        {
          "internalType": "uint256",
          "name": "gameStartTimeInSeconds",
          "type": "uint256"
        }
      ],
      "name": "emitNewGame",
      "outputs": [],
      "stateMutability": "nonpayable",
      "type": "function"
    },
    {
      "inputs": [
        {
          "internalType": "address",
          "name": "sender",
          "type": "address"
        },
        {
          "internalType": "uint256[]",
          "name": "leaderNftIds",
          "type": "uint256[]"
        },
        {
          "internalType": "uint256",
          "name": "missileNftId",
          "type": "uint256"
        },
        {
          "internalType": "uint256",
          "name": "dmg",
          "type": "uint256"
        }
      ],
      "name": "emitMissileCreated",
      "outputs": [],
      "stateMutability": "nonpayable",
      "type": "function"
    },
    {
      "inputs": [
        {
          "internalType": "uint256",
          "name": "ufoId",
          "type": "uint256"
        },
        {
          "internalType": "uint256",
          "name": "missileId",
          "type": "uint256"
        },
        {
          "internalType": "address",
          "name": "locationAddress",
          "type": "address"
        },
        {
          "internalType": "address",
          "name": "killerAddress",
          "type": "address"
        }
      ],
      "name": "emitUfoDestroyed",
      "outputs": [],
      "stateMutability": "nonpayable",
      "type": "function"
    },
    {
      "inputs": [
        {
          "components": [
            {
              "internalType": "uint256",
              "name": "gameNumber",
              "type": "uint256"
            },
            {
              "internalType": "uint256",
              "name": "totalUfoHp",
              "type": "uint256"
            },
            {
              "internalType": "uint256[]",
              "name": "ufoIds",
              "type": "uint256[]"
            },
            {
              "internalType": "address",
              "name": "winner",
              "type": "address"
            },
            {
              "internalType": "uint256",
              "name": "gameLengthInSeconds",
              "type": "uint256"
            },
            {
              "internalType": "uint256",
              "name": "gameStartTimeInSeconds",
              "type": "uint256"
            }
          ],
          "internalType": "struct UfoInvasion.GameStats",
          "name": "gameStats",
          "type": "tuple"
        }
      ],
      "name": "emitGameOver",
      "outputs": [],
      "stateMutability": "nonpayable",
      "type": "function"
    },
    {
      "inputs": [
        {
          "internalType": "address",
          "name": "attacker",
          "type": "address"
        },
        {
          "internalType": "uint256",
          "name": "missileId",
          "type": "uint256"
        },
        {
          "internalType": "uint256",
          "name": "ufoId",
          "type": "uint256"
        },
        {
          "internalType": "address",
          "name": "locationAddress",
          "type": "address"
        },
        {
          "internalType": "uint256",
          "name": "dmg",
          "type": "uint256"
        },
        {
          "internalType": "uint256",
          "name": "hpBefore",
          "type": "uint256"
        },
        {
          "internalType": "uint256",
          "name": "hpAfter",
          "type": "uint256"
        }
      ],
      "name": "emitMissileAttackedUFO",
      "outputs": [],
      "stateMutability": "nonpayable",
      "type": "function"
    },
    {
      "inputs": [
        {
          "internalType": "address",
          "name": "newMissileMaker",
          "type": "address"
        }
      ],
      "name": "updateMissileMaker",
      "outputs": [],
      "stateMutability": "nonpayable",
      "type": "function"
    },
    {
      "inputs": [
        {
          "internalType": "address",
          "name": "newUfoInvasion",
          "type": "address"
        }
      ],
      "name": "updateUfoInvasion",
      "outputs": [],
      "stateMutability": "nonpayable",
      "type": "function"
    },
    {
      "inputs": [
        {
          "internalType": "address",
          "name": "newWorldLeaderStore",
          "type": "address"
        }
      ],
      "name": "updateLeaderStore",
      "outputs": [],
      "stateMutability": "nonpayable",
      "type": "function"
    }
  ],
  "bytecode": "0x60806040523480156200001157600080fd5b50604051620033bd380380620033bd8339810160408190526200003491620000d8565b6200003f3362000088565b600593909355600280546001600160a01b03199081166001600160a01b03948516179091556001805482169284169290921790915560038054909116919092161790556200014c565b600080546001600160a01b038381166001600160a01b0319831681178455604051919092169283917f8be0079c531659141344cd1fd0a4f28419497f9722a3daafe3b4186f6b6457e09190a35050565b60008060008060808587031215620000ee578384fd5b845193506020850151620001028162000133565b6040860151909350620001158162000133565b6060860151909250620001288162000133565b939692955090935050565b6001600160a01b03811681146200014957600080fd5b50565b613261806200015c6000396000f3fe608060405234801561001057600080fd5b50600436106101f75760003560e01c80637f7602f811610120578063b2e02d67116100b8578063de35173e1161007c578063de35173e146104f5578063e0881e52146104fd578063f1a8057c14610505578063f2fde38b14610518578063f98a8e6a1461052b57600080fd5b8063b2e02d671461046f578063b698a94d14610477578063c263d7d01461048a578063d286b96814610492578063d53794ef1461049a57600080fd5b80637f7602f8146103d85780638462151c146103f8578063884495e01461040b5780638b397ba01461041e5780638c5143ea146104315780638da5cb5b1461044457806395f82efd1461044c578063b082e4e21461045f578063b17b02a21461046757600080fd5b806349699c731161019357806349699c73146103055780634b50c9f0146103565780634e7602d31461035e57806356db94d114610371578063592ca6031461038457806359426d08146103975780636a50b229146103aa5780636f56891e146103bd578063715018a6146103d057600080fd5b80630c0ef2b0146101fc5780630feaf5e41461021957806311c6a0201461022e57806317fe58b4146102485780631a71c68b1461025b57806320f97a3e1461027b5780632858faad14610291578063319ec841146102ea5780633ccfd60b146102fd575b600080fd5b61020461053e565b60405190151581526020015b60405180910390f35b61022c610227366004612784565b6105bf565b005b6003546001600160a01b03165b6040516102109190612e46565b61022c6102563660046126e8565b6106aa565b61026e610269366004612cdf565b6106fb565b6040516102109190612f87565b6102836107c3565b604051908152602001610210565b6102a461029f366004612cdf565b610840565b604051610210919081516001600160a01b031681526020808301519082015260408083015190820152606080830151908201526080918201519181019190915260a00190565b61022c6102f83660046126e8565b6108f7565b61022c61098b565b610318610313366004612cdf565b610ad9565b604051610210919081516001600160a01b03168152602080830151908201526040808301519082015260609182015115159181019190915260800190565b610283610b75565b61022c61036c3660046127e8565b610bba565b61022c61037f366004612d0f565b610d5a565b61022c610392366004612d42565b610dfa565b61022c6103a53660046126e8565b610f39565b61022c6103b8366004612d8f565b611011565b61022c6103cb3660046126e8565b6110cf565b61022c6111a7565b6103eb6103e63660046126e8565b6111e2565b6040516102109190612eec565b6103eb6104063660046126e8565b611267565b61022c610419366004612cdf565b61158d565b61022c61042c366004612720565b611888565b61020461043f3660046126e8565b611929565b61023b611abe565b61023b61045a3660046129c7565b611acd565b610204611b4e565b610283611cb8565b610283611e1c565b61022c61048536600461294c565b611e61565b61028361203c565b610283612081565b6104ad6104a8366004612cdf565b6120c6565b604051610210919081516001600160a01b0316815260208083015190820152604080830151908201526060808301519082015260809182015115159181019190915260a00190565b61028361217f565b6102836122f5565b61022c610513366004612b22565b612376565b61022c6105263660046126e8565b612447565b61022c610539366004612cdf565b6124e7565b6003546040805162c0ef2b60e41b815290516000926001600160a01b031691630c0ef2b0916004808301926020929190829003018186803b15801561058257600080fd5b505afa158015610596573d6000803e3d6000fd5b505050506040513d601f19601f820116820180604052508101906105ba919061298e565b905090565b6003546001600160a01b031633146106325760405162461bcd60e51b815260206004820152602b60248201527f656d69744d697373696c6541747461636b656455464f203a3a20796f7520636160448201526a1b89dd08191bc81d1a185d60aa1b60648201526084015b60405180910390fd5b600654604080519182526001600160a01b038981166020840152828201899052606083018890528616608083015260a0820185905260c0820184905260e08201839052517f564eb563ab13ccf3cc31b087d2e09ca3f34d27a9e76e9d8623b18be2e100cb57918190036101000190a150505050505050565b336106b3611abe565b6001600160a01b0316146106d95760405162461bcd60e51b815260040161062990612f52565b600380546001600160a01b0319166001600160a01b0392909216919091179055565b61073d6040518060c0016040528060008152602001600081526020016060815260200160006001600160a01b0316815260200160008152602001600081525090565b600354604051631a71c68b60e01b8152600481018490526001600160a01b0390911690631a71c68b9060240160006040518083038186803b15801561078157600080fd5b505afa158015610795573d6000803e3d6000fd5b505050506040513d6000823e601f3d908101601f191682016040526107bd9190810190612b59565b92915050565b6003546040805163107cbd1f60e11b815290516000926001600160a01b0316916320f97a3e916004808301926020929190829003018186803b15801561080857600080fd5b505afa15801561081c573d6000803e3d6000fd5b505050506040513d601f19601f820116820180604052508101906105ba9190612cf7565b61087b6040518060a0016040528060006001600160a01b03168152602001600081526020016000815260200160008152602001600081525090565b600354604051632858faad60e01b8152600481018490526001600160a01b0390911690632858faad9060240160a06040518083038186803b1580156108bf57600080fd5b505afa1580156108d3573d6000803e3d6000fd5b505050506040513d601f19601f820116820180604052508101906107bd9190612c85565b33610900611abe565b6001600160a01b0316146109265760405162461bcd60e51b815260040161062990612f52565b60025460405163319ec84160e01b81526001600160a01b039091169063319ec84190610956908490600401612e46565b600060405180830381600087803b15801561097057600080fd5b505af1158015610984573d6000803e3d6000fd5b5050505050565b33610994611abe565b6001600160a01b0316146109ba5760405162461bcd60e51b815260040161062990612f52565b6002546040805163e8abdb6560e01b815290516000926001600160a01b03169163e8abdb659160048083019286929190829003018186803b1580156109fe57600080fd5b505afa158015610a12573d6000803e3d6000fd5b505050506040513d6000823e601f3d908101601f19168201604052610a3a9190810190612883565b905060005b8151811015610ad557818181518110610a6857634e487b7160e01b600052603260045260246000fd5b60200260200101516001600160a01b0316633ccfd60b6040518163ffffffff1660e01b8152600401600060405180830381600087803b158015610aaa57600080fd5b505af1158015610abe573d6000803e3d6000fd5b505050508080610acd906131af565b915050610a3f565b5050565b60408051608081018252600080825260208201819052818301819052606082015260035491516349699c7360e01b81526004810184905290916001600160a01b0316906349699c739060240160806040518083038186803b158015610b3d57600080fd5b505afa158015610b51573d6000803e3d6000fd5b505050506040513d601f19601f820116820180604052508101906107bd9190612ab1565b600354604080516304b50c9f60e41b815290516000926001600160a01b031691634b50c9f0916004808301926020929190829003018186803b15801561080857600080fd5b33610bc3611abe565b6001600160a01b031614610be95760405162461bcd60e51b815260040161062990612f52565b6002546040805163e8abdb6560e01b815290516000926001600160a01b03169163e8abdb659160048083019286929190829003018186803b158015610c2d57600080fd5b505afa158015610c41573d6000803e3d6000fd5b505050506040513d6000823e601f3d908101601f19168201604052610c699190810190612883565b905060005b8151811015610d555760005b8351811015610d4257828281518110610ca357634e487b7160e01b600052603260045260246000fd5b60200260200101516001600160a01b0316633bbed4a0858381518110610cd957634e487b7160e01b600052603260045260246000fd5b60200260200101516040518263ffffffff1660e01b8152600401610cfd9190612e46565b600060405180830381600087803b158015610d1757600080fd5b505af1158015610d2b573d6000803e3d6000fd5b505050508080610d3a906131af565b915050610c7a565b5080610d4d816131af565b915050610c6e565b505050565b6003546001600160a01b03163314610db45760405162461bcd60e51b815260206004820181905260248201527f656d69744e657747616d65203a3a20796f752063616e277420646f20746861746044820152606401610629565b7f0dc2e073feba17954845045dac4f6769d117cff8fa8cbe93073e99ae7d4db3fa8585858585604051610deb959493929190612fe9565b60405180910390a15050505050565b610e08836000600455600555565b600354604051631db4cadd60e21b81526001600160a01b03909116906376d32b7490610e3e903390879087908790600401612e93565b600060405180830381600087803b158015610e5857600080fd5b505af1158015610e6c573d6000803e3d6000fd5b5050505060005b8251811015610f1e5760015483516001600160a01b039091169063604ce99690859084908110610eb357634e487b7160e01b600052603260045260246000fd5b60200260200101516040518263ffffffff1660e01b8152600401610ed991815260200190565b600060405180830381600087803b158015610ef357600080fd5b505af1158015610f07573d6000803e3d6000fd5b505050508080610f16906131af565b915050610e73565b5060068054906000610f2f836131af565b9190505550505050565b33610f42611abe565b6001600160a01b031614610f685760405162461bcd60e51b815260040161062990612f52565b600280546001600160a01b0319166001600160a01b0383811691909117909155600154604051630b284da160e31b81529116906359426d0890610faf908490600401612e46565b600060405180830381600087803b158015610fc957600080fd5b505af1158015610fdd573d6000803e3d6000fd5b5050600354604051630b284da160e31b81526001600160a01b0390911692506359426d089150610956908490600401612e46565b6003546001600160a01b031633146110795760405162461bcd60e51b815260206004820152602560248201527f656d697455666f44657374726f796564203a3a20796f752063616e277420646f604482015264081d1a185d60da1b6064820152608401610629565b60408051858152602081018590526001600160a01b03848116828401528316606082015290517f8eb5b0a3ce4d91bdbe4e28d77335a119e988b4b373477ef2250be1c6ce7dea239181900360800190a150505050565b336110d8611abe565b6001600160a01b0316146110fe5760405162461bcd60e51b815260040161062990612f52565b600180546001600160a01b0319166001600160a01b03838116919091179091556003546040516337ab448f60e11b8152911690636f56891e90611145908490600401612e46565b600060405180830381600087803b15801561115f57600080fd5b505af1158015611173573d6000803e3d6000fd5b505060025460405163259cb82b60e01b81526001600160a01b03909116925063259cb82b9150610956908490600401612e46565b336111b0611abe565b6001600160a01b0316146111d65760405162461bcd60e51b815260040161062990612f52565b6111e06000612555565b565b600154604051630feec05f60e31b81526060916001600160a01b031690637f7602f890611213908590600401612e46565b60006040518083038186803b15801561122b57600080fd5b505afa15801561123f573d6000803e3d6000fd5b505050506040513d6000823e601f3d908101601f191682016040526107bd9190810190612912565b60606000600260009054906101000a90046001600160a01b03166001600160a01b031663e8abdb656040518163ffffffff1660e01b815260040160006040518083038186803b1580156112b957600080fd5b505afa1580156112cd573d6000803e3d6000fd5b505050506040513d6000823e601f3d908101601f191682016040526112f59190810190612883565b90506000805b82518110156113ca5782818151811061132457634e487b7160e01b600052603260045260246000fd5b60200260200101516001600160a01b0316638462151c866040518263ffffffff1660e01b81526004016113579190612e46565b60006040518083038186803b15801561136f57600080fd5b505afa158015611383573d6000803e3d6000fd5b505050506040513d6000823e601f3d908101601f191682016040526113ab9190810190612912565b516113b69083613178565b9150806113c2816131af565b9150506112fb565b506000816001600160401b038111156113f357634e487b7160e01b600052604160045260246000fd5b60405190808252806020026020018201604052801561141c578160200160208202803683370190505b50905060005b835181101561158457600084828151811061144d57634e487b7160e01b600052603260045260246000fd5b60200260200101516001600160a01b0316638462151c886040518263ffffffff1660e01b81526004016114809190612e46565b60006040518083038186803b15801561149857600080fd5b505afa1580156114ac573d6000803e3d6000fd5b505050506040513d6000823e601f3d908101601f191682016040526114d49190810190612912565b905060005b815181101561156f57855160009082906114f381876131ca565b6114fd9190613190565b6115079190613178565b905082828151811061152957634e487b7160e01b600052603260045260246000fd5b602002602001015185828151811061155157634e487b7160e01b600052603260045260246000fd5b60209081029190910101525080611567816131af565b9150506114d9565b5050808061157c906131af565b915050611422565b50949350505050565b61159b816000600455600555565b6002546040805163e8abdb6560e01b815290516000926001600160a01b03169163e8abdb659160048083019286929190829003018186803b1580156115df57600080fd5b505afa1580156115f3573d6000803e3d6000fd5b505050506040513d6000823e601f3d908101601f1916820160405261161b9190810190612883565b905060005b8151811015610d555781818151811061164957634e487b7160e01b600052603260045260246000fd5b60200260200101516001600160a01b0316634d7e3321336040518263ffffffff1660e01b815260040161167c9190612e46565b60206040518083038186803b15801561169457600080fd5b505afa1580156116a8573d6000803e3d6000fd5b505050506040513d601f19601f820116820180604052508101906116cc919061298e565b156118765760008282815181106116f357634e487b7160e01b600052603260045260246000fd5b60200260200101516001600160a01b0316633d131a6b3386600160009054906101000a90046001600160a01b03166001600160a01b0316636828f0c86040518163ffffffff1660e01b815260040160206040518083038186803b15801561175957600080fd5b505afa15801561176d573d6000803e3d6000fd5b505050506040513d601f19601f820116820180604052508101906117919190612cf7565b6040518463ffffffff1660e01b81526004016117af93929190612ecb565b600060405180830381600087803b1580156117c957600080fd5b505af11580156117dd573d6000803e3d6000fd5b505050506040513d6000823e601f3d908101601f191682016040526118059190810190612bfd565b60015460208201518251604051635313130960e11b81529394506001600160a01b039092169263a6262612926118429233928a9290600401612e93565b600060405180830381600087803b15801561185c57600080fd5b505af1158015611870573d6000803e3d6000fd5b50505050505b80611880816131af565b915050611620565b6001546001600160a01b031633146118f25760405162461bcd60e51b815260206004820152602760248201527f656d69744d697373696c6543726561746564203a3a20796f752063616e277420604482015266191bc81d1a185d60ca1b6064820152608401610629565b7f22a3359fa093c907c6ff91d15ae76cc6c5e30a739b56f522450ef9c103d9d65f8585858585604051610deb959493929190612e5a565b600033611934611abe565b6001600160a01b03161461195a5760405162461bcd60e51b815260040161062990612f52565b6002546040805163e8abdb6560e01b815290516000926001600160a01b03169163e8abdb659160048083019286929190829003018186803b15801561199e57600080fd5b505afa1580156119b2573d6000803e3d6000fd5b505050506040513d6000823e601f3d908101601f191682016040526119da9190810190612883565b90508051600014156119ef5750600092915050565b600160005b8251811015611ab457828181518110611a1d57634e487b7160e01b600052603260045260246000fd5b60200260200101516001600160a01b0316638c5143ea866040518263ffffffff1660e01b8152600401611a509190612e46565b60206040518083038186803b158015611a6857600080fd5b505afa158015611a7c573d6000803e3d6000fd5b505050506040513d601f19601f82011682018060405250810190611aa0919061298e565b915080611aac816131af565b9150506119f4565b509150505b919050565b6000546001600160a01b031690565b6002546040516310365c4f60e11b81526000916001600160a01b03169063206cb89e90611afe908590600401612eff565b60206040518083038186803b158015611b1657600080fd5b505afa158015611b2a573d6000803e3d6000fd5b505050506040513d601f19601f820116820180604052508101906107bd9190612704565b600080600260009054906101000a90046001600160a01b03166001600160a01b031663e8abdb656040518163ffffffff1660e01b815260040160006040518083038186803b158015611b9f57600080fd5b505afa158015611bb3573d6000803e3d6000fd5b505050506040513d6000823e601f3d908101601f19168201604052611bdb9190810190612883565b905060005b8151811015611caf576000828281518110611c0b57634e487b7160e01b600052603260045260246000fd5b60200260200101516001600160a01b0316638f90b2f0336040518263ffffffff1660e01b8152600401611c3e9190612e46565b60206040518083038186803b158015611c5657600080fd5b505afa158015611c6a573d6000803e3d6000fd5b505050506040513d601f19601f82011682018060405250810190611c8e9190612cf7565b1115611c9d5760019250505090565b80611ca7816131af565b915050611be0565b50600091505090565b600080600260009054906101000a90046001600160a01b03166001600160a01b031663e8abdb656040518163ffffffff1660e01b815260040160006040518083038186803b158015611d0957600080fd5b505afa158015611d1d573d6000803e3d6000fd5b505050506040513d6000823e601f3d908101601f19168201604052611d459190810190612883565b90506000805b8251811015611e1557828181518110611d7457634e487b7160e01b600052603260045260246000fd5b60200260200101516001600160a01b0316638f90b2f0336040518263ffffffff1660e01b8152600401611da79190612e46565b60206040518083038186803b158015611dbf57600080fd5b505afa158015611dd3573d6000803e3d6000fd5b505050506040513d601f19601f82011682018060405250810190611df79190612cf7565b611e019083613178565b915080611e0d816131af565b915050611d4b565b5092915050565b6003546040805163b2e02d6760e01b815290516000926001600160a01b03169163b2e02d67916004808301926020929190829003018186803b15801561080857600080fd5b60005b82518110156120225760035483516000916001600160a01b031690631ed31554903390879086908110611ea757634e487b7160e01b600052603260045260246000fd5b6020026020010151866040518463ffffffff1660e01b8152600401611ece93929190612ecb565b602060405180830381600087803b158015611ee857600080fd5b505af1158015611efc573d6000803e3d6000fd5b505050506040513d601f19601f82011682018060405250810190611f2091906129a8565b60015485519192506001600160a01b03169063604ce99690869085908110611f5857634e487b7160e01b600052603260045260246000fd5b60200260200101516040518263ffffffff1660e01b8152600401611f7e91815260200190565b600060405180830381600087803b158015611f9857600080fd5b505af1158015611fac573d6000803e3d6000fd5b5060029250611fb9915050565b816002811115611fd957634e487b7160e01b600052602160045260246000fd5b14806120045750600181600281111561200257634e487b7160e01b600052602160045260246000fd5b145b1561200f5750612022565b508061201a816131af565b915050611e64565b5060068054906000612033836131af565b91905055505050565b60035460408051630c263d7d60e41b815290516000926001600160a01b03169163c263d7d0916004808301926020929190829003018186803b15801561080857600080fd5b60035460408051631a50d72d60e31b815290516000926001600160a01b03169163d286b968916004808301926020929190829003018186803b15801561080857600080fd5b6121036040518060a0016040528060006001600160a01b031681526020016000815260200160008152602001600081526020016000151581525090565b60035460405163d53794ef60e01b8152600481018490526001600160a01b039091169063d53794ef9060240160a06040518083038186803b15801561214757600080fd5b505afa15801561215b573d6000803e3d6000fd5b505050506040513d601f19601f820116820180604052508101906107bd9190612a53565b60003361218a611abe565b6001600160a01b0316146121b05760405162461bcd60e51b815260040161062990612f52565b6002546040805163e8abdb6560e01b815290516000926001600160a01b03169163e8abdb659160048083019286929190829003018186803b1580156121f457600080fd5b505afa158015612208573d6000803e3d6000fd5b505050506040513d6000823e601f3d908101601f191682016040526122309190810190612883565b90506000805b8251811015611e155782818151811061225f57634e487b7160e01b600052603260045260246000fd5b60200260200101516001600160a01b03166312065fe06040518163ffffffff1660e01b815260040160206040518083038186803b15801561229f57600080fd5b505afa1580156122b3573d6000803e3d6000fd5b505050506040513d601f19601f820116820180604052508101906122d79190612cf7565b6122e19083613178565b9150806122ed816131af565b915050612236565b6003546000906001600160a01b031633146123525760405162461bcd60e51b815260206004820181905260248201527f67657452616e6456616c203a3a20796f752063616e277420646f2074686174216044820152606401610629565b60048054906000612362836131af565b90915550506004546005546105ba916125a5565b6003546001600160a01b031633146123da5760405162461bcd60e51b815260206004820152602160248201527f656d697447616d654f766572203a3a20796f752063616e277420646f207468616044820152601d60fa1b6064820152608401610629565b7ff226d74391466af0f3c4f040050f00c0ceedb6f5bcd65386d6922481f21446c38135602083013561240f6040850185613094565b61241f60808701606088016126e8565b86608001358760a0013560405161243c979695949392919061304c565b60405180910390a150565b33612450611abe565b6001600160a01b0316146124765760405162461bcd60e51b815260040161062990612f52565b6001600160a01b0381166124db5760405162461bcd60e51b815260206004820152602660248201527f4f776e61626c653a206e6577206f776e657220697320746865207a65726f206160448201526564647265737360d01b6064820152608401610629565b6124e481612555565b50565b336124f0611abe565b6001600160a01b0316146125165760405162461bcd60e51b815260040161062990612f52565b612524816000600455600555565b600354604051637cc5473560e11b8152600481018390526001600160a01b039091169063f98a8e6a90602401610956565b600080546001600160a01b038381166001600160a01b0319831681178455604051919092169283917f8be0079c531659141344cd1fd0a4f28419497f9722a3daafe3b4186f6b6457e09190a35050565b60006125b18284613178565b9392505050565b8051611ab981613216565b60008083601f8401126125d4578182fd5b5081356001600160401b038111156125ea578182fd5b6020830191508360208260051b850101111561260557600080fd5b9250929050565b600082601f83011261261c578081fd5b8135602061263161262c83613155565b613125565b80838252828201915082860187848660051b8901011115612650578586fd5b855b8581101561266e57813584529284019290840190600101612652565b5090979650505050505050565b600082601f83011261268b578081fd5b8151602061269b61262c83613155565b80838252828201915082860187848660051b89010111156126ba578586fd5b855b8581101561266e578151845292840192908401906001016126bc565b80518015158114611ab957600080fd5b6000602082840312156126f9578081fd5b81356125b181613216565b600060208284031215612715578081fd5b81516125b181613216565b600080600080600060808688031215612737578081fd5b853561274281613216565b945060208601356001600160401b0381111561275c578182fd5b612768888289016125c3565b9699909850959660408101359660609091013595509350505050565b600080600080600080600060e0888a03121561279e578485fd5b87356127a981613216565b9650602088013595506040880135945060608801356127c781613216565b9699959850939660808101359560a0820135955060c0909101359350915050565b600060208083850312156127fa578182fd5b82356001600160401b0381111561280f578283fd5b8301601f8101851361281f578283fd5b803561282d61262c82613155565b80828252848201915084840188868560051b870101111561284c578687fd5b8694505b8385101561287757803561286381613216565b835260019490940193918501918501612850565b50979650505050505050565b60006020808385031215612895578182fd5b82516001600160401b038111156128aa578283fd5b8301601f810185136128ba578283fd5b80516128c861262c82613155565b80828252848201915084840188868560051b87010111156128e7578687fd5b8694505b838510156128775780516128fe81613216565b8352600194909401939185019185016128eb565b600060208284031215612923578081fd5b81516001600160401b03811115612938578182fd5b6129448482850161267b565b949350505050565b6000806040838503121561295e578182fd5b82356001600160401b03811115612973578283fd5b61297f8582860161260c565b95602094909401359450505050565b60006020828403121561299f578081fd5b6125b1826126d8565b6000602082840312156129b9578081fd5b8151600381106125b1578182fd5b600060208083850312156129d9578182fd5b82356001600160401b03808211156129ef578384fd5b818501915085601f830112612a02578384fd5b813581811115612a1457612a14613200565b612a26601f8201601f19168501613125565b91508082528684828501011115612a3b578485fd5b80848401858401378101909201929092529392505050565b600060a08284031215612a64578081fd5b612a6c6130db565b8251612a7781613216565b80825250602083015160208201526040830151604082015260608301516060820152612aa5608084016126d8565b60808201529392505050565b600060808284031215612ac2578081fd5b604051608081018181106001600160401b0382111715612ae457612ae4613200565b6040528251612af281613216565b808252506020830151602082015260408301516040820152612b16606084016126d8565b60608201529392505050565b600060208284031215612b33578081fd5b81356001600160401b03811115612b48578182fd5b820160c081850312156125b1578182fd5b600060208284031215612b6a578081fd5b81516001600160401b0380821115612b80578283fd5b9083019060c08286031215612b93578283fd5b612b9b613103565b8251815260208301516020820152604083015182811115612bba578485fd5b612bc68782860161267b565b604083015250612bd8606084016125b8565b60608201526080830151608082015260a083015160a082015280935050505092915050565b600060208284031215612c0e578081fd5b81516001600160401b0380821115612c24578283fd5b9083019060408286031215612c37578283fd5b604051604081018181108382111715612c5257612c52613200565b60405282518152602083015182811115612c6a578485fd5b612c768782860161267b565b60208301525095945050505050565b600060a08284031215612c96578081fd5b612c9e6130db565b8251612ca981613216565b80825250602083015160208201526040830151604082015260608301516060820152608083015160808201528091505092915050565b600060208284031215612cf0578081fd5b5035919050565b600060208284031215612d08578081fd5b5051919050565b600080600080600060808688031215612d26578283fd5b8535945060208601356001600160401b0381111561275c578384fd5b600080600060608486031215612d56578081fd5b8335925060208401356001600160401b03811115612d72578182fd5b612d7e8682870161260c565b925050604084013590509250925092565b60008060008060808587031215612da4578182fd5b84359350602085013592506040850135612dbd81613216565b91506060850135612dcd81613216565b939692955090935050565b81835260006001600160fb1b03831115612df0578081fd5b8260051b80836020870137939093016020019283525090919050565b6000815180845260208085019450808401835b83811015612e3b57815187529582019590820190600101612e1f565b509495945050505050565b6001600160a01b0391909116815260200190565b6001600160a01b0386168152608060208201819052600090612e7f9083018688612dd8565b604083019490945250606001529392505050565b60018060a01b0385168152836020820152608060408201526000612eba6080830185612e0c565b905082606083015295945050505050565b6001600160a01b039390931683526020830191909152604082015260600190565b6020815260006125b16020830184612e0c565b6000602080835283518082850152825b81811015612f2b57858101830151858201604001528201612f0f565b81811115612f3c5783604083870101525b50601f01601f1916929092016040019392505050565b6020808252818101527f4f776e61626c653a2063616c6c6572206973206e6f7420746865206f776e6572604082015260600190565b6020815281516020820152602082015160408201526000604083015160c06060840152612fb760e0840182612e0c565b905060018060a01b036060850151166080840152608084015160a084015260a084015160c08401528091505092915050565b85815260806020808301829052908201859052600090869060a08401835b8881101561303557833561301a81613216565b6001600160a01b031682529282019290820190600101613007565b506040850196909652505050606001529392505050565b87815286602082015260c06040820152600061306c60c083018789612dd8565b6001600160a01b0395909516606083015250608081019290925260a090910152949350505050565b6000808335601e198436030181126130aa578283fd5b8301803591506001600160401b038211156130c3578283fd5b6020019150600581901b360382131561260557600080fd5b60405160a081016001600160401b03811182821017156130fd576130fd613200565b60405290565b60405160c081016001600160401b03811182821017156130fd576130fd613200565b604051601f8201601f191681016001600160401b038111828210171561314d5761314d613200565b604052919050565b60006001600160401b0382111561316e5761316e613200565b5060051b60200190565b6000821982111561318b5761318b6131ea565b500190565b60008160001904831182151516156131aa576131aa6131ea565b500290565b60006000198214156131c3576131c36131ea565b5060010190565b6000826131e557634e487b7160e01b81526012600452602481fd5b500690565b634e487b7160e01b600052601160045260246000fd5b634e487b7160e01b600052604160045260246000fd5b6001600160a01b03811681146124e457600080fdfea264697066735822122087dff124190a6f9ee6b252a28ebafb34fb93af76233f8888d0cc52ca23721fc364736f6c63430008040033",
  "immutableReferences": {},
  "source": "// SPDX-License-Identifier: MIT\r\npragma solidity ^0.8.4;\r\n\r\nimport \"./MissileMaker.sol\";\r\nimport \"./UfoInvasion.sol\";\r\nimport \"./WorldLeader.sol\";\r\nimport \"./LeaderStore.sol\";\r\nimport \"./Helpers.sol\";\r\nimport \"@openzeppelin/contracts/access/Ownable.sol\";\r\nimport \"@openzeppelin/contracts/utils/math/SafeMath.sol\";\r\n\r\n///////////////////////////////////////////////////////////////////////////////////////////////////////////////////////\r\n// main client interface for the project\r\n///////////////////////////////////////////////////////////////////////////////////////////////////////////////////////\r\ncontract MoreMissilesPlz is Ownable {\r\n    using Helpers for uint;\r\n    using SafeMath for uint;\r\n\r\n    MissileMaker internal _missileMaker;\r\n    LeaderStore internal _leaderStore;\r\n    UfoInvasion internal _ufoInvasion;\r\n\r\n    uint private _usesOfRand;\r\n    uint private _randVal;\r\n    uint private _ufoAttackedEventNum;\r\n\r\n    constructor(\r\n        uint randVal,\r\n        LeaderStore leaderStore,\r\n        MissileMaker missileMaker,\r\n        UfoInvasion ufoInvasion\r\n    ) {\r\n        _randVal = randVal;\r\n        _leaderStore = leaderStore;\r\n        _missileMaker = missileMaker;\r\n        _ufoInvasion = ufoInvasion;\r\n    }\r\n\r\n    function getRandVal() external returns (uint) {\r\n        require(msg.sender == address(_ufoInvasion), \"getRandVal :: you can't do that!\");\r\n        _usesOfRand++;\r\n        return _randVal.add(_usesOfRand);\r\n    }\r\n\r\n    function setRandVal(uint newRandVal) private {\r\n        _usesOfRand = 0;\r\n        _randVal = newRandVal;\r\n    }\r\n\r\n    function getWorldLeaderMintContract(string memory leaderName) public view returns (address) {\r\n        return _leaderStore.getLeaderContractAddressByName(leaderName);\r\n    }\r\n\r\n    function canUserRollAnyMissiles() public view returns (bool) {\r\n        WorldLeader[] memory leaders = _leaderStore.getLeaders();\r\n        for (uint i = 0; i < leaders.length; i++) {\r\n            if (leaders[i].numMissilesReadyToRoll(msg.sender) > 0) {\r\n                return true;\r\n            }\r\n        }\r\n        return false;\r\n    }\r\n\r\n    function numMissilesReadyToRoll() public view returns (uint) {\r\n        WorldLeader[] memory leaders = _leaderStore.getLeaders();\r\n        uint numReady = 0;\r\n        for (uint i = 0; i < leaders.length; i++) {\r\n            numReady += leaders[i].numMissilesReadyToRoll(msg.sender);\r\n        }\r\n        return numReady;\r\n    }\r\n\r\n    // method for users to call when they want to roll for a chance at getting a missile\r\n    //\r\n    function maybeGetMissiles(uint randVal) public {\r\n        setRandVal(randVal);\r\n        WorldLeader[] memory leaders = _leaderStore.getLeaders();\r\n        for (uint i = 0; i < leaders.length; i++) {\r\n            if (leaders[i].doesUserOwnAnyOfThisWorldLeader(msg.sender)) {\r\n                WorldLeader.MissileOdds memory missileOdds = leaders[i].maybeGetMissiles(msg.sender, randVal, _missileMaker.missileChancePerc());\r\n                _missileMaker.createMissiles(msg.sender, randVal, missileOdds.leaderNftIds, missileOdds.numMissilesToMint);\r\n            }\r\n        }\r\n    }\r\n\r\n    // for adding a new world leader NFT collection to the game. for e.g., if you wanted to add a \"Putin\"\r\n    //  collection later on you'd use this\r\n    //\r\n    function addLeaderContract(address contractAddress) public onlyOwner {\r\n        _leaderStore.addLeaderContract(contractAddress);\r\n    }\r\n\r\n    // starts a new ufo invasion game match\r\n    //\r\n    function startNewUfoInvasionGame(uint randVal) public onlyOwner {\r\n        setRandVal(randVal);\r\n        _ufoInvasion.startNewUfoInvasionGame(randVal);\r\n    }\r\n\r\n    // the method for a user using their missile to attack a UFO\r\n    //\r\n    function attackUFO(uint[] memory missileIds, uint ufoId) public {\r\n        for (uint i = 0; i < missileIds.length; i++) {\r\n            UfoInvasion.AttackUfoResult attackUfoResult = _ufoInvasion.attackUFO(msg.sender, missileIds[i], ufoId);\r\n            _missileMaker.burnMissile(missileIds[i]);\r\n            if (attackUfoResult == UfoInvasion.AttackUfoResult.UfoDestroyedAndGameOver || attackUfoResult == UfoInvasion.AttackUfoResult.UfoDestroyed) {\r\n                break;\r\n            }\r\n        }\r\n        _ufoAttackedEventNum++;\r\n    }\r\n\r\n    function attackRandomUFOs(uint randVal, uint[] memory missileIds, uint amountUFOs) public {\r\n        setRandVal(randVal);\r\n        _ufoInvasion.attackRandomUFOs(msg.sender, randVal, missileIds, amountUFOs);\r\n        for (uint i = 0; i < missileIds.length; i++) {\r\n            _missileMaker.burnMissile(missileIds[i]);\r\n        }\r\n        _ufoAttackedEventNum++;\r\n    }\r\n\r\n    function getUfoInvasionAddress() public view returns (address) {\r\n        return address(_ufoInvasion);\r\n    }\r\n\r\n    function withdraw() public onlyOwner {\r\n        WorldLeader[] memory leaders = _leaderStore.getLeaders();\r\n        for (uint i = 0; i < leaders.length; i++) {\r\n            leaders[i].withdraw();\r\n        }\r\n    }\r\n\r\n    function getWorldLeaderBalance() public onlyOwner view returns (uint) {\r\n        WorldLeader[] memory leaders = _leaderStore.getLeaders();\r\n        uint totalBalance = 0;\r\n        for (uint i = 0; i < leaders.length; i++) {\r\n            totalBalance += leaders[i].getBalance();\r\n        }\r\n        return totalBalance;\r\n    }\r\n\r\n    function setRecipients(address payable[] memory recipients) public onlyOwner {\r\n        WorldLeader[] memory leaders = _leaderStore.getLeaders();\r\n        for (uint i = 0; i < leaders.length; i++) {\r\n            for (uint j = 0; j < recipients.length; j++) {\r\n                leaders[i].setRecipient(recipients[j]);\r\n            }\r\n        }\r\n    }\r\n\r\n    function isRecipient(address payable recipient) public view onlyOwner returns(bool) {\r\n        WorldLeader[] memory leaders = _leaderStore.getLeaders();\r\n        if (leaders.length == 0) {\r\n            return false;\r\n        }\r\n        bool isRecip = true;\r\n        for (uint i = 0; i < leaders.length; i++) {\r\n            isRecip = leaders[i].isRecipient(recipient);\r\n        }\r\n        return isRecip;\r\n    }\r\n\r\n    function tokensOfOwner(address _owner) public view returns (uint[] memory) {\r\n        WorldLeader[] memory leaders = _leaderStore.getLeaders();\r\n        uint numOwned = 0;\r\n        for (uint i = 0; i < leaders.length; i++) {\r\n            numOwned += leaders[i].tokensOfOwner(_owner).length;\r\n        }\r\n        uint[] memory tokensOwned = new uint[](numOwned);\r\n        for (uint i = 0; i < leaders.length; i++) {\r\n            uint[] memory ownedTokens = leaders[i].tokensOfOwner(_owner);\r\n            for (uint j = 0; j < ownedTokens.length; j++) {\r\n                uint256 idx = ((i % leaders.length) * leaders.length) + j;\r\n                tokensOwned[idx] = ownedTokens[j];\r\n            }\r\n        }\r\n        return tokensOwned;\r\n    }\r\n\r\n    function getGameStartTime() public view returns (uint) {\r\n        return _ufoInvasion.getGameStartTime();\r\n    }\r\n\r\n    function isGameActive() public view returns (bool) {\r\n        return _ufoInvasion.isGameActive();\r\n    }\r\n\r\n    function getUserMissiles(address userAddr) public view returns (uint[] memory) {\r\n        return _missileMaker.getUserMissiles(userAddr);\r\n    }\r\n\r\n    // ############################################################\r\n    // functions for getting data about the ufo invasion game state\r\n    //\r\n    function getCurGameNumUFOs() public view returns (uint) {\r\n        return _ufoInvasion.getCurGameNumUFOs();\r\n    }\r\n\r\n    function getUfoAtIdx(uint idx) public view returns (UfoInvasion.UfoState memory) {\r\n        return _ufoInvasion.getUfoAtIdx(idx);\r\n    }\r\n\r\n    function getCurGameNumPlayers() public view returns (uint) {\r\n        return _ufoInvasion.getCurGameNumPlayers();\r\n    }\r\n\r\n    function getCurGamePlayerAtIdx(uint idx) public view returns (UfoInvasion.CurGameScore memory) {\r\n        return _ufoInvasion.getCurGamePlayerAtIdx(idx);\r\n    }\r\n\r\n    function getNumLeaderboardPlayers() public view returns (uint) {\r\n        return _ufoInvasion.getNumLeaderboardPlayers();\r\n    }\r\n\r\n    function getLeaderboardPlayerAtIdx(uint idx) public view returns (UfoInvasion.AllTimeLeaderboard memory) {\r\n        return _ufoInvasion.getLeaderboardPlayerAtIdx(idx);\r\n    }\r\n\r\n    function getTotalNumberOfGames() public view returns (uint) {\r\n        return _ufoInvasion.getTotalNumberOfGames();\r\n    }\r\n\r\n    function getGameStatsByGameIdx(uint idx) public view returns (UfoInvasion.GameStats memory) {\r\n        return _ufoInvasion.getGameStatsByGameIdx(idx);\r\n    }\r\n\r\n    // ############################################################\r\n    // events\r\n    //\r\n    event NewGame(uint gameNum, address[] locations, uint totalUfoHp,uint gameStartTimeInSeconds);\r\n    event MissileCreated(address owner, uint[] leaderNftIds, uint missileNftId, uint dmg);\r\n    event UfoDestroyed(uint ufoId, uint missileId, address locationAddress, address killerAddress);\r\n    event MissileAttackedUFO(uint missileAttackId, address attacker, uint missileId, uint ufoId, address locationAddress, uint dmg, uint hpBefore, uint hpAfter);\r\n    event GameOver(uint gameNumber, uint totalUfoHp, uint[] ufoIds, address winner, uint gameLengthinSeconds, uint gameStartTimeinSeconds);\r\n\r\n    function emitNewGame(uint gameNum, address[] calldata locations, uint totalUfoHp, uint gameStartTimeInSeconds) external {\r\n        require(msg.sender == address(_ufoInvasion), \"emitNewGame :: you can't do that\");\r\n        emit NewGame(gameNum, locations, totalUfoHp, gameStartTimeInSeconds);\r\n    }\r\n\r\n    function emitMissileCreated(address sender, uint[] calldata leaderNftIds, uint missileNftId, uint dmg) external {\r\n        require(msg.sender == address(_missileMaker), \"emitMissileCreated :: you can't do that\");\r\n        emit MissileCreated(sender, leaderNftIds, missileNftId, dmg);\r\n    }\r\n\r\n    function emitUfoDestroyed(uint ufoId, uint missileId, address locationAddress, address killerAddress) external {\r\n        require(msg.sender == address(_ufoInvasion), \"emitUfoDestroyed :: you can't do that\");\r\n        emit UfoDestroyed(ufoId, missileId, locationAddress, killerAddress);\r\n    }\r\n\r\n    function emitGameOver(UfoInvasion.GameStats calldata gameStats) external {\r\n        require(msg.sender == address(_ufoInvasion), \"emitGameOver :: you can't do that\");\r\n        emit GameOver(gameStats.gameNumber, gameStats.totalUfoHp, gameStats.ufoIds, gameStats.winner, gameStats.gameLengthInSeconds, gameStats.gameStartTimeInSeconds);\r\n    }\r\n\r\n    function emitMissileAttackedUFO(address attacker, uint missileId, uint ufoId, address locationAddress, uint dmg, uint hpBefore, uint hpAfter) external {\r\n        require(msg.sender == address(_ufoInvasion), \"emitMissileAttackedUFO :: you can't do that\");\r\n        emit MissileAttackedUFO(_ufoAttackedEventNum, attacker, missileId, ufoId, locationAddress, dmg, hpBefore, hpAfter);\r\n    }\r\n    // ############################################################\r\n    // if you need to change contract for the game (make sure you've mapped the data from the existing one first)\r\n    //\r\n    function updateMissileMaker(address newMissileMaker) public onlyOwner {\r\n        _missileMaker = MissileMaker(newMissileMaker);\r\n        _ufoInvasion.updateMissileMaker(newMissileMaker);\r\n        _leaderStore.updateMissileMakerForLeaders(newMissileMaker);\r\n    }\r\n\r\n    function updateUfoInvasion(address newUfoInvasion) public onlyOwner {\r\n        _ufoInvasion = UfoInvasion(newUfoInvasion);\r\n    }\r\n\r\n    function updateLeaderStore(address newWorldLeaderStore) public onlyOwner {\r\n        _leaderStore = LeaderStore(newWorldLeaderStore);\r\n        _missileMaker.updateLeaderStore(newWorldLeaderStore);\r\n        _ufoInvasion.updateLeaderStore(newWorldLeaderStore);\r\n    }\r\n}\r\n\r\n",
  "sourcePath": "C:\\data\\source\\Webstorm Projects\\metis-nfts\\contracts\\MoreMissilesPlz.sol",
  "compiler": {
    "name": "solc",
    "version": "0.8.4+commit.c7e474f2.Emscripten.clang"
  },
  "schemaVersion": "3.4.5",
  "updatedAt": "2022-03-25T05:20:01.837Z",
  "devdoc": {
    "kind": "dev",
    "methods": {
      "owner()": {
        "details": "Returns the address of the current owner."
      },
      "renounceOwnership()": {
        "details": "Leaves the contract without owner. It will not be possible to call `onlyOwner` functions anymore. Can only be called by the current owner. NOTE: Renouncing ownership will leave the contract without an owner, thereby removing any functionality that is only available to the owner."
      },
      "transferOwnership(address)": {
        "details": "Transfers ownership of the contract to a new account (`newOwner`). Can only be called by the current owner."
      }
    },
    "version": 1
  },
  "userdoc": {
    "kind": "user",
    "methods": {},
    "version": 1
  }
}