{
  "contractName": "MoreMissilesPlz",
  "abi": [
    {
      "inputs": [
        {
          "internalType": "contract LeaderStore",
          "name": "leaderStore",
          "type": "address"
        },
        {
          "internalType": "contract MissileMaker",
          "name": "missileMaker",
          "type": "address"
        },
        {
          "internalType": "contract UfoInvasion",
          "name": "ufoInvasion",
          "type": "address"
        }
      ],
      "stateMutability": "nonpayable",
      "type": "constructor"
    },
    {
      "anonymous": false,
      "inputs": [
        {
          "indexed": false,
          "internalType": "uint256",
          "name": "gameNumber",
          "type": "uint256"
        },
        {
          "indexed": false,
          "internalType": "uint256",
          "name": "totalUfoHp",
          "type": "uint256"
        },
        {
          "indexed": false,
          "internalType": "uint256[]",
          "name": "ufoIds",
          "type": "uint256[]"
        },
        {
          "indexed": false,
          "internalType": "address",
          "name": "winner",
          "type": "address"
        },
        {
          "indexed": false,
          "internalType": "uint256",
          "name": "gameLengthinSeconds",
          "type": "uint256"
        },
        {
          "indexed": false,
          "internalType": "uint256",
          "name": "gameStartTimeinSeconds",
          "type": "uint256"
        }
      ],
      "name": "GameOver",
      "type": "event"
    },
    {
      "anonymous": false,
      "inputs": [
        {
          "indexed": false,
          "internalType": "address",
          "name": "attacker",
          "type": "address"
        },
        {
          "indexed": false,
          "internalType": "uint256",
          "name": "missileId",
          "type": "uint256"
        },
        {
          "indexed": false,
          "internalType": "uint256",
          "name": "ufoId",
          "type": "uint256"
        },
        {
          "indexed": false,
          "internalType": "address",
          "name": "locationAddress",
          "type": "address"
        },
        {
          "indexed": false,
          "internalType": "uint256",
          "name": "dmg",
          "type": "uint256"
        }
      ],
      "name": "MissileAttackedUFO",
      "type": "event"
    },
    {
      "anonymous": false,
      "inputs": [
        {
          "indexed": false,
          "internalType": "address",
          "name": "owner",
          "type": "address"
        },
        {
          "indexed": false,
          "internalType": "uint256[]",
          "name": "leaderNftIds",
          "type": "uint256[]"
        },
        {
          "indexed": false,
          "internalType": "uint256",
          "name": "missileNftId",
          "type": "uint256"
        },
        {
          "indexed": false,
          "internalType": "uint256",
          "name": "dmg",
          "type": "uint256"
        }
      ],
      "name": "MissileCreated",
      "type": "event"
    },
    {
      "anonymous": false,
      "inputs": [
        {
          "indexed": true,
          "internalType": "address",
          "name": "previousOwner",
          "type": "address"
        },
        {
          "indexed": true,
          "internalType": "address",
          "name": "newOwner",
          "type": "address"
        }
      ],
      "name": "OwnershipTransferred",
      "type": "event"
    },
    {
      "anonymous": false,
      "inputs": [
        {
          "indexed": false,
          "internalType": "uint256",
          "name": "ufoId",
          "type": "uint256"
        },
        {
          "indexed": false,
          "internalType": "uint256",
          "name": "missileId",
          "type": "uint256"
        },
        {
          "indexed": false,
          "internalType": "address",
          "name": "locationAddress",
          "type": "address"
        },
        {
          "indexed": false,
          "internalType": "address",
          "name": "killerAddress",
          "type": "address"
        }
      ],
      "name": "UfoDestroyed",
      "type": "event"
    },
    {
      "inputs": [],
      "name": "owner",
      "outputs": [
        {
          "internalType": "address",
          "name": "",
          "type": "address"
        }
      ],
      "stateMutability": "view",
      "type": "function"
    },
    {
      "inputs": [],
      "name": "renounceOwnership",
      "outputs": [],
      "stateMutability": "nonpayable",
      "type": "function"
    },
    {
      "inputs": [
        {
          "internalType": "address",
          "name": "newOwner",
          "type": "address"
        }
      ],
      "name": "transferOwnership",
      "outputs": [],
      "stateMutability": "nonpayable",
      "type": "function"
    },
    {
      "inputs": [
        {
          "internalType": "string",
          "name": "leaderName",
          "type": "string"
        }
      ],
      "name": "getWorldLeaderMintContract",
      "outputs": [
        {
          "internalType": "address",
          "name": "",
          "type": "address"
        }
      ],
      "stateMutability": "view",
      "type": "function"
    },
    {
      "inputs": [],
      "name": "canUserRollAnyMissiles",
      "outputs": [
        {
          "internalType": "bool",
          "name": "",
          "type": "bool"
        }
      ],
      "stateMutability": "view",
      "type": "function"
    },
    {
      "inputs": [],
      "name": "numMissilesReadyToRoll",
      "outputs": [
        {
          "internalType": "uint256",
          "name": "",
          "type": "uint256"
        }
      ],
      "stateMutability": "view",
      "type": "function"
    },
    {
      "inputs": [
        {
          "internalType": "uint256",
          "name": "randVal",
          "type": "uint256"
        }
      ],
      "name": "maybeGetMissiles",
      "outputs": [],
      "stateMutability": "nonpayable",
      "type": "function"
    },
    {
      "inputs": [
        {
          "internalType": "address",
          "name": "contractAddress",
          "type": "address"
        }
      ],
      "name": "addLeaderContract",
      "outputs": [],
      "stateMutability": "nonpayable",
      "type": "function"
    },
    {
      "inputs": [
        {
          "internalType": "uint256",
          "name": "randVal",
          "type": "uint256"
        }
      ],
      "name": "startNewUfoInvasionGame",
      "outputs": [],
      "stateMutability": "nonpayable",
      "type": "function"
    },
    {
      "inputs": [
        {
          "internalType": "uint256[]",
          "name": "missileIds",
          "type": "uint256[]"
        },
        {
          "internalType": "uint256",
          "name": "ufoId",
          "type": "uint256"
        }
      ],
      "name": "attackUFO",
      "outputs": [],
      "stateMutability": "nonpayable",
      "type": "function"
    },
    {
      "inputs": [
        {
          "internalType": "uint256",
          "name": "randVal",
          "type": "uint256"
        },
        {
          "internalType": "uint256[]",
          "name": "missileIds",
          "type": "uint256[]"
        },
        {
          "internalType": "uint256",
          "name": "amountUFOs",
          "type": "uint256"
        }
      ],
      "name": "attackRandomUFOs",
      "outputs": [],
      "stateMutability": "nonpayable",
      "type": "function"
    },
    {
      "inputs": [],
      "name": "getUfoInvasionAddress",
      "outputs": [
        {
          "internalType": "address",
          "name": "",
          "type": "address"
        }
      ],
      "stateMutability": "view",
      "type": "function"
    },
    {
      "inputs": [],
      "name": "withdraw",
      "outputs": [],
      "stateMutability": "nonpayable",
      "type": "function"
    },
    {
      "inputs": [],
      "name": "getWorldLeaderBalance",
      "outputs": [
        {
          "internalType": "uint256",
          "name": "",
          "type": "uint256"
        }
      ],
      "stateMutability": "view",
      "type": "function"
    },
    {
      "inputs": [
        {
          "internalType": "address payable[]",
          "name": "recipients",
          "type": "address[]"
        }
      ],
      "name": "setRecipients",
      "outputs": [],
      "stateMutability": "nonpayable",
      "type": "function"
    },
    {
      "inputs": [
        {
          "internalType": "address payable",
          "name": "recipient",
          "type": "address"
        }
      ],
      "name": "isRecipient",
      "outputs": [
        {
          "internalType": "bool",
          "name": "",
          "type": "bool"
        }
      ],
      "stateMutability": "view",
      "type": "function"
    },
    {
      "inputs": [
        {
          "internalType": "address",
          "name": "_owner",
          "type": "address"
        }
      ],
      "name": "tokensOfOwner",
      "outputs": [
        {
          "internalType": "uint256[]",
          "name": "",
          "type": "uint256[]"
        }
      ],
      "stateMutability": "view",
      "type": "function"
    },
    {
      "inputs": [],
      "name": "getGameStartTime",
      "outputs": [
        {
          "internalType": "uint256",
          "name": "",
          "type": "uint256"
        }
      ],
      "stateMutability": "view",
      "type": "function"
    },
    {
      "inputs": [],
      "name": "isGameActive",
      "outputs": [
        {
          "internalType": "bool",
          "name": "",
          "type": "bool"
        }
      ],
      "stateMutability": "view",
      "type": "function"
    },
    {
      "inputs": [
        {
          "internalType": "address",
          "name": "userAddr",
          "type": "address"
        }
      ],
      "name": "getUserMissiles",
      "outputs": [
        {
          "internalType": "uint256[]",
          "name": "",
          "type": "uint256[]"
        }
      ],
      "stateMutability": "view",
      "type": "function"
    },
    {
      "inputs": [],
      "name": "getCurGameNumUFOs",
      "outputs": [
        {
          "internalType": "uint256",
          "name": "",
          "type": "uint256"
        }
      ],
      "stateMutability": "view",
      "type": "function"
    },
    {
      "inputs": [
        {
          "internalType": "uint256",
          "name": "idx",
          "type": "uint256"
        }
      ],
      "name": "getUfoAtIdx",
      "outputs": [
        {
          "components": [
            {
              "internalType": "address",
              "name": "locationAddress",
              "type": "address"
            },
            {
              "internalType": "uint256",
              "name": "ufoId",
              "type": "uint256"
            },
            {
              "internalType": "uint256",
              "name": "curHp",
              "type": "uint256"
            },
            {
              "internalType": "uint256",
              "name": "startingHp",
              "type": "uint256"
            }
          ],
          "internalType": "struct UfoInvasion.UfoState",
          "name": "",
          "type": "tuple"
        }
      ],
      "stateMutability": "view",
      "type": "function"
    },
    {
      "inputs": [],
      "name": "getCurGameNumPlayers",
      "outputs": [
        {
          "internalType": "uint256",
          "name": "",
          "type": "uint256"
        }
      ],
      "stateMutability": "view",
      "type": "function"
    },
    {
      "inputs": [
        {
          "internalType": "uint256",
          "name": "idx",
          "type": "uint256"
        }
      ],
      "name": "getCurGamePlayerAtIdx",
      "outputs": [
        {
          "components": [
            {
              "internalType": "address",
              "name": "playerAddress",
              "type": "address"
            },
            {
              "internalType": "uint256",
              "name": "score",
              "type": "uint256"
            },
            {
              "internalType": "uint256",
              "name": "nukesUsed",
              "type": "uint256"
            },
            {
              "internalType": "bool",
              "name": "active",
              "type": "bool"
            }
          ],
          "internalType": "struct UfoInvasion.CurGameScore",
          "name": "",
          "type": "tuple"
        }
      ],
      "stateMutability": "view",
      "type": "function"
    },
    {
      "inputs": [],
      "name": "getNumLeaderboardPlayers",
      "outputs": [
        {
          "internalType": "uint256",
          "name": "",
          "type": "uint256"
        }
      ],
      "stateMutability": "view",
      "type": "function"
    },
    {
      "inputs": [
        {
          "internalType": "uint256",
          "name": "idx",
          "type": "uint256"
        }
      ],
      "name": "getLeaderboardPlayerAtIdx",
      "outputs": [
        {
          "components": [
            {
              "internalType": "address",
              "name": "playerAddress",
              "type": "address"
            },
            {
              "internalType": "uint256",
              "name": "score",
              "type": "uint256"
            },
            {
              "internalType": "uint256",
              "name": "wins",
              "type": "uint256"
            },
            {
              "internalType": "uint256",
              "name": "nukesUsed",
              "type": "uint256"
            },
            {
              "internalType": "bool",
              "name": "exists",
              "type": "bool"
            }
          ],
          "internalType": "struct UfoInvasion.AllTimeLeaderboard",
          "name": "",
          "type": "tuple"
        }
      ],
      "stateMutability": "view",
      "type": "function"
    },
    {
      "inputs": [],
      "name": "getTotalNumberOfGames",
      "outputs": [
        {
          "internalType": "uint256",
          "name": "",
          "type": "uint256"
        }
      ],
      "stateMutability": "view",
      "type": "function"
    },
    {
      "inputs": [
        {
          "internalType": "uint256",
          "name": "idx",
          "type": "uint256"
        }
      ],
      "name": "getGameStatsByGameIdx",
      "outputs": [
        {
          "components": [
            {
              "internalType": "uint256",
              "name": "gameNumber",
              "type": "uint256"
            },
            {
              "internalType": "uint256",
              "name": "totalUfoHp",
              "type": "uint256"
            },
            {
              "internalType": "uint256[]",
              "name": "ufoIds",
              "type": "uint256[]"
            },
            {
              "internalType": "address",
              "name": "winner",
              "type": "address"
            },
            {
              "internalType": "uint256",
              "name": "gameLengthInSeconds",
              "type": "uint256"
            },
            {
              "internalType": "uint256",
              "name": "gameStartTimeInSeconds",
              "type": "uint256"
            }
          ],
          "internalType": "struct UfoInvasion.GameStats",
          "name": "",
          "type": "tuple"
        }
      ],
      "stateMutability": "view",
      "type": "function"
    },
    {
      "inputs": [
        {
          "internalType": "address",
          "name": "sender",
          "type": "address"
        },
        {
          "internalType": "uint256[]",
          "name": "leaderNftIds",
          "type": "uint256[]"
        },
        {
          "internalType": "uint256",
          "name": "missileNftId",
          "type": "uint256"
        },
        {
          "internalType": "uint256",
          "name": "dmg",
          "type": "uint256"
        }
      ],
      "name": "emitMissileCreated",
      "outputs": [],
      "stateMutability": "nonpayable",
      "type": "function"
    },
    {
      "inputs": [
        {
          "internalType": "uint256",
          "name": "ufoId",
          "type": "uint256"
        },
        {
          "internalType": "uint256",
          "name": "missileId",
          "type": "uint256"
        },
        {
          "internalType": "address",
          "name": "locationAddress",
          "type": "address"
        },
        {
          "internalType": "address",
          "name": "killerAddress",
          "type": "address"
        }
      ],
      "name": "emitUfoDestroyed",
      "outputs": [],
      "stateMutability": "nonpayable",
      "type": "function"
    },
    {
      "inputs": [
        {
          "components": [
            {
              "internalType": "uint256",
              "name": "gameNumber",
              "type": "uint256"
            },
            {
              "internalType": "uint256",
              "name": "totalUfoHp",
              "type": "uint256"
            },
            {
              "internalType": "uint256[]",
              "name": "ufoIds",
              "type": "uint256[]"
            },
            {
              "internalType": "address",
              "name": "winner",
              "type": "address"
            },
            {
              "internalType": "uint256",
              "name": "gameLengthInSeconds",
              "type": "uint256"
            },
            {
              "internalType": "uint256",
              "name": "gameStartTimeInSeconds",
              "type": "uint256"
            }
          ],
          "internalType": "struct UfoInvasion.GameStats",
          "name": "gameStats",
          "type": "tuple"
        }
      ],
      "name": "emitGameOver",
      "outputs": [],
      "stateMutability": "nonpayable",
      "type": "function"
    },
    {
      "inputs": [
        {
          "internalType": "address",
          "name": "attacker",
          "type": "address"
        },
        {
          "internalType": "uint256",
          "name": "missileId",
          "type": "uint256"
        },
        {
          "internalType": "uint256",
          "name": "ufoId",
          "type": "uint256"
        },
        {
          "internalType": "address",
          "name": "locationAddress",
          "type": "address"
        },
        {
          "internalType": "uint256",
          "name": "dmg",
          "type": "uint256"
        }
      ],
      "name": "emitMissileAttackedUFO",
      "outputs": [],
      "stateMutability": "nonpayable",
      "type": "function"
    },
    {
      "inputs": [
        {
          "internalType": "address",
          "name": "newMissileMaker",
          "type": "address"
        }
      ],
      "name": "updateMissileMaker",
      "outputs": [],
      "stateMutability": "nonpayable",
      "type": "function"
    },
    {
      "inputs": [
        {
          "internalType": "address",
          "name": "newUfoInvasion",
          "type": "address"
        }
      ],
      "name": "updateUfoInvasion",
      "outputs": [],
      "stateMutability": "nonpayable",
      "type": "function"
    },
    {
      "inputs": [
        {
          "internalType": "address",
          "name": "newWorldLeaderStore",
          "type": "address"
        }
      ],
      "name": "updateLeaderStore",
      "outputs": [],
      "stateMutability": "nonpayable",
      "type": "function"
    }
  ],
  "bytecode": "0x60806040523480156200001157600080fd5b5060405162003510380380620035108339810160408190526200003491620000d2565b6200003f3362000082565b600280546001600160a01b039485166001600160a01b0319918216179091556001805493851693821693909317909255600380549190931691161790556200013e565b600080546001600160a01b038381166001600160a01b0319831681178455604051919092169283917f8be0079c531659141344cd1fd0a4f28419497f9722a3daafe3b4186f6b6457e09190a35050565b600080600060608486031215620000e7578283fd5b8351620000f48162000125565b6020850151909350620001078162000125565b60408501519092506200011a8162000125565b809150509250925092565b6001600160a01b03811681146200013b57600080fd5b50565b6133c2806200014e6000396000f3fe608060405234801561001057600080fd5b50600436106101d15760003560e01c80637f7602f811610105578063b2e02d671161009d578063b2e02d671461042c578063b698a94d14610434578063c263d7d014610447578063d286b9681461044f578063d53794ef14610457578063de35173e146104b2578063f1a8057c146104ba578063f2fde38b146104cd578063f98a8e6a146104e057600080fd5b80637f7602f8146103955780638462151c146103b5578063884495e0146103c85780638b397ba0146103db5780638c5143ea146103ee5780638da5cb5b1461040157806395f82efd14610409578063b082e4e21461041c578063b17b02a21461042457600080fd5b80633ccfd60b116101785780633ccfd60b146102cd57806349699c73146102d55780634b50c9f0146103265780634e7602d31461032e578063592ca6031461034157806359426d08146103545780636a50b229146103675780636f56891e1461037a578063715018a61461038d57600080fd5b80630c0ef2b0146101d657806311c6a020146101f357806317fe58b41461020d5780631a71c68b1461022257806320f97a3e146102425780632858faad14610258578063319ec841146102a75780633554e4d7146102ba575b600080fd5b6101de6104f3565b60405190151581526020015b60405180910390f35b6003546001600160a01b03165b6040516101ea9190612fd8565b61022061021b3660046128a5565b610574565b005b610235610230366004612ea4565b6105ce565b6040516101ea9190613144565b61024a610696565b6040519081526020016101ea565b61026b610266366004612ea4565b610713565b6040516101ea919081516001600160a01b0316815260208083015190820152604080830151908201526060918201519181019190915260800190565b6102206102b53660046128a5565b6107c3565b6102206102c836600461296e565b610857565b6102206108e3565b6102e86102e3366004612ea4565b610a31565b6040516101ea919081516001600160a01b03168152602080830151908201526040808301519082015260609182015115159181019190915260800190565b61024a610acd565b61022061033c3660046129bf565b610b12565b61022061034f366004612ed4565b610cb2565b6102206103623660046128a5565b610ff5565b610220610375366004612f21565b6110cd565b6102206103883660046128a5565b61114d565b610220611225565b6103a86103a33660046128a5565b611260565b6040516101ea919061307e565b6103a86103c33660046128a5565b6112e5565b6102206103d6366004612ea4565b61160b565b6102206103e93660046128dd565b6118f8565b6101de6103fc3660046128a5565b611959565b610200611aee565b610200610417366004612b96565b611afd565b6101de611b7e565b61024a611ce8565b61024a611e4c565b610220610442366004612b1b565b611e91565b61024a612027565b61024a61206c565b61046a610465366004612ea4565b6120b1565b6040516101ea919081516001600160a01b0316815260208083015190820152604080830151908201526060808301519082015260809182015115159181019190915260a00190565b61024a61216a565b6102206104c8366004612cf1565b6122e0565b6102206104db3660046128a5565b612377565b6102206104ee366004612ea4565b612417565b6003546040805162c0ef2b60e41b815290516000926001600160a01b031691630c0ef2b0916004808301926020929190829003018186803b15801561053757600080fd5b505afa15801561054b573d6000803e3d6000fd5b505050506040513d601f19601f8201168201806040525081019061056f9190612b5d565b905090565b3361057d611aee565b6001600160a01b0316146105ac5760405162461bcd60e51b81526004016105a39061310f565b60405180910390fd5b600380546001600160a01b0319166001600160a01b0392909216919091179055565b6106106040518060c0016040528060008152602001600081526020016060815260200160006001600160a01b0316815260200160008152602001600081525090565b600354604051631a71c68b60e01b8152600481018490526001600160a01b0390911690631a71c68b9060240160006040518083038186803b15801561065457600080fd5b505afa158015610668573d6000803e3d6000fd5b505050506040513d6000823e601f3d908101601f191682016040526106909190810190612d28565b92915050565b6003546040805163107cbd1f60e11b815290516000926001600160a01b0316916320f97a3e916004808301926020929190829003018186803b1580156106db57600080fd5b505afa1580156106ef573d6000803e3d6000fd5b505050506040513d601f19601f8201168201806040525081019061056f9190612ebc565b610747604051806080016040528060006001600160a01b031681526020016000815260200160008152602001600081525090565b600354604051632858faad60e01b8152600481018490526001600160a01b0390911690632858faad9060240160806040518083038186803b15801561078b57600080fd5b505afa15801561079f573d6000803e3d6000fd5b505050506040513d601f19601f820116820180604052508101906106909190612e54565b336107cc611aee565b6001600160a01b0316146107f25760405162461bcd60e51b81526004016105a39061310f565b60025460405163319ec84160e01b81526001600160a01b039091169063319ec84190610822908490600401612fd8565b600060405180830381600087803b15801561083c57600080fd5b505af1158015610850573d6000803e3d6000fd5b5050505050565b6003546001600160a01b031633146108815760405162461bcd60e51b81526004016105a3906130e4565b604080516001600160a01b038088168252602082018790529181018590529083166060820152608081018290527f5c53cc85b9cc9260d0550ff580a8f082e0e5f1f519f8352adc38d68e881cfdbb9060a0015b60405180910390a15050505050565b336108ec611aee565b6001600160a01b0316146109125760405162461bcd60e51b81526004016105a39061310f565b6002546040805163e8abdb6560e01b815290516000926001600160a01b03169163e8abdb659160048083019286929190829003018186803b15801561095657600080fd5b505afa15801561096a573d6000803e3d6000fd5b505050506040513d6000823e601f3d908101601f191682016040526109929190810190612a5a565b905060005b8151811015610a2d578181815181106109c057634e487b7160e01b600052603260045260246000fd5b60200260200101516001600160a01b0316633ccfd60b6040518163ffffffff1660e01b8152600401600060405180830381600087803b158015610a0257600080fd5b505af1158015610a16573d6000803e3d6000fd5b505050508080610a2590613310565b915050610997565b5050565b60408051608081018252600080825260208201819052818301819052606082015260035491516349699c7360e01b81526004810184905290916001600160a01b0316906349699c739060240160806040518083038186803b158015610a9557600080fd5b505afa158015610aa9573d6000803e3d6000fd5b505050506040513d601f19601f820116820180604052508101906106909190612c9d565b600354604080516304b50c9f60e41b815290516000926001600160a01b031691634b50c9f0916004808301926020929190829003018186803b1580156106db57600080fd5b33610b1b611aee565b6001600160a01b031614610b415760405162461bcd60e51b81526004016105a39061310f565b6002546040805163e8abdb6560e01b815290516000926001600160a01b03169163e8abdb659160048083019286929190829003018186803b158015610b8557600080fd5b505afa158015610b99573d6000803e3d6000fd5b505050506040513d6000823e601f3d908101601f19168201604052610bc19190810190612a5a565b905060005b8151811015610cad5760005b8351811015610c9a57828281518110610bfb57634e487b7160e01b600052603260045260246000fd5b60200260200101516001600160a01b0316633bbed4a0858381518110610c3157634e487b7160e01b600052603260045260246000fd5b60200260200101516040518263ffffffff1660e01b8152600401610c559190612fd8565b600060405180830381600087803b158015610c6f57600080fd5b505af1158015610c83573d6000803e3d6000fd5b505050508080610c9290613310565b915050610bd2565b5080610ca581613310565b915050610bc6565b505050565b60035460408051631a50d72d60e31b815290516000926001600160a01b03169163d286b968916004808301926020929190829003018186803b158015610cf757600080fd5b505afa158015610d0b573d6000803e3d6000fd5b505050506040513d601f19601f82011682018060405250810190610d2f9190612ebc565b90506000818311610d405782610d42565b815b60035460405163365031f760e01b815260048101889052602481018390529192506000916001600160a01b039091169063365031f79060440160006040518083038186803b158015610d9357600080fd5b505afa158015610da7573d6000803e3d6000fd5b505050506040513d6000823e601f3d908101601f19168201604052610dcf9190810190612ae9565b905060005b8551811015610fec576000610de883612477565b905082518114610dff57610dfc8184612557565b92505b8251610e0b5750610fec565b82516000908490610e2790610e218c42886126dd565b90612727565b81518110610e4557634e487b7160e01b600052603260045260246000fd5b602002602001015190506000600360009054906101000a90046001600160a01b03166001600160a01b0316631ed31554338b8781518110610e9657634e487b7160e01b600052603260045260246000fd5b6020026020010151856040518463ffffffff1660e01b8152600401610ebd9392919061305d565b602060405180830381600087803b158015610ed757600080fd5b505af1158015610eeb573d6000803e3d6000fd5b505050506040513d601f19601f82011682018060405250810190610f0f9190612b77565b6001548a519192506001600160a01b03169063604ce996908b9087908110610f4757634e487b7160e01b600052603260045260246000fd5b60200260200101516040518263ffffffff1660e01b8152600401610f6d91815260200190565b600060405180830381600087803b158015610f8757600080fd5b505af1158015610f9b573d6000803e3d6000fd5b5060029250610fa8915050565b816002811115610fc857634e487b7160e01b600052602160045260246000fd5b1415610fd657505050610fec565b5050508080610fe490613310565b915050610dd4565b50505050505050565b33610ffe611aee565b6001600160a01b0316146110245760405162461bcd60e51b81526004016105a39061310f565b600280546001600160a01b0319166001600160a01b0383811691909117909155600154604051630b284da160e31b81529116906359426d089061106b908490600401612fd8565b600060405180830381600087803b15801561108557600080fd5b505af1158015611099573d6000803e3d6000fd5b5050600354604051630b284da160e31b81526001600160a01b0390911692506359426d089150610822908490600401612fd8565b6003546001600160a01b031633146110f75760405162461bcd60e51b81526004016105a3906130e4565b60408051858152602081018590526001600160a01b03848116828401528316606082015290517f8eb5b0a3ce4d91bdbe4e28d77335a119e988b4b373477ef2250be1c6ce7dea239181900360800190a150505050565b33611156611aee565b6001600160a01b03161461117c5760405162461bcd60e51b81526004016105a39061310f565b600180546001600160a01b0319166001600160a01b03838116919091179091556003546040516337ab448f60e11b8152911690636f56891e906111c3908490600401612fd8565b600060405180830381600087803b1580156111dd57600080fd5b505af11580156111f1573d6000803e3d6000fd5b505060025460405163259cb82b60e01b81526001600160a01b03909116925063259cb82b9150610822908490600401612fd8565b3361122e611aee565b6001600160a01b0316146112545760405162461bcd60e51b81526004016105a39061310f565b61125e600061274f565b565b600154604051630feec05f60e31b81526060916001600160a01b031690637f7602f890611291908590600401612fd8565b60006040518083038186803b1580156112a957600080fd5b505afa1580156112bd573d6000803e3d6000fd5b505050506040513d6000823e601f3d908101601f191682016040526106909190810190612ae9565b60606000600260009054906101000a90046001600160a01b03166001600160a01b031663e8abdb656040518163ffffffff1660e01b815260040160006040518083038186803b15801561133757600080fd5b505afa15801561134b573d6000803e3d6000fd5b505050506040513d6000823e601f3d908101601f191682016040526113739190810190612a5a565b90506000805b8251811015611448578281815181106113a257634e487b7160e01b600052603260045260246000fd5b60200260200101516001600160a01b0316638462151c866040518263ffffffff1660e01b81526004016113d59190612fd8565b60006040518083038186803b1580156113ed57600080fd5b505afa158015611401573d6000803e3d6000fd5b505050506040513d6000823e601f3d908101601f191682016040526114299190810190612ae9565b5161143490836132d9565b91508061144081613310565b915050611379565b506000816001600160401b0381111561147157634e487b7160e01b600052604160045260246000fd5b60405190808252806020026020018201604052801561149a578160200160208202803683370190505b50905060005b83518110156116025760008482815181106114cb57634e487b7160e01b600052603260045260246000fd5b60200260200101516001600160a01b0316638462151c886040518263ffffffff1660e01b81526004016114fe9190612fd8565b60006040518083038186803b15801561151657600080fd5b505afa15801561152a573d6000803e3d6000fd5b505050506040513d6000823e601f3d908101601f191682016040526115529190810190612ae9565b905060005b81518110156115ed5785516000908290611571818761332b565b61157b91906132f1565b61158591906132d9565b90508282815181106115a757634e487b7160e01b600052603260045260246000fd5b60200260200101518582815181106115cf57634e487b7160e01b600052603260045260246000fd5b602090810291909101015250806115e581613310565b915050611557565b505080806115fa90613310565b9150506114a0565b50949350505050565b6002546040805163e8abdb6560e01b815290516000926001600160a01b03169163e8abdb659160048083019286929190829003018186803b15801561164f57600080fd5b505afa158015611663573d6000803e3d6000fd5b505050506040513d6000823e601f3d908101601f1916820160405261168b9190810190612a5a565b905060005b8151811015610cad578181815181106116b957634e487b7160e01b600052603260045260246000fd5b60200260200101516001600160a01b0316634d7e3321336040518263ffffffff1660e01b81526004016116ec9190612fd8565b60206040518083038186803b15801561170457600080fd5b505afa158015611718573d6000803e3d6000fd5b505050506040513d601f19601f8201168201806040525081019061173c9190612b5d565b156118e657600082828151811061176357634e487b7160e01b600052603260045260246000fd5b60200260200101516001600160a01b0316633d131a6b3386600160009054906101000a90046001600160a01b03166001600160a01b0316636828f0c86040518163ffffffff1660e01b815260040160206040518083038186803b1580156117c957600080fd5b505afa1580156117dd573d6000803e3d6000fd5b505050506040513d601f19601f820116820180604052508101906118019190612ebc565b6040518463ffffffff1660e01b815260040161181f9392919061305d565b600060405180830381600087803b15801561183957600080fd5b505af115801561184d573d6000803e3d6000fd5b505050506040513d6000823e601f3d908101601f191682016040526118759190810190612dcc565b60015460208201518251604051635313130960e11b81529394506001600160a01b039092169263a6262612926118b29233928a9290600401613025565b600060405180830381600087803b1580156118cc57600080fd5b505af11580156118e0573d6000803e3d6000fd5b50505050505b806118f081613310565b915050611690565b6001546001600160a01b031633146119225760405162461bcd60e51b81526004016105a3906130e4565b7f22a3359fa093c907c6ff91d15ae76cc6c5e30a739b56f522450ef9c103d9d65f85858585856040516108d4959493929190612fec565b600033611964611aee565b6001600160a01b03161461198a5760405162461bcd60e51b81526004016105a39061310f565b6002546040805163e8abdb6560e01b815290516000926001600160a01b03169163e8abdb659160048083019286929190829003018186803b1580156119ce57600080fd5b505afa1580156119e2573d6000803e3d6000fd5b505050506040513d6000823e601f3d908101601f19168201604052611a0a9190810190612a5a565b9050805160001415611a1f5750600092915050565b600160005b8251811015611ae457828181518110611a4d57634e487b7160e01b600052603260045260246000fd5b60200260200101516001600160a01b0316638c5143ea866040518263ffffffff1660e01b8152600401611a809190612fd8565b60206040518083038186803b158015611a9857600080fd5b505afa158015611aac573d6000803e3d6000fd5b505050506040513d601f19601f82011682018060405250810190611ad09190612b5d565b915080611adc81613310565b915050611a24565b509150505b919050565b6000546001600160a01b031690565b6002546040516310365c4f60e11b81526000916001600160a01b03169063206cb89e90611b2e908590600401613091565b60206040518083038186803b158015611b4657600080fd5b505afa158015611b5a573d6000803e3d6000fd5b505050506040513d601f19601f8201168201806040525081019061069091906128c1565b600080600260009054906101000a90046001600160a01b03166001600160a01b031663e8abdb656040518163ffffffff1660e01b815260040160006040518083038186803b158015611bcf57600080fd5b505afa158015611be3573d6000803e3d6000fd5b505050506040513d6000823e601f3d908101601f19168201604052611c0b9190810190612a5a565b905060005b8151811015611cdf576000828281518110611c3b57634e487b7160e01b600052603260045260246000fd5b60200260200101516001600160a01b0316638f90b2f0336040518263ffffffff1660e01b8152600401611c6e9190612fd8565b60206040518083038186803b158015611c8657600080fd5b505afa158015611c9a573d6000803e3d6000fd5b505050506040513d601f19601f82011682018060405250810190611cbe9190612ebc565b1115611ccd5760019250505090565b80611cd781613310565b915050611c10565b50600091505090565b600080600260009054906101000a90046001600160a01b03166001600160a01b031663e8abdb656040518163ffffffff1660e01b815260040160006040518083038186803b158015611d3957600080fd5b505afa158015611d4d573d6000803e3d6000fd5b505050506040513d6000823e601f3d908101601f19168201604052611d759190810190612a5a565b90506000805b8251811015611e4557828181518110611da457634e487b7160e01b600052603260045260246000fd5b60200260200101516001600160a01b0316638f90b2f0336040518263ffffffff1660e01b8152600401611dd79190612fd8565b60206040518083038186803b158015611def57600080fd5b505afa158015611e03573d6000803e3d6000fd5b505050506040513d601f19601f82011682018060405250810190611e279190612ebc565b611e3190836132d9565b915080611e3d81613310565b915050611d7b565b5092915050565b6003546040805163b2e02d6760e01b815290516000926001600160a01b03169163b2e02d67916004808301926020929190829003018186803b1580156106db57600080fd5b60005b8251811015610cad5760035483516000916001600160a01b031690631ed31554903390879086908110611ed757634e487b7160e01b600052603260045260246000fd5b6020026020010151866040518463ffffffff1660e01b8152600401611efe9392919061305d565b602060405180830381600087803b158015611f1857600080fd5b505af1158015611f2c573d6000803e3d6000fd5b505050506040513d601f19601f82011682018060405250810190611f509190612b77565b60015485519192506001600160a01b03169063604ce99690869085908110611f8857634e487b7160e01b600052603260045260246000fd5b60200260200101516040518263ffffffff1660e01b8152600401611fae91815260200190565b600060405180830381600087803b158015611fc857600080fd5b505af1158015611fdc573d6000803e3d6000fd5b5060009250611fe9915050565b81600281111561200957634e487b7160e01b600052602160045260246000fd5b146120145750505050565b508061201f81613310565b915050611e94565b60035460408051630c263d7d60e41b815290516000926001600160a01b03169163c263d7d0916004808301926020929190829003018186803b1580156106db57600080fd5b60035460408051631a50d72d60e31b815290516000926001600160a01b03169163d286b968916004808301926020929190829003018186803b1580156106db57600080fd5b6120ee6040518060a0016040528060006001600160a01b031681526020016000815260200160008152602001600081526020016000151581525090565b60035460405163d53794ef60e01b8152600481018490526001600160a01b039091169063d53794ef9060240160a06040518083038186803b15801561213257600080fd5b505afa158015612146573d6000803e3d6000fd5b505050506040513d601f19601f820116820180604052508101906106909190612c22565b600033612175611aee565b6001600160a01b03161461219b5760405162461bcd60e51b81526004016105a39061310f565b6002546040805163e8abdb6560e01b815290516000926001600160a01b03169163e8abdb659160048083019286929190829003018186803b1580156121df57600080fd5b505afa1580156121f3573d6000803e3d6000fd5b505050506040513d6000823e601f3d908101601f1916820160405261221b9190810190612a5a565b90506000805b8251811015611e455782818151811061224a57634e487b7160e01b600052603260045260246000fd5b60200260200101516001600160a01b03166312065fe06040518163ffffffff1660e01b815260040160206040518083038186803b15801561228a57600080fd5b505afa15801561229e573d6000803e3d6000fd5b505050506040513d601f19601f820116820180604052508101906122c29190612ebc565b6122cc90836132d9565b9150806122d881613310565b915050612221565b6003546001600160a01b0316331461230a5760405162461bcd60e51b81526004016105a3906130e4565b7ff226d74391466af0f3c4f040050f00c0ceedb6f5bcd65386d6922481f21446c38135602083013561233f60408501856131ee565b61234f60808701606088016128a5565b86608001358760a0013560405161236c97969594939291906131a6565b60405180910390a150565b33612380611aee565b6001600160a01b0316146123a65760405162461bcd60e51b81526004016105a39061310f565b6001600160a01b03811661240b5760405162461bcd60e51b815260206004820152602660248201527f4f776e61626c653a206e6577206f776e657220697320746865207a65726f206160448201526564647265737360d01b60648201526084016105a3565b6124148161274f565b50565b33612420611aee565b6001600160a01b0316146124465760405162461bcd60e51b81526004016105a39061310f565b600354604051637cc5473560e11b8152600481018390526001600160a01b039091169063f98a8e6a90602401610822565b600080805b8351811015611e455760035484516001600160a01b0390911690630b2e9679908690849081106124bc57634e487b7160e01b600052603260045260246000fd5b60200260200101516040518263ffffffff1660e01b81526004016124e291815260200190565b60206040518083038186803b1580156124fa57600080fd5b505afa15801561250e573d6000803e3d6000fd5b505050506040513d601f19601f820116820180604052508101906125329190612b5d565b15612545578161254181613310565b9250505b8061254f81613310565b91505061247c565b60606000836001600160401b0381111561258157634e487b7160e01b600052604160045260246000fd5b6040519080825280602002602001820160405280156125aa578160200160208202803683370190505b5090506000805b84518110156126d35760035485516001600160a01b0390911690630b2e9679908790849081106125f157634e487b7160e01b600052603260045260246000fd5b60200260200101516040518263ffffffff1660e01b815260040161261791815260200190565b60206040518083038186803b15801561262f57600080fd5b505afa158015612643573d6000803e3d6000fd5b505050506040513d601f19601f820116820180604052508101906126679190612b5d565b156126c15784818151811061268c57634e487b7160e01b600052603260045260246000fd5b60200260200101518383815181106126b457634e487b7160e01b600052603260045260246000fd5b6020026020010181815250505b806126cb81613310565b9150506125b1565b5090949350505050565b6000826126f56126ee84600161279f565b869061279f565b60408051602081019390935282015260600160408051601f198184030181529190528051602090910120949350505050565b6000806000831161273957600161273b565b825b905061274784826127b2565b949350505050565b600080546001600160a01b038381166001600160a01b0319831681178455604051919092169283917f8be0079c531659141344cd1fd0a4f28419497f9722a3daafe3b4186f6b6457e09190a35050565b60006127ab82846132d9565b9392505050565b60006127ab828461332b565b8051611ae981613377565b600082601f8301126127d9578081fd5b813560206127ee6127e9836132b6565b613286565b80838252828201915082860187848660051b890101111561280d578586fd5b855b8581101561282b5781358452928401929084019060010161280f565b5090979650505050505050565b600082601f830112612848578081fd5b815160206128586127e9836132b6565b80838252828201915082860187848660051b8901011115612877578586fd5b855b8581101561282b57815184529284019290840190600101612879565b80518015158114611ae957600080fd5b6000602082840312156128b6578081fd5b81356127ab81613377565b6000602082840312156128d2578081fd5b81516127ab81613377565b6000806000806000608086880312156128f4578081fd5b85356128ff81613377565b945060208601356001600160401b038082111561291a578283fd5b818801915088601f83011261292d578283fd5b81358181111561293b578384fd5b8960208260051b850101111561294f578384fd5b9699602092909201985095966040810135965060600135945092505050565b600080600080600060a08688031215612985578283fd5b853561299081613377565b9450602086013593506040860135925060608601356129ae81613377565b949793965091946080013592915050565b600060208083850312156129d1578182fd5b82356001600160401b038111156129e6578283fd5b8301601f810185136129f6578283fd5b8035612a046127e9826132b6565b80828252848201915084840188868560051b8701011115612a23578687fd5b8694505b83851015612a4e578035612a3a81613377565b835260019490940193918501918501612a27565b50979650505050505050565b60006020808385031215612a6c578182fd5b82516001600160401b03811115612a81578283fd5b8301601f81018513612a91578283fd5b8051612a9f6127e9826132b6565b80828252848201915084840188868560051b8701011115612abe578687fd5b8694505b83851015612a4e578051612ad581613377565b835260019490940193918501918501612ac2565b600060208284031215612afa578081fd5b81516001600160401b03811115612b0f578182fd5b61274784828501612838565b60008060408385031215612b2d578182fd5b82356001600160401b03811115612b42578283fd5b612b4e858286016127c9565b95602094909401359450505050565b600060208284031215612b6e578081fd5b6127ab82612895565b600060208284031215612b88578081fd5b8151600381106127ab578182fd5b60006020808385031215612ba8578182fd5b82356001600160401b0380821115612bbe578384fd5b818501915085601f830112612bd1578384fd5b813581811115612be357612be3613361565b612bf5601f8201601f19168501613286565b91508082528684828501011115612c0a578485fd5b80848401858401378101909201929092529392505050565b600060a08284031215612c33578081fd5b60405160a081018181106001600160401b0382111715612c5557612c55613361565b6040528251612c6381613377565b80825250602083015160208201526040830151604082015260608301516060820152612c9160808401612895565b60808201529392505050565b600060808284031215612cae578081fd5b612cb661323c565b8251612cc181613377565b808252506020830151602082015260408301516040820152612ce560608401612895565b60608201529392505050565b600060208284031215612d02578081fd5b81356001600160401b03811115612d17578182fd5b820160c081850312156127ab578182fd5b600060208284031215612d39578081fd5b81516001600160401b0380821115612d4f578283fd5b9083019060c08286031215612d62578283fd5b612d6a613264565b8251815260208301516020820152604083015182811115612d89578485fd5b612d9587828601612838565b604083015250612da7606084016127be565b60608201526080830151608082015260a083015160a082015280935050505092915050565b600060208284031215612ddd578081fd5b81516001600160401b0380821115612df3578283fd5b9083019060408286031215612e06578283fd5b604051604081018181108382111715612e2157612e21613361565b60405282518152602083015182811115612e39578485fd5b612e4587828601612838565b60208301525095945050505050565b600060808284031215612e65578081fd5b612e6d61323c565b8251612e7881613377565b808252506020830151602082015260408301516040820152606083015160608201528091505092915050565b600060208284031215612eb5578081fd5b5035919050565b600060208284031215612ecd578081fd5b5051919050565b600080600060608486031215612ee8578081fd5b8335925060208401356001600160401b03811115612f04578182fd5b612f10868287016127c9565b925050604084013590509250925092565b60008060008060808587031215612f36578182fd5b84359350602085013592506040850135612f4f81613377565b91506060850135612f5f81613377565b939692955090935050565b81835260006001600160fb1b03831115612f82578081fd5b8260051b80836020870137939093016020019283525090919050565b6000815180845260208085019450808401835b83811015612fcd57815187529582019590820190600101612fb1565b509495945050505050565b6001600160a01b0391909116815260200190565b6001600160a01b03861681526080602082018190526000906130119083018688612f6a565b604083019490945250606001529392505050565b60018060a01b038516815283602082015260806040820152600061304c6080830185612f9e565b905082606083015295945050505050565b6001600160a01b039390931683526020830191909152604082015260600190565b6020815260006127ab6020830184612f9e565b6000602080835283518082850152825b818110156130bd578581018301518582016040015282016130a1565b818111156130ce5783604083870101525b50601f01601f1916929092016040019392505050565b6020808252601190820152701e5bdd4818d85b89dd08191bc81d1a185d607a1b604082015260600190565b6020808252818101527f4f776e61626c653a2063616c6c6572206973206e6f7420746865206f776e6572604082015260600190565b6020815281516020820152602082015160408201526000604083015160c0606084015261317460e0840182612f9e565b905060018060a01b036060850151166080840152608084015160a084015260a084015160c08401528091505092915050565b87815286602082015260c0604082015260006131c660c083018789612f6a565b6001600160a01b0395909516606083015250608081019290925260a090910152949350505050565b6000808335601e19843603018112613204578283fd5b8301803591506001600160401b0382111561321d578283fd5b6020019150600581901b360382131561323557600080fd5b9250929050565b604051608081016001600160401b038111828210171561325e5761325e613361565b60405290565b60405160c081016001600160401b038111828210171561325e5761325e613361565b604051601f8201601f191681016001600160401b03811182821017156132ae576132ae613361565b604052919050565b60006001600160401b038211156132cf576132cf613361565b5060051b60200190565b600082198211156132ec576132ec61334b565b500190565b600081600019048311821515161561330b5761330b61334b565b500290565b60006000198214156133245761332461334b565b5060010190565b60008261334657634e487b7160e01b81526012600452602481fd5b500690565b634e487b7160e01b600052601160045260246000fd5b634e487b7160e01b600052604160045260246000fd5b6001600160a01b038116811461241457600080fdfea264697066735822122045c68ffc0e797b4a17b485c31ffc2f3576127af4853c5c27d31afb955b9220bf64736f6c63430008040033",
  "immutableReferences": {},
  "source": "// SPDX-License-Identifier: MIT\r\npragma solidity ^0.8.4;\r\n\r\nimport \"./MissileMaker.sol\";\r\nimport \"./UfoInvasion.sol\";\r\nimport \"./WorldLeader.sol\";\r\nimport \"./LeaderStore.sol\";\r\nimport \"./Helpers.sol\";\r\nimport \"@openzeppelin/contracts/access/Ownable.sol\";\r\n\r\n///////////////////////////////////////////////////////////////////////////////////////////////////////////////////////\r\n// main client interface for the project\r\n///////////////////////////////////////////////////////////////////////////////////////////////////////////////////////\r\ncontract MoreMissilesPlz is Ownable {\r\n    using Helpers for uint;\r\n\r\n    MissileMaker internal _missileMaker;\r\n    LeaderStore internal _leaderStore;\r\n    UfoInvasion internal _ufoInvasion;\r\n\r\n    constructor(\r\n        LeaderStore leaderStore,\r\n        MissileMaker missileMaker,\r\n        UfoInvasion ufoInvasion\r\n    ) {\r\n        _leaderStore = leaderStore;\r\n        _missileMaker = missileMaker;\r\n        _ufoInvasion = ufoInvasion;\r\n    }\r\n\r\n    function getWorldLeaderMintContract(string memory leaderName) public view returns (address) {\r\n        return _leaderStore.getLeaderContractAddressByName(leaderName);\r\n    }\r\n\r\n    function canUserRollAnyMissiles() public view returns (bool) {\r\n        WorldLeader[] memory leaders = _leaderStore.getLeaders();\r\n        for (uint i = 0; i < leaders.length; i++) {\r\n            if (leaders[i].numMissilesReadyToRoll(msg.sender) > 0) {\r\n                return true;\r\n            }\r\n        }\r\n        return false;\r\n    }\r\n\r\n    function numMissilesReadyToRoll() public view returns (uint) {\r\n        WorldLeader[] memory leaders = _leaderStore.getLeaders();\r\n        uint numReady = 0;\r\n        for (uint i = 0; i < leaders.length; i++) {\r\n            numReady += leaders[i].numMissilesReadyToRoll(msg.sender);\r\n        }\r\n        return numReady;\r\n    }\r\n\r\n    // method for users to call when they want to roll for a chance at getting a missile\r\n    //\r\n    function maybeGetMissiles(uint randVal) public {\r\n        WorldLeader[] memory leaders = _leaderStore.getLeaders();\r\n        for (uint i = 0; i < leaders.length; i++) {\r\n            if (leaders[i].doesUserOwnAnyOfThisWorldLeader(msg.sender)) {\r\n                WorldLeader.MissileOdds memory missileOdds = leaders[i].maybeGetMissiles(msg.sender, randVal, _missileMaker.missileChancePerc());\r\n                _missileMaker.createMissiles(msg.sender, randVal, missileOdds.leaderNftIds, missileOdds.numMissilesToMint);\r\n            }\r\n        }\r\n    }\r\n\r\n    // for adding a new world leader NFT collection to the game. for e.g., if you wanted to add a \"Putin\"\r\n    //  collection later on you'd use this\r\n    //\r\n    function addLeaderContract(address contractAddress) public onlyOwner {\r\n        _leaderStore.addLeaderContract(contractAddress);\r\n    }\r\n\r\n    // starts a new ufo invasion game match\r\n    //\r\n    function startNewUfoInvasionGame(uint randVal) public onlyOwner {\r\n        _ufoInvasion.startNewUfoInvasionGame(randVal);\r\n    }\r\n\r\n    // the method for a user using their missile to attack a UFO\r\n    //\r\n    function attackUFO(uint[] memory missileIds, uint ufoId) public {\r\n        for (uint i = 0; i < missileIds.length; i++) {\r\n            UfoInvasion.AttackUfoResult attackUfoResult = _ufoInvasion.attackUFO(msg.sender, missileIds[i], ufoId);\r\n            _missileMaker.burnMissile(missileIds[i]);\r\n            if (attackUfoResult != UfoInvasion.AttackUfoResult.OnlyDamageDealt) {\r\n                break;\r\n            }\r\n        }\r\n    }\r\n\r\n    function findNumUfosStillAlive(uint[] memory ufos) internal view returns (uint) {\r\n        uint stillAliveNum = 0;\r\n        for (uint i = 0; i < ufos.length; i++) {\r\n            if (_ufoInvasion.ufoIsAlive(ufos[i])) {\r\n                stillAliveNum++;\r\n            }\r\n        }\r\n        return stillAliveNum;\r\n    }\r\n\r\n    function findUfosAlive(uint stillAliveNum, uint[] memory ufos) internal view returns (uint[] memory) {\r\n        uint[] memory newUfos = new uint[](stillAliveNum);\r\n        uint added = 0;\r\n        for (uint i = 0; i < ufos.length; i++) {\r\n            if (_ufoInvasion.ufoIsAlive(ufos[i])) {\r\n                newUfos[added] = ufos[i];\r\n            }\r\n        }\r\n        return newUfos;\r\n    }\r\n\r\n    function attackRandomUFOs(uint randVal, uint[] memory missileIds, uint amountUFOs) public {\r\n        uint curNumGameUFOs = _ufoInvasion.getCurGameNumUFOs();\r\n        uint _amountUFOs = amountUFOs > curNumGameUFOs ? curNumGameUFOs : amountUFOs;\r\n        uint[] memory randomUfoIds = _ufoInvasion.getRandomUfoIds(randVal, _amountUFOs);\r\n        for (uint i = 0; i < missileIds.length; i++) {\r\n            uint stillAliveNum = findNumUfosStillAlive(randomUfoIds);\r\n            if (stillAliveNum != randomUfoIds.length) {\r\n                randomUfoIds = findUfosAlive(stillAliveNum, randomUfoIds);\r\n            }\r\n            if (randomUfoIds.length == 0) {\r\n                break;\r\n            }\r\n            uint ufoTarget = randomUfoIds[uint(randVal.randomize(block.timestamp, i).modSafe(randomUfoIds.length))];\r\n            UfoInvasion.AttackUfoResult attackUfoResult = _ufoInvasion.attackUFO(msg.sender, missileIds[i], ufoTarget);\r\n            _missileMaker.burnMissile(missileIds[i]);\r\n            if (attackUfoResult == UfoInvasion.AttackUfoResult.UfoDestroyedAndGameOver) {\r\n                break;\r\n            }\r\n        }\r\n    }\r\n\r\n    function getUfoInvasionAddress() public view returns (address) {\r\n        return address(_ufoInvasion);\r\n    }\r\n\r\n    function withdraw() public onlyOwner {\r\n        WorldLeader[] memory leaders = _leaderStore.getLeaders();\r\n        for (uint i = 0; i < leaders.length; i++) {\r\n            leaders[i].withdraw();\r\n        }\r\n    }\r\n\r\n    function getWorldLeaderBalance() public onlyOwner view returns (uint) {\r\n        WorldLeader[] memory leaders = _leaderStore.getLeaders();\r\n        uint totalBalance = 0;\r\n        for (uint i = 0; i < leaders.length; i++) {\r\n            totalBalance += leaders[i].getBalance();\r\n        }\r\n        return totalBalance;\r\n    }\r\n\r\n    function setRecipients(address payable[] memory recipients) public onlyOwner {\r\n        WorldLeader[] memory leaders = _leaderStore.getLeaders();\r\n        for (uint i = 0; i < leaders.length; i++) {\r\n            for (uint j = 0; j < recipients.length; j++) {\r\n                leaders[i].setRecipient(recipients[j]);\r\n            }\r\n        }\r\n    }\r\n\r\n    function isRecipient(address payable recipient) public view onlyOwner returns(bool) {\r\n        WorldLeader[] memory leaders = _leaderStore.getLeaders();\r\n        if (leaders.length == 0) {\r\n            return false;\r\n        }\r\n        bool isRecip = true;\r\n        for (uint i = 0; i < leaders.length; i++) {\r\n            isRecip = leaders[i].isRecipient(recipient);\r\n        }\r\n        return isRecip;\r\n    }\r\n\r\n    function tokensOfOwner(address _owner) public view returns (uint[] memory) {\r\n        WorldLeader[] memory leaders = _leaderStore.getLeaders();\r\n        uint numOwned = 0;\r\n        for (uint i = 0; i < leaders.length; i++) {\r\n            numOwned += leaders[i].tokensOfOwner(_owner).length;\r\n        }\r\n        uint[] memory tokensOwned = new uint[](numOwned);\r\n        for (uint i = 0; i < leaders.length; i++) {\r\n            uint[] memory ownedTokens = leaders[i].tokensOfOwner(_owner);\r\n            for (uint j = 0; j < ownedTokens.length; j++) {\r\n                uint256 idx = ((i % leaders.length) * leaders.length) + j;\r\n                tokensOwned[idx] = ownedTokens[j];\r\n            }\r\n        }\r\n        return tokensOwned;\r\n    }\r\n\r\n    function getGameStartTime() public view returns (uint) {\r\n        return _ufoInvasion.getGameStartTime();\r\n    }\r\n\r\n    function isGameActive() public view returns (bool) {\r\n        return _ufoInvasion.isGameActive();\r\n    }\r\n\r\n    function getUserMissiles(address userAddr) public view returns (uint[] memory) {\r\n        return _missileMaker.getUserMissiles(userAddr);\r\n    }\r\n\r\n    // ############################################################\r\n    // functions for getting data about the ufo invasion game state\r\n    //\r\n    function getCurGameNumUFOs() public view returns (uint) {\r\n        return _ufoInvasion.getCurGameNumUFOs();\r\n    }\r\n\r\n    function getUfoAtIdx(uint idx) public view returns (UfoInvasion.UfoState memory) {\r\n        return _ufoInvasion.getUfoAtIdx(idx);\r\n    }\r\n\r\n    function getCurGameNumPlayers() public view returns (uint) {\r\n        return _ufoInvasion.getCurGameNumPlayers();\r\n    }\r\n\r\n    function getCurGamePlayerAtIdx(uint idx) public view returns (UfoInvasion.CurGameScore memory) {\r\n        return _ufoInvasion.getCurGamePlayerAtIdx(idx);\r\n    }\r\n\r\n    function getNumLeaderboardPlayers() public view returns (uint) {\r\n        return _ufoInvasion.getNumLeaderboardPlayers();\r\n    }\r\n\r\n    function getLeaderboardPlayerAtIdx(uint idx) public view returns (UfoInvasion.AllTimeLeaderboard memory) {\r\n        return _ufoInvasion.getLeaderboardPlayerAtIdx(idx);\r\n    }\r\n\r\n    function getTotalNumberOfGames() public view returns (uint) {\r\n        return _ufoInvasion.getTotalNumberOfGames();\r\n    }\r\n\r\n    function getGameStatsByGameIdx(uint idx) public view returns (UfoInvasion.GameStats memory) {\r\n        return _ufoInvasion.getGameStatsByGameIdx(idx);\r\n    }\r\n\r\n    // ############################################################\r\n    // events\r\n    //\r\n    event MissileCreated(address owner, uint[] leaderNftIds, uint missileNftId, uint dmg);\r\n    event UfoDestroyed(uint ufoId, uint missileId, address locationAddress, address killerAddress);\r\n    event MissileAttackedUFO(address attacker, uint missileId, uint ufoId, address locationAddress, uint dmg);\r\n    event GameOver(uint gameNumber, uint totalUfoHp, uint[] ufoIds, address winner, uint gameLengthinSeconds, uint gameStartTimeinSeconds);\r\n\r\n    function emitMissileCreated(address sender, uint[] calldata leaderNftIds, uint missileNftId, uint dmg) external {\r\n        require(msg.sender == address(_missileMaker), \"you can't do that\");\r\n        emit MissileCreated(sender, leaderNftIds, missileNftId, dmg);\r\n    }\r\n\r\n    function emitUfoDestroyed(uint ufoId, uint missileId, address locationAddress, address killerAddress) external {\r\n        require(msg.sender == address(_ufoInvasion), \"you can't do that\");\r\n        emit UfoDestroyed(ufoId, missileId, locationAddress, killerAddress);\r\n    }\r\n\r\n    function emitGameOver(UfoInvasion.GameStats calldata gameStats) external {\r\n        require(msg.sender == address(_ufoInvasion), \"you can't do that\");\r\n        emit GameOver(gameStats.gameNumber, gameStats.totalUfoHp, gameStats.ufoIds, gameStats.winner, gameStats.gameLengthInSeconds, gameStats.gameStartTimeInSeconds);\r\n    }\r\n\r\n    function emitMissileAttackedUFO(address attacker, uint missileId, uint ufoId, address locationAddress, uint dmg) external {\r\n        require(msg.sender == address(_ufoInvasion), \"you can't do that\");\r\n        emit MissileAttackedUFO(attacker, missileId, ufoId, locationAddress, dmg);\r\n    }\r\n    // ############################################################\r\n    // if you need to change contract for the game (make sure you've mapped the data from the existing one first)\r\n    //\r\n    function updateMissileMaker(address newMissileMaker) public onlyOwner {\r\n        _missileMaker = MissileMaker(newMissileMaker);\r\n        _ufoInvasion.updateMissileMaker(newMissileMaker);\r\n        _leaderStore.updateMissileMakerForLeaders(newMissileMaker);\r\n    }\r\n\r\n    function updateUfoInvasion(address newUfoInvasion) public onlyOwner {\r\n        _ufoInvasion = UfoInvasion(newUfoInvasion);\r\n    }\r\n\r\n    function updateLeaderStore(address newWorldLeaderStore) public onlyOwner {\r\n        _leaderStore = LeaderStore(newWorldLeaderStore);\r\n        _missileMaker.updateLeaderStore(newWorldLeaderStore);\r\n        _ufoInvasion.updateLeaderStore(newWorldLeaderStore);\r\n    }\r\n}\r\n\r\n",
  "sourcePath": "C:\\data\\source\\Webstorm Projects\\metis-nfts\\contracts\\MoreMissilesPlz.sol",
  "compiler": {
    "name": "solc",
    "version": "0.8.4+commit.c7e474f2.Emscripten.clang"
  },
  "schemaVersion": "3.4.5",
  "updatedAt": "2022-03-24T19:46:27.240Z",
  "devdoc": {
    "kind": "dev",
    "methods": {
      "owner()": {
        "details": "Returns the address of the current owner."
      },
      "renounceOwnership()": {
        "details": "Leaves the contract without owner. It will not be possible to call `onlyOwner` functions anymore. Can only be called by the current owner. NOTE: Renouncing ownership will leave the contract without an owner, thereby removing any functionality that is only available to the owner."
      },
      "transferOwnership(address)": {
        "details": "Transfers ownership of the contract to a new account (`newOwner`). Can only be called by the current owner."
      }
    },
    "version": 1
  },
  "userdoc": {
    "kind": "user",
    "methods": {},
    "version": 1
  }
}