{
  "contractName": "UfoInvasion",
  "abi": [
    {
      "anonymous": false,
      "inputs": [
        {
          "indexed": true,
          "internalType": "address",
          "name": "owner",
          "type": "address"
        },
        {
          "indexed": true,
          "internalType": "address",
          "name": "approved",
          "type": "address"
        },
        {
          "indexed": true,
          "internalType": "uint256",
          "name": "tokenId",
          "type": "uint256"
        }
      ],
      "name": "Approval",
      "type": "event"
    },
    {
      "anonymous": false,
      "inputs": [
        {
          "indexed": true,
          "internalType": "address",
          "name": "owner",
          "type": "address"
        },
        {
          "indexed": true,
          "internalType": "address",
          "name": "operator",
          "type": "address"
        },
        {
          "indexed": false,
          "internalType": "bool",
          "name": "approved",
          "type": "bool"
        }
      ],
      "name": "ApprovalForAll",
      "type": "event"
    },
    {
      "anonymous": false,
      "inputs": [
        {
          "indexed": false,
          "internalType": "uint256",
          "name": "gameNumber",
          "type": "uint256"
        }
      ],
      "name": "GameOver",
      "type": "event"
    },
    {
      "anonymous": false,
      "inputs": [
        {
          "indexed": false,
          "internalType": "uint256",
          "name": "missileTxnId",
          "type": "uint256"
        },
        {
          "indexed": false,
          "internalType": "uint256",
          "name": "missileId",
          "type": "uint256"
        },
        {
          "indexed": false,
          "internalType": "address",
          "name": "attacker",
          "type": "address"
        }
      ],
      "name": "MissileAttackedUFO",
      "type": "event"
    },
    {
      "anonymous": false,
      "inputs": [
        {
          "indexed": true,
          "internalType": "address",
          "name": "previousOwner",
          "type": "address"
        },
        {
          "indexed": true,
          "internalType": "address",
          "name": "newOwner",
          "type": "address"
        }
      ],
      "name": "OwnershipTransferred",
      "type": "event"
    },
    {
      "anonymous": false,
      "inputs": [
        {
          "indexed": true,
          "internalType": "address",
          "name": "from",
          "type": "address"
        },
        {
          "indexed": true,
          "internalType": "address",
          "name": "to",
          "type": "address"
        },
        {
          "indexed": true,
          "internalType": "uint256",
          "name": "tokenId",
          "type": "uint256"
        }
      ],
      "name": "Transfer",
      "type": "event"
    },
    {
      "inputs": [
        {
          "internalType": "address",
          "name": "leader",
          "type": "address"
        },
        {
          "internalType": "address",
          "name": "missileMaker",
          "type": "address"
        },
        {
          "internalType": "address",
          "name": "ufoInvasion",
          "type": "address"
        }
      ],
      "name": "_setOwnedContracts",
      "outputs": [],
      "stateMutability": "nonpayable",
      "type": "function"
    },
    {
      "inputs": [
        {
          "internalType": "address",
          "name": "to",
          "type": "address"
        },
        {
          "internalType": "uint256",
          "name": "tokenId",
          "type": "uint256"
        }
      ],
      "name": "approve",
      "outputs": [],
      "stateMutability": "nonpayable",
      "type": "function"
    },
    {
      "inputs": [
        {
          "internalType": "address",
          "name": "owner",
          "type": "address"
        }
      ],
      "name": "balanceOf",
      "outputs": [
        {
          "internalType": "uint256",
          "name": "",
          "type": "uint256"
        }
      ],
      "stateMutability": "view",
      "type": "function"
    },
    {
      "inputs": [],
      "name": "baseTokenURI",
      "outputs": [
        {
          "internalType": "string",
          "name": "",
          "type": "string"
        }
      ],
      "stateMutability": "view",
      "type": "function"
    },
    {
      "inputs": [
        {
          "internalType": "uint256",
          "name": "tokenId",
          "type": "uint256"
        }
      ],
      "name": "getApproved",
      "outputs": [
        {
          "internalType": "address",
          "name": "",
          "type": "address"
        }
      ],
      "stateMutability": "view",
      "type": "function"
    },
    {
      "inputs": [
        {
          "internalType": "address",
          "name": "owner",
          "type": "address"
        },
        {
          "internalType": "address",
          "name": "operator",
          "type": "address"
        }
      ],
      "name": "isApprovedForAll",
      "outputs": [
        {
          "internalType": "bool",
          "name": "",
          "type": "bool"
        }
      ],
      "stateMutability": "view",
      "type": "function"
    },
    {
      "inputs": [],
      "name": "name",
      "outputs": [
        {
          "internalType": "string",
          "name": "",
          "type": "string"
        }
      ],
      "stateMutability": "view",
      "type": "function"
    },
    {
      "inputs": [],
      "name": "owner",
      "outputs": [
        {
          "internalType": "address",
          "name": "",
          "type": "address"
        }
      ],
      "stateMutability": "view",
      "type": "function"
    },
    {
      "inputs": [
        {
          "internalType": "uint256",
          "name": "tokenId",
          "type": "uint256"
        }
      ],
      "name": "ownerOf",
      "outputs": [
        {
          "internalType": "address",
          "name": "",
          "type": "address"
        }
      ],
      "stateMutability": "view",
      "type": "function"
    },
    {
      "inputs": [],
      "name": "renounceOwnership",
      "outputs": [],
      "stateMutability": "nonpayable",
      "type": "function"
    },
    {
      "inputs": [
        {
          "internalType": "address",
          "name": "from",
          "type": "address"
        },
        {
          "internalType": "address",
          "name": "to",
          "type": "address"
        },
        {
          "internalType": "uint256",
          "name": "tokenId",
          "type": "uint256"
        }
      ],
      "name": "safeTransferFrom",
      "outputs": [],
      "stateMutability": "nonpayable",
      "type": "function"
    },
    {
      "inputs": [
        {
          "internalType": "address",
          "name": "from",
          "type": "address"
        },
        {
          "internalType": "address",
          "name": "to",
          "type": "address"
        },
        {
          "internalType": "uint256",
          "name": "tokenId",
          "type": "uint256"
        },
        {
          "internalType": "bytes",
          "name": "_data",
          "type": "bytes"
        }
      ],
      "name": "safeTransferFrom",
      "outputs": [],
      "stateMutability": "nonpayable",
      "type": "function"
    },
    {
      "inputs": [
        {
          "internalType": "address",
          "name": "operator",
          "type": "address"
        },
        {
          "internalType": "bool",
          "name": "approved",
          "type": "bool"
        }
      ],
      "name": "setApprovalForAll",
      "outputs": [],
      "stateMutability": "nonpayable",
      "type": "function"
    },
    {
      "inputs": [
        {
          "internalType": "string",
          "name": "_baseTokenURI",
          "type": "string"
        }
      ],
      "name": "setBaseURI",
      "outputs": [],
      "stateMutability": "nonpayable",
      "type": "function"
    },
    {
      "inputs": [
        {
          "internalType": "bytes4",
          "name": "interfaceId",
          "type": "bytes4"
        }
      ],
      "name": "supportsInterface",
      "outputs": [
        {
          "internalType": "bool",
          "name": "",
          "type": "bool"
        }
      ],
      "stateMutability": "view",
      "type": "function"
    },
    {
      "inputs": [],
      "name": "symbol",
      "outputs": [
        {
          "internalType": "string",
          "name": "",
          "type": "string"
        }
      ],
      "stateMutability": "view",
      "type": "function"
    },
    {
      "inputs": [
        {
          "internalType": "uint256",
          "name": "index",
          "type": "uint256"
        }
      ],
      "name": "tokenByIndex",
      "outputs": [
        {
          "internalType": "uint256",
          "name": "",
          "type": "uint256"
        }
      ],
      "stateMutability": "view",
      "type": "function"
    },
    {
      "inputs": [],
      "name": "tokenIdx",
      "outputs": [
        {
          "internalType": "uint256",
          "name": "_value",
          "type": "uint256"
        }
      ],
      "stateMutability": "view",
      "type": "function"
    },
    {
      "inputs": [
        {
          "internalType": "address",
          "name": "owner",
          "type": "address"
        },
        {
          "internalType": "uint256",
          "name": "index",
          "type": "uint256"
        }
      ],
      "name": "tokenOfOwnerByIndex",
      "outputs": [
        {
          "internalType": "uint256",
          "name": "",
          "type": "uint256"
        }
      ],
      "stateMutability": "view",
      "type": "function"
    },
    {
      "inputs": [
        {
          "internalType": "uint256",
          "name": "tokenId",
          "type": "uint256"
        }
      ],
      "name": "tokenURI",
      "outputs": [
        {
          "internalType": "string",
          "name": "",
          "type": "string"
        }
      ],
      "stateMutability": "view",
      "type": "function"
    },
    {
      "inputs": [
        {
          "internalType": "address",
          "name": "_owner",
          "type": "address"
        }
      ],
      "name": "tokensOfOwner",
      "outputs": [
        {
          "internalType": "uint256[]",
          "name": "",
          "type": "uint256[]"
        }
      ],
      "stateMutability": "view",
      "type": "function"
    },
    {
      "inputs": [],
      "name": "totalSupply",
      "outputs": [
        {
          "internalType": "uint256",
          "name": "",
          "type": "uint256"
        }
      ],
      "stateMutability": "view",
      "type": "function"
    },
    {
      "inputs": [
        {
          "internalType": "address",
          "name": "from",
          "type": "address"
        },
        {
          "internalType": "address",
          "name": "to",
          "type": "address"
        },
        {
          "internalType": "uint256",
          "name": "tokenId",
          "type": "uint256"
        }
      ],
      "name": "transferFrom",
      "outputs": [],
      "stateMutability": "nonpayable",
      "type": "function"
    },
    {
      "inputs": [
        {
          "internalType": "address",
          "name": "newOwner",
          "type": "address"
        }
      ],
      "name": "transferOwnership",
      "outputs": [],
      "stateMutability": "nonpayable",
      "type": "function"
    },
    {
      "inputs": [
        {
          "internalType": "uint256",
          "name": "missileId",
          "type": "uint256"
        }
      ],
      "name": "getMissileAttackInfo",
      "outputs": [
        {
          "components": [
            {
              "internalType": "uint16",
              "name": "dmg",
              "type": "uint16"
            },
            {
              "internalType": "uint16",
              "name": "hpBefore",
              "type": "uint16"
            },
            {
              "internalType": "uint16",
              "name": "hpAfter",
              "type": "uint16"
            },
            {
              "internalType": "uint32",
              "name": "missileTxnId",
              "type": "uint32"
            },
            {
              "internalType": "address",
              "name": "attacker",
              "type": "address"
            },
            {
              "internalType": "address",
              "name": "locationAddress",
              "type": "address"
            },
            {
              "internalType": "uint256",
              "name": "missileId",
              "type": "uint256"
            },
            {
              "internalType": "uint256",
              "name": "ufoId",
              "type": "uint256"
            }
          ],
          "internalType": "struct UfoInvasion.MissileAttack",
          "name": "",
          "type": "tuple"
        }
      ],
      "stateMutability": "view",
      "type": "function"
    },
    {
      "inputs": [
        {
          "internalType": "uint256",
          "name": "randVal",
          "type": "uint256"
        },
        {
          "internalType": "uint256[]",
          "name": "missileIds",
          "type": "uint256[]"
        },
        {
          "internalType": "uint256",
          "name": "amountUFOs",
          "type": "uint256"
        }
      ],
      "name": "attackRandomUFOs",
      "outputs": [],
      "stateMutability": "nonpayable",
      "type": "function"
    },
    {
      "inputs": [
        {
          "internalType": "uint256",
          "name": "randVal",
          "type": "uint256"
        }
      ],
      "name": "startNewUfoInvasionGame",
      "outputs": [],
      "stateMutability": "nonpayable",
      "type": "function"
    },
    {
      "inputs": [
        {
          "internalType": "uint256",
          "name": "ufoId",
          "type": "uint256"
        }
      ],
      "name": "ufoIsAlive",
      "outputs": [
        {
          "internalType": "bool",
          "name": "",
          "type": "bool"
        }
      ],
      "stateMutability": "view",
      "type": "function"
    },
    {
      "inputs": [
        {
          "internalType": "bool",
          "name": "to",
          "type": "bool"
        }
      ],
      "name": "setIsGameActive",
      "outputs": [],
      "stateMutability": "nonpayable",
      "type": "function"
    },
    {
      "inputs": [],
      "name": "isGameActive",
      "outputs": [
        {
          "internalType": "bool",
          "name": "",
          "type": "bool"
        }
      ],
      "stateMutability": "view",
      "type": "function"
    },
    {
      "inputs": [],
      "name": "getGameStartTime",
      "outputs": [
        {
          "internalType": "uint256",
          "name": "",
          "type": "uint256"
        }
      ],
      "stateMutability": "view",
      "type": "function"
    },
    {
      "inputs": [],
      "name": "getCurGameNumUFOs",
      "outputs": [
        {
          "internalType": "uint256",
          "name": "",
          "type": "uint256"
        }
      ],
      "stateMutability": "view",
      "type": "function"
    },
    {
      "inputs": [
        {
          "internalType": "uint256",
          "name": "idx",
          "type": "uint256"
        }
      ],
      "name": "getUfoAtIdx",
      "outputs": [
        {
          "components": [
            {
              "internalType": "uint16",
              "name": "curHp",
              "type": "uint16"
            },
            {
              "internalType": "uint16",
              "name": "startingHp",
              "type": "uint16"
            },
            {
              "internalType": "address",
              "name": "locationAddress",
              "type": "address"
            },
            {
              "internalType": "uint256",
              "name": "ufoId",
              "type": "uint256"
            }
          ],
          "internalType": "struct UfoInvasion.UfoState",
          "name": "",
          "type": "tuple"
        }
      ],
      "stateMutability": "view",
      "type": "function"
    },
    {
      "inputs": [],
      "name": "getCurGameNumPlayers",
      "outputs": [
        {
          "internalType": "uint256",
          "name": "",
          "type": "uint256"
        }
      ],
      "stateMutability": "view",
      "type": "function"
    },
    {
      "inputs": [
        {
          "internalType": "uint256",
          "name": "idx",
          "type": "uint256"
        }
      ],
      "name": "getCurGamePlayerAtIdx",
      "outputs": [
        {
          "components": [
            {
              "internalType": "bool",
              "name": "active",
              "type": "bool"
            },
            {
              "internalType": "uint16",
              "name": "nukesUsed",
              "type": "uint16"
            },
            {
              "internalType": "uint64",
              "name": "score",
              "type": "uint64"
            },
            {
              "internalType": "address",
              "name": "playerAddress",
              "type": "address"
            }
          ],
          "internalType": "struct UfoInvasion.CurGameScore",
          "name": "",
          "type": "tuple"
        }
      ],
      "stateMutability": "view",
      "type": "function"
    },
    {
      "inputs": [],
      "name": "getNumLeaderboardPlayers",
      "outputs": [
        {
          "internalType": "uint256",
          "name": "",
          "type": "uint256"
        }
      ],
      "stateMutability": "view",
      "type": "function"
    },
    {
      "inputs": [
        {
          "internalType": "uint256",
          "name": "idx",
          "type": "uint256"
        }
      ],
      "name": "getLeaderboardPlayerAtIdx",
      "outputs": [
        {
          "components": [
            {
              "internalType": "bool",
              "name": "exists",
              "type": "bool"
            },
            {
              "internalType": "uint32",
              "name": "wins",
              "type": "uint32"
            },
            {
              "internalType": "uint32",
              "name": "nukesUsed",
              "type": "uint32"
            },
            {
              "internalType": "uint64",
              "name": "score",
              "type": "uint64"
            },
            {
              "internalType": "address",
              "name": "playerAddress",
              "type": "address"
            }
          ],
          "internalType": "struct UfoInvasion.AllTimeLeaderboard",
          "name": "",
          "type": "tuple"
        }
      ],
      "stateMutability": "view",
      "type": "function"
    },
    {
      "inputs": [],
      "name": "getTotalNumberOfGames",
      "outputs": [
        {
          "internalType": "uint256",
          "name": "",
          "type": "uint256"
        }
      ],
      "stateMutability": "view",
      "type": "function"
    },
    {
      "inputs": [
        {
          "internalType": "uint256",
          "name": "gameNum",
          "type": "uint256"
        }
      ],
      "name": "getGameStatsByGameNum",
      "outputs": [
        {
          "components": [
            {
              "internalType": "bool",
              "name": "isOver",
              "type": "bool"
            },
            {
              "internalType": "uint16",
              "name": "totalUfoHp",
              "type": "uint16"
            },
            {
              "internalType": "uint32",
              "name": "gameNum",
              "type": "uint32"
            },
            {
              "internalType": "address",
              "name": "winner",
              "type": "address"
            },
            {
              "internalType": "uint256",
              "name": "gameStartTimeInSeconds",
              "type": "uint256"
            },
            {
              "internalType": "uint256",
              "name": "elapsedSecs",
              "type": "uint256"
            },
            {
              "internalType": "uint256[]",
              "name": "ufoIds",
              "type": "uint256[]"
            }
          ],
          "internalType": "struct UfoInvasion.GameStats",
          "name": "",
          "type": "tuple"
        }
      ],
      "stateMutability": "view",
      "type": "function"
    },
    {
      "inputs": [],
      "name": "getTotalHpForUFOs",
      "outputs": [
        {
          "internalType": "uint256",
          "name": "",
          "type": "uint256"
        }
      ],
      "stateMutability": "view",
      "type": "function"
    },
    {
      "inputs": [
        {
          "internalType": "uint8",
          "name": "min",
          "type": "uint8"
        },
        {
          "internalType": "uint8",
          "name": "max",
          "type": "uint8"
        }
      ],
      "name": "updateMinMaxUFOs",
      "outputs": [],
      "stateMutability": "nonpayable",
      "type": "function"
    },
    {
      "inputs": [
        {
          "internalType": "uint16",
          "name": "newWantedGameLength",
          "type": "uint16"
        }
      ],
      "name": "updateWantedGameLengthInHours",
      "outputs": [],
      "stateMutability": "nonpayable",
      "type": "function"
    },
    {
      "inputs": [
        {
          "internalType": "uint64",
          "name": "to",
          "type": "uint64"
        }
      ],
      "name": "setGameWinnerTotalScoreMultiplier",
      "outputs": [],
      "stateMutability": "nonpayable",
      "type": "function"
    },
    {
      "inputs": [
        {
          "internalType": "uint64",
          "name": "to",
          "type": "uint64"
        }
      ],
      "name": "setUfoKillDmgScoreMultiplier",
      "outputs": [],
      "stateMutability": "nonpayable",
      "type": "function"
    },
    {
      "inputs": [
        {
          "internalType": "uint16",
          "name": "to",
          "type": "uint16"
        }
      ],
      "name": "setStartGameScoreReward",
      "outputs": [],
      "stateMutability": "nonpayable",
      "type": "function"
    },
    {
      "inputs": [
        {
          "internalType": "uint256",
          "name": "newMax",
          "type": "uint256"
        }
      ],
      "name": "setMaxNumMissilesInOneTxn",
      "outputs": [],
      "stateMutability": "nonpayable",
      "type": "function"
    }
  ],
  "bytecode": "0x60806040526010805460ff191690556012805463ffffffff19908116909155600560135560168054909116620509c41790556000601755601980546001600160a01b0319167230000000000000009600000000000000960f07179055601c805461ffff191690553480156200007357600080fd5b50604080518082018252600c81526b2aa3279024b73b30b9b4b7b760a11b60208083019182528351808501909452600384526255464f60e81b90840152815191929183918391620000c79160009162000158565b508051620000dd90600190602084019062000158565b505050620000fa620000f46200010260201b60201c565b62000106565b50506200023b565b3390565b600a80546001600160a01b038381166001600160a01b0319831681179093556040519116919082907f8be0079c531659141344cd1fd0a4f28419497f9722a3daafe3b4186f6b6457e090600090a35050565b8280546200016690620001fe565b90600052602060002090601f0160209004810192826200018a5760008555620001d5565b82601f10620001a557805160ff1916838001178555620001d5565b82800160010185558215620001d5579182015b82811115620001d5578251825591602001919060010190620001b8565b50620001e3929150620001e7565b5090565b5b80821115620001e35760008155600101620001e8565b600181811c908216806200021357607f821691505b602082108114156200023557634e487b7160e01b600052602260045260246000fd5b50919050565b615153806200024b6000396000f3fe608060405234801561001057600080fd5b506004361061022a5760003560e01c80636352211e1161012c5780636352211e1461048c57806364d081da1461049f5780636fef5cf8146104a957806370a08231146104bc578063715018a6146104cf5780638462151c146104d757806384e637cb146104f75780638da5cb5b1461051757806395d89b411461051f578063975b944d14610527578063a22cb4651461053a578063b2e02d671461054d578063b88d4fde14610559578063c263d7d01461056c578063c87b56dd1461057a578063d286b9681461058d578063d53794ef14610595578063d547cfb714610604578063dfadeece1461060c578063e985e9c51461061f578063f2fde38b14610632578063f98a8e6a14610645578063fa4079201461065857600080fd5b806301ffc9a71461022f57806306fdde0314610257578063081812fc1461026c578063095ea7b3146102975780630b2e9679146102ac5780630c0ef2b0146102bf57806318160ddd146102ca5780631e989089146102dc57806320f97a3e146102ef57806323b872dd146102f7578063285111ed1461030a5780632858faad1461032a5780632ea5f68d146103825780632f745c591461039557806331750b04146103a857806336416ab0146103b457806342842e0e146103c7578063466ade87146103da57806349699c73146103ed5780634b50c9f01461044b5780634f6ccce71461045357806355f804b314610466578063592ca60314610479575b600080fd5b61024261023d366004614a56565b61066b565b60405190151581526020015b60405180910390f35b61025f610696565b60405161024e9190614d1c565b61027f61027a366004614af5565b610728565b6040516001600160a01b03909116815260200161024e565b6102aa6102a5366004614a11565b6107b5565b005b6102426102ba366004614af5565b6108c6565b60105460ff16610242565b6008545b60405190815260200161024e565b6102aa6102ea366004614ad3565b6108de565b601f546102ce565b6102aa610305366004614921565b61092f565b61031d610318366004614af5565b610960565b60405161024e9190614e73565b61033d610338366004614af5565b610a4e565b60405161024e9190815161ffff9081168252602080840151909116908201526040808301516001600160a01b0316908201526060918201519181019190915260800190565b6102aa610390366004614be0565b610b39565b6102ce6103a3366004614a11565b610baa565b60165461ffff166102ce565b6102aa6103c2366004614a3c565b610c40565b6102aa6103d5366004614921565b610c82565b6102aa6103e8366004614c18565b610c9d565b6104006103fb366004614af5565b610cf0565b60405161024e919081511515815260208083015161ffff16908201526040808301516001600160401b0316908201526060918201516001600160a01b03169181019190915260800190565b6017546102ce565b6102ce610461366004614af5565b610e15565b6102aa610474366004614a8e565b610eb6565b6102aa610487366004614b25565b610efc565b61027f61049a366004614af5565b611126565b600e546102ce9081565b6102aa6104b7366004614af5565b61119d565b6102ce6104ca366004614867565b6111d1565b6102aa611258565b6104ea6104e5366004614867565b611293565b60405161024e9190614d09565b61050a610505366004614af5565b611350565b60405161024e9190614e07565b61027f6114a2565b61025f6114b1565b6102aa610535366004614ad3565b6114c0565b6102aa6105483660046149dd565b611520565b601c5461ffff166102ce565b6102aa610567366004614961565b61152b565b60125463ffffffff166102ce565b61025f610588366004614af5565b611563565b6102ce61162e565b6105a86105a3366004614af5565b611674565b6040805182511515815260208084015163ffffffff908116918301919091528383015116918101919091526060808301516001600160401b0316908201526080918201516001600160a01b03169181019190915260a00161024e565b61025f6117b2565b6102aa61061a366004614be0565b611840565b61024261062d36600461489f565b6118b3565b6102aa610640366004614867565b6118e1565b6102aa610653366004614af5565b611981565b6102aa6106663660046148d7565b611ade565b60006001600160e01b0319821663780e9d6360e01b1480610690575061069082611b66565b92915050565b6060600080546106a590614fd5565b80601f01602080910402602001604051908101604052809291908181526020018280546106d190614fd5565b801561071e5780601f106106f35761010080835404028352916020019161071e565b820191906000526020600020905b81548152906001019060200180831161070157829003601f168201915b5050505050905090565b600061073382611bb6565b6107995760405162461bcd60e51b815260206004820152602c60248201527f4552433732313a20617070726f76656420717565727920666f72206e6f6e657860448201526b34b9ba32b73a103a37b5b2b760a11b60648201526084015b60405180910390fd5b506000908152600460205260409020546001600160a01b031690565b60006107c082611126565b9050806001600160a01b0316836001600160a01b0316141561082e5760405162461bcd60e51b815260206004820152602160248201527f4552433732313a20617070726f76616c20746f2063757272656e74206f776e656044820152603960f91b6064820152608401610790565b336001600160a01b038216148061084a575061084a81336118b3565b6108b75760405162461bcd60e51b815260206004820152603860248201527f4552433732313a20617070726f76652063616c6c6572206973206e6f74206f776044820152771b995c881b9bdc88185c1c1c9bdd995908199bdc88185b1b60421b6064820152608401610790565b6108c18383611bd3565b505050565b60009081526014602052604090205461ffff16151590565b336108e76114a2565b6001600160a01b03161461090d5760405162461bcd60e51b815260040161079090614d81565b6019805461ffff909216600160901b0261ffff60901b19909216919091179055565b6109393382611c41565b6109555760405162461bcd60e51b815260040161079090614db6565b6108c1838383611d0b565b6040805161010081018252600080825260208201819052918101829052606081018290526080810182905260a0810182905260c0810182905260e081019190915260008281526023602052604090205461ffff166109bd57600080fd5b50600090815260236020908152604091829020825161010081018452815461ffff8082168352620100008204811694830194909452600160201b810490931693810193909352600160301b820463ffffffff166060840152600160501b9091046001600160a01b03908116608084015260018201541660a0830152600281015460c08301526003015460e082015290565b60408051608081018252600080825260208083018290528284018290526060830182905260125463ffffffff1682526015905291909120600301548210610a9457600080fd5b60125463ffffffff1660009081526015602052604081206003018054601492919085908110610ad357634e487b7160e01b600052603260045260246000fd5b600091825260208083209190910154835282810193909352604091820190208151608081018352815461ffff80821683526201000082041694820194909452600160201b9093046001600160a01b03169183019190915260010154606082015292915050565b33610b426114a2565b6001600160a01b031614610b685760405162461bcd60e51b815260040161079090614d81565b6064816001600160401b03161015610b7f57600080fd5b601980546001600160401b03909216620100000269ffffffffffffffff000019909216919091179055565b6000610bb5836111d1565b8210610c175760405162461bcd60e51b815260206004820152602b60248201527f455243373231456e756d657261626c653a206f776e657220696e646578206f7560448201526a74206f6620626f756e647360a81b6064820152608401610790565b506001600160a01b03919091166000908152600660209081526040808320938352929052205490565b33610c496114a2565b6001600160a01b031614610c6f5760405162461bcd60e51b815260040161079090614d81565b6010805460ff1916911515919091179055565b6108c18383836040518060200160405280600081525061152b565b33610ca66114a2565b6001600160a01b031614610ccc5760405162461bcd60e51b815260040161079090614d81565b6019805460ff9283166101000261ffff199091169290931691909117919091179055565b604080516080810182526000808252602082018190529181018290526060810191909152601e548210610d2257600080fd5b601d6000601e8481548110610d4757634e487b7160e01b600052603260045260246000fd5b60009182526020808320909101546001600160a01b0316835282019290925260400190205460ff16610d7857600080fd5b601d6000601e8481548110610d9d57634e487b7160e01b600052603260045260246000fd5b60009182526020808320909101546001600160a01b0390811684528382019490945260409283019091208251608081018452905460ff81161515825261ffff610100820416928201929092526001600160401b03630100000083041692810192909252600160581b9004909116606082015292915050565b6000610e2060085490565b8210610e835760405162461bcd60e51b815260206004820152602c60248201527f455243373231456e756d657261626c653a20676c6f62616c20696e646578206f60448201526b7574206f6620626f756e647360a01b6064820152608401610790565b60088281548110610ea457634e487b7160e01b600052603260045260246000fd5b90600052602060002001549050919050565b33610ebf6114a2565b6001600160a01b031614610ee55760405162461bcd60e51b815260040161079090614d81565b8051610ef890600f906020840190614717565b5050565b60105460ff16610f485760405162461bcd60e51b81526020600482015260176024820152767468652067616d65206973206e6f74206163746976652160481b6044820152606401610790565b601354825110610f5757600080fd5b60125463ffffffff908116600090815260156020526040902060010154610f8191429190611ea016565b6012805463ffffffff90811660009081526015602052604080822060020194909455915416815290812060030154610fe19085908411610fc15783611ebb565b60125463ffffffff16600090815260156020526040902060030154611ebb565b905060005b83518110156110ea576000610ffa836121c7565b9050825181146110115761100e8184612244565b92505b825161101d57506110ea565b82516000908490611039906110338a4288612340565b9061238a565b8151811061105757634e487b7160e01b600052603260045260246000fd5b6020026020010151905061106a816108c6565b6110755750506110d8565b60026110a93388868151811061109b57634e487b7160e01b600052603260045260246000fd5b6020026020010151846123aa565b60028111156110c857634e487b7160e01b600052602160045260246000fd5b14156110d55750506110ea565b50505b806110e281615032565b915050610fe6565b506022805463ffffffff169060006111018361504d565b91906101000a81548163ffffffff021916908363ffffffff1602179055505050505050565b6000818152600260205260408120546001600160a01b0316806106905760405162461bcd60e51b815260206004820152602960248201527f4552433732313a206f776e657220717565727920666f72206e6f6e657869737460448201526832b73a103a37b5b2b760b91b6064820152608401610790565b336111a66114a2565b6001600160a01b0316146111cc5760405162461bcd60e51b815260040161079090614d81565b601355565b60006001600160a01b03821661123c5760405162461bcd60e51b815260206004820152602a60248201527f4552433732313a2062616c616e636520717565727920666f7220746865207a65604482015269726f206164647265737360b01b6064820152608401610790565b506001600160a01b031660009081526003602052604090205490565b336112616114a2565b6001600160a01b0316146112875760405162461bcd60e51b815260040161079090614d81565b6112916000612a8f565b565b606060006112a0836111d1565b90506000816001600160401b038111156112ca57634e487b7160e01b600052604160045260246000fd5b6040519080825280602002602001820160405280156112f3578160200160208202803683370190505b50905060005b828110156113485761130b8582610baa565b82828151811061132b57634e487b7160e01b600052603260045260246000fd5b60209081029190910101528061134081615032565b9150506112f9565b509392505050565b6113a56040518060e00160405280600015158152602001600061ffff168152602001600063ffffffff16815260200160006001600160a01b031681526020016000815260200160008152602001606081525090565b60125463ffffffff1682106113b957600080fd5b6000828152601560209081526040808320815160e081018352815460ff811615158252610100810461ffff16828601526301000000810463ffffffff1682850152600160381b90046001600160a01b0316606082015260018201546080820152600282015460a08201526003820180548451818702810187019095528085529194929360c086019390929083018282801561147357602002820191906000526020600020905b81548152602001906001019080831161145f575b50505050508152505090508060000151610690576080810151611497904290612ae1565b60a082015292915050565b600a546001600160a01b031690565b6060600180546106a590614fd5565b336114c96114a2565b6001600160a01b0316146114ef5760405162461bcd60e51b815260040161079090614d81565b60648161ffff161061150057600080fd5b6016805461ffff909216620100000263ffff000019909216919091179055565b610ef8338383612aed565b6115353383611c41565b6115515760405162461bcd60e51b815260040161079090614db6565b61155d84848484612bb8565b50505050565b606061156e82611bb6565b6115d25760405162461bcd60e51b815260206004820152602f60248201527f4552433732314d657461646174613a2055524920717565727920666f72206e6f60448201526e3732bc34b9ba32b73a103a37b5b2b760891b6064820152608401610790565b60006115dc612beb565b905060008151116115fc5760405180602001604052806000815250611627565b8061160684612bfa565b604051602001611617929190614ca7565b6040516020818303038152906040525b9392505050565b60105460009060ff1615801561164a575060125463ffffffff16155b156116555750600090565b5060125463ffffffff1660009081526015602052604090206003015490565b6040805160a08101825260008082526020820181905291810182905260608101829052608081019190915260215482106116ad57600080fd5b60206000602184815481106116d257634e487b7160e01b600052603260045260246000fd5b60009182526020808320909101546001600160a01b0316835282019290925260400190205460ff1661170357600080fd5b602060006021848154811061172857634e487b7160e01b600052603260045260246000fd5b6000918252602080832091909101546001600160a01b039081168452838201949094526040928301909120825160a081018452815460ff811615158252610100810463ffffffff90811694830194909452600160281b810490931693810193909352600160481b9091046001600160401b0316606083015260010154909116608082015292915050565b600f80546117bf90614fd5565b80601f01602080910402602001604051908101604052809291908181526020018280546117eb90614fd5565b80156118385780601f1061180d57610100808354040283529160200191611838565b820191906000526020600020905b81548152906001019060200180831161181b57829003601f168201915b505050505081565b336118496114a2565b6001600160a01b03161461186f5760405162461bcd60e51b815260040161079090614d81565b6064816001600160401b0316101561188657600080fd5b601980546001600160401b03909216600160501b0267ffffffffffffffff60501b19909216919091179055565b6001600160a01b03918216600090815260056020908152604080832093909416825291909152205460ff1690565b336118ea6114a2565b6001600160a01b0316146119105760405162461bcd60e51b815260040161079090614d81565b6001600160a01b0381166119755760405162461bcd60e51b815260206004820152602660248201527f4f776e61626c653a206e6577206f776e657220697320746865207a65726f206160448201526564647265737360d01b6064820152608401610790565b61197e81612a8f565b50565b60105460ff161561199157600080fd5b61199b6001610c40565b601754158015906119ad575060185415155b15611a58576017546018546019546016546119d893929161ffff600160901b90910481169116612d13565b6016805461ffff191661ffff9290921691909117905560005b601c5461ffff16811015611a4b57601e8181548110611a2057634e487b7160e01b600052603260045260246000fd5b600091825260209091200180546001600160a01b031916905580611a4381615032565b9150506119f1565b50601c805461ffff191690555b611a6181612da7565b601654611a8890606490611a829061ffff80821691620100009004166130f5565b90613101565b336000908152601d602052604090208054600390611ab7908490630100000090046001600160401b0316614f3d565b92506101000a8154816001600160401b0302191690836001600160401b0316021790555050565b33611ae76114a2565b6001600160a01b031614611b0d5760405162461bcd60e51b815260040161079090614d81565b604080516060810182526001600160a01b0394851680825293851660208201819052929094169301839052600b80546001600160a01b03199081169093179055600c805483169091179055600d80549091169091179055565b60006001600160e01b031982166380ac58cd60e01b1480611b9757506001600160e01b03198216635b5e139f60e01b145b8061069057506301ffc9a760e01b6001600160e01b0319831614610690565b6000908152600260205260409020546001600160a01b0316151590565b600081815260046020526040902080546001600160a01b0319166001600160a01b0384169081179091558190611c0882611126565b6001600160a01b03167f8c5be1e5ebec7d5bd14f71427d1e84f3dd0314c0f7b2291e5b200ac8c7c3b92560405160405180910390a45050565b6000611c4c82611bb6565b611cad5760405162461bcd60e51b815260206004820152602c60248201527f4552433732313a206f70657261746f7220717565727920666f72206e6f6e657860448201526b34b9ba32b73a103a37b5b2b760a11b6064820152608401610790565b6000611cb883611126565b9050806001600160a01b0316846001600160a01b03161480611cf35750836001600160a01b0316611ce884610728565b6001600160a01b0316145b80611d035750611d0381856118b3565b949350505050565b826001600160a01b0316611d1e82611126565b6001600160a01b031614611d825760405162461bcd60e51b815260206004820152602560248201527f4552433732313a207472616e736665722066726f6d20696e636f72726563742060448201526437bbb732b960d91b6064820152608401610790565b6001600160a01b038216611de45760405162461bcd60e51b8152602060048201526024808201527f4552433732313a207472616e7366657220746f20746865207a65726f206164646044820152637265737360e01b6064820152608401610790565b611def83838361310d565b611dfa600082611bd3565b6001600160a01b0383166000908152600360205260408120805460019290611e23908490614f92565b90915550506001600160a01b0382166000908152600360205260408120805460019290611e51908490614f25565b909155505060008181526002602052604080822080546001600160a01b0319166001600160a01b0386811691821790925591518493918716916000805160206150fe83398151915291a4505050565b6000828210611eb157506000610690565b6116278383612ae1565b60606000805b60125463ffffffff16600090815260156020526040902060030154811015611f675760125463ffffffff1660009081526015602052604081206003018054601492919084908110611f2257634e487b7160e01b600052603260045260246000fd5b6000918252602080832090910154835282019290925260400190205461ffff1615611f555781611f5181615032565b9250505b80611f5f81615032565b915050611ec1565b506000816001600160401b03811115611f9057634e487b7160e01b600052604160045260246000fd5b604051908082528060200260200182016040528015611fb9578160200160208202803683370190505b5090506000805b60125463ffffffff166000908152601560205260409020600301548110156120d65760125463ffffffff166000908152601560205260408120600301805460149291908490811061202157634e487b7160e01b600052603260045260246000fd5b6000918252602080832090910154835282019290925260400190205461ffff16156120c45760125463ffffffff16600090815260156020526040902060030180548290811061208057634e487b7160e01b600052603260045260246000fd5b90600052602060002001548383815181106120ab57634e487b7160e01b600052603260045260246000fd5b6020908102919091010152816120c081615032565b9250505b806120ce81615032565b915050611fc0565b506120e28642846131c5565b915060008386116120f357856120f5565b835b90506000816001600160401b0381111561211f57634e487b7160e01b600052604160045260246000fd5b604051908082528060200260200182016040528015612148578160200160208202803683370190505b50905060005b828110156121bb5784818151811061217657634e487b7160e01b600052603260045260246000fd5b602002602001015182828151811061219e57634e487b7160e01b600052603260045260246000fd5b6020908102919091010152806121b381615032565b91505061214e565b50979650505050505050565b60008151600014156121db57506000919050565b6000805b835181101561223d5761221884828151811061220b57634e487b7160e01b600052603260045260246000fd5b60200260200101516108c6565b1561222b578161222781615032565b9250505b8061223581615032565b9150506121df565b5092915050565b60606000836001600160401b0381111561226e57634e487b7160e01b600052604160045260246000fd5b604051908082528060200260200182016040528015612297578160200160208202803683370190505b5090506000805b8451811015612336576122ca85828151811061220b57634e487b7160e01b600052603260045260246000fd5b15612324578481815181106122ef57634e487b7160e01b600052603260045260246000fd5b602002602001015183838151811061231757634e487b7160e01b600052603260045260246000fd5b6020026020010181815250505b8061232e81615032565b91505061229e565b5090949350505050565b6000826123586123518460016132fc565b86906132fc565b60408051602081019390935282015260600160408051601f198184030181529190528051602090910120949350505050565b6000806000831161239c57600161239e565b825b9050611d038482613308565b60006123b582611bb6565b6124015760405162461bcd60e51b815260206004820152601f60248201527f746869732063616e6e6f742062652061747461636b656420616e796d6f7265006044820152606401610790565b600c54604051631f4139fb60e01b81526001600160a01b038681166004830152602482018690526000921690631f4139fb90604401602060405180830381600087803b15801561245057600080fd5b505af1158015612464573d6000803e3d6000fd5b505050506040513d601f19601f820116820180604052508101906124889190614bfc565b90506124948582613314565b60008381526014602052604090205461ffff166124ba816001600160401b038416611ea0565b6000858152601460209081526040808320805461ffff191661ffff95909516949094179093556001600160a01b0389168252601d9052208054839190600390612514908490630100000090046001600160401b0316614f3d565b82546101009290920a6001600160401b038181021990931691831602179091556001600160a01b0388166000908152602080526040902080548593509091600991612568918591600160481b900416614f3d565b82546001600160401b039182166101009390930a9283029190920219909116179055506022546040805163ffffffff9092168252602082018790526001600160a01b038816908201527f750644da1b729b7a07f23847de1533c6c6a02dd55cabefb3636edfda999680139060600160405180910390a16040518061010001604052808361ffff1681526020018261ffff1681526020016014600087815260200190815260200160002060000160009054906101000a900461ffff1661ffff168152602001602260009054906101000a900463ffffffff1663ffffffff168152602001876001600160a01b031681526020016014600087815260200190815260200160002060000160049054906101000a90046001600160a01b03166001600160a01b03168152602001868152602001858152506023600087815260200190815260200160002060008201518160000160006101000a81548161ffff021916908361ffff16021790555060208201518160000160026101000a81548161ffff021916908361ffff16021790555060408201518160000160046101000a81548161ffff021916908361ffff16021790555060608201518160000160066101000a81548163ffffffff021916908363ffffffff160217905550608082015181600001600a6101000a8154816001600160a01b0302191690836001600160a01b0316021790555060a08201518160010160006101000a8154816001600160a01b0302191690836001600160a01b0316021790555060c0820151816002015560e0820151816003015590505060006014600086815260200190815260200160002060000160009054906101000a900461ffff1661ffff1660001415612a8557601954612815906001600160401b038086169161280f91606491611a82918591600160501b9004166130f5565b90611ea0565b6001600160a01b0388166000908152601d6020526040902080549194508491600390612852908490630100000090046001600160401b0316614f3d565b82546101009290920a6001600160401b038181021990931691831602179091556001600160a01b03891660009081526020805260409020805486935090916009916128a6918591600160481b900416614f3d565b92506101000a8154816001600160401b0302191690836001600160401b031602179055506128d3856137d5565b6128db61386a565b15612a81576001600160a01b0387166000908152601d602052604090205460195461292c916001600160401b03630100000090910481169161280f91606491611a82918591620100009004166130f5565b6001600160a01b0388166000908152601d6020526040902080549194508491600390612969908490630100000090046001600160401b0316614f3d565b82546101009290920a6001600160401b038181021990931691831602179091556001600160a01b03891660009081526020805260409020805486935090916009916129bd918591600160481b900416614f3d565b92506101000a8154816001600160401b0302191690836001600160401b031602179055506129e9613954565b6012805463ffffffff908116600090815260156020908152604080832080546001600160a01b0397909716600160381b02600160381b600160d81b03199097169690961790955583548316825290849020805460ff19166001179055426018559154925192168252600292507f3496ed15a97ad1d154265bf94e0068b3b45bed65b26cb72ecc4e1b8a44d9b3d7910160405180910390a15b5060015b9695505050505050565b600a80546001600160a01b038381166001600160a01b0319831681179093556040519116919082907f8be0079c531659141344cd1fd0a4f28419497f9722a3daafe3b4186f6b6457e090600090a35050565b60006116278284614f92565b816001600160a01b0316836001600160a01b03161415612b4b5760405162461bcd60e51b815260206004820152601960248201527822a9219b99189d1030b8383937bb32903a379031b0b63632b960391b6044820152606401610790565b6001600160a01b03838116600081815260056020908152604080832094871680845294825291829020805460ff191686151590811790915591519182527f17307eab39ab6107e8899845ad3d59bd9653f200f220920489ca2b5937696c31910160405180910390a3505050565b612bc3848484611d0b565b612bcf84848484613ae6565b61155d5760405162461bcd60e51b815260040161079090614d2f565b6060600f80546106a590614fd5565b606081612c1e5750506040805180820190915260018152600360fc1b602082015290565b8160005b8115612c485780612c3281615032565b9150612c419050600a83614f5f565b9150612c22565b6000816001600160401b03811115612c7057634e487b7160e01b600052604160045260246000fd5b6040519080825280601f01601f191660200182016040528015612c9a576020820181803683370190505b5090505b8415611d0357612caf600183614f92565b9150612cbc600a86615067565b612cc7906030614f25565b60f81b818381518110612cea57634e487b7160e01b600052603260045260246000fd5b60200101906001600160f81b031916908160001a905350612d0c600a86614f5f565b9450612c9e565b600080612d27603c611a828181898b612ae1565b61ffff1690506000848211612d4557612d408583612ae1565b612d4f565b612d4f8286612ae1565b90506000612d76612d6587611a828560646130f5565b612d70876064613101565b906130f5565b90506000868411612d9057612d8b86836132fc565b612d9a565b612d9a8683612ae1565b9998505050505050505050565b601954600090612e009060ff80821691612dfa91612dcb9161010090041683612ae1565b604080514260208083019190915281830189905282518083038401815260609092019092528051910120611033565b906132fc565b90506000612e168383612e11613bf0565b614004565b8051601654919250600091612e3391429187919061ffff16614104565b9050600082516001600160401b03811115612e5e57634e487b7160e01b600052604160045260246000fd5b604051908082528060200260200182016040528015612e87578160200160208202803683370190505b50905060005b8351811015613003576000848281518110612eb857634e487b7160e01b600052603260045260246000fd5b602002602001015190506000612ecd826142ad565b600081815260116020526040902084905584519091508190859085908110612f0557634e487b7160e01b600052603260045260246000fd5b6020026020010181815250506040518060800160405280868581518110612f3c57634e487b7160e01b600052603260045260246000fd5b602002602001015161ffff168152602001868581518110612f6d57634e487b7160e01b600052603260045260246000fd5b60209081029190910181015161ffff90811683526001600160a01b0395861683830152604092830185905260009485526014825293829020835181549285015193850151909616600160201b02600160201b600160c01b0319938616620100000263ffffffff19909316969095169590951717169190911782556060015160019091015580612ffb81615032565b915050612e8d565b506040805160e081018252600080825260165461ffff908116602080850191825260125463ffffffff9081168688018181526060880187815260175460808a0190815260a08a0189815260c08b018d8152948a52601587529a909820895181549751935192516001600160a01b0316600160381b02600160381b600160d81b031993909616630100000002929092166301000000600160d81b0319939098166101000262ffff00199215159290921662ffffff199097169690961717169490941717825592516001820155935160028501555180519293926130eb926003850192019061479b565b5050505050505050565b60006116278284614f73565b60006116278284614f5f565b6001600160a01b0383166131685761316381600880546000838152600960205260408120829055600182018355919091527ff3f7a9fe364faab93b216da50a3214154f22a0a2b415b23a84c8169e8b636ee30155565b61318b565b816001600160a01b0316836001600160a01b03161461318b5761318b83826142d3565b6001600160a01b0382166131a2576108c181614370565b826001600160a01b0316826001600160a01b0316146108c1576108c18282614449565b606060005b82518110156132f357600061322f6132286131ef848751612ae190919063ffffffff16565b60408051602081018b90529081018990526060810186905260800160408051601f19818403018152919052805160209091012090613308565b83906132fc565b9050600084828151811061325357634e487b7160e01b600052603260045260246000fd5b6020026020010151905084838151811061327d57634e487b7160e01b600052603260045260246000fd5b60200260200101518583815181106132a557634e487b7160e01b600052603260045260246000fd5b602002602001018181525050808584815181106132d257634e487b7160e01b600052603260045260246000fd5b602002602001018181525050505080806132eb90615032565b9150506131ca565b50909392505050565b60006116278284614f25565b60006116278284615067565b6001600160a01b0382166000908152601d602052604090205460ff166134c95760408051608081018252600180825260208083019182526001600160401b038581168486019081526001600160a01b03888116606087018181526000918252601d909552969096209451855494519151935162ffffff1990951690151562ffff0019161761010061ffff92831602176301000000600160f81b03191663010000009390921692909202600160581b600160f81b03191617600160581b9290941691909102929092179055601e54601c549091161061343c57601e80546001810182556000919091527f50bb669a95c7b50b7e8a6f09454034b2b14cf2b85c730dca9a539ca82cb6e3500180546001600160a01b0319166001600160a01b038416179055613495565b601c54601e8054849261ffff1690811061346657634e487b7160e01b600052603260045260246000fd5b9060005260206000200160006101000a8154816001600160a01b0302191690836001600160a01b031602179055505b601c805461ffff169060006134a983615010565b91906101000a81548161ffff021916908361ffff1602179055505061356f565b6001600160a01b0382166000908152601d602052604090208054829190600390613504908490630100000090046001600160401b0316614f3d565b82546001600160401b0391821661010093840a90810292021916179091556001600160a01b0384166000908152601d60205260409020805461ffff929004919091169150600161355383615010565b91906101000a81548161ffff021916908361ffff160217905550505b6001600160a01b038216600090815260208052604090205460ff16613722576040805160a0810182526001808252600060208084018281528486018481526001600160401b03888116606088019081526001600160a01b038b811660808a01818152908852958052989095209651875493519251955164ffffffffff1990941690151564ffffffff0019161761010063ffffffff9384160217600160281b600160881b031916600160281b929095169190910267ffffffffffffffff60481b191693909317600160481b919093160291909117835551910180546001600160a01b03191691909216179055602154601f5414156136b657602180546001810182556000919091527f3a6357012c1a3ae0a17d304c9920310382d968ebcc4b1771f41c6b304205b5700180546001600160a01b0319166001600160a01b038416179055613709565b816021601f54815481106136da57634e487b7160e01b600052603260045260246000fd5b9060005260206000200160006101000a8154816001600160a01b0302191690836001600160a01b031602179055505b601f805490600061371983615032565b91905055505050565b6001600160a01b03821660009081526020805260409020805482919060099061375c908490600160481b90046001600160401b0316614f3d565b82546001600160401b039182166101009390930a9283029190920219909116179055506001600160a01b03821660009081526020805260409020805463ffffffff600160281b909104169060056137b28361504d565b91906101000a81548163ffffffff021916908363ffffffff160217905550505050565b60006137e082611126565b90506137ee8160008461310d565b6137f9600083611bd3565b6001600160a01b0381166000908152600360205260408120805460019290613822908490614f92565b909155505060008281526002602052604080822080546001600160a01b0319169055518391906001600160a01b038416906000805160206150fe833981519152908390a45050565b6000805b60125463ffffffff1660009081526015602052604090206003015481101561390e5760125463ffffffff16600090815260156020526040812060030180546014929190849081106138cf57634e487b7160e01b600052603260045260246000fd5b6000918252602080832090910154835282019290925260400190205461ffff16156138fc57600091505090565b8061390681615032565b91505061386e565b506012805463ffffffff169060006139258361504d565b91906101000a81548163ffffffff021916908363ffffffff1602179055505061394e6000610c40565b50600190565b60008080805b601c5461ffff16811015613a8e576000601e828154811061398b57634e487b7160e01b600052603260045260246000fd5b60009182526020808320909101546001600160a01b03908116808452601d83526040938490208451608081018652905460ff81161515825261ffff610100820416948201949094526001600160401b036301000000850416948101859052600160581b9093049091166060830152925090841080613a5757508381604001516001600160401b0316148015613a5757506001600160a01b0380861660009081526020805260408082205492851682529020546001600160401b03600160481b9283900481169290910416115b80613a60575083155b15613a795780604001516001600160401b031693508194505b50508080613a8690615032565b91505061395a565b506001600160a01b038216600090815260208052604090208054610100900463ffffffff16906001613abf8361504d565b91906101000a81548163ffffffff021916908363ffffffff16021790555050819250505090565b60006001600160a01b0384163b15613be857604051630a85bd0160e11b81526001600160a01b0385169063150b7a0290613b2a903390899088908890600401614cd6565b602060405180830381600087803b158015613b4457600080fd5b505af1925050508015613b74575060408051601f3d908101601f19168201909252613b7191810190614a72565b60015b613bce573d808015613ba2576040519150601f19603f3d011682016040523d82523d6000602084013e613ba7565b606091505b508051613bc65760405162461bcd60e51b815260040161079090614d2f565b805181602001fd5b6001600160e01b031916630a85bd0160e11b149050611d03565b506001611d03565b600b54604080516318160ddd60e01b815290516060926000926001600160a01b0390911691839183916318160ddd91600480820192602092909190829003018186803b158015613c3f57600080fd5b505afa158015613c53573d6000803e3d6000fd5b505050506040513d601f19601f82011682018060405250810190613c779190614b0d565b905060005b81811015613e9957604051634f6ccce760e01b8152600481018290526000906001600160a01b03851690634f6ccce79060240160206040518083038186803b158015613cc757600080fd5b505afa158015613cdb573d6000803e3d6000fd5b505050506040513d601f19601f82011682018060405250810190613cff9190614b0d565b6040516331a9108f60e11b8152600481018290529091506000906001600160a01b03861690636352211e9060240160206040518083038186803b158015613d4557600080fd5b505afa158015613d59573d6000803e3d6000fd5b505050506040513d601f19601f82011682018060405250810190613d7d9190614883565b6001600160a01b0381166000908152601a602052604090205490915060ff1615613da8575050613e87565b85613db281615032565b6001600160a01b0383166000908152601a60205260409020805460ff19166001179055601b5490975084109050613e3357601b80546001810182556000919091527f3ad8aa4f87544323a9d1e5dd902f40c356527a7955687113db5f9a85ad579dc10180546001600160a01b0319166001600160a01b038316179055613e84565b80601b8481548110613e5557634e487b7160e01b600052603260045260246000fd5b9060005260206000200160006101000a8154816001600160a01b0302191690836001600160a01b031602179055505b50505b80613e9181615032565b915050613c7c565b506000836001600160401b03811115613ec257634e487b7160e01b600052604160045260246000fd5b604051908082528060200260200182016040528015613eeb578160200160208202803683370190505b50905060005b84811015613f8257601b8181548110613f1a57634e487b7160e01b600052603260045260246000fd5b9060005260206000200160009054906101000a90046001600160a01b0316828281518110613f5857634e487b7160e01b600052603260045260246000fd5b6001600160a01b039092166020928302919091019091015280613f7a81615032565b915050613ef1565b5060005b84811015613ffb576000601a6000601b8481548110613fb557634e487b7160e01b600052603260045260246000fd5b6000918252602080832091909101546001600160a01b031683528201929092526040019020805460ff191691151591909117905580613ff381615032565b915050613f86565b50949350505050565b606061401184428461448d565b9150600083835111156140245783614027565b82515b90506000816001600160401b0381111561405157634e487b7160e01b600052604160045260246000fd5b60405190808252806020026020018201604052801561407a578160200160208202803683370190505b50905060005b828110156140fa578481815181106140a857634e487b7160e01b600052603260045260246000fd5b60200260200101518282815181106140d057634e487b7160e01b600052603260045260246000fd5b6001600160a01b0390921660209283029190910190910152806140f281615032565b915050614080565b5095945050505050565b6060600080600080866001600160401b0381111561413257634e487b7160e01b600052604160045260246000fd5b60405190808252806020026020018201604052801561415b578160200160208202803683370190505b50905060005b878110156142a057614174600189614f92565b8114156141b7578682828151811061419c57634e487b7160e01b600052603260045260246000fd5b602002602001019061ffff16908161ffff16815250506142a0565b6141cf6141c48983612ae1565b61ffff891690613101565b94506141e66141df86600a613101565b8690611ea0565b93506141f661235186600a613101565b925061421484612dfa6142098683612ae1565b6110338d8f87612340565b82828151811061423457634e487b7160e01b600052603260045260246000fd5b602002602001019061ffff16908161ffff168152505061428c82828151811061426d57634e487b7160e01b600052603260045260246000fd5b602002602001015161ffff168861ffff16611ea090919063ffffffff16565b96508061429881615032565b915050614161565b5098975050505050505050565b6000806142b9600e5490565b90506142c583826145a3565b610690600e80546001019055565b600060016142e0846111d1565b6142ea9190614f92565b60008381526007602052604090205490915080821461433d576001600160a01b03841660009081526006602090815260408083208584528252808320548484528184208190558352600790915290208190555b5060009182526007602090815260408084208490556001600160a01b039094168352600681528383209183525290812055565b60085460009061438290600190614f92565b600083815260096020526040812054600880549394509092849081106143b857634e487b7160e01b600052603260045260246000fd5b9060005260206000200154905080600883815481106143e757634e487b7160e01b600052603260045260246000fd5b600091825260208083209091019290925582815260099091526040808220849055858252812055600880548061442d57634e487b7160e01b600052603160045260246000fd5b6001900381819060005260206000200160009055905550505050565b6000614454836111d1565b6001600160a01b039093166000908152600660209081526040808320868452825280832085905593825260079052919091209190915550565b606060005b82518110156132f35760006144b76132286131ef848751612ae190919063ffffffff16565b905060008482815181106144db57634e487b7160e01b600052603260045260246000fd5b6020026020010151905084838151811061450557634e487b7160e01b600052603260045260246000fd5b602002602001015185838151811061452d57634e487b7160e01b600052603260045260246000fd5b60200260200101906001600160a01b031690816001600160a01b0316815250508085848151811061456e57634e487b7160e01b600052603260045260246000fd5b60200260200101906001600160a01b031690816001600160a01b0316815250505050808061459b90615032565b915050614492565b610ef88282604051806020016040528060008152506145c283836145eb565b6145cf6000848484613ae6565b6108c15760405162461bcd60e51b815260040161079090614d2f565b6001600160a01b0382166146415760405162461bcd60e51b815260206004820181905260248201527f4552433732313a206d696e7420746f20746865207a65726f20616464726573736044820152606401610790565b61464a81611bb6565b156146965760405162461bcd60e51b815260206004820152601c60248201527b115490cdcc8c4e881d1bdad95b88185b1c9958591e481b5a5b9d195960221b6044820152606401610790565b6146a26000838361310d565b6001600160a01b03821660009081526003602052604081208054600192906146cb908490614f25565b909155505060008181526002602052604080822080546001600160a01b0319166001600160a01b03861690811790915590518392906000805160206150fe833981519152908290a45050565b82805461472390614fd5565b90600052602060002090601f016020900481019282614745576000855561478b565b82601f1061475e57805160ff191683800117855561478b565b8280016001018555821561478b579182015b8281111561478b578251825591602001919060010190614770565b506147979291506147d5565b5090565b82805482825590600052602060002090810192821561478b579160200282018281111561478b578251825591602001919060010190614770565b5b8082111561479757600081556001016147d6565b60006001600160401b03831115614803576148036150a7565b614816601f8401601f1916602001614ef5565b905082815283838301111561482a57600080fd5b828260208301376000602084830101529392505050565b8035801515811461485157600080fd5b919050565b803560ff8116811461485157600080fd5b600060208284031215614878578081fd5b8135611627816150bd565b600060208284031215614894578081fd5b8151611627816150bd565b600080604083850312156148b1578081fd5b82356148bc816150bd565b915060208301356148cc816150bd565b809150509250929050565b6000806000606084860312156148eb578081fd5b83356148f6816150bd565b92506020840135614906816150bd565b91506040840135614916816150bd565b809150509250925092565b600080600060608486031215614935578283fd5b8335614940816150bd565b92506020840135614950816150bd565b929592945050506040919091013590565b60008060008060808587031215614976578081fd5b8435614981816150bd565b93506020850135614991816150bd565b92506040850135915060608501356001600160401b038111156149b2578182fd5b8501601f810187136149c2578182fd5b6149d1878235602084016147ea565b91505092959194509250565b600080604083850312156149ef578182fd5b82356149fa816150bd565b9150614a0860208401614841565b90509250929050565b60008060408385031215614a23578182fd5b8235614a2e816150bd565b946020939093013593505050565b600060208284031215614a4d578081fd5b61162782614841565b600060208284031215614a67578081fd5b8135611627816150d2565b600060208284031215614a83578081fd5b8151611627816150d2565b600060208284031215614a9f578081fd5b81356001600160401b03811115614ab4578182fd5b8201601f81018413614ac4578182fd5b611d03848235602084016147ea565b600060208284031215614ae4578081fd5b813561ffff81168114611627578182fd5b600060208284031215614b06578081fd5b5035919050565b600060208284031215614b1e578081fd5b5051919050565b600080600060608486031215614b39578081fd5b833592506020808501356001600160401b0380821115614b57578384fd5b818701915087601f830112614b6a578384fd5b813581811115614b7c57614b7c6150a7565b8060051b9150614b8d848301614ef5565b8181528481019084860184860187018c1015614ba7578788fd5b8795505b83861015614bc9578035835260019590950194918601918601614bab565b50979a979950505050604095909501359450505050565b600060208284031215614bf1578081fd5b8135611627816150e8565b600060208284031215614c0d578081fd5b8151611627816150e8565b60008060408385031215614c2a578182fd5b614c3383614856565b9150614a0860208401614856565b6000815180845260208085019450808401835b83811015614c7057815187529582019590820190600101614c54565b509495945050505050565b60008151808452614c93816020860160208601614fa9565b601f01601f19169290920160200192915050565b60008351614cb9818460208801614fa9565b835190830190614ccd818360208801614fa9565b01949350505050565b6001600160a01b0385811682528416602082015260408101839052608060608201819052600090612a8590830184614c7b565b6020815260006116276020830184614c41565b6020815260006116276020830184614c7b565b60208082526032908201527f4552433732313a207472616e7366657220746f206e6f6e20455243373231526560408201527131b2b4bb32b91034b6b83632b6b2b73a32b960711b606082015260800190565b6020808252818101527f4f776e61626c653a2063616c6c6572206973206e6f7420746865206f776e6572604082015260600190565b60208082526031908201527f4552433732313a207472616e736665722063616c6c6572206973206e6f74206f6040820152701ddb995c881b9bdc88185c1c1c9bdd9959607a1b606082015260800190565b6020815281511515602082015261ffff602083015116604082015263ffffffff604083015116606082015260018060a01b036060830151166080820152608082015160a082015260a082015160c0820152600060c083015160e080840152611d03610100840182614c41565b60006101008201905061ffff8084511683528060208501511660208401528060408501511660408401525063ffffffff606084015116606083015260018060a01b03608084015116608083015260a0830151614eda60a08401826001600160a01b03169052565b5060c083015160c083015260e083015160e083015292915050565b604051601f8201601f191681016001600160401b0381118282101715614f1d57614f1d6150a7565b604052919050565b60008219821115614f3857614f3861507b565b500190565b60006001600160401b03808316818516808303821115614ccd57614ccd61507b565b600082614f6e57614f6e615091565b500490565b6000816000190483118215151615614f8d57614f8d61507b565b500290565b600082821015614fa457614fa461507b565b500390565b60005b83811015614fc4578181015183820152602001614fac565b8381111561155d5750506000910152565b600181811c90821680614fe957607f821691505b6020821081141561500a57634e487b7160e01b600052602260045260246000fd5b50919050565b600061ffff808316818114156150285761502861507b565b6001019392505050565b60006000198214156150465761504661507b565b5060010190565b600063ffffffff808316818114156150285761502861507b565b60008261507657615076615091565b500690565b634e487b7160e01b600052601160045260246000fd5b634e487b7160e01b600052601260045260246000fd5b634e487b7160e01b600052604160045260246000fd5b6001600160a01b038116811461197e57600080fd5b6001600160e01b03198116811461197e57600080fd5b6001600160401b038116811461197e57600080fdfeddf252ad1be2c89b69c2b068fc378daa952ba7f163c4a11628f55a4df523b3efa26469706673582212209fe7dbe51a2d060df0e296f818ce9b58698fde7aa4199a9dffd4e80a54c4590c64736f6c63430008040033",
  "immutableReferences": {},
  "source": "// SPDX-License-Identifier: MIT\r\npragma solidity ^0.8.4;\r\n\r\nimport \"./Helpers.sol\";\r\nimport \"./BaseNft.sol\";\r\nimport \"./WorldLeader.sol\";\r\nimport \"./MissileMaker.sol\";\r\n\r\n///////////////////////////////////////////////////////////////////////////////////////////////////////////////////////\r\n// this handles the destroy UFO gameplay loop, including dynamically adjusting the difficulty of a match\r\n// so that games approach taking the same amount of time regardless of the # of players playing.\r\n///////////////////////////////////////////////////////////////////////////////////////////////////////////////////////\r\ncontract UfoInvasion is BaseNft(\"UFO Invasion\", \"UFO\") {\r\n    using Helpers for uint;\r\n    using Helpers for uint16;\r\n    using SafeMath for uint8;\r\n    using SafeMath for uint16;\r\n    using SafeMath for uint32;\r\n    using SafeMath for uint64;\r\n    using SafeMath for uint256;\r\n    using Counters for Counters.Counter;\r\n\r\n    struct UfoState {\r\n        uint16 curHp;\r\n        uint16 startingHp;\r\n        address locationAddress;\r\n        uint ufoId;\r\n    }\r\n\r\n    bool _gameActive = false;\r\n    mapping(uint => uint) _ufoIdxLookup;\r\n\r\n    uint32 _totalNumGamesPlayed = 0;\r\n    uint _maxMissilesAtOnce = 5;\r\n\r\n    mapping(uint => UfoState) _ufoStateLookup;\r\n    struct GameStats {\r\n        bool isOver;\r\n        uint16 totalUfoHp;\r\n        uint32 gameNum;\r\n        address winner;\r\n        uint gameStartTimeInSeconds;\r\n        uint elapsedSecs;\r\n        uint[] ufoIds;\r\n    }\r\n\r\n    mapping(uint => GameStats) _gameStats;\r\n\r\n    uint16 _totalUfoHp = 2500;\r\n\r\n    uint16 _startGameScoreReward = 5;\r\n    uint _gameStartTime = 0;\r\n    uint _gameEndTime;\r\n\r\n    uint8 _minNumUFOs = 7;\r\n    uint8 _maxNumUFOs = 15;\r\n\r\n    uint64 _gameWinnerTotalScoreMultiplier = 150; // 150%\r\n    uint64 _ufoKillDmgScoreMultiplier = 150; // 150%\r\n    uint16 _wantedGameLengthInHours = 48;\r\n\r\n    // mapping of holder addresses to their index in the _airdropToAddresses array to ensure we get unique addresses\r\n    mapping(address => bool) _airdropToIdx;\r\n    address[] _airdropToAddresses;\r\n\r\n    struct CurGameScore {\r\n        bool active;\r\n        uint16 nukesUsed;\r\n        uint64 score;\r\n        address playerAddress;\r\n    }\r\n\r\n    struct AllTimeLeaderboard {\r\n        bool exists;\r\n        uint32 wins;\r\n        uint32 nukesUsed;\r\n        uint64 score;\r\n        address playerAddress;\r\n    }\r\n\r\n    uint16 _numPlayersWithScoreInGame = 0;\r\n    mapping(address => CurGameScore) _curGamePlayerScoreLookup;\r\n    address[] _curGameAddresses;\r\n\r\n    uint _numPlayersOnLeaderboard;\r\n    mapping(address => AllTimeLeaderboard) _allTimeLeaderboardLookup;\r\n    address[] _allTimeLeaderboardAddresses;\r\n\r\n    uint32 private _missileTxnId;\r\n    struct MissileAttack {\r\n        uint16 dmg;\r\n        uint16 hpBefore;\r\n        uint16 hpAfter;\r\n        uint32 missileTxnId;\r\n        address attacker;\r\n        address locationAddress;\r\n        uint missileId;\r\n        uint ufoId;\r\n    }\r\n    mapping(uint => MissileAttack) _missileAttackLookup;\r\n    function getMissileAttackInfo(uint missileId) public view returns (MissileAttack memory) {\r\n        require(_missileAttackLookup[missileId].dmg > 0\r\n//        , \"this attack doesn't exist!\"\r\n        );\r\n        return _missileAttackLookup[missileId];\r\n    }\r\n\r\n    event MissileAttackedUFO(uint missileTxnId, uint missileId, address attacker);\r\n    event GameOver(uint gameNumber);\r\n\r\n    enum AttackUfoResult {\r\n        OnlyDamageDealt,\r\n        UfoDestroyed,\r\n        UfoDestroyedAndGameOver\r\n    }\r\n    function findNumUfosStillAlive(uint[] memory ufos) private view returns (uint) {\r\n        if (ufos.length == 0) {\r\n            return 0;\r\n        }\r\n        uint stillAliveNum = 0;\r\n        for (uint i = 0; i < ufos.length; i++) {\r\n            if (ufoIsAlive(ufos[i])) {\r\n                stillAliveNum++;\r\n            }\r\n        }\r\n        return stillAliveNum;\r\n    }\r\n\r\n    function filterUfosAlive(uint stillAliveNum, uint[] memory ufos) private view returns (uint[] memory) {\r\n        uint[] memory newUfos = new uint[](stillAliveNum);\r\n        uint added = 0;\r\n        for (uint i = 0; i < ufos.length; i++) {\r\n            if (ufoIsAlive(ufos[i])) {\r\n                newUfos[added] = ufos[i];\r\n            }\r\n        }\r\n        return newUfos;\r\n    }\r\n\r\n    function attackRandomUFOs(uint randVal, uint[] memory missileIds, uint amountUFOs) external  {\r\n        require(_gameActive, \"the game is not active!\");\r\n        require(missileIds.length < _maxMissilesAtOnce\r\n//        , string(abi.encodePacked(\"you can only use \", MAX_MISSILES_AT_ONCE.uint2str(), \"at once!\"))\r\n        );\r\n        _gameStats[_totalNumGamesPlayed].elapsedSecs = block.timestamp.subSafe(_gameStats[_totalNumGamesPlayed].gameStartTimeInSeconds);\r\n        uint[] memory randomUfoIds = getRandomUfoIds(randVal, amountUFOs > _gameStats[_totalNumGamesPlayed].ufoIds.length ? _gameStats[_totalNumGamesPlayed].ufoIds.length : amountUFOs);\r\n        for (uint i = 0; i < missileIds.length; i++) {\r\n            uint stillAliveNum = findNumUfosStillAlive(randomUfoIds);\r\n            if (stillAliveNum != randomUfoIds.length) {\r\n                randomUfoIds = filterUfosAlive(stillAliveNum, randomUfoIds);\r\n            }\r\n            if (randomUfoIds.length == 0) {\r\n                break;\r\n            }\r\n            uint ufoId = randomUfoIds[uint(randVal.randomize(block.timestamp, i).modSafe(randomUfoIds.length))];\r\n            if (!ufoIsAlive(ufoId)) {\r\n                continue;\r\n            }\r\n            if (attackOneUFO(msg.sender, missileIds[i], ufoId) == AttackUfoResult.UfoDestroyedAndGameOver) {\r\n                break;\r\n            }\r\n        }\r\n        _missileTxnId++;\r\n    }\r\n\r\n    function attackOneUFO(address sender, uint missileId, uint ufoId) private returns (AttackUfoResult) {\r\n        require(_exists(ufoId), \"this cannot be attacked anymore\");\r\n        uint64 missileDmg = MissileMaker(_ownedContracts.missileMaker)._getMissileDmg(sender, missileId);\r\n        updatePlayerScore(sender, missileDmg);\r\n        uint16 hpBefore = _ufoStateLookup[ufoId].curHp;\r\n        _ufoStateLookup[ufoId].curHp = uint16(_ufoStateLookup[ufoId].curHp.subSafe(missileDmg));\r\n        _curGamePlayerScoreLookup[sender].score += missileDmg;\r\n        _allTimeLeaderboardLookup[sender].score += missileDmg;\r\n        emit MissileAttackedUFO(_missileTxnId, missileId, sender);\r\n        _missileAttackLookup[missileId] = MissileAttack(uint16(missileDmg), hpBefore,  _ufoStateLookup[ufoId].curHp, _missileTxnId, sender, _ufoStateLookup[ufoId].locationAddress, missileId, ufoId);\r\n        AttackUfoResult attackResult = AttackUfoResult.OnlyDamageDealt;\r\n        if (_ufoStateLookup[ufoId].curHp == 0) {\r\n            missileDmg = uint64(missileDmg.mul(_ufoKillDmgScoreMultiplier).div(100).subSafe(missileDmg));\r\n            _curGamePlayerScoreLookup[sender].score += missileDmg;\r\n            _allTimeLeaderboardLookup[sender].score += missileDmg;\r\n            _burn(ufoId);\r\n            if (isGameOver()) {\r\n                missileDmg = uint64(_curGamePlayerScoreLookup[sender].score.mul(_gameWinnerTotalScoreMultiplier).div(100).subSafe(_curGamePlayerScoreLookup[sender].score));\r\n                _curGamePlayerScoreLookup[sender].score += missileDmg;\r\n                _allTimeLeaderboardLookup[sender].score += missileDmg;\r\n                _gameStats[_totalNumGamesPlayed].winner = getWinner();\r\n                _gameStats[_totalNumGamesPlayed].isOver = true;\r\n                _gameEndTime = block.timestamp;\r\n                attackResult = AttackUfoResult.UfoDestroyedAndGameOver;\r\n                emit GameOver(_totalNumGamesPlayed);\r\n            }\r\n            attackResult = AttackUfoResult.UfoDestroyed;\r\n        }\r\n        return attackResult;\r\n    }\r\n\r\n    function updatePlayerScore(address sender, uint64 missileDmg) internal {\r\n        if (!_curGamePlayerScoreLookup[sender].active) {\r\n            _curGamePlayerScoreLookup[sender] = CurGameScore(true, 1, missileDmg, sender);\r\n            if (_numPlayersWithScoreInGame >= _curGameAddresses.length) {\r\n                _curGameAddresses.push(sender);\r\n            } else {\r\n                _curGameAddresses[_numPlayersWithScoreInGame] = sender;\r\n            }\r\n            _numPlayersWithScoreInGame++;\r\n        } else {\r\n            _curGamePlayerScoreLookup[sender].score += missileDmg;\r\n            _curGamePlayerScoreLookup[sender].nukesUsed++;\r\n        }\r\n\r\n        if (!_allTimeLeaderboardLookup[sender].exists) {\r\n            _allTimeLeaderboardLookup[sender] = AllTimeLeaderboard(true, 0, 1, missileDmg, sender);\r\n            if (_numPlayersOnLeaderboard == _allTimeLeaderboardAddresses.length) {\r\n                _allTimeLeaderboardAddresses.push(sender);\r\n            } else {\r\n                _allTimeLeaderboardAddresses[_numPlayersOnLeaderboard] = sender;\r\n            }\r\n            _numPlayersOnLeaderboard++;\r\n        } else {\r\n            _allTimeLeaderboardLookup[sender].score += missileDmg;\r\n            _allTimeLeaderboardLookup[sender].nukesUsed++;\r\n        }\r\n    }\r\n\r\n    function isGameOver() internal returns (bool) {\r\n        for (uint i = 0; i < _gameStats[_totalNumGamesPlayed].ufoIds.length; i++) {\r\n            if (_ufoStateLookup[_gameStats[_totalNumGamesPlayed].ufoIds[i]].curHp != 0) {\r\n                return false;\r\n            }\r\n        }\r\n        _totalNumGamesPlayed++;\r\n        setIsGameActive(false);\r\n        return true;\r\n    }\r\n\r\n    function getWinner() internal returns (address) {\r\n        address highestSeenAddr = address(0x0);\r\n        uint highestSeenScore = 0;\r\n        for (uint i = 0; i < _numPlayersWithScoreInGame; i++) {\r\n            address playerAddr = _curGameAddresses[i];\r\n            CurGameScore memory curGameScore = _curGamePlayerScoreLookup[playerAddr];\r\n            if (\r\n                curGameScore.score > highestSeenScore\r\n                || ( // if there's a tie, take the player with more score all-time, if this is also a tie we take who's first\r\n                    curGameScore.score == highestSeenScore\r\n                    && _allTimeLeaderboardLookup[playerAddr].score > _allTimeLeaderboardLookup[highestSeenAddr].score\r\n                )\r\n                || highestSeenScore == 0\r\n            ) {\r\n                highestSeenScore = curGameScore.score;\r\n                highestSeenAddr = playerAddr;\r\n            }\r\n        }\r\n        _allTimeLeaderboardLookup[highestSeenAddr].wins++;\r\n        return highestSeenAddr;\r\n    }\r\n\r\n    function startNewUfoInvasionGame(uint randVal) public {\r\n        require(!_gameActive);\r\n        setIsGameActive(true);\r\n        if (_gameStartTime != 0 && _gameEndTime != 0) { // use the default total UFO health when there has never been a game before\r\n            _totalUfoHp = getNewTotalUfoHealth(_gameStartTime, _gameEndTime, uint(_wantedGameLengthInHours), uint(_totalUfoHp));\r\n            for (uint i = 0; i < _numPlayersWithScoreInGame; i++) {\r\n                delete _curGameAddresses[i];\r\n            }\r\n            _numPlayersWithScoreInGame = 0;\r\n        }\r\n        airdropNewUFOs(randVal);\r\n        // reward players for paying to start new game\r\n        _curGamePlayerScoreLookup[msg.sender].score += uint64(_totalUfoHp.mul(_startGameScoreReward).div(100));\r\n    }\r\n\r\n    // roll new random number of UFOs\r\n    //\r\n    function airdropNewUFOs(uint randVal) internal  {\r\n        uint newNumUFOs = uint(randVal.randomize(block.timestamp).modSafe(_maxNumUFOs.sub(_minNumUFOs)).add(_minNumUFOs));\r\n\r\n        address[] memory ufoAirdropWinners = getHoldersToSendUFOs(randVal, newNumUFOs, findUniqueHolders());\r\n\r\n        uint16[] memory newUfoHps = rollHpForUFOs(block.timestamp, randVal, ufoAirdropWinners.length, _totalUfoHp);\r\n\r\n        uint[] memory ufoIds = new uint[](ufoAirdropWinners.length);\r\n\r\n        for (uint i = 0; i < ufoAirdropWinners.length; i++) {\r\n            address locationAddress = ufoAirdropWinners[i];\r\n            uint ufoId = _mintSingleNFT(locationAddress);\r\n            _ufoIdxLookup[ufoId] = i;\r\n            ufoIds[i] = ufoId;\r\n            _ufoStateLookup[ufoId] = UfoState(newUfoHps[i], newUfoHps[i], locationAddress, ufoId);\r\n        }\r\n        _gameStats[_totalNumGamesPlayed] = GameStats(\r\n            false,\r\n            _totalUfoHp,\r\n            _totalNumGamesPlayed,\r\n            address(0x0),\r\n            _gameStartTime,\r\n            0,\r\n            ufoIds\r\n        );\r\n    }\r\n\r\n    function _mintSingleNFT(address to) private returns (uint) {\r\n        uint newTokenID = tokenIdx.current();\r\n        _safeMint(to, newTokenID);\r\n        tokenIdx.increment();\r\n        return newTokenID;\r\n    }\r\n\r\n    // in the case the last game was completed faster than the length wanted (given by _wantedGameLengthInHours),\r\n    // make the next game's total UFO HP larger as a percentage of the gap and vice-versa\r\n    //\r\n    function getNewTotalUfoHealth(uint gameStartTime, uint gameEndTime, uint wantedGameLengthInHours, uint prevTotalUfoHp) internal pure returns (uint16) {\r\n        uint gameLengthHours = uint16(gameEndTime.sub(gameStartTime).div(60).div(60));\r\n        uint diff = gameLengthHours > wantedGameLengthInHours\r\n            ? gameLengthHours.sub(wantedGameLengthInHours)\r\n            : wantedGameLengthInHours.sub(gameLengthHours);\r\n        uint adjustment = prevTotalUfoHp.div(100).mul(diff.mul(100).div(wantedGameLengthInHours));\r\n        uint newTotalUfoHp = gameLengthHours > wantedGameLengthInHours\r\n            ? prevTotalUfoHp.sub(adjustment)\r\n            : prevTotalUfoHp.add(adjustment);\r\n        return uint16(newTotalUfoHp);\r\n    }\r\n\r\n    function rollHpForUFOs(uint blockTimestamp, uint randVal, uint numUFOs, uint16 totalUfoHp) internal pure returns (uint16[] memory) {\r\n        uint avgHpPerUfoNeeded;\r\n        uint min;\r\n        uint max;\r\n        uint16[] memory ufoHps = new uint16[](numUFOs);\r\n        for (uint i = 0; i < numUFOs; i++) {\r\n            // setting hp values for individual UFOs to values within a range (so they're not all the same every\r\n            // match, but ensuring that the total UFO hp ends up roughly around where we want it. this should\r\n            // make the gameplay more varied between matches\r\n            if (i == numUFOs - 1) {\r\n                ufoHps[i] = totalUfoHp;\r\n                break;\r\n            }\r\n            avgHpPerUfoNeeded = totalUfoHp.div(numUFOs.sub(i));\r\n            min = avgHpPerUfoNeeded.subSafe(avgHpPerUfoNeeded.div(10));\r\n            max = avgHpPerUfoNeeded.add(avgHpPerUfoNeeded.div(10));\r\n            ufoHps[i] = uint16(randVal.randomize(blockTimestamp, i).modSafe(max.sub(min)).add(min));\r\n            totalUfoHp = uint16(totalUfoHp.subSafe(ufoHps[i]));\r\n        }\r\n        return ufoHps;\r\n    }\r\n\r\n    function findUniqueHolders() internal returns (address[] memory) {\r\n        uint totalUnique = 0;\r\n        WorldLeader leader = WorldLeader(_ownedContracts.leader);\r\n        uint numLeaderNfts = leader.totalSupply();\r\n\r\n        for (uint i = 0; i < numLeaderNfts; i++) {\r\n            uint256 leaderNftId = leader.tokenByIndex(i);\r\n            address owner = leader.ownerOf(leaderNftId);\r\n            if (_airdropToIdx[owner]) {\r\n                continue;\r\n            }\r\n            totalUnique++;\r\n            _airdropToIdx[owner] = true;\r\n            if (i >= _airdropToAddresses.length) {\r\n                _airdropToAddresses.push(owner);\r\n            } else {\r\n                _airdropToAddresses[i] = owner;\r\n            }\r\n        }\r\n        address[] memory uniqueAddresses = new address[](totalUnique);\r\n        for (uint i = 0; i < totalUnique; i++) {\r\n            uniqueAddresses[i] = _airdropToAddresses[i];\r\n        }\r\n\r\n        for (uint i = 0; i < totalUnique; i++) {\r\n            _airdropToIdx[_airdropToAddresses[i]] = false;\r\n        }\r\n\r\n        return uniqueAddresses;\r\n    }\r\n\r\n    // get a random subset of unique holders of World Leader tokens to send UFOs to\r\n    //\r\n    function getHoldersToSendUFOs(uint randVal, uint numUFOs, address[] memory uniqueHolders) internal view returns (address[] memory) {\r\n        uniqueHolders = randVal.shuffle(block.timestamp, uniqueHolders);\r\n        uint numWinners = uniqueHolders.length <= numUFOs ? uniqueHolders.length : numUFOs;\r\n\r\n        address[] memory winners = new address[](numWinners);\r\n\r\n        for (uint i = 0; i < numWinners; i++) {\r\n            winners[i] = uniqueHolders[i];\r\n        }\r\n\r\n        return winners;\r\n    }\r\n\r\n    function getRandomUfoIds(uint randVal, uint amountUFOs) private view returns (uint[] memory) {\r\n        uint numAliveUfos = 0;\r\n        for (uint i = 0; i < _gameStats[_totalNumGamesPlayed].ufoIds.length; i++) {\r\n            if (_ufoStateLookup[_gameStats[_totalNumGamesPlayed].ufoIds[i]].curHp != 0) {\r\n                numAliveUfos++;\r\n            }\r\n        }\r\n        uint[] memory ufoIds = new uint[](numAliveUfos);\r\n        uint foundAlive = 0;\r\n        for (uint i = 0; i < _gameStats[_totalNumGamesPlayed].ufoIds.length; i++) {\r\n            if (_ufoStateLookup[_gameStats[_totalNumGamesPlayed].ufoIds[i]].curHp != 0) {\r\n                ufoIds[foundAlive] = _gameStats[_totalNumGamesPlayed].ufoIds[i];\r\n                foundAlive++;\r\n            }\r\n        }\r\n        ufoIds = randVal.shuffle(block.timestamp, ufoIds);\r\n        uint numRandom = amountUFOs > numAliveUfos ? numAliveUfos : amountUFOs;\r\n        uint[] memory randomUfos = new uint[](numRandom);\r\n        for (uint i = 0; i < numRandom; i++) {\r\n            randomUfos[i] = ufoIds[i];\r\n        }\r\n        return randomUfos;\r\n    }\r\n\r\n    function ufoIsAlive(uint ufoId) public view returns (bool) {\r\n        return _ufoStateLookup[ufoId].curHp > 0;\r\n    }\r\n\r\n    function setIsGameActive(bool to) public onlyOwner {\r\n        _gameActive = to;\r\n    }\r\n\r\n    function isGameActive() external view returns (bool) {\r\n        return _gameActive;\r\n    }\r\n\r\n    function getGameStartTime() external view returns (uint) {\r\n        return _gameStartTime;\r\n    }\r\n\r\n    function getCurGameNumUFOs() external view returns (uint) {\r\n        if (!_gameActive && _totalNumGamesPlayed == 0) {\r\n            return 0;\r\n        }\r\n        return _gameStats[_totalNumGamesPlayed].ufoIds.length;\r\n    }\r\n\r\n    function getUfoAtIdx(uint idx) external view returns (UfoState memory) {\r\n        require(idx < _gameStats[_totalNumGamesPlayed].ufoIds.length\r\n//        , \"there are not that many ufos in the current game!\"\r\n        );\r\n        return _ufoStateLookup[_gameStats[_totalNumGamesPlayed].ufoIds[idx]];\r\n    }\r\n\r\n    function getCurGameNumPlayers() external view returns (uint) {\r\n        return _numPlayersWithScoreInGame;\r\n    }\r\n\r\n    function getCurGamePlayerAtIdx(uint idx) external view returns (CurGameScore memory) {\r\n        require(idx < _curGameAddresses.length\r\n//        , \"there is no leaderboard entry at this index!\"\r\n        );\r\n        require(_curGamePlayerScoreLookup[_curGameAddresses[idx]].active\r\n//        , \"this player has not yet played the current game!\"\r\n        );\r\n        return _curGamePlayerScoreLookup[_curGameAddresses[idx]];\r\n    }\r\n\r\n    function getNumLeaderboardPlayers() external view returns (uint) {\r\n        return _numPlayersOnLeaderboard;\r\n    }\r\n\r\n    function getLeaderboardPlayerAtIdx(uint idx) external view returns (AllTimeLeaderboard memory) {\r\n        require(idx < _allTimeLeaderboardAddresses.length\r\n//        , \"there is no leaderboard entry at this index!\"\r\n        );\r\n        require(_allTimeLeaderboardLookup[_allTimeLeaderboardAddresses[idx]].exists\r\n//        , \"this player has never scored any points before!\"\r\n        );\r\n        return _allTimeLeaderboardLookup[_allTimeLeaderboardAddresses[idx]];\r\n    }\r\n\r\n    function getTotalNumberOfGames() public view returns (uint) {\r\n        return _totalNumGamesPlayed;\r\n    }\r\n\r\n    function getGameStatsByGameNum(uint gameNum) public view returns (GameStats memory) {\r\n        require(gameNum < _totalNumGamesPlayed\r\n//        , \"there have not been that many games yet!\"\r\n        );\r\n        GameStats memory gameStats = _gameStats[gameNum];\r\n        if (!gameStats.isOver) {\r\n            gameStats.elapsedSecs = block.timestamp.sub(gameStats.gameStartTimeInSeconds);\r\n        }\r\n        return gameStats;\r\n    }\r\n\r\n    function getTotalHpForUFOs() public view returns (uint) {\r\n        return _totalUfoHp;\r\n    }\r\n\r\n    function updateMinMaxUFOs(uint8 min, uint8 max) public onlyOwner {\r\n        _minNumUFOs = min;\r\n        _maxNumUFOs = max;\r\n    }\r\n\r\n    function updateWantedGameLengthInHours(uint16 newWantedGameLength) public onlyOwner {\r\n        _wantedGameLengthInHours = newWantedGameLength;\r\n    }\r\n\r\n    function setGameWinnerTotalScoreMultiplier(uint64 to) public onlyOwner {\r\n        require(to >= 100\r\n//        , \"game winner score multiplier must be at least 100 (150x)!\"\r\n        );\r\n        _gameWinnerTotalScoreMultiplier = to;\r\n    }\r\n\r\n    function setUfoKillDmgScoreMultiplier(uint64 to) public onlyOwner {\r\n        require(to >= 100\r\n//        , \"ufo kill damage multiplier must be at least 100 (150x)!\"\r\n        );\r\n        _ufoKillDmgScoreMultiplier = to;\r\n    }\r\n\r\n    function setStartGameScoreReward(uint16 to) public onlyOwner {\r\n        require(to < 100\r\n//        , \"start game score reward must be less than 100 because it's a %!\"\r\n        );\r\n        _startGameScoreReward = to;\r\n    }\r\n\r\n    function setMaxNumMissilesInOneTxn(uint newMax) public onlyOwner {\r\n        _maxMissilesAtOnce = newMax;\r\n    }\r\n}\r\n\r\n\r\n",
  "sourcePath": "C:\\data\\source\\Webstorm Projects\\metis-nfts\\contracts\\UfoInvasion.sol",
  "compiler": {
    "name": "solc",
    "version": "0.8.4+commit.c7e474f2.Emscripten.clang"
  },
  "schemaVersion": "3.4.5",
  "updatedAt": "2022-03-27T07:15:54.114Z",
  "devdoc": {
    "kind": "dev",
    "methods": {
      "approve(address,uint256)": {
        "details": "See {IERC721-approve}."
      },
      "balanceOf(address)": {
        "details": "See {IERC721-balanceOf}."
      },
      "getApproved(uint256)": {
        "details": "See {IERC721-getApproved}."
      },
      "isApprovedForAll(address,address)": {
        "details": "See {IERC721-isApprovedForAll}."
      },
      "name()": {
        "details": "See {IERC721Metadata-name}."
      },
      "owner()": {
        "details": "Returns the address of the current owner."
      },
      "ownerOf(uint256)": {
        "details": "See {IERC721-ownerOf}."
      },
      "renounceOwnership()": {
        "details": "Leaves the contract without owner. It will not be possible to call `onlyOwner` functions anymore. Can only be called by the current owner. NOTE: Renouncing ownership will leave the contract without an owner, thereby removing any functionality that is only available to the owner."
      },
      "safeTransferFrom(address,address,uint256)": {
        "details": "See {IERC721-safeTransferFrom}."
      },
      "safeTransferFrom(address,address,uint256,bytes)": {
        "details": "See {IERC721-safeTransferFrom}."
      },
      "setApprovalForAll(address,bool)": {
        "details": "See {IERC721-setApprovalForAll}."
      },
      "supportsInterface(bytes4)": {
        "details": "See {IERC165-supportsInterface}."
      },
      "symbol()": {
        "details": "See {IERC721Metadata-symbol}."
      },
      "tokenByIndex(uint256)": {
        "details": "See {IERC721Enumerable-tokenByIndex}."
      },
      "tokenOfOwnerByIndex(address,uint256)": {
        "details": "See {IERC721Enumerable-tokenOfOwnerByIndex}."
      },
      "tokenURI(uint256)": {
        "details": "See {IERC721Metadata-tokenURI}."
      },
      "totalSupply()": {
        "details": "See {IERC721Enumerable-totalSupply}."
      },
      "transferFrom(address,address,uint256)": {
        "details": "See {IERC721-transferFrom}."
      },
      "transferOwnership(address)": {
        "details": "Transfers ownership of the contract to a new account (`newOwner`). Can only be called by the current owner."
      }
    },
    "version": 1
  },
  "userdoc": {
    "kind": "user",
    "methods": {},
    "version": 1
  }
}