{
  "contractName": "UfoInvasion",
  "abi": [
    {
      "anonymous": false,
      "inputs": [
        {
          "indexed": true,
          "internalType": "address",
          "name": "owner",
          "type": "address"
        },
        {
          "indexed": true,
          "internalType": "address",
          "name": "approved",
          "type": "address"
        },
        {
          "indexed": true,
          "internalType": "uint256",
          "name": "tokenId",
          "type": "uint256"
        }
      ],
      "name": "Approval",
      "type": "event"
    },
    {
      "anonymous": false,
      "inputs": [
        {
          "indexed": true,
          "internalType": "address",
          "name": "owner",
          "type": "address"
        },
        {
          "indexed": true,
          "internalType": "address",
          "name": "operator",
          "type": "address"
        },
        {
          "indexed": false,
          "internalType": "bool",
          "name": "approved",
          "type": "bool"
        }
      ],
      "name": "ApprovalForAll",
      "type": "event"
    },
    {
      "anonymous": false,
      "inputs": [
        {
          "indexed": false,
          "internalType": "uint256",
          "name": "gameNumber",
          "type": "uint256"
        }
      ],
      "name": "GameOver",
      "type": "event"
    },
    {
      "anonymous": false,
      "inputs": [
        {
          "indexed": false,
          "internalType": "uint256",
          "name": "missileTxnId",
          "type": "uint256"
        },
        {
          "indexed": false,
          "internalType": "uint256",
          "name": "missileId",
          "type": "uint256"
        },
        {
          "indexed": false,
          "internalType": "address",
          "name": "attacker",
          "type": "address"
        }
      ],
      "name": "MissileAttackedUFO",
      "type": "event"
    },
    {
      "anonymous": false,
      "inputs": [
        {
          "indexed": true,
          "internalType": "address",
          "name": "previousOwner",
          "type": "address"
        },
        {
          "indexed": true,
          "internalType": "address",
          "name": "newOwner",
          "type": "address"
        }
      ],
      "name": "OwnershipTransferred",
      "type": "event"
    },
    {
      "anonymous": false,
      "inputs": [
        {
          "indexed": true,
          "internalType": "address",
          "name": "from",
          "type": "address"
        },
        {
          "indexed": true,
          "internalType": "address",
          "name": "to",
          "type": "address"
        },
        {
          "indexed": true,
          "internalType": "uint256",
          "name": "tokenId",
          "type": "uint256"
        }
      ],
      "name": "Transfer",
      "type": "event"
    },
    {
      "inputs": [
        {
          "internalType": "address",
          "name": "leader",
          "type": "address"
        },
        {
          "internalType": "address",
          "name": "missileMaker",
          "type": "address"
        },
        {
          "internalType": "address",
          "name": "ufoInvasion",
          "type": "address"
        }
      ],
      "name": "_setOwnedContracts",
      "outputs": [],
      "stateMutability": "nonpayable",
      "type": "function"
    },
    {
      "inputs": [
        {
          "internalType": "address",
          "name": "to",
          "type": "address"
        },
        {
          "internalType": "uint256",
          "name": "tokenId",
          "type": "uint256"
        }
      ],
      "name": "approve",
      "outputs": [],
      "stateMutability": "nonpayable",
      "type": "function"
    },
    {
      "inputs": [
        {
          "internalType": "address",
          "name": "owner",
          "type": "address"
        }
      ],
      "name": "balanceOf",
      "outputs": [
        {
          "internalType": "uint256",
          "name": "",
          "type": "uint256"
        }
      ],
      "stateMutability": "view",
      "type": "function"
    },
    {
      "inputs": [],
      "name": "baseTokenURI",
      "outputs": [
        {
          "internalType": "string",
          "name": "",
          "type": "string"
        }
      ],
      "stateMutability": "view",
      "type": "function"
    },
    {
      "inputs": [
        {
          "internalType": "uint256",
          "name": "tokenId",
          "type": "uint256"
        }
      ],
      "name": "existsOrBurned",
      "outputs": [
        {
          "internalType": "bool",
          "name": "",
          "type": "bool"
        }
      ],
      "stateMutability": "view",
      "type": "function"
    },
    {
      "inputs": [
        {
          "internalType": "uint256",
          "name": "tokenId",
          "type": "uint256"
        }
      ],
      "name": "getApproved",
      "outputs": [
        {
          "internalType": "address",
          "name": "",
          "type": "address"
        }
      ],
      "stateMutability": "view",
      "type": "function"
    },
    {
      "inputs": [
        {
          "internalType": "address",
          "name": "owner",
          "type": "address"
        },
        {
          "internalType": "address",
          "name": "operator",
          "type": "address"
        }
      ],
      "name": "isApprovedForAll",
      "outputs": [
        {
          "internalType": "bool",
          "name": "",
          "type": "bool"
        }
      ],
      "stateMutability": "view",
      "type": "function"
    },
    {
      "inputs": [
        {
          "internalType": "uint256",
          "name": "tokenId",
          "type": "uint256"
        }
      ],
      "name": "isBurned",
      "outputs": [
        {
          "internalType": "bool",
          "name": "",
          "type": "bool"
        }
      ],
      "stateMutability": "view",
      "type": "function"
    },
    {
      "inputs": [],
      "name": "name",
      "outputs": [
        {
          "internalType": "string",
          "name": "",
          "type": "string"
        }
      ],
      "stateMutability": "view",
      "type": "function"
    },
    {
      "inputs": [],
      "name": "owner",
      "outputs": [
        {
          "internalType": "address",
          "name": "",
          "type": "address"
        }
      ],
      "stateMutability": "view",
      "type": "function"
    },
    {
      "inputs": [
        {
          "internalType": "uint256",
          "name": "tokenId",
          "type": "uint256"
        }
      ],
      "name": "ownerOf",
      "outputs": [
        {
          "internalType": "address",
          "name": "",
          "type": "address"
        }
      ],
      "stateMutability": "view",
      "type": "function"
    },
    {
      "inputs": [],
      "name": "renounceOwnership",
      "outputs": [],
      "stateMutability": "nonpayable",
      "type": "function"
    },
    {
      "inputs": [
        {
          "internalType": "address",
          "name": "from",
          "type": "address"
        },
        {
          "internalType": "address",
          "name": "to",
          "type": "address"
        },
        {
          "internalType": "uint256",
          "name": "tokenId",
          "type": "uint256"
        }
      ],
      "name": "safeTransferFrom",
      "outputs": [],
      "stateMutability": "nonpayable",
      "type": "function"
    },
    {
      "inputs": [
        {
          "internalType": "address",
          "name": "from",
          "type": "address"
        },
        {
          "internalType": "address",
          "name": "to",
          "type": "address"
        },
        {
          "internalType": "uint256",
          "name": "tokenId",
          "type": "uint256"
        },
        {
          "internalType": "bytes",
          "name": "_data",
          "type": "bytes"
        }
      ],
      "name": "safeTransferFrom",
      "outputs": [],
      "stateMutability": "nonpayable",
      "type": "function"
    },
    {
      "inputs": [
        {
          "internalType": "address",
          "name": "operator",
          "type": "address"
        },
        {
          "internalType": "bool",
          "name": "approved",
          "type": "bool"
        }
      ],
      "name": "setApprovalForAll",
      "outputs": [],
      "stateMutability": "nonpayable",
      "type": "function"
    },
    {
      "inputs": [
        {
          "internalType": "string",
          "name": "_baseTokenURI",
          "type": "string"
        }
      ],
      "name": "setBaseURI",
      "outputs": [],
      "stateMutability": "nonpayable",
      "type": "function"
    },
    {
      "inputs": [
        {
          "internalType": "bytes4",
          "name": "interfaceId",
          "type": "bytes4"
        }
      ],
      "name": "supportsInterface",
      "outputs": [
        {
          "internalType": "bool",
          "name": "",
          "type": "bool"
        }
      ],
      "stateMutability": "view",
      "type": "function"
    },
    {
      "inputs": [],
      "name": "symbol",
      "outputs": [
        {
          "internalType": "string",
          "name": "",
          "type": "string"
        }
      ],
      "stateMutability": "view",
      "type": "function"
    },
    {
      "inputs": [
        {
          "internalType": "uint256",
          "name": "index",
          "type": "uint256"
        }
      ],
      "name": "tokenByIndex",
      "outputs": [
        {
          "internalType": "uint256",
          "name": "",
          "type": "uint256"
        }
      ],
      "stateMutability": "view",
      "type": "function"
    },
    {
      "inputs": [],
      "name": "tokenIdx",
      "outputs": [
        {
          "internalType": "uint256",
          "name": "_value",
          "type": "uint256"
        }
      ],
      "stateMutability": "view",
      "type": "function"
    },
    {
      "inputs": [
        {
          "internalType": "address",
          "name": "owner",
          "type": "address"
        },
        {
          "internalType": "uint256",
          "name": "index",
          "type": "uint256"
        }
      ],
      "name": "tokenOfOwnerByIndex",
      "outputs": [
        {
          "internalType": "uint256",
          "name": "",
          "type": "uint256"
        }
      ],
      "stateMutability": "view",
      "type": "function"
    },
    {
      "inputs": [
        {
          "internalType": "uint256",
          "name": "tokenId",
          "type": "uint256"
        }
      ],
      "name": "tokenURI",
      "outputs": [
        {
          "internalType": "string",
          "name": "",
          "type": "string"
        }
      ],
      "stateMutability": "view",
      "type": "function"
    },
    {
      "inputs": [
        {
          "internalType": "address",
          "name": "_owner",
          "type": "address"
        }
      ],
      "name": "tokensOfOwner",
      "outputs": [
        {
          "internalType": "uint256[]",
          "name": "",
          "type": "uint256[]"
        }
      ],
      "stateMutability": "view",
      "type": "function"
    },
    {
      "inputs": [],
      "name": "totalSupply",
      "outputs": [
        {
          "internalType": "uint256",
          "name": "",
          "type": "uint256"
        }
      ],
      "stateMutability": "view",
      "type": "function"
    },
    {
      "inputs": [
        {
          "internalType": "address",
          "name": "from",
          "type": "address"
        },
        {
          "internalType": "address",
          "name": "to",
          "type": "address"
        },
        {
          "internalType": "uint256",
          "name": "tokenId",
          "type": "uint256"
        }
      ],
      "name": "transferFrom",
      "outputs": [],
      "stateMutability": "nonpayable",
      "type": "function"
    },
    {
      "inputs": [
        {
          "internalType": "address",
          "name": "newOwner",
          "type": "address"
        }
      ],
      "name": "transferOwnership",
      "outputs": [],
      "stateMutability": "nonpayable",
      "type": "function"
    },
    {
      "inputs": [
        {
          "internalType": "uint256",
          "name": "missileId",
          "type": "uint256"
        }
      ],
      "name": "getMissileAttackInfo",
      "outputs": [
        {
          "components": [
            {
              "internalType": "uint16",
              "name": "dmg",
              "type": "uint16"
            },
            {
              "internalType": "uint16",
              "name": "hpBefore",
              "type": "uint16"
            },
            {
              "internalType": "uint16",
              "name": "hpAfter",
              "type": "uint16"
            },
            {
              "internalType": "uint32",
              "name": "missileTxnId",
              "type": "uint32"
            },
            {
              "internalType": "address",
              "name": "attacker",
              "type": "address"
            },
            {
              "internalType": "address",
              "name": "locationAddress",
              "type": "address"
            },
            {
              "internalType": "uint256",
              "name": "missileId",
              "type": "uint256"
            },
            {
              "internalType": "uint256",
              "name": "ufoId",
              "type": "uint256"
            }
          ],
          "internalType": "struct UfoInvasion.MissileAttack",
          "name": "",
          "type": "tuple"
        }
      ],
      "stateMutability": "view",
      "type": "function"
    },
    {
      "inputs": [
        {
          "internalType": "uint256",
          "name": "randVal",
          "type": "uint256"
        },
        {
          "internalType": "uint256[]",
          "name": "missileIds",
          "type": "uint256[]"
        },
        {
          "internalType": "uint256",
          "name": "amountUFOs",
          "type": "uint256"
        }
      ],
      "name": "attackRandomUFOs",
      "outputs": [],
      "stateMutability": "nonpayable",
      "type": "function"
    },
    {
      "inputs": [
        {
          "internalType": "uint256",
          "name": "randVal",
          "type": "uint256"
        }
      ],
      "name": "startNewUfoInvasionGame",
      "outputs": [],
      "stateMutability": "nonpayable",
      "type": "function"
    },
    {
      "inputs": [
        {
          "internalType": "uint256",
          "name": "ufoId",
          "type": "uint256"
        }
      ],
      "name": "ufoIsAlive",
      "outputs": [
        {
          "internalType": "bool",
          "name": "",
          "type": "bool"
        }
      ],
      "stateMutability": "view",
      "type": "function"
    },
    {
      "inputs": [],
      "name": "isGameActive",
      "outputs": [
        {
          "internalType": "bool",
          "name": "",
          "type": "bool"
        }
      ],
      "stateMutability": "view",
      "type": "function"
    },
    {
      "inputs": [
        {
          "internalType": "uint256",
          "name": "gameNum",
          "type": "uint256"
        }
      ],
      "name": "getNumUFOsInGameByGameNum",
      "outputs": [
        {
          "internalType": "uint256",
          "name": "",
          "type": "uint256"
        }
      ],
      "stateMutability": "view",
      "type": "function"
    },
    {
      "inputs": [],
      "name": "getCurGameNumUFOs",
      "outputs": [
        {
          "internalType": "uint256",
          "name": "",
          "type": "uint256"
        }
      ],
      "stateMutability": "view",
      "type": "function"
    },
    {
      "inputs": [
        {
          "internalType": "uint256",
          "name": "ufoIdx",
          "type": "uint256"
        }
      ],
      "name": "getUfoAtIdxInCurrentGame",
      "outputs": [
        {
          "components": [
            {
              "internalType": "uint16",
              "name": "curHp",
              "type": "uint16"
            },
            {
              "internalType": "uint16",
              "name": "startingHp",
              "type": "uint16"
            },
            {
              "internalType": "address",
              "name": "locationAddress",
              "type": "address"
            },
            {
              "internalType": "uint256",
              "name": "ufoId",
              "type": "uint256"
            }
          ],
          "internalType": "struct UfoInvasion.UfoState",
          "name": "",
          "type": "tuple"
        }
      ],
      "stateMutability": "view",
      "type": "function"
    },
    {
      "inputs": [
        {
          "internalType": "uint256",
          "name": "ufoIdx",
          "type": "uint256"
        },
        {
          "internalType": "uint256",
          "name": "gameNum",
          "type": "uint256"
        }
      ],
      "name": "getUfoAtIdxByGameNum",
      "outputs": [
        {
          "components": [
            {
              "internalType": "uint16",
              "name": "curHp",
              "type": "uint16"
            },
            {
              "internalType": "uint16",
              "name": "startingHp",
              "type": "uint16"
            },
            {
              "internalType": "address",
              "name": "locationAddress",
              "type": "address"
            },
            {
              "internalType": "uint256",
              "name": "ufoId",
              "type": "uint256"
            }
          ],
          "internalType": "struct UfoInvasion.UfoState",
          "name": "",
          "type": "tuple"
        }
      ],
      "stateMutability": "view",
      "type": "function"
    },
    {
      "inputs": [],
      "name": "getCurGameNumPlayers",
      "outputs": [
        {
          "internalType": "uint256",
          "name": "",
          "type": "uint256"
        }
      ],
      "stateMutability": "view",
      "type": "function"
    },
    {
      "inputs": [
        {
          "internalType": "uint256",
          "name": "idx",
          "type": "uint256"
        }
      ],
      "name": "getCurGamePlayerAtIdx",
      "outputs": [
        {
          "components": [
            {
              "internalType": "bool",
              "name": "active",
              "type": "bool"
            },
            {
              "internalType": "uint16",
              "name": "nukesUsed",
              "type": "uint16"
            },
            {
              "internalType": "uint64",
              "name": "score",
              "type": "uint64"
            },
            {
              "internalType": "address",
              "name": "playerAddress",
              "type": "address"
            }
          ],
          "internalType": "struct UfoInvasion.CurGameScore",
          "name": "",
          "type": "tuple"
        }
      ],
      "stateMutability": "view",
      "type": "function"
    },
    {
      "inputs": [],
      "name": "getNumLeaderboardPlayers",
      "outputs": [
        {
          "internalType": "uint256",
          "name": "",
          "type": "uint256"
        }
      ],
      "stateMutability": "view",
      "type": "function"
    },
    {
      "inputs": [
        {
          "internalType": "uint256",
          "name": "idx",
          "type": "uint256"
        }
      ],
      "name": "getLeaderboardPlayerAtIdx",
      "outputs": [
        {
          "components": [
            {
              "internalType": "bool",
              "name": "exists",
              "type": "bool"
            },
            {
              "internalType": "uint32",
              "name": "wins",
              "type": "uint32"
            },
            {
              "internalType": "uint32",
              "name": "nukesUsed",
              "type": "uint32"
            },
            {
              "internalType": "uint64",
              "name": "score",
              "type": "uint64"
            },
            {
              "internalType": "address",
              "name": "playerAddress",
              "type": "address"
            }
          ],
          "internalType": "struct UfoInvasion.AllTimeLeaderboard",
          "name": "",
          "type": "tuple"
        }
      ],
      "stateMutability": "view",
      "type": "function"
    },
    {
      "inputs": [],
      "name": "getTotalNumberOfGames",
      "outputs": [
        {
          "internalType": "uint256",
          "name": "",
          "type": "uint256"
        }
      ],
      "stateMutability": "view",
      "type": "function"
    },
    {
      "inputs": [
        {
          "internalType": "uint256",
          "name": "gameNum",
          "type": "uint256"
        }
      ],
      "name": "getGameStatsByGameNum",
      "outputs": [
        {
          "components": [
            {
              "internalType": "bool",
              "name": "isOver",
              "type": "bool"
            },
            {
              "internalType": "uint16",
              "name": "totalUfoHp",
              "type": "uint16"
            },
            {
              "internalType": "uint32",
              "name": "gameNum",
              "type": "uint32"
            },
            {
              "internalType": "address",
              "name": "winner",
              "type": "address"
            },
            {
              "internalType": "uint256",
              "name": "gameStartTimeInSeconds",
              "type": "uint256"
            },
            {
              "internalType": "uint256",
              "name": "elapsedSecs",
              "type": "uint256"
            },
            {
              "internalType": "uint256[]",
              "name": "ufoIds",
              "type": "uint256[]"
            }
          ],
          "internalType": "struct UfoInvasion.GameStats",
          "name": "",
          "type": "tuple"
        }
      ],
      "stateMutability": "view",
      "type": "function"
    },
    {
      "inputs": [],
      "name": "getTotalHpForUFOs",
      "outputs": [
        {
          "internalType": "uint256",
          "name": "",
          "type": "uint256"
        }
      ],
      "stateMutability": "view",
      "type": "function"
    },
    {
      "inputs": [
        {
          "internalType": "bool",
          "name": "to",
          "type": "bool"
        }
      ],
      "name": "setIsGameActive",
      "outputs": [],
      "stateMutability": "nonpayable",
      "type": "function"
    },
    {
      "inputs": [
        {
          "internalType": "uint8",
          "name": "min",
          "type": "uint8"
        },
        {
          "internalType": "uint8",
          "name": "max",
          "type": "uint8"
        }
      ],
      "name": "updateMinMaxUFOs",
      "outputs": [],
      "stateMutability": "nonpayable",
      "type": "function"
    },
    {
      "inputs": [
        {
          "internalType": "uint16",
          "name": "newWantedGameLength",
          "type": "uint16"
        }
      ],
      "name": "updateWantedGameLengthInHours",
      "outputs": [],
      "stateMutability": "nonpayable",
      "type": "function"
    },
    {
      "inputs": [
        {
          "internalType": "uint64",
          "name": "to",
          "type": "uint64"
        }
      ],
      "name": "setGameWinnerTotalScoreMultiplier",
      "outputs": [],
      "stateMutability": "nonpayable",
      "type": "function"
    },
    {
      "inputs": [
        {
          "internalType": "uint64",
          "name": "to",
          "type": "uint64"
        }
      ],
      "name": "setUfoKillDmgScoreMultiplier",
      "outputs": [],
      "stateMutability": "nonpayable",
      "type": "function"
    },
    {
      "inputs": [
        {
          "internalType": "uint16",
          "name": "to",
          "type": "uint16"
        }
      ],
      "name": "setStartGameScoreReward",
      "outputs": [],
      "stateMutability": "nonpayable",
      "type": "function"
    },
    {
      "inputs": [
        {
          "internalType": "uint256",
          "name": "newMax",
          "type": "uint256"
        }
      ],
      "name": "setMaxNumMissilesInOneTxn",
      "outputs": [],
      "stateMutability": "nonpayable",
      "type": "function"
    },
    {
      "inputs": [
        {
          "internalType": "uint256",
          "name": "newMin",
          "type": "uint256"
        }
      ],
      "name": "setMinNumMintedBeforeYouCanAttack",
      "outputs": [],
      "stateMutability": "nonpayable",
      "type": "function"
    }
  ],
  "bytecode": "0x60806040526011805460ff191690556013805463ffffffff199081169091556005601455606460155560188054909116620509c41790556000601955601b80546001600160a01b0319167230000000000000009600000000000000960f07179055601e805461ffff191690553480156200007857600080fd5b50604080518082018252600c81526b2aa3279024b73b30b9b4b7b760a11b60208083019182528351808501909452600384526255464f60e81b90840152815191929183918391620000cc916000916200015d565b508051620000e29060019060208401906200015d565b505050620000ff620000f96200010760201b60201c565b6200010b565b505062000240565b3390565b600b80546001600160a01b038381166001600160a01b0319831681179093556040519116919082907f8be0079c531659141344cd1fd0a4f28419497f9722a3daafe3b4186f6b6457e090600090a35050565b8280546200016b9062000203565b90600052602060002090601f0160209004810192826200018f5760008555620001da565b82601f10620001aa57805160ff1916838001178555620001da565b82800160010185558215620001da579182015b82811115620001da578251825591602001919060010190620001bd565b50620001e8929150620001ec565b5090565b5b80821115620001e85760008155600101620001ed565b600181811c908216806200021857607f821691505b602082108114156200023a57634e487b7160e01b600052602260045260246000fd5b50919050565b61580c80620002506000396000f3fe608060405234801561001057600080fd5b50600436106102565760003560e01c806370a082311161014257806370a082311461049b578063715018a6146104ae5780638462151c146104b657806384e637cb146104d65780638da5cb5b146104f657806395d89b41146104fe578063975b944d14610506578063a22cb46514610519578063a4a2650f1461052c578063b2e02d6714610584578063b88d4fde1461058c578063c263d7d01461059f578063c87b56dd146105ad578063cab27f0c146105c0578063d286b968146105d3578063d53794ef146105db578063d547cfb71461064a578063db44fe0714610652578063dfadeece14610665578063e985e9c514610678578063f2fde38b1461068b578063f47610101461069e578063f98a8e6a146106b1578063fa407920146106c4578063fc9881d1146106d757600080fd5b806301ffc9a71461025b57806306fdde0314610283578063081812fc14610298578063095ea7b3146102c35780630b2e9679146102d85780630c0ef2b0146102eb57806318160ddd146102f65780631bbb62c0146103085780631e9890891461031b57806320f97a3e1461032e57806323b872dd14610336578063285111ed146103495780632ea5f68d146103695780632f745c591461037c57806331750b041461038f57806336416ab01461039b57806342842e0e146103ae578063466ade87146103c157806349699c73146103d45780634f6ccce71461043257806355f804b314610445578063592ca603146104585780636352211e1461046b57806364d081da1461047e5780636fef5cf814610488575b600080fd5b61026e610269366004615061565b6106ea565b60405190151581526020015b60405180910390f35b61028b610715565b60405161027a9190615352565b6102ab6102a6366004615100565b6107a7565b6040516001600160a01b03909116815260200161027a565b6102d66102d136600461501c565b610834565b005b61026e6102e6366004615100565b610945565b60115460ff1661026e565b6008545b60405190815260200161027a565b6102d6610316366004615100565b61095f565b6102d66103293660046150de565b610993565b6021546102fa565b6102d6610344366004614f2c565b6109e4565b61035c610357366004615100565b610a15565b60405161027a919061552c565b6102d661037736600461520c565b610b03565b6102fa61038a36600461501c565b610bd9565b60185461ffff166102fa565b6102d66103a9366004615047565b610c6f565b6102d66103bc366004614f2c565b610caa565b6102d66103cf366004615244565b610cc5565b6103e76103e2366004615100565b610d18565b60405161027a919081511515815260208083015161ffff16908201526040808301516001600160401b0316908201526060918201516001600160a01b03169181019190915260800190565b6102fa610440366004615100565b610ece565b6102d6610453366004615099565b610f6f565b6102d6610466366004615130565b610fb5565b6102ab610479366004615100565b6112f8565b600f546102fa9081565b6102d6610496366004615100565b61136f565b6102fa6104a9366004614e72565b6113a3565b6102d661142a565b6104c96104c4366004614e72565b611465565b60405161027a919061533f565b6104e96104e4366004615100565b611522565b60405161027a91906154c0565b6102ab611533565b61028b611542565b6102d66105143660046150de565b611551565b6102d6610527366004614fe8565b61161a565b61053f61053a3660046151eb565b611625565b60405161027a9190815161ffff9081168252602080840151909116908201526040808301516001600160a01b0316908201526060918201519181019190915260800190565b6102fa61163e565b6102d661059a366004614f6c565b61166e565b60135463ffffffff166102fa565b61028b6105bb366004615100565b6116a6565b61026e6105ce366004615100565b611770565b6102fa61177b565b6105ee6105e9366004615100565b6117be565b6040805182511515815260208084015163ffffffff908116918301919091528383015116918101919091526060808301516001600160401b0316908201526080918201516001600160a01b03169181019190915260a00161027a565b61028b61196a565b61026e610660366004615100565b6119f8565b6102d661067336600461520c565b611a0f565b61026e610686366004614eaa565b611ae5565b6102d6610699366004614e72565b611b13565b61053f6106ac366004615100565b611bb0565b6102d66106bf366004615100565b611bcc565b6102d66106d2366004614ee2565b611d54565b6102fa6106e5366004615100565b611ddc565b60006001600160e01b0319821663780e9d6360e01b148061070f575061070f82611df2565b92915050565b6060600080546107249061568e565b80601f01602080910402602001604051908101604052809291908181526020018280546107509061568e565b801561079d5780601f106107725761010080835404028352916020019161079d565b820191906000526020600020905b81548152906001019060200180831161078057829003601f168201915b5050505050905090565b60006107b282611e42565b6108185760405162461bcd60e51b815260206004820152602c60248201527f4552433732313a20617070726f76656420717565727920666f72206e6f6e657860448201526b34b9ba32b73a103a37b5b2b760a11b60648201526084015b60405180910390fd5b506000908152600460205260409020546001600160a01b031690565b600061083f826112f8565b9050806001600160a01b0316836001600160a01b031614156108ad5760405162461bcd60e51b815260206004820152602160248201527f4552433732313a20617070726f76616c20746f2063757272656e74206f776e656044820152603960f91b606482015260840161080f565b336001600160a01b03821614806108c957506108c98133611ae5565b6109365760405162461bcd60e51b815260206004820152603860248201527f4552433732313a20617070726f76652063616c6c6572206973206e6f74206f776044820152771b995c881b9bdc88185c1c1c9bdd995908199bdc88185b1b60421b606482015260840161080f565b6109408383611e5f565b505050565b60008181526016602052604081205461ffff16151561070f565b33610968611533565b6001600160a01b03161461098e5760405162461bcd60e51b815260040161080f90615403565b601555565b3361099c611533565b6001600160a01b0316146109c25760405162461bcd60e51b815260040161080f90615403565b601b805461ffff909216600160901b0261ffff60901b19909216919091179055565b6109ee3382611ecd565b610a0a5760405162461bcd60e51b815260040161080f90615438565b610940838383611f97565b6040805161010081018252600080825260208201819052918101829052606081018290526080810182905260a0810182905260c0810182905260e081019190915260008281526025602052604090205461ffff16610a7257600080fd5b50600090815260256020908152604091829020825161010081018452815461ffff8082168352620100008204811694830194909452600160201b810490931693810193909352600160301b820463ffffffff166060840152600160501b9091046001600160a01b03908116608084015260018201541660a0830152600281015460c08301526003015460e082015290565b33610b0c611533565b6001600160a01b031614610b325760405162461bcd60e51b815260040161080f90615403565b6064816001600160401b03161015610bae5760405162461bcd60e51b815260206004820152603960248201527f67616d652077696e6e65722073636f7265206d756c7469706c696572206d757360448201527874206265206174206c6561737420313030202831353078292160381b606482015260840161080f565b601b80546001600160401b03909216620100000269ffffffffffffffff000019909216919091179055565b6000610be4836113a3565b8210610c465760405162461bcd60e51b815260206004820152602b60248201527f455243373231456e756d657261626c653a206f776e657220696e646578206f7560448201526a74206f6620626f756e647360a81b606482015260840161080f565b506001600160a01b03919091166000908152600660209081526040808320938352929052205490565b33610c78611533565b6001600160a01b031614610c9e5760405162461bcd60e51b815260040161080f90615403565b610ca78161212c565b50565b6109408383836040518060200160405280600081525061166e565b33610cce611533565b6001600160a01b031614610cf45760405162461bcd60e51b815260040161080f90615403565b601b805460ff9283166101000261ffff199091169290931691909117919091179055565b60408051608081018252600080825260208201819052918101829052606081019190915260115460ff16610d5e5760405162461bcd60e51b815260040161080f90615489565b6020548210610d7f5760405162461bcd60e51b815260040161080f906153b7565b601f600060208481548110610da457634e487b7160e01b600052603260045260246000fd5b60009182526020808320909101546001600160a01b0316835282019290925260400190205460ff16610e315760405162461bcd60e51b815260206004820152603060248201527f7468697320706c6179657220686173206e6f742079657420706c61796564207460448201526f68652063757272656e742067616d652160801b606482015260840161080f565b601f600060208481548110610e5657634e487b7160e01b600052603260045260246000fd5b60009182526020808320909101546001600160a01b0390811684528382019490945260409283019091208251608081018452905460ff81161515825261ffff610100820416928201929092526001600160401b03630100000083041692810192909252600160581b9004909116606082015292915050565b6000610ed960085490565b8210610f3c5760405162461bcd60e51b815260206004820152602c60248201527f455243373231456e756d657261626c653a20676c6f62616c20696e646578206f60448201526b7574206f6620626f756e647360a01b606482015260840161080f565b60088281548110610f5d57634e487b7160e01b600052603260045260246000fd5b90600052602060002001549050919050565b33610f78611533565b6001600160a01b031614610f9e5760405162461bcd60e51b815260040161080f90615403565b8051610fb1906010906020840190614ca9565b5050565b601354610fcf908490429063ffffffff9081169061213f16565b9250601554600c60000160009054906101000a90046001600160a01b03166001600160a01b03166318160ddd6040518163ffffffff1660e01b815260040160206040518083038186803b15801561102557600080fd5b505afa158015611039573d6000803e3d6000fd5b505050506040513d601f19601f8201168201806040525081019061105d9190615118565b116110bb5760405162461bcd60e51b815260206004820152602860248201527f6e6f7420656e6f75676820776f726c64206c6561646572204e465473206d696e604482015267746564207965742160c01b606482015260840161080f565b60115460ff166111075760405162461bcd60e51b81526020600482015260176024820152767468652067616d65206973206e6f74206163746976652160481b604482015260640161080f565b60145482511061111657600080fd5b60135463ffffffff9081166000908152601760205260409020600101546111409142919061218916565b6013805463ffffffff908116600090815260176020526040808220600201949094559154168152908120600301546111a0908590841161118057836121a4565b60135463ffffffff166000908152601760205260409020600301546121a4565b905060005b83518110156112bc5760006111b9836124b0565b9050825181146111d0576111cd818461252d565b92505b82516111dc57506112bc565b6111e682876155de565b955060008361120b855161120542878c61213f9092919063ffffffff16565b90612629565b8151811061122957634e487b7160e01b600052603260045260246000fd5b6020026020010151905061123c81610945565b6112475750506112aa565b600261127b3388868151811061126d57634e487b7160e01b600052603260045260246000fd5b602002602001015184612649565b600281111561129a57634e487b7160e01b600052602160045260246000fd5b14156112a75750506112bc565b50505b806112b4816156eb565b9150506111a5565b506024805463ffffffff169060006112d383615706565b91906101000a81548163ffffffff021916908363ffffffff1602179055505050505050565b6000818152600260205260408120546001600160a01b03168061070f5760405162461bcd60e51b815260206004820152602960248201527f4552433732313a206f776e657220717565727920666f72206e6f6e657869737460448201526832b73a103a37b5b2b760b91b606482015260840161080f565b33611378611533565b6001600160a01b03161461139e5760405162461bcd60e51b815260040161080f90615403565b601455565b60006001600160a01b03821661140e5760405162461bcd60e51b815260206004820152602a60248201527f4552433732313a2062616c616e636520717565727920666f7220746865207a65604482015269726f206164647265737360b01b606482015260840161080f565b506001600160a01b031660009081526003602052604090205490565b33611433611533565b6001600160a01b0316146114595760405162461bcd60e51b815260040161080f90615403565b6114636000612cce565b565b60606000611472836113a3565b90506000816001600160401b0381111561149c57634e487b7160e01b600052604160045260246000fd5b6040519080825280602002602001820160405280156114c5578160200160208202803683370190505b50905060005b8281101561151a576114dd8582610bd9565b8282815181106114fd57634e487b7160e01b600052603260045260246000fd5b602090810291909101015280611512816156eb565b9150506114cb565b509392505050565b61152a614d2d565b61070f82612d20565b600b546001600160a01b031690565b6060600180546107249061568e565b3361155a611533565b6001600160a01b0316146115805760405162461bcd60e51b815260040161080f90615403565b60648161ffff16106115fa5760405162461bcd60e51b815260206004820152603f60248201527f73746172742067616d652073636f726520726577617264206d7573742062652060448201527f6c657373207468616e2031303020626563617573652069742773206120252100606482015260840161080f565b6018805461ffff909216620100000263ffff000019909216919091179055565b610fb1338383612e79565b61162d614d7f565b6116378383612f44565b9392505050565b60115460009060ff166116635760405162461bcd60e51b815260040161080f90615489565b50601e5461ffff1690565b6116783383611ecd565b6116945760405162461bcd60e51b815260040161080f90615438565b6116a0848484846130f3565b50505050565b60606116b182611e42565b6117155760405162461bcd60e51b815260206004820152602f60248201527f4552433732314d657461646174613a2055524920717565727920666f72206e6f60448201526e3732bc34b9ba32b73a103a37b5b2b760891b606482015260840161080f565b600061171f613126565b9050600081511161173f5760405180602001604052806000815250611637565b8061174984613135565b60405160200161175a9291906152d3565b6040516020818303038152906040529392505050565b600061070f8261324e565b60115460009060ff16158015611797575060135463ffffffff16155b156117a25750600090565b6013546117b49063ffffffff16612d20565b60c0015151905090565b6040805160a081018252600080825260208201819052918101829052606081018290526080810191909152602354821061180a5760405162461bcd60e51b815260040161080f906153b7565b602260006023848154811061182f57634e487b7160e01b600052603260045260246000fd5b60009182526020808320909101546001600160a01b0316835282019290925260400190205460ff166118bb5760405162461bcd60e51b815260206004820152602f60248201527f7468697320706c6179657220686173206e657665722073636f72656420616e7960448201526e20706f696e7473206265666f72652160881b606482015260840161080f565b60226000602384815481106118e057634e487b7160e01b600052603260045260246000fd5b6000918252602080832091909101546001600160a01b039081168452838201949094526040928301909120825160a081018452815460ff811615158252610100810463ffffffff90811694830194909452600160281b810490931693810193909352600160481b9091046001600160401b0316606083015260010154909116608082015292915050565b601080546119779061568e565b80601f01602080910402602001604051908101604052809291908181526020018280546119a39061568e565b80156119f05780601f106119c5576101008083540402835291602001916119f0565b820191906000526020600020905b8154815290600101906020018083116119d357829003601f168201915b505050505081565b6000818152600a602052604081205460ff1661070f565b33611a18611533565b6001600160a01b031614611a3e5760405162461bcd60e51b815260040161080f90615403565b6064816001600160401b03161015611ab85760405162461bcd60e51b815260206004820152603760248201527f75666f206b696c6c2064616d616765206d756c7469706c696572206d757374206044820152766265206174206c6561737420313030202831353078292160481b606482015260840161080f565b601b80546001600160401b03909216600160501b0267ffffffffffffffff60501b19909216919091179055565b6001600160a01b03918216600090815260056020908152604080832093909416825291909152205460ff1690565b33611b1c611533565b6001600160a01b031614611b425760405162461bcd60e51b815260040161080f90615403565b6001600160a01b038116611ba75760405162461bcd60e51b815260206004820152602660248201527f4f776e61626c653a206e6577206f776e657220697320746865207a65726f206160448201526564647265737360d01b606482015260840161080f565b610ca781612cce565b611bb8614d7f565b60135461070f90839063ffffffff16612f44565b611bd78160016155de565b601354909150611bf4908290429063ffffffff9081169061213f16565b60115490915060ff1615611c0757600080fd5b611c11600161212c565b60195415801590611c235750601a5415155b15611cce57601954601a54601b54601854611c4e93929161ffff600160901b9091048116911661326f565b6018805461ffff191661ffff9290921691909117905560005b601e5461ffff16811015611cc15760208181548110611c9657634e487b7160e01b600052603260045260246000fd5b600091825260209091200180546001600160a01b031916905580611cb9816156eb565b915050611c67565b50601e805461ffff191690555b611cd781613303565b601854611cfe90606490611cf89061ffff8082169162010000900416613651565b9061365d565b336000908152601f602052604090208054600390611d2d908490630100000090046001600160401b03166155f6565b92506101000a8154816001600160401b0302191690836001600160401b0316021790555050565b33611d5d611533565b6001600160a01b031614611d835760405162461bcd60e51b815260040161080f90615403565b604080516060810182526001600160a01b0394851680825293851660208201819052929094169301839052600c80546001600160a01b03199081169093179055600d805483169091179055600e80549091169091179055565b6000611de782612d20565b60c001515192915050565b60006001600160e01b031982166380ac58cd60e01b1480611e2357506001600160e01b03198216635b5e139f60e01b145b8061070f57506301ffc9a760e01b6001600160e01b031983161461070f565b6000908152600260205260409020546001600160a01b0316151590565b600081815260046020526040902080546001600160a01b0319166001600160a01b0384169081179091558190611e94826112f8565b6001600160a01b03167f8c5be1e5ebec7d5bd14f71427d1e84f3dd0314c0f7b2291e5b200ac8c7c3b92560405160405180910390a45050565b6000611ed882611e42565b611f395760405162461bcd60e51b815260206004820152602c60248201527f4552433732313a206f70657261746f7220717565727920666f72206e6f6e657860448201526b34b9ba32b73a103a37b5b2b760a11b606482015260840161080f565b6000611f44836112f8565b9050806001600160a01b0316846001600160a01b03161480611f7f5750836001600160a01b0316611f74846107a7565b6001600160a01b0316145b80611f8f5750611f8f8185611ae5565b949350505050565b826001600160a01b0316611faa826112f8565b6001600160a01b03161461200e5760405162461bcd60e51b815260206004820152602560248201527f4552433732313a207472616e736665722066726f6d20696e636f72726563742060448201526437bbb732b960d91b606482015260840161080f565b6001600160a01b0382166120705760405162461bcd60e51b8152602060048201526024808201527f4552433732313a207472616e7366657220746f20746865207a65726f206164646044820152637265737360e01b606482015260840161080f565b61207b838383613669565b612086600082611e5f565b6001600160a01b03831660009081526003602052604081208054600192906120af90849061564b565b90915550506001600160a01b03821660009081526003602052604081208054600192906120dd9084906155de565b909155505060008181526002602052604080822080546001600160a01b0319166001600160a01b0386811691821790925591518493918716916000805160206157b783398151915291a4505050565b6011805460ff1916911515919091179055565b600082612157612150846001613721565b8690613721565b60408051602081019390935282015260600160408051601f198184030181529190528051602090910120949350505050565b600082821061219a5750600061070f565b611637838361372d565b60606000805b60135463ffffffff166000908152601760205260409020600301548110156122505760135463ffffffff166000908152601760205260408120600301805460169291908490811061220b57634e487b7160e01b600052603260045260246000fd5b6000918252602080832090910154835282019290925260400190205461ffff161561223e578161223a816156eb565b9250505b80612248816156eb565b9150506121aa565b506000816001600160401b0381111561227957634e487b7160e01b600052604160045260246000fd5b6040519080825280602002602001820160405280156122a2578160200160208202803683370190505b5090506000805b60135463ffffffff166000908152601760205260409020600301548110156123bf5760135463ffffffff166000908152601760205260408120600301805460169291908490811061230a57634e487b7160e01b600052603260045260246000fd5b6000918252602080832090910154835282019290925260400190205461ffff16156123ad5760135463ffffffff16600090815260176020526040902060030180548290811061236957634e487b7160e01b600052603260045260246000fd5b906000526020600020015483838151811061239457634e487b7160e01b600052603260045260246000fd5b6020908102919091010152816123a9816156eb565b9250505b806123b7816156eb565b9150506122a9565b506123cb864284613739565b915060008386116123dc57856123de565b835b90506000816001600160401b0381111561240857634e487b7160e01b600052604160045260246000fd5b604051908082528060200260200182016040528015612431578160200160208202803683370190505b50905060005b828110156124a45784818151811061245f57634e487b7160e01b600052603260045260246000fd5b602002602001015182828151811061248757634e487b7160e01b600052603260045260246000fd5b60209081029190910101528061249c816156eb565b915050612437565b50979650505050505050565b60008151600014156124c457506000919050565b6000805b8351811015612526576125018482815181106124f457634e487b7160e01b600052603260045260246000fd5b6020026020010151610945565b156125145781612510816156eb565b9250505b8061251e816156eb565b9150506124c8565b5092915050565b60606000836001600160401b0381111561255757634e487b7160e01b600052604160045260246000fd5b604051908082528060200260200182016040528015612580578160200160208202803683370190505b5090506000805b845181101561261f576125b38582815181106124f457634e487b7160e01b600052603260045260246000fd5b1561260d578481815181106125d857634e487b7160e01b600052603260045260246000fd5b602002602001015183838151811061260057634e487b7160e01b600052603260045260246000fd5b6020026020010181815250505b80612617816156eb565b915050612587565b5090949350505050565b6000806000831161263b57600161263d565b825b9050611f8f8482613870565b600061265482611e42565b6126a05760405162461bcd60e51b815260206004820152601f60248201527f746869732063616e6e6f742062652061747461636b656420616e796d6f726500604482015260640161080f565b600d54604051631f4139fb60e01b81526001600160a01b038681166004830152602482018690526000921690631f4139fb90604401602060405180830381600087803b1580156126ef57600080fd5b505af1158015612703573d6000803e3d6000fd5b505050506040513d601f19601f820116820180604052508101906127279190615228565b9050612733858261387c565b60008381526016602052604090205461ffff16612759816001600160401b038416612189565b6000858152601660209081526040808320805461ffff191661ffff95909516949094179093556001600160a01b0389168252601f90522080548391906003906127b3908490630100000090046001600160401b03166155f6565b82546101009290920a6001600160401b038181021990931691831602179091556001600160a01b038816600090815260226020526040902080548593509091600991612808918591600160481b9004166155f6565b82546001600160401b039182166101009390930a9283029190920219909116179055506024546040805163ffffffff9092168252602082018790526001600160a01b038816908201527f750644da1b729b7a07f23847de1533c6c6a02dd55cabefb3636edfda999680139060600160405180910390a1604080516101008101825261ffff80851682528381166020808401919091526000888152601690915283902054169181019190915260245463ffffffff1660608201526001600160a01b038716608082015260a081016128dd866112f8565b6001600160a01b0390811682526020808301899052604092830188905260008981526025825283812085518154878501518888015160608a015160808b015161ffff95861663ffffffff199095169490941762010000938616939093029290921765ffffffffffff60201b1916600160201b9185169190910263ffffffff60301b191617600160301b63ffffffff9092169190910217600160501b600160f01b031916600160501b9187169190910217825560a08701516001830180546001600160a01b031916919096161790945560c0860151600282015560e0909501516003909501949094558784526016905291205416612cc257601b54612a07906001600160401b0380851691612a0191606491611cf8918591600160501b900416613651565b90612189565b6001600160a01b0387166000908152601f6020526040902080549193508391600390612a44908490630100000090046001600160401b03166155f6565b82546101009290920a6001600160401b038181021990931691831602179091556001600160a01b038816600090815260226020526040902080548593509091600991612a99918591600160481b9004166155f6565b92506101000a8154816001600160401b0302191690836001600160401b03160217905550612ac684613d43565b612ace613d65565b15612cb757612adb613e4f565b60135463ffffffff908116600090815260176020908152604080832080546001600160a01b03968716600160381b02600160381b600160d81b0319909116179055938a168252601f90529190912054601b54612b5f926001600160401b036301000000909304831692612a0192606492611cf8928692620100009004169061365116565b60135463ffffffff16600090815260176020908152604080832054600160381b90046001600160a01b03168352601f909152902080549193508391600390612bb8908490630100000090046001600160401b03166155f6565b82546101009290920a6001600160401b0381810219909316918316021790915560135463ffffffff16600090815260176020908152604080832054600160381b90046001600160a01b031683526022909152902080548593509091600991612c29918591600160481b9004166155f6565b82546001600160401b039182166101009390930a9283029190920219909116179055506013805463ffffffff908116600090815260176020908152604091829020805460ff1916600117905542601a5592549051911681527f3496ed15a97ad1d154265bf94e0068b3b45bed65b26cb72ecc4e1b8a44d9b3d7910160405180910390a1600292505050611637565b600192505050611637565b50600095945050505050565b600b80546001600160a01b038381166001600160a01b0319831681179093556040519116919082907f8be0079c531659141344cd1fd0a4f28419497f9722a3daafe3b4186f6b6457e090600090a35050565b612d28614d2d565b60135463ffffffff168210612d905760405162461bcd60e51b815260206004820152602860248201527f74686572652068617665206e6f74206265656e2074686174206d616e792067616044820152676d6573207965742160c01b606482015260840161080f565b6000828152601760209081526040808320815160e081018352815460ff811615158252610100810461ffff16828601526301000000810463ffffffff1682850152600160381b90046001600160a01b0316606082015260018201546080820152600282015460a08201526003820180548451818702810187019095528085529194929360c0860193909290830182828015612e4a57602002820191906000526020600020905b815481526020019060010190808311612e36575b5050505050815250509050806000015161070f576080810151612e6e90429061372d565b60a082015292915050565b816001600160a01b0316836001600160a01b03161415612ed75760405162461bcd60e51b815260206004820152601960248201527822a9219b99189d1030b8383937bb32903a379031b0b63632b960391b604482015260640161080f565b6001600160a01b03838116600081815260056020908152604080832094871680845294825291829020805460ff191686151590811790915591519182527f17307eab39ab6107e8899845ad3d59bd9653f200f220920489ca2b5937696c31910160405180910390a3505050565b612f4c614d7f565b6000612f5783612d20565b90508060c00151518410612fc75760405162461bcd60e51b815260206004820152603160248201527f746865726520617265206e6f742074686174206d616e792075666f7320696e206044820152707468652063757272656e742067616d652160781b606482015260840161080f565b612ffb8160c001518581518110612fee57634e487b7160e01b600052603260045260246000fd5b602002602001015161324e565b6130475760405162461bcd60e51b815260206004820152601e60248201527f75666f206174207468697320696420646f6573206e6f74206578697374210000604482015260640161080f565b6000601660008360c00151878151811061307157634e487b7160e01b600052603260045260246000fd5b60209081029190910181015182528181019290925260409081016000208151608081018352815461ffff80821683526201000082041694820194909452600160201b9093046001600160a01b03169183019190915260010154606082018190529091506130dd906112f8565b6001600160a01b03166040820152949350505050565b6130fe848484611f97565b61310a84848484613fe3565b6116a05760405162461bcd60e51b815260040161080f90615365565b6060601080546107249061568e565b6060816131595750506040805180820190915260018152600360fc1b602082015290565b8160005b8115613183578061316d816156eb565b915061317c9050600a83615618565b915061315d565b6000816001600160401b038111156131ab57634e487b7160e01b600052604160045260246000fd5b6040519080825280601f01601f1916602001820160405280156131d5576020820181803683370190505b5090505b8415611f8f576131ea60018361564b565b91506131f7600a86615720565b6132029060306155de565b60f81b81838151811061322557634e487b7160e01b600052603260045260246000fd5b60200101906001600160f81b031916908160001a905350613247600a86615618565b94506131d9565b6000818152600a602052604081205460ff168061070f575061070f82611e42565b600080613283603c611cf88181898b61372d565b61ffff16905060008482116132a15761329c858361372d565b6132ab565b6132ab828661372d565b905060006132d26132c187611cf8856064613651565b6132cc87606461365d565b90613651565b905060008684116132ec576132e78683613721565b6132f6565b6132f6868361372d565b9998505050505050505050565b601b5460009061335c9060ff8082169161335691613327916101009004168361372d565b604080514260208083019190915281830189905282518083038401815260609092019092528051910120611205565b90613721565b90506000613372838361336d6140ed565b614501565b805160185491925060009161338f91429187919061ffff16614601565b9050600082516001600160401b038111156133ba57634e487b7160e01b600052604160045260246000fd5b6040519080825280602002602001820160405280156133e3578160200160208202803683370190505b50905060005b835181101561355f57600084828151811061341457634e487b7160e01b600052603260045260246000fd5b602002602001015190506000613429826147aa565b60008181526012602052604090208490558451909150819085908590811061346157634e487b7160e01b600052603260045260246000fd5b602002602001018181525050604051806080016040528086858151811061349857634e487b7160e01b600052603260045260246000fd5b602002602001015161ffff1681526020018685815181106134c957634e487b7160e01b600052603260045260246000fd5b60209081029190910181015161ffff90811683526001600160a01b0395861683830152604092830185905260009485526016825293829020835181549285015193850151909616600160201b02600160201b600160c01b0319938616620100000263ffffffff19909316969095169590951717169190911782556060015160019091015580613557816156eb565b9150506133e9565b506040805160e081018252600080825260185461ffff908116602080850191825260135463ffffffff9081168688018181526060880187815260195460808a0190815260a08a0189815260c08b018d8152948a52601787529a909820895181549751935192516001600160a01b0316600160381b02600160381b600160d81b031993909616630100000002929092166301000000600160d81b0319939098166101000262ffff00199215159290921662ffffff199097169690961717169490941717825592516001820155935160028501555180519293926136479260038501920190614da6565b5050505050505050565b6000611637828461562c565b60006116378284615618565b6001600160a01b0383166136c4576136bf81600880546000838152600960205260408120829055600182018355919091527ff3f7a9fe364faab93b216da50a3214154f22a0a2b415b23a84c8169e8b636ee30155565b6136e7565b816001600160a01b0316836001600160a01b0316146136e7576136e783826147d0565b6001600160a01b0382166136fe576109408161486d565b826001600160a01b0316826001600160a01b031614610940576109408282614946565b600061163782846155de565b6000611637828461564b565b606060005b82518110156138675760006137a361379c61376384875161372d90919063ffffffff16565b60408051602081018b90529081018990526060810186905260800160408051601f19818403018152919052805160209091012090613870565b8390613721565b905060008482815181106137c757634e487b7160e01b600052603260045260246000fd5b602002602001015190508483815181106137f157634e487b7160e01b600052603260045260246000fd5b602002602001015185838151811061381957634e487b7160e01b600052603260045260246000fd5b6020026020010181815250508085848151811061384657634e487b7160e01b600052603260045260246000fd5b6020026020010181815250505050808061385f906156eb565b91505061373e565b50909392505050565b60006116378284615720565b6001600160a01b0382166000908152601f602052604090205460ff16613a325760408051608081018252600180825260208083019182526001600160401b038581168486019081526001600160a01b03888116606087018181526000918252601f86529790209551865495519251975162ffffff1990961690151562ffff0019161761010061ffff93841602176301000000600160f81b03191663010000009790931696909602600160581b600160f81b03191691909117600160581b9390951692909202939093179091559054601e54909116106139a557602080546001810182556000919091527fc97bfaf2f8ee708c303a06d134f5ecd8389ae0432af62dc132a24118292866bb0180546001600160a01b0319166001600160a01b0384161790556139fe565b601e5460208054849261ffff169081106139cf57634e487b7160e01b600052603260045260246000fd5b9060005260206000200160006101000a8154816001600160a01b0302191690836001600160a01b031602179055505b601e805461ffff16906000613a12836156c9565b91906101000a81548161ffff021916908361ffff16021790555050613ad8565b6001600160a01b0382166000908152601f602052604090208054829190600390613a6d908490630100000090046001600160401b03166155f6565b82546001600160401b0391821661010093840a90810292021916179091556001600160a01b0384166000908152601f60205260409020805461ffff9290049190911691506001613abc836156c9565b91906101000a81548161ffff021916908361ffff160217905550505b6001600160a01b03821660009081526022602052604090205460ff16613c8e576040805160a0810182526001808252600060208084018281528486018481526001600160401b03888116606088019081526001600160a01b038b811660808a018181529088526022909652989095209651875493519251955164ffffffffff1990941690151564ffffffff0019161761010063ffffffff9384160217600160281b600160881b031916600160281b929095169190910267ffffffffffffffff60481b191693909317600160481b919093160291909117835551910180546001600160a01b031916919092161790556023546021541415613c2257602380546001810182556000919091527fd57b2b5166478fd4318d2acc6cc2c704584312bdd8781b32d5d06abda57f42300180546001600160a01b0319166001600160a01b038416179055613c75565b81602360215481548110613c4657634e487b7160e01b600052603260045260246000fd5b9060005260206000200160006101000a8154816001600160a01b0302191690836001600160a01b031602179055505b60218054906000613c85836156eb565b91905055505050565b6001600160a01b03821660009081526022602052604090208054829190600990613cc9908490600160481b90046001600160401b03166155f6565b82546001600160401b039182166101009390930a9283029190920219909116179055506001600160a01b0382166000908152602260205260409020805463ffffffff600160281b90910416906005613d2083615706565b91906101000a81548163ffffffff021916908363ffffffff160217905550505050565b6000818152600a60205260409020805460ff19166001179055610ca78161498a565b6000805b60135463ffffffff16600090815260176020526040902060030154811015613e095760135463ffffffff1660009081526017602052604081206003018054601692919084908110613dca57634e487b7160e01b600052603260045260246000fd5b6000918252602080832090910154835282019290925260400190205461ffff1615613df757600091505090565b80613e01816156eb565b915050613d69565b506013805463ffffffff16906000613e2083615706565b91906101000a81548163ffffffff021916908363ffffffff16021790555050613e49600061212c565b50600190565b60008080805b601e5461ffff16811015613f8a57600060208281548110613e8657634e487b7160e01b600052603260045260246000fd5b60009182526020808320909101546001600160a01b03908116808452601f83526040938490208451608081018652905460ff81161515825261ffff610100820416948201949094526001600160401b036301000000850416948101859052600160581b9093049091166060830152925090841080613f5357508381604001516001600160401b0316148015613f5357506001600160a01b038086166000908152602260205260408082205492851682529020546001600160401b03600160481b9283900481169290910416115b80613f5c575083155b15613f755780604001516001600160401b031693508194505b50508080613f82906156eb565b915050613e55565b506001600160a01b03821660009081526022602052604090208054610100900463ffffffff16906001613fbc83615706565b91906101000a81548163ffffffff021916908363ffffffff16021790555050819250505090565b60006001600160a01b0384163b156140e557604051630a85bd0160e11b81526001600160a01b0385169063150b7a0290614027903390899088908890600401615302565b602060405180830381600087803b15801561404157600080fd5b505af1925050508015614071575060408051601f3d908101601f1916820190925261406e9181019061507d565b60015b6140cb573d80801561409f576040519150601f19603f3d011682016040523d82523d6000602084013e6140a4565b606091505b5080516140c35760405162461bcd60e51b815260040161080f90615365565b805181602001fd5b6001600160e01b031916630a85bd0160e11b149050611f8f565b506001611f8f565b600c54604080516318160ddd60e01b815290516060926000926001600160a01b0390911691839183916318160ddd91600480820192602092909190829003018186803b15801561413c57600080fd5b505afa158015614150573d6000803e3d6000fd5b505050506040513d601f19601f820116820180604052508101906141749190615118565b905060005b8181101561439657604051634f6ccce760e01b8152600481018290526000906001600160a01b03851690634f6ccce79060240160206040518083038186803b1580156141c457600080fd5b505afa1580156141d8573d6000803e3d6000fd5b505050506040513d601f19601f820116820180604052508101906141fc9190615118565b6040516331a9108f60e11b8152600481018290529091506000906001600160a01b03861690636352211e9060240160206040518083038186803b15801561424257600080fd5b505afa158015614256573d6000803e3d6000fd5b505050506040513d601f19601f8201168201806040525081019061427a9190614e8e565b6001600160a01b0381166000908152601c602052604090205490915060ff16156142a5575050614384565b856142af816156eb565b6001600160a01b0383166000908152601c60205260409020805460ff19166001179055601d549097508410905061433057601d80546001810182556000919091527f6d4407e7be21f808e6509aa9fa9143369579dd7d760fe20a2c09680fc146134f0180546001600160a01b0319166001600160a01b038316179055614381565b80601d848154811061435257634e487b7160e01b600052603260045260246000fd5b9060005260206000200160006101000a8154816001600160a01b0302191690836001600160a01b031602179055505b50505b8061438e816156eb565b915050614179565b506000836001600160401b038111156143bf57634e487b7160e01b600052604160045260246000fd5b6040519080825280602002602001820160405280156143e8578160200160208202803683370190505b50905060005b8481101561447f57601d818154811061441757634e487b7160e01b600052603260045260246000fd5b9060005260206000200160009054906101000a90046001600160a01b031682828151811061445557634e487b7160e01b600052603260045260246000fd5b6001600160a01b039092166020928302919091019091015280614477816156eb565b9150506143ee565b5060005b848110156144f8576000601c6000601d84815481106144b257634e487b7160e01b600052603260045260246000fd5b6000918252602080832091909101546001600160a01b031683528201929092526040019020805460ff1916911515919091179055806144f0816156eb565b915050614483565b50949350505050565b606061450e844284614a1f565b9150600083835111156145215783614524565b82515b90506000816001600160401b0381111561454e57634e487b7160e01b600052604160045260246000fd5b604051908082528060200260200182016040528015614577578160200160208202803683370190505b50905060005b828110156145f7578481815181106145a557634e487b7160e01b600052603260045260246000fd5b60200260200101518282815181106145cd57634e487b7160e01b600052603260045260246000fd5b6001600160a01b0390921660209283029190910190910152806145ef816156eb565b91505061457d565b5095945050505050565b6060600080600080866001600160401b0381111561462f57634e487b7160e01b600052604160045260246000fd5b604051908082528060200260200182016040528015614658578160200160208202803683370190505b50905060005b8781101561479d5761467160018961564b565b8114156146b4578682828151811061469957634e487b7160e01b600052603260045260246000fd5b602002602001019061ffff16908161ffff168152505061479d565b6146cc6146c1898361372d565b61ffff89169061365d565b94506146e36146dc86600a61365d565b8690612189565b93506146f361215086600a61365d565b925061471184613356614706868361372d565b6112058d8f8761213f565b82828151811061473157634e487b7160e01b600052603260045260246000fd5b602002602001019061ffff16908161ffff168152505061478982828151811061476a57634e487b7160e01b600052603260045260246000fd5b602002602001015161ffff168861ffff1661218990919063ffffffff16565b965080614795816156eb565b91505061465e565b5098975050505050505050565b6000806147b6600f5490565b90506147c28382614b35565b61070f600f80546001019055565b600060016147dd846113a3565b6147e7919061564b565b60008381526007602052604090205490915080821461483a576001600160a01b03841660009081526006602090815260408083208584528252808320548484528184208190558352600790915290208190555b5060009182526007602090815260408084208490556001600160a01b039094168352600681528383209183525290812055565b60085460009061487f9060019061564b565b600083815260096020526040812054600880549394509092849081106148b557634e487b7160e01b600052603260045260246000fd5b9060005260206000200154905080600883815481106148e457634e487b7160e01b600052603260045260246000fd5b600091825260208083209091019290925582815260099091526040808220849055858252812055600880548061492a57634e487b7160e01b600052603160045260246000fd5b6001900381819060005260206000200160009055905550505050565b6000614951836113a3565b6001600160a01b039093166000908152600660209081526040808320868452825280832085905593825260079052919091209190915550565b6000614995826112f8565b90506149a381600084613669565b6149ae600083611e5f565b6001600160a01b03811660009081526003602052604081208054600192906149d790849061564b565b909155505060008281526002602052604080822080546001600160a01b0319169055518391906001600160a01b038416906000805160206157b7833981519152908390a45050565b606060005b8251811015613867576000614a4961379c61376384875161372d90919063ffffffff16565b90506000848281518110614a6d57634e487b7160e01b600052603260045260246000fd5b60200260200101519050848381518110614a9757634e487b7160e01b600052603260045260246000fd5b6020026020010151858381518110614abf57634e487b7160e01b600052603260045260246000fd5b60200260200101906001600160a01b031690816001600160a01b03168152505080858481518110614b0057634e487b7160e01b600052603260045260246000fd5b60200260200101906001600160a01b031690816001600160a01b03168152505050508080614b2d906156eb565b915050614a24565b610fb1828260405180602001604052806000815250614b548383614b7d565b614b616000848484613fe3565b6109405760405162461bcd60e51b815260040161080f90615365565b6001600160a01b038216614bd35760405162461bcd60e51b815260206004820181905260248201527f4552433732313a206d696e7420746f20746865207a65726f2061646472657373604482015260640161080f565b614bdc81611e42565b15614c285760405162461bcd60e51b815260206004820152601c60248201527b115490cdcc8c4e881d1bdad95b88185b1c9958591e481b5a5b9d195960221b604482015260640161080f565b614c3460008383613669565b6001600160a01b0382166000908152600360205260408120805460019290614c5d9084906155de565b909155505060008181526002602052604080822080546001600160a01b0319166001600160a01b03861690811790915590518392906000805160206157b7833981519152908290a45050565b828054614cb59061568e565b90600052602060002090601f016020900481019282614cd75760008555614d1d565b82601f10614cf057805160ff1916838001178555614d1d565b82800160010185558215614d1d579182015b82811115614d1d578251825591602001919060010190614d02565b50614d29929150614de0565b5090565b6040518060e00160405280600015158152602001600061ffff168152602001600063ffffffff16815260200160006001600160a01b031681526020016000815260200160008152602001606081525090565b60408051608081018252600080825260208201819052918101829052606081019190915290565b828054828255906000526020600020908101928215614d1d5791602002820182811115614d1d578251825591602001919060010190614d02565b5b80821115614d295760008155600101614de1565b60006001600160401b03831115614e0e57614e0e615760565b614e21601f8401601f19166020016155ae565b9050828152838383011115614e3557600080fd5b828260208301376000602084830101529392505050565b80358015158114614e5c57600080fd5b919050565b803560ff81168114614e5c57600080fd5b600060208284031215614e83578081fd5b813561163781615776565b600060208284031215614e9f578081fd5b815161163781615776565b60008060408385031215614ebc578081fd5b8235614ec781615776565b91506020830135614ed781615776565b809150509250929050565b600080600060608486031215614ef6578081fd5b8335614f0181615776565b92506020840135614f1181615776565b91506040840135614f2181615776565b809150509250925092565b600080600060608486031215614f40578283fd5b8335614f4b81615776565b92506020840135614f5b81615776565b929592945050506040919091013590565b60008060008060808587031215614f81578081fd5b8435614f8c81615776565b93506020850135614f9c81615776565b92506040850135915060608501356001600160401b03811115614fbd578182fd5b8501601f81018713614fcd578182fd5b614fdc87823560208401614df5565b91505092959194509250565b60008060408385031215614ffa578182fd5b823561500581615776565b915061501360208401614e4c565b90509250929050565b6000806040838503121561502e578182fd5b823561503981615776565b946020939093013593505050565b600060208284031215615058578081fd5b61163782614e4c565b600060208284031215615072578081fd5b81356116378161578b565b60006020828403121561508e578081fd5b81516116378161578b565b6000602082840312156150aa578081fd5b81356001600160401b038111156150bf578182fd5b8201601f810184136150cf578182fd5b611f8f84823560208401614df5565b6000602082840312156150ef578081fd5b813561ffff81168114611637578182fd5b600060208284031215615111578081fd5b5035919050565b600060208284031215615129578081fd5b5051919050565b600080600060608486031215615144578081fd5b833592506020808501356001600160401b0380821115615162578384fd5b818701915087601f830112615175578384fd5b81358181111561518757615187615760565b8060051b91506151988483016155ae565b8181528481019084860184860187018c10156151b2578788fd5b8795505b838610156151d45780358352600195909501949186019186016151b6565b50979a979950505050604095909501359450505050565b600080604083850312156151fd578182fd5b50508035926020909101359150565b60006020828403121561521d578081fd5b8135611637816157a1565b600060208284031215615239578081fd5b8151611637816157a1565b60008060408385031215615256578182fd5b61525f83614e61565b915061501360208401614e61565b6000815180845260208085019450808401835b8381101561529c57815187529582019590820190600101615280565b509495945050505050565b600081518084526152bf816020860160208601615662565b601f01601f19169290920160200192915050565b600083516152e5818460208801615662565b8351908301906152f9818360208801615662565b01949350505050565b6001600160a01b0385811682528416602082015260408101839052608060608201819052600090615335908301846152a7565b9695505050505050565b602081526000611637602083018461526d565b60208152600061163760208301846152a7565b60208082526032908201527f4552433732313a207472616e7366657220746f206e6f6e20455243373231526560408201527131b2b4bb32b91034b6b83632b6b2b73a32b960711b606082015260800190565b6020808252602c908201527f7468657265206973206e6f206c6561646572626f61726420656e74727920617460408201526b207468697320696e6465782160a01b606082015260800190565b6020808252818101527f4f776e61626c653a2063616c6c6572206973206e6f7420746865206f776e6572604082015260600190565b60208082526031908201527f4552433732313a207472616e736665722063616c6c6572206973206e6f74206f6040820152701ddb995c881b9bdc88185c1c1c9bdd9959607a1b606082015260800190565b6020808252601f908201527f7468657265206973206e6f2067616d65206163746976652063757272656e7400604082015260600190565b6020815281511515602082015261ffff602083015116604082015263ffffffff604083015116606082015260018060a01b036060830151166080820152608082015160a082015260a082015160c0820152600060c083015160e080840152611f8f61010084018261526d565b60006101008201905061ffff8084511683528060208501511660208401528060408501511660408401525063ffffffff606084015116606083015260018060a01b03608084015116608083015260a083015161559360a08401826001600160a01b03169052565b5060c083015160c083015260e083015160e083015292915050565b604051601f8201601f191681016001600160401b03811182821017156155d6576155d6615760565b604052919050565b600082198211156155f1576155f1615734565b500190565b60006001600160401b038083168185168083038211156152f9576152f9615734565b6000826156275761562761574a565b500490565b600081600019048311821515161561564657615646615734565b500290565b60008282101561565d5761565d615734565b500390565b60005b8381101561567d578181015183820152602001615665565b838111156116a05750506000910152565b600181811c908216806156a257607f821691505b602082108114156156c357634e487b7160e01b600052602260045260246000fd5b50919050565b600061ffff808316818114156156e1576156e1615734565b6001019392505050565b60006000198214156156ff576156ff615734565b5060010190565b600063ffffffff808316818114156156e1576156e1615734565b60008261572f5761572f61574a565b500690565b634e487b7160e01b600052601160045260246000fd5b634e487b7160e01b600052601260045260246000fd5b634e487b7160e01b600052604160045260246000fd5b6001600160a01b0381168114610ca757600080fd5b6001600160e01b031981168114610ca757600080fd5b6001600160401b0381168114610ca757600080fdfeddf252ad1be2c89b69c2b068fc378daa952ba7f163c4a11628f55a4df523b3efa26469706673582212200cfc57624b60f9b046746e4825b18852b9618bebea8c68d9487477cbd947103c64736f6c63430008040033",
  "immutableReferences": {},
  "source": "// SPDX-License-Identifier: MIT\r\npragma solidity ^0.8.4;\r\n\r\nimport \"./Helpers.sol\";\r\nimport \"./BaseNft.sol\";\r\nimport \"./WorldLeader.sol\";\r\nimport \"./MissileMaker.sol\";\r\n\r\n///////////////////////////////////////////////////////////////////////////////////////////////////////////////////////\r\n// this handles the destroy UFO gameplay loop, including dynamically adjusting the difficulty of a match\r\n// so that games approach taking the same amount of time regardless of the # of players playing.\r\n///////////////////////////////////////////////////////////////////////////////////////////////////////////////////////\r\ncontract UfoInvasion is BaseNft(\"UFO Invasion\", \"UFO\") {\r\n    using Helpers for uint;\r\n    using Helpers for uint16;\r\n    using SafeMath for uint8;\r\n    using SafeMath for uint16;\r\n    using SafeMath for uint32;\r\n    using SafeMath for uint64;\r\n    using SafeMath for uint256;\r\n    using Counters for Counters.Counter;\r\n\r\n    struct UfoState {\r\n        uint16 curHp;\r\n        uint16 startingHp;\r\n        address locationAddress;\r\n        uint ufoId;\r\n    }\r\n\r\n    bool _gameActive = false;\r\n    mapping(uint => uint) _ufoIdxLookup;\r\n\r\n    uint32 _totalNumGamesPlayed = 0;\r\n    uint _maxMissilesAtOnce = 5;\r\n    uint _minNumMintedBeforeYouCanAttack = 100;\r\n\r\n    mapping(uint => UfoState) _ufoStateLookup;\r\n    struct GameStats {\r\n        bool isOver;\r\n        uint16 totalUfoHp;\r\n        uint32 gameNum;\r\n        address winner;\r\n        uint gameStartTimeInSeconds;\r\n        uint elapsedSecs;\r\n        uint[] ufoIds;\r\n    }\r\n\r\n    mapping(uint => GameStats) _gameStats;\r\n\r\n    uint16 _totalUfoHp = 2500;\r\n\r\n    uint16 _startGameScoreReward = 5;\r\n    uint _gameStartTime = 0;\r\n    uint _gameEndTime;\r\n\r\n    uint8 _minNumUFOs = 7;\r\n    uint8 _maxNumUFOs = 15;\r\n\r\n    uint64 _gameWinnerTotalScoreMultiplier = 150; // 150%\r\n    uint64 _ufoKillDmgScoreMultiplier = 150; // 150%\r\n    uint16 _wantedGameLengthInHours = 48;\r\n\r\n    // mapping of holder addresses to their index in the _airdropToAddresses array to ensure we get unique addresses\r\n    mapping(address => bool) _airdropToIdx;\r\n    address[] _airdropToAddresses;\r\n\r\n    struct CurGameScore {\r\n        bool active;\r\n        uint16 nukesUsed;\r\n        uint64 score;\r\n        address playerAddress;\r\n    }\r\n\r\n    struct AllTimeLeaderboard {\r\n        bool exists;\r\n        uint32 wins;\r\n        uint32 nukesUsed;\r\n        uint64 score;\r\n        address playerAddress;\r\n    }\r\n\r\n    uint16 _numPlayersWithScoreInGame = 0;\r\n    mapping(address => CurGameScore) _curGamePlayerScoreLookup;\r\n    address[] _curGameAddresses;\r\n\r\n    uint _numPlayersOnLeaderboard;\r\n    mapping(address => AllTimeLeaderboard) _allTimeLeaderboardLookup;\r\n    address[] _allTimeLeaderboardAddresses;\r\n\r\n    uint32 private _missileTxnId;\r\n    struct MissileAttack {\r\n        uint16 dmg;\r\n        uint16 hpBefore;\r\n        uint16 hpAfter;\r\n        uint32 missileTxnId;\r\n        address attacker;\r\n        address locationAddress;\r\n        uint missileId;\r\n        uint ufoId;\r\n    }\r\n    mapping(uint => MissileAttack) _missileAttackLookup;\r\n    function getMissileAttackInfo(uint missileId) public view returns (MissileAttack memory) {\r\n        require(_missileAttackLookup[missileId].dmg > 0\r\n//        , \"this attack doesn't exist!\"\r\n        );\r\n        return _missileAttackLookup[missileId];\r\n    }\r\n\r\n    event MissileAttackedUFO(uint missileTxnId, uint missileId, address attacker);\r\n    event GameOver(uint gameNumber);\r\n\r\n    enum AttackUfoResult {\r\n        OnlyDamageDealt,\r\n        UfoDestroyed,\r\n        UfoDestroyedAndGameOver\r\n    }\r\n    function findNumUfosStillAlive(uint[] memory ufos) private view returns (uint) {\r\n        if (ufos.length == 0) {\r\n            return 0;\r\n        }\r\n        uint stillAliveNum = 0;\r\n        for (uint i = 0; i < ufos.length; i++) {\r\n            if (ufoIsAlive(ufos[i])) {\r\n                stillAliveNum++;\r\n            }\r\n        }\r\n        return stillAliveNum;\r\n    }\r\n\r\n    function filterUfosAlive(uint stillAliveNum, uint[] memory ufos) private view returns (uint[] memory) {\r\n        uint[] memory newUfos = new uint[](stillAliveNum);\r\n        uint added = 0;\r\n        for (uint i = 0; i < ufos.length; i++) {\r\n            if (ufoIsAlive(ufos[i])) {\r\n                newUfos[added] = ufos[i];\r\n            }\r\n        }\r\n        return newUfos;\r\n    }\r\n\r\n    function attackRandomUFOs(uint randVal, uint[] memory missileIds, uint amountUFOs) external  {\r\n        randVal = randVal.randomize(block.timestamp, _totalNumGamesPlayed);\r\n        require(WorldLeader(_ownedContracts.leader).totalSupply() > _minNumMintedBeforeYouCanAttack, \"not enough world leader NFTs minted yet!\");\r\n        require(_gameActive, \"the game is not active!\");\r\n        require(missileIds.length < _maxMissilesAtOnce\r\n//        , string(abi.encodePacked(\"you can only use \", MAX_MISSILES_AT_ONCE.uint2str(), \"at once!\"))\r\n        );\r\n        _gameStats[_totalNumGamesPlayed].elapsedSecs = block.timestamp.subSafe(_gameStats[_totalNumGamesPlayed].gameStartTimeInSeconds);\r\n        uint[] memory randomUfoIds = getRandomUfoIds(randVal, amountUFOs > _gameStats[_totalNumGamesPlayed].ufoIds.length ? _gameStats[_totalNumGamesPlayed].ufoIds.length : amountUFOs);\r\n        for (uint i = 0; i < missileIds.length; i++) {\r\n            uint stillAliveNum = findNumUfosStillAlive(randomUfoIds);\r\n            if (stillAliveNum != randomUfoIds.length) {\r\n                randomUfoIds = filterUfosAlive(stillAliveNum, randomUfoIds);\r\n            }\r\n            if (randomUfoIds.length == 0) {\r\n                break;\r\n            }\r\n            randVal = randVal + i;\r\n            uint ufoId = randomUfoIds[uint(randVal.randomize(block.timestamp, i).modSafe(randomUfoIds.length))];\r\n            if (!ufoIsAlive(ufoId)) {\r\n                continue;\r\n            }\r\n            if (attackOneUFO(msg.sender, missileIds[i], ufoId) == AttackUfoResult.UfoDestroyedAndGameOver) {\r\n                break;\r\n            }\r\n        }\r\n        _missileTxnId++;\r\n    }\r\n\r\n    function attackOneUFO(address sender, uint missileId, uint ufoId) private returns (AttackUfoResult) {\r\n        require(_exists(ufoId), \"this cannot be attacked anymore\");\r\n        uint64 missileDmg = MissileMaker(_ownedContracts.missileMaker)._getMissileDmg(sender, missileId);\r\n        updatePlayerScore(sender, missileDmg);\r\n        uint16 hpBefore = _ufoStateLookup[ufoId].curHp;\r\n        _ufoStateLookup[ufoId].curHp = uint16(_ufoStateLookup[ufoId].curHp.subSafe(missileDmg));\r\n        _curGamePlayerScoreLookup[sender].score += missileDmg;\r\n        _allTimeLeaderboardLookup[sender].score += missileDmg;\r\n        emit MissileAttackedUFO(_missileTxnId, missileId, sender);\r\n        _missileAttackLookup[missileId] = MissileAttack(uint16(missileDmg), hpBefore,  _ufoStateLookup[ufoId].curHp, _missileTxnId, sender, ownerOf(ufoId), missileId, ufoId);\r\n        if (_ufoStateLookup[ufoId].curHp == 0) {\r\n            missileDmg = uint64(missileDmg.mul(_ufoKillDmgScoreMultiplier).div(100).subSafe(missileDmg));\r\n            _curGamePlayerScoreLookup[sender].score += missileDmg;\r\n            _allTimeLeaderboardLookup[sender].score += missileDmg;\r\n            burn(ufoId);\r\n            if (isGameOver()) {\r\n                _gameStats[_totalNumGamesPlayed].winner = getWinner();\r\n                missileDmg = uint64(_curGamePlayerScoreLookup[sender].score.mul(_gameWinnerTotalScoreMultiplier).div(100).subSafe(_curGamePlayerScoreLookup[sender].score));\r\n                _curGamePlayerScoreLookup[_gameStats[_totalNumGamesPlayed].winner].score += missileDmg;\r\n                _allTimeLeaderboardLookup[_gameStats[_totalNumGamesPlayed].winner].score += missileDmg;\r\n                _gameStats[_totalNumGamesPlayed].isOver = true;\r\n                _gameEndTime = block.timestamp;\r\n                emit GameOver(_totalNumGamesPlayed);\r\n                return AttackUfoResult.UfoDestroyedAndGameOver;\r\n            }\r\n            return AttackUfoResult.UfoDestroyed;\r\n        }\r\n        return AttackUfoResult.OnlyDamageDealt;\r\n    }\r\n\r\n    function updatePlayerScore(address sender, uint64 missileDmg) internal {\r\n        if (!_curGamePlayerScoreLookup[sender].active) {\r\n            _curGamePlayerScoreLookup[sender] = CurGameScore(true, 1, missileDmg, sender);\r\n            if (_numPlayersWithScoreInGame >= _curGameAddresses.length) {\r\n                _curGameAddresses.push(sender);\r\n            } else {\r\n                _curGameAddresses[_numPlayersWithScoreInGame] = sender;\r\n            }\r\n            _numPlayersWithScoreInGame++;\r\n        } else {\r\n            _curGamePlayerScoreLookup[sender].score += missileDmg;\r\n            _curGamePlayerScoreLookup[sender].nukesUsed++;\r\n        }\r\n\r\n        if (!_allTimeLeaderboardLookup[sender].exists) {\r\n            _allTimeLeaderboardLookup[sender] = AllTimeLeaderboard(true, 0, 1, missileDmg, sender);\r\n            if (_numPlayersOnLeaderboard == _allTimeLeaderboardAddresses.length) {\r\n                _allTimeLeaderboardAddresses.push(sender);\r\n            } else {\r\n                _allTimeLeaderboardAddresses[_numPlayersOnLeaderboard] = sender;\r\n            }\r\n            _numPlayersOnLeaderboard++;\r\n        } else {\r\n            _allTimeLeaderboardLookup[sender].score += missileDmg;\r\n            _allTimeLeaderboardLookup[sender].nukesUsed++;\r\n        }\r\n    }\r\n\r\n    function isGameOver() internal returns (bool) {\r\n        for (uint i = 0; i < _gameStats[_totalNumGamesPlayed].ufoIds.length; i++) {\r\n            if (_ufoStateLookup[_gameStats[_totalNumGamesPlayed].ufoIds[i]].curHp != 0) {\r\n                return false;\r\n            }\r\n        }\r\n        _totalNumGamesPlayed++;\r\n        _setIsGameActive(false);\r\n        return true;\r\n    }\r\n\r\n    function getWinner() internal returns (address) {\r\n        address highestSeenAddr = address(0x0);\r\n        uint highestSeenScore = 0;\r\n        for (uint i = 0; i < _numPlayersWithScoreInGame; i++) {\r\n            address playerAddr = _curGameAddresses[i];\r\n            CurGameScore memory curGameScore = _curGamePlayerScoreLookup[playerAddr];\r\n            if (\r\n                curGameScore.score > highestSeenScore\r\n                || ( // if there's a tie, take the player with more score all-time, if this is also a tie we take who's first\r\n                    curGameScore.score == highestSeenScore\r\n                    && _allTimeLeaderboardLookup[playerAddr].score > _allTimeLeaderboardLookup[highestSeenAddr].score\r\n                )\r\n                || highestSeenScore == 0\r\n            ) {\r\n                highestSeenScore = curGameScore.score;\r\n                highestSeenAddr = playerAddr;\r\n            }\r\n        }\r\n        _allTimeLeaderboardLookup[highestSeenAddr].wins++;\r\n        return highestSeenAddr;\r\n    }\r\n\r\n    function startNewUfoInvasionGame(uint randVal) public {\r\n        randVal = randVal + 1;\r\n        randVal = randVal.randomize(block.timestamp, _totalNumGamesPlayed);\r\n        require(!_gameActive);\r\n        _setIsGameActive(true);\r\n        if (_gameStartTime != 0 && _gameEndTime != 0) { // use the default total UFO health when there has never been a game before\r\n            _totalUfoHp = getNewTotalUfoHealth(_gameStartTime, _gameEndTime, uint(_wantedGameLengthInHours), uint(_totalUfoHp));\r\n            for (uint i = 0; i < _numPlayersWithScoreInGame; i++) {\r\n                delete _curGameAddresses[i];\r\n            }\r\n            _numPlayersWithScoreInGame = 0;\r\n        }\r\n        airdropNewUFOs(randVal);\r\n        // reward players for paying to start new game\r\n        _curGamePlayerScoreLookup[msg.sender].score += uint64(_totalUfoHp.mul(_startGameScoreReward).div(100));\r\n    }\r\n\r\n    // roll new random number of UFOs\r\n    //\r\n    function airdropNewUFOs(uint randVal) internal  {\r\n        uint newNumUFOs = uint(randVal.randomize(block.timestamp).modSafe(_maxNumUFOs.sub(_minNumUFOs)).add(_minNumUFOs));\r\n\r\n        address[] memory ufoAirdropWinners = getHoldersToSendUFOs(randVal, newNumUFOs, findUniqueHolders());\r\n\r\n        uint16[] memory newUfoHps = rollHpForUFOs(block.timestamp, randVal, ufoAirdropWinners.length, _totalUfoHp);\r\n\r\n        uint[] memory ufoIds = new uint[](ufoAirdropWinners.length);\r\n\r\n        for (uint i = 0; i < ufoAirdropWinners.length; i++) {\r\n            address locationAddress = ufoAirdropWinners[i];\r\n            uint ufoId = _mintSingleNFT(locationAddress);\r\n            _ufoIdxLookup[ufoId] = i;\r\n            ufoIds[i] = ufoId;\r\n            _ufoStateLookup[ufoId] = UfoState(newUfoHps[i], newUfoHps[i], locationAddress, ufoId);\r\n        }\r\n        _gameStats[_totalNumGamesPlayed] = GameStats(\r\n            false,\r\n            _totalUfoHp,\r\n            _totalNumGamesPlayed,\r\n            address(0x0),\r\n            _gameStartTime,\r\n            0,\r\n            ufoIds\r\n        );\r\n    }\r\n\r\n    function _mintSingleNFT(address to) private returns (uint) {\r\n        uint newTokenID = tokenIdx.current();\r\n        _safeMint(to, newTokenID);\r\n        tokenIdx.increment();\r\n        return newTokenID;\r\n    }\r\n\r\n    // in the case the last game was completed faster than the length wanted (given by _wantedGameLengthInHours),\r\n    // make the next game's total UFO HP larger as a percentage of the gap and vice-versa\r\n    //\r\n    function getNewTotalUfoHealth(uint gameStartTime, uint gameEndTime, uint wantedGameLengthInHours, uint prevTotalUfoHp) internal pure returns (uint16) {\r\n        uint gameLengthHours = uint16(gameEndTime.sub(gameStartTime).div(60).div(60));\r\n        uint diff = gameLengthHours > wantedGameLengthInHours\r\n            ? gameLengthHours.sub(wantedGameLengthInHours)\r\n            : wantedGameLengthInHours.sub(gameLengthHours);\r\n        uint adjustment = prevTotalUfoHp.div(100).mul(diff.mul(100).div(wantedGameLengthInHours));\r\n        uint newTotalUfoHp = gameLengthHours > wantedGameLengthInHours\r\n            ? prevTotalUfoHp.sub(adjustment)\r\n            : prevTotalUfoHp.add(adjustment);\r\n        return uint16(newTotalUfoHp);\r\n    }\r\n\r\n    function rollHpForUFOs(uint blockTimestamp, uint randVal, uint numUFOs, uint16 totalUfoHp) internal pure returns (uint16[] memory) {\r\n        uint avgHpPerUfoNeeded;\r\n        uint min;\r\n        uint max;\r\n        uint16[] memory ufoHps = new uint16[](numUFOs);\r\n        for (uint i = 0; i < numUFOs; i++) {\r\n            // setting hp values for individual UFOs to values within a range (so they're not all the same every\r\n            // match, but ensuring that the total UFO hp ends up roughly around where we want it. this should\r\n            // make the gameplay more varied between matches\r\n            if (i == numUFOs - 1) {\r\n                ufoHps[i] = totalUfoHp;\r\n                break;\r\n            }\r\n            avgHpPerUfoNeeded = totalUfoHp.div(numUFOs.sub(i));\r\n            min = avgHpPerUfoNeeded.subSafe(avgHpPerUfoNeeded.div(10));\r\n            max = avgHpPerUfoNeeded.add(avgHpPerUfoNeeded.div(10));\r\n            ufoHps[i] = uint16(randVal.randomize(blockTimestamp, i).modSafe(max.sub(min)).add(min));\r\n            totalUfoHp = uint16(totalUfoHp.subSafe(ufoHps[i]));\r\n        }\r\n        return ufoHps;\r\n    }\r\n\r\n    function findUniqueHolders() internal returns (address[] memory) {\r\n        uint totalUnique = 0;\r\n        WorldLeader leader = WorldLeader(_ownedContracts.leader);\r\n        uint numLeaderNfts = leader.totalSupply();\r\n\r\n        for (uint i = 0; i < numLeaderNfts; i++) {\r\n            uint256 leaderNftId = leader.tokenByIndex(i);\r\n            address owner = leader.ownerOf(leaderNftId);\r\n            if (_airdropToIdx[owner]) {\r\n                continue;\r\n            }\r\n            totalUnique++;\r\n            _airdropToIdx[owner] = true;\r\n            if (i >= _airdropToAddresses.length) {\r\n                _airdropToAddresses.push(owner);\r\n            } else {\r\n                _airdropToAddresses[i] = owner;\r\n            }\r\n        }\r\n        address[] memory uniqueAddresses = new address[](totalUnique);\r\n        for (uint i = 0; i < totalUnique; i++) {\r\n            uniqueAddresses[i] = _airdropToAddresses[i];\r\n        }\r\n\r\n        for (uint i = 0; i < totalUnique; i++) {\r\n            _airdropToIdx[_airdropToAddresses[i]] = false;\r\n        }\r\n\r\n        return uniqueAddresses;\r\n    }\r\n\r\n    // get a random subset of unique holders of World Leader tokens to send UFOs to\r\n    //\r\n    function getHoldersToSendUFOs(uint randVal, uint numUFOs, address[] memory uniqueHolders) internal view returns (address[] memory) {\r\n        uniqueHolders = randVal.shuffle(block.timestamp, uniqueHolders);\r\n        uint numWinners = uniqueHolders.length <= numUFOs ? uniqueHolders.length : numUFOs;\r\n\r\n        address[] memory winners = new address[](numWinners);\r\n\r\n        for (uint i = 0; i < numWinners; i++) {\r\n            winners[i] = uniqueHolders[i];\r\n        }\r\n\r\n        return winners;\r\n    }\r\n\r\n    function getRandomUfoIds(uint randVal, uint amountUFOs) private view returns (uint[] memory) {\r\n        uint numAliveUfos = 0;\r\n        for (uint i = 0; i < _gameStats[_totalNumGamesPlayed].ufoIds.length; i++) {\r\n            if (_ufoStateLookup[_gameStats[_totalNumGamesPlayed].ufoIds[i]].curHp != 0) {\r\n                numAliveUfos++;\r\n            }\r\n        }\r\n        uint[] memory ufoIds = new uint[](numAliveUfos);\r\n        uint foundAlive = 0;\r\n        for (uint i = 0; i < _gameStats[_totalNumGamesPlayed].ufoIds.length; i++) {\r\n            if (_ufoStateLookup[_gameStats[_totalNumGamesPlayed].ufoIds[i]].curHp != 0) {\r\n                ufoIds[foundAlive] = _gameStats[_totalNumGamesPlayed].ufoIds[i];\r\n                foundAlive++;\r\n            }\r\n        }\r\n        ufoIds = randVal.shuffle(block.timestamp, ufoIds);\r\n        uint numRandom = amountUFOs > numAliveUfos ? numAliveUfos : amountUFOs;\r\n        uint[] memory randomUfos = new uint[](numRandom);\r\n        for (uint i = 0; i < numRandom; i++) {\r\n            randomUfos[i] = ufoIds[i];\r\n        }\r\n        return randomUfos;\r\n    }\r\n\r\n    function _ufoIsAlive(uint ufoId) internal view returns (bool) {\r\n        return _ufoStateLookup[ufoId].curHp > 0;\r\n    }\r\n\r\n    function ufoIsAlive(uint ufoId) public view returns (bool) {\r\n        return _ufoIsAlive(ufoId);\r\n    }\r\n\r\n    // returns whether there is currently a game active or not\r\n    function isGameActive() external view returns (bool) {\r\n        return _gameActive;\r\n    }\r\n\r\n    // returns the number of UFOs in the game index by `gameNum`\r\n    function getNumUFOsInGameByGameNum(uint gameNum) external view returns (uint) {\r\n        return _getGameStatsByGameNum(gameNum).ufoIds.length;\r\n    }\r\n\r\n    // calls getNumUFOsInGameByGameNum(_totalNumGamesPlayed)\r\n    function getCurGameNumUFOs() external view returns (uint) {\r\n        if (!_gameActive && _totalNumGamesPlayed == 0) {\r\n            return 0;\r\n        }\r\n        return _getGameStatsByGameNum(_totalNumGamesPlayed).ufoIds.length;\r\n    }\r\n\r\n    function _getUfoAtIdxByGameNum(uint ufoIdx, uint gameNum) internal view returns (UfoState memory) {\r\n        GameStats memory gameStats = _getGameStatsByGameNum(gameNum);\r\n        require(ufoIdx < gameStats.ufoIds.length\r\n        , \"there are not that many ufos in the current game!\"\r\n        );\r\n        require(_existsOrBurned(gameStats.ufoIds[ufoIdx])\r\n        , \"ufo at this id does not exist!\"\r\n        );\r\n        UfoState memory ufoState = _ufoStateLookup[gameStats.ufoIds[ufoIdx]];\r\n        ufoState.locationAddress = ownerOf(ufoState.ufoId);\r\n        return ufoState;\r\n    }\r\n\r\n    function getUfoAtIdxInCurrentGame(uint ufoIdx) external view returns (UfoState memory) {\r\n        return _getUfoAtIdxByGameNum(ufoIdx, _totalNumGamesPlayed);\r\n    }\r\n\r\n    // returns information about the UFO at the index `ufoIdx` for the game number `gameNum`\r\n    function getUfoAtIdxByGameNum(uint ufoIdx, uint gameNum) external view returns (UfoState memory) {\r\n        return _getUfoAtIdxByGameNum(ufoIdx, gameNum);\r\n    }\r\n\r\n    // returns the number of players in the current game's stats\r\n    function getCurGameNumPlayers() external view returns (uint) {\r\n        require(_gameActive\r\n        , \"there is no game active current\"\r\n        );\r\n        return _numPlayersWithScoreInGame;\r\n    }\r\n\r\n    // returns the stats for the player at the index `idx` for the current game\r\n    function getCurGamePlayerAtIdx(uint idx) external view returns (CurGameScore memory) {\r\n        require(_gameActive\r\n        , \"there is no game active current\"\r\n        );\r\n        require(idx < _curGameAddresses.length\r\n        , \"there is no leaderboard entry at this index!\"\r\n        );\r\n        require(_curGamePlayerScoreLookup[_curGameAddresses[idx]].active\r\n        , \"this player has not yet played the current game!\"\r\n        );\r\n        return _curGamePlayerScoreLookup[_curGameAddresses[idx]];\r\n    }\r\n\r\n    // returns the total number of players who have stats on the leaderboard\r\n    function getNumLeaderboardPlayers() external view returns (uint) {\r\n        return _numPlayersOnLeaderboard;\r\n    }\r\n\r\n    // returns the leaderboard information for the player at the index `idx`\r\n    function getLeaderboardPlayerAtIdx(uint idx) external view returns (AllTimeLeaderboard memory) {\r\n        require(idx < _allTimeLeaderboardAddresses.length\r\n        , \"there is no leaderboard entry at this index!\"\r\n        );\r\n        require(_allTimeLeaderboardLookup[_allTimeLeaderboardAddresses[idx]].exists\r\n        , \"this player has never scored any points before!\"\r\n        );\r\n        return _allTimeLeaderboardLookup[_allTimeLeaderboardAddresses[idx]];\r\n    }\r\n\r\n    // returns the total number of games played so far\r\n    function getTotalNumberOfGames() public view returns (uint) {\r\n        return _totalNumGamesPlayed;\r\n    }\r\n\r\n    // returns the game stats for the game with the idx `gameNum`\r\n    function getGameStatsByGameNum(uint gameNum) public view returns (GameStats memory) {\r\n        return _getGameStatsByGameNum(gameNum);\r\n    }\r\n\r\n    function _getGameStatsByGameNum(uint gameNum) internal view returns (GameStats memory) {\r\n        require(gameNum < _totalNumGamesPlayed\r\n        , \"there have not been that many games yet!\"\r\n        );\r\n        GameStats memory gameStats = _gameStats[gameNum];\r\n        if (!gameStats.isOver) {\r\n            gameStats.elapsedSecs = block.timestamp.sub(gameStats.gameStartTimeInSeconds);\r\n        }\r\n        return gameStats;\r\n    }\r\n\r\n    // returns the total hp for all UFOs in the current or last game\r\n    function getTotalHpForUFOs() public view returns (uint) {\r\n        return _totalUfoHp;\r\n    }\r\n\r\n    function _setIsGameActive(bool to) internal {\r\n        _gameActive = to;\r\n    }\r\n\r\n    function setIsGameActive(bool to) public onlyOwner {\r\n        _setIsGameActive(to);\r\n    }\r\n\r\n    function updateMinMaxUFOs(uint8 min, uint8 max) public onlyOwner {\r\n        _minNumUFOs = min;\r\n        _maxNumUFOs = max;\r\n    }\r\n\r\n    function updateWantedGameLengthInHours(uint16 newWantedGameLength) public onlyOwner {\r\n        _wantedGameLengthInHours = newWantedGameLength;\r\n    }\r\n\r\n    function setGameWinnerTotalScoreMultiplier(uint64 to) public onlyOwner {\r\n        require(to >= 100\r\n        , \"game winner score multiplier must be at least 100 (150x)!\"\r\n        );\r\n        _gameWinnerTotalScoreMultiplier = to;\r\n    }\r\n\r\n    function setUfoKillDmgScoreMultiplier(uint64 to) public onlyOwner {\r\n        require(to >= 100\r\n        , \"ufo kill damage multiplier must be at least 100 (150x)!\"\r\n        );\r\n        _ufoKillDmgScoreMultiplier = to;\r\n    }\r\n\r\n    function setStartGameScoreReward(uint16 to) public onlyOwner {\r\n        require(to < 100\r\n        , \"start game score reward must be less than 100 because it's a %!\"\r\n        );\r\n        _startGameScoreReward = to;\r\n    }\r\n\r\n    function setMaxNumMissilesInOneTxn(uint newMax) public onlyOwner {\r\n        _maxMissilesAtOnce = newMax;\r\n    }\r\n\r\n    function setMinNumMintedBeforeYouCanAttack(uint newMin) public onlyOwner {\r\n        _minNumMintedBeforeYouCanAttack = newMin;\r\n    }\r\n}\r\n\r\n\r\n",
  "sourcePath": "C:\\data\\source\\Webstorm Projects\\metis-nfts\\contracts\\UfoInvasion.sol",
  "compiler": {
    "name": "solc",
    "version": "0.8.4+commit.c7e474f2.Emscripten.clang"
  },
  "schemaVersion": "3.4.5",
  "updatedAt": "2022-03-29T21:18:53.752Z",
  "devdoc": {
    "kind": "dev",
    "methods": {
      "approve(address,uint256)": {
        "details": "See {IERC721-approve}."
      },
      "balanceOf(address)": {
        "details": "See {IERC721-balanceOf}."
      },
      "getApproved(uint256)": {
        "details": "See {IERC721-getApproved}."
      },
      "isApprovedForAll(address,address)": {
        "details": "See {IERC721-isApprovedForAll}."
      },
      "name()": {
        "details": "See {IERC721Metadata-name}."
      },
      "owner()": {
        "details": "Returns the address of the current owner."
      },
      "ownerOf(uint256)": {
        "details": "See {IERC721-ownerOf}."
      },
      "renounceOwnership()": {
        "details": "Leaves the contract without owner. It will not be possible to call `onlyOwner` functions anymore. Can only be called by the current owner. NOTE: Renouncing ownership will leave the contract without an owner, thereby removing any functionality that is only available to the owner."
      },
      "safeTransferFrom(address,address,uint256)": {
        "details": "See {IERC721-safeTransferFrom}."
      },
      "safeTransferFrom(address,address,uint256,bytes)": {
        "details": "See {IERC721-safeTransferFrom}."
      },
      "setApprovalForAll(address,bool)": {
        "details": "See {IERC721-setApprovalForAll}."
      },
      "supportsInterface(bytes4)": {
        "details": "See {IERC165-supportsInterface}."
      },
      "symbol()": {
        "details": "See {IERC721Metadata-symbol}."
      },
      "tokenByIndex(uint256)": {
        "details": "See {IERC721Enumerable-tokenByIndex}."
      },
      "tokenOfOwnerByIndex(address,uint256)": {
        "details": "See {IERC721Enumerable-tokenOfOwnerByIndex}."
      },
      "tokenURI(uint256)": {
        "details": "See {IERC721Metadata-tokenURI}."
      },
      "totalSupply()": {
        "details": "See {IERC721Enumerable-totalSupply}."
      },
      "transferFrom(address,address,uint256)": {
        "details": "See {IERC721-transferFrom}."
      },
      "transferOwnership(address)": {
        "details": "Transfers ownership of the contract to a new account (`newOwner`). Can only be called by the current owner."
      }
    },
    "version": 1
  },
  "userdoc": {
    "kind": "user",
    "methods": {},
    "version": 1
  }
}