{
  "contractName": "UfoInvasion",
  "abi": [
    {
      "anonymous": false,
      "inputs": [
        {
          "indexed": true,
          "internalType": "address",
          "name": "owner",
          "type": "address"
        },
        {
          "indexed": true,
          "internalType": "address",
          "name": "approved",
          "type": "address"
        },
        {
          "indexed": true,
          "internalType": "uint256",
          "name": "tokenId",
          "type": "uint256"
        }
      ],
      "name": "Approval",
      "type": "event"
    },
    {
      "anonymous": false,
      "inputs": [
        {
          "indexed": true,
          "internalType": "address",
          "name": "owner",
          "type": "address"
        },
        {
          "indexed": true,
          "internalType": "address",
          "name": "operator",
          "type": "address"
        },
        {
          "indexed": false,
          "internalType": "bool",
          "name": "approved",
          "type": "bool"
        }
      ],
      "name": "ApprovalForAll",
      "type": "event"
    },
    {
      "anonymous": false,
      "inputs": [
        {
          "indexed": false,
          "internalType": "uint256",
          "name": "gameNum",
          "type": "uint256"
        }
      ],
      "name": "GameOver",
      "type": "event"
    },
    {
      "anonymous": false,
      "inputs": [
        {
          "indexed": false,
          "internalType": "uint32",
          "name": "gameNum",
          "type": "uint32"
        },
        {
          "indexed": false,
          "internalType": "address",
          "name": "attacker",
          "type": "address"
        },
        {
          "indexed": false,
          "internalType": "uint256",
          "name": "missileTxnId",
          "type": "uint256"
        },
        {
          "indexed": false,
          "internalType": "uint256",
          "name": "missileId",
          "type": "uint256"
        }
      ],
      "name": "MissileAttackedUFO",
      "type": "event"
    },
    {
      "anonymous": false,
      "inputs": [
        {
          "indexed": true,
          "internalType": "address",
          "name": "previousOwner",
          "type": "address"
        },
        {
          "indexed": true,
          "internalType": "address",
          "name": "newOwner",
          "type": "address"
        }
      ],
      "name": "OwnershipTransferred",
      "type": "event"
    },
    {
      "anonymous": false,
      "inputs": [
        {
          "indexed": true,
          "internalType": "address",
          "name": "from",
          "type": "address"
        },
        {
          "indexed": true,
          "internalType": "address",
          "name": "to",
          "type": "address"
        },
        {
          "indexed": true,
          "internalType": "uint256",
          "name": "tokenId",
          "type": "uint256"
        }
      ],
      "name": "Transfer",
      "type": "event"
    },
    {
      "inputs": [
        {
          "internalType": "address",
          "name": "leader",
          "type": "address"
        },
        {
          "internalType": "address",
          "name": "missileMaker",
          "type": "address"
        },
        {
          "internalType": "address",
          "name": "ufoInvasion",
          "type": "address"
        }
      ],
      "name": "_setOwnedContracts",
      "outputs": [],
      "stateMutability": "nonpayable",
      "type": "function"
    },
    {
      "inputs": [
        {
          "internalType": "address",
          "name": "to",
          "type": "address"
        },
        {
          "internalType": "uint256",
          "name": "tokenId",
          "type": "uint256"
        }
      ],
      "name": "approve",
      "outputs": [],
      "stateMutability": "nonpayable",
      "type": "function"
    },
    {
      "inputs": [
        {
          "internalType": "address",
          "name": "owner",
          "type": "address"
        }
      ],
      "name": "balanceOf",
      "outputs": [
        {
          "internalType": "uint256",
          "name": "",
          "type": "uint256"
        }
      ],
      "stateMutability": "view",
      "type": "function"
    },
    {
      "inputs": [],
      "name": "baseTokenURI",
      "outputs": [
        {
          "internalType": "string",
          "name": "",
          "type": "string"
        }
      ],
      "stateMutability": "view",
      "type": "function"
    },
    {
      "inputs": [
        {
          "internalType": "uint256",
          "name": "tokenId",
          "type": "uint256"
        }
      ],
      "name": "existsOrBurned",
      "outputs": [
        {
          "internalType": "bool",
          "name": "",
          "type": "bool"
        }
      ],
      "stateMutability": "view",
      "type": "function"
    },
    {
      "inputs": [
        {
          "internalType": "uint256",
          "name": "tokenId",
          "type": "uint256"
        }
      ],
      "name": "getApproved",
      "outputs": [
        {
          "internalType": "address",
          "name": "",
          "type": "address"
        }
      ],
      "stateMutability": "view",
      "type": "function"
    },
    {
      "inputs": [
        {
          "internalType": "address",
          "name": "owner",
          "type": "address"
        },
        {
          "internalType": "address",
          "name": "operator",
          "type": "address"
        }
      ],
      "name": "isApprovedForAll",
      "outputs": [
        {
          "internalType": "bool",
          "name": "",
          "type": "bool"
        }
      ],
      "stateMutability": "view",
      "type": "function"
    },
    {
      "inputs": [
        {
          "internalType": "uint256",
          "name": "tokenId",
          "type": "uint256"
        }
      ],
      "name": "isBurned",
      "outputs": [
        {
          "internalType": "bool",
          "name": "",
          "type": "bool"
        }
      ],
      "stateMutability": "view",
      "type": "function"
    },
    {
      "inputs": [],
      "name": "name",
      "outputs": [
        {
          "internalType": "string",
          "name": "",
          "type": "string"
        }
      ],
      "stateMutability": "view",
      "type": "function"
    },
    {
      "inputs": [],
      "name": "owner",
      "outputs": [
        {
          "internalType": "address",
          "name": "",
          "type": "address"
        }
      ],
      "stateMutability": "view",
      "type": "function"
    },
    {
      "inputs": [
        {
          "internalType": "uint256",
          "name": "tokenId",
          "type": "uint256"
        }
      ],
      "name": "ownerOf",
      "outputs": [
        {
          "internalType": "address",
          "name": "",
          "type": "address"
        }
      ],
      "stateMutability": "view",
      "type": "function"
    },
    {
      "inputs": [],
      "name": "renounceOwnership",
      "outputs": [],
      "stateMutability": "nonpayable",
      "type": "function"
    },
    {
      "inputs": [
        {
          "internalType": "address",
          "name": "from",
          "type": "address"
        },
        {
          "internalType": "address",
          "name": "to",
          "type": "address"
        },
        {
          "internalType": "uint256",
          "name": "tokenId",
          "type": "uint256"
        }
      ],
      "name": "safeTransferFrom",
      "outputs": [],
      "stateMutability": "nonpayable",
      "type": "function"
    },
    {
      "inputs": [
        {
          "internalType": "address",
          "name": "from",
          "type": "address"
        },
        {
          "internalType": "address",
          "name": "to",
          "type": "address"
        },
        {
          "internalType": "uint256",
          "name": "tokenId",
          "type": "uint256"
        },
        {
          "internalType": "bytes",
          "name": "_data",
          "type": "bytes"
        }
      ],
      "name": "safeTransferFrom",
      "outputs": [],
      "stateMutability": "nonpayable",
      "type": "function"
    },
    {
      "inputs": [
        {
          "internalType": "address",
          "name": "operator",
          "type": "address"
        },
        {
          "internalType": "bool",
          "name": "approved",
          "type": "bool"
        }
      ],
      "name": "setApprovalForAll",
      "outputs": [],
      "stateMutability": "nonpayable",
      "type": "function"
    },
    {
      "inputs": [
        {
          "internalType": "string",
          "name": "_baseTokenURI",
          "type": "string"
        }
      ],
      "name": "setBaseURI",
      "outputs": [],
      "stateMutability": "nonpayable",
      "type": "function"
    },
    {
      "inputs": [
        {
          "internalType": "bytes4",
          "name": "interfaceId",
          "type": "bytes4"
        }
      ],
      "name": "supportsInterface",
      "outputs": [
        {
          "internalType": "bool",
          "name": "",
          "type": "bool"
        }
      ],
      "stateMutability": "view",
      "type": "function"
    },
    {
      "inputs": [],
      "name": "symbol",
      "outputs": [
        {
          "internalType": "string",
          "name": "",
          "type": "string"
        }
      ],
      "stateMutability": "view",
      "type": "function"
    },
    {
      "inputs": [
        {
          "internalType": "uint256",
          "name": "index",
          "type": "uint256"
        }
      ],
      "name": "tokenByIndex",
      "outputs": [
        {
          "internalType": "uint256",
          "name": "",
          "type": "uint256"
        }
      ],
      "stateMutability": "view",
      "type": "function"
    },
    {
      "inputs": [],
      "name": "tokenIdx",
      "outputs": [
        {
          "internalType": "uint256",
          "name": "_value",
          "type": "uint256"
        }
      ],
      "stateMutability": "view",
      "type": "function"
    },
    {
      "inputs": [
        {
          "internalType": "address",
          "name": "owner",
          "type": "address"
        },
        {
          "internalType": "uint256",
          "name": "index",
          "type": "uint256"
        }
      ],
      "name": "tokenOfOwnerByIndex",
      "outputs": [
        {
          "internalType": "uint256",
          "name": "",
          "type": "uint256"
        }
      ],
      "stateMutability": "view",
      "type": "function"
    },
    {
      "inputs": [
        {
          "internalType": "uint256",
          "name": "tokenId",
          "type": "uint256"
        }
      ],
      "name": "tokenURI",
      "outputs": [
        {
          "internalType": "string",
          "name": "",
          "type": "string"
        }
      ],
      "stateMutability": "view",
      "type": "function"
    },
    {
      "inputs": [
        {
          "internalType": "address",
          "name": "_owner",
          "type": "address"
        }
      ],
      "name": "tokensOfOwner",
      "outputs": [
        {
          "internalType": "uint256[]",
          "name": "",
          "type": "uint256[]"
        }
      ],
      "stateMutability": "view",
      "type": "function"
    },
    {
      "inputs": [],
      "name": "totalSupply",
      "outputs": [
        {
          "internalType": "uint256",
          "name": "",
          "type": "uint256"
        }
      ],
      "stateMutability": "view",
      "type": "function"
    },
    {
      "inputs": [
        {
          "internalType": "address",
          "name": "from",
          "type": "address"
        },
        {
          "internalType": "address",
          "name": "to",
          "type": "address"
        },
        {
          "internalType": "uint256",
          "name": "tokenId",
          "type": "uint256"
        }
      ],
      "name": "transferFrom",
      "outputs": [],
      "stateMutability": "nonpayable",
      "type": "function"
    },
    {
      "inputs": [
        {
          "internalType": "address",
          "name": "newOwner",
          "type": "address"
        }
      ],
      "name": "transferOwnership",
      "outputs": [],
      "stateMutability": "nonpayable",
      "type": "function"
    },
    {
      "inputs": [
        {
          "internalType": "uint256",
          "name": "missileId",
          "type": "uint256"
        }
      ],
      "name": "getMissileAttackInfo",
      "outputs": [
        {
          "components": [
            {
              "internalType": "uint16",
              "name": "dmg",
              "type": "uint16"
            },
            {
              "internalType": "uint16",
              "name": "hpBefore",
              "type": "uint16"
            },
            {
              "internalType": "uint16",
              "name": "hpAfter",
              "type": "uint16"
            },
            {
              "internalType": "uint32",
              "name": "missileTxnId",
              "type": "uint32"
            },
            {
              "internalType": "uint32",
              "name": "gameNum",
              "type": "uint32"
            },
            {
              "internalType": "address",
              "name": "attacker",
              "type": "address"
            },
            {
              "internalType": "address",
              "name": "locationAddress",
              "type": "address"
            },
            {
              "internalType": "uint256",
              "name": "missileId",
              "type": "uint256"
            },
            {
              "internalType": "uint256",
              "name": "ufoId",
              "type": "uint256"
            }
          ],
          "internalType": "struct UfoInvasion.MissileAttack",
          "name": "",
          "type": "tuple"
        }
      ],
      "stateMutability": "view",
      "type": "function"
    },
    {
      "inputs": [
        {
          "internalType": "uint256",
          "name": "randVal",
          "type": "uint256"
        },
        {
          "internalType": "uint256[]",
          "name": "missileIds",
          "type": "uint256[]"
        },
        {
          "internalType": "uint256",
          "name": "amountUFOs",
          "type": "uint256"
        }
      ],
      "name": "attackRandomUFOs",
      "outputs": [],
      "stateMutability": "nonpayable",
      "type": "function"
    },
    {
      "inputs": [
        {
          "internalType": "uint256",
          "name": "randVal",
          "type": "uint256"
        }
      ],
      "name": "startNewUfoInvasionGame",
      "outputs": [],
      "stateMutability": "nonpayable",
      "type": "function"
    },
    {
      "inputs": [
        {
          "internalType": "uint256",
          "name": "ufoId",
          "type": "uint256"
        }
      ],
      "name": "ufoIsAlive",
      "outputs": [
        {
          "internalType": "bool",
          "name": "",
          "type": "bool"
        }
      ],
      "stateMutability": "view",
      "type": "function"
    },
    {
      "inputs": [],
      "name": "isGameActive",
      "outputs": [
        {
          "internalType": "bool",
          "name": "",
          "type": "bool"
        }
      ],
      "stateMutability": "view",
      "type": "function"
    },
    {
      "inputs": [
        {
          "internalType": "uint256",
          "name": "gameNum",
          "type": "uint256"
        }
      ],
      "name": "getNumUFOsInGameByGameNum",
      "outputs": [
        {
          "internalType": "uint256",
          "name": "",
          "type": "uint256"
        }
      ],
      "stateMutability": "view",
      "type": "function"
    },
    {
      "inputs": [],
      "name": "getCurGameNumUFOs",
      "outputs": [
        {
          "internalType": "uint256",
          "name": "",
          "type": "uint256"
        }
      ],
      "stateMutability": "view",
      "type": "function"
    },
    {
      "inputs": [
        {
          "internalType": "uint256",
          "name": "ufoIdx",
          "type": "uint256"
        },
        {
          "internalType": "uint256",
          "name": "gameNum",
          "type": "uint256"
        }
      ],
      "name": "getUfoAtIdxByGameNum",
      "outputs": [
        {
          "components": [
            {
              "internalType": "uint16",
              "name": "curHp",
              "type": "uint16"
            },
            {
              "internalType": "uint16",
              "name": "startingHp",
              "type": "uint16"
            },
            {
              "internalType": "uint32",
              "name": "gameNum",
              "type": "uint32"
            },
            {
              "internalType": "address",
              "name": "locationAddress",
              "type": "address"
            },
            {
              "internalType": "uint256",
              "name": "ufoId",
              "type": "uint256"
            }
          ],
          "internalType": "struct UfoInvasion.UfoState",
          "name": "",
          "type": "tuple"
        }
      ],
      "stateMutability": "view",
      "type": "function"
    },
    {
      "inputs": [
        {
          "internalType": "uint256",
          "name": "ufoIdx",
          "type": "uint256"
        }
      ],
      "name": "getUfoAtIdxInCurrentGame",
      "outputs": [
        {
          "components": [
            {
              "internalType": "uint16",
              "name": "curHp",
              "type": "uint16"
            },
            {
              "internalType": "uint16",
              "name": "startingHp",
              "type": "uint16"
            },
            {
              "internalType": "uint32",
              "name": "gameNum",
              "type": "uint32"
            },
            {
              "internalType": "address",
              "name": "locationAddress",
              "type": "address"
            },
            {
              "internalType": "uint256",
              "name": "ufoId",
              "type": "uint256"
            }
          ],
          "internalType": "struct UfoInvasion.UfoState",
          "name": "",
          "type": "tuple"
        }
      ],
      "stateMutability": "view",
      "type": "function"
    },
    {
      "inputs": [],
      "name": "getCurGameNumPlayers",
      "outputs": [
        {
          "internalType": "uint256",
          "name": "",
          "type": "uint256"
        }
      ],
      "stateMutability": "view",
      "type": "function"
    },
    {
      "inputs": [
        {
          "internalType": "uint256",
          "name": "idx",
          "type": "uint256"
        }
      ],
      "name": "getCurGamePlayerAtIdx",
      "outputs": [
        {
          "components": [
            {
              "internalType": "bool",
              "name": "active",
              "type": "bool"
            },
            {
              "internalType": "uint16",
              "name": "nukesUsed",
              "type": "uint16"
            },
            {
              "internalType": "uint64",
              "name": "score",
              "type": "uint64"
            },
            {
              "internalType": "address",
              "name": "playerAddress",
              "type": "address"
            }
          ],
          "internalType": "struct UfoInvasion.CurGameScore",
          "name": "",
          "type": "tuple"
        }
      ],
      "stateMutability": "view",
      "type": "function"
    },
    {
      "inputs": [],
      "name": "getNumLeaderboardPlayers",
      "outputs": [
        {
          "internalType": "uint256",
          "name": "",
          "type": "uint256"
        }
      ],
      "stateMutability": "view",
      "type": "function"
    },
    {
      "inputs": [
        {
          "internalType": "uint256",
          "name": "idx",
          "type": "uint256"
        }
      ],
      "name": "getLeaderboardPlayerAtIdx",
      "outputs": [
        {
          "components": [
            {
              "internalType": "bool",
              "name": "exists",
              "type": "bool"
            },
            {
              "internalType": "uint32",
              "name": "wins",
              "type": "uint32"
            },
            {
              "internalType": "uint32",
              "name": "nukesUsed",
              "type": "uint32"
            },
            {
              "internalType": "uint64",
              "name": "score",
              "type": "uint64"
            },
            {
              "internalType": "address",
              "name": "playerAddress",
              "type": "address"
            }
          ],
          "internalType": "struct UfoInvasion.AllTimeLeaderboard",
          "name": "",
          "type": "tuple"
        }
      ],
      "stateMutability": "view",
      "type": "function"
    },
    {
      "inputs": [],
      "name": "getTotalNumberOfGames",
      "outputs": [
        {
          "internalType": "uint256",
          "name": "",
          "type": "uint256"
        }
      ],
      "stateMutability": "view",
      "type": "function"
    },
    {
      "inputs": [
        {
          "internalType": "uint256",
          "name": "gameNum",
          "type": "uint256"
        }
      ],
      "name": "getGameStatsByGameNum",
      "outputs": [
        {
          "components": [
            {
              "internalType": "bool",
              "name": "isOver",
              "type": "bool"
            },
            {
              "internalType": "uint16",
              "name": "totalUfoHp",
              "type": "uint16"
            },
            {
              "internalType": "uint32",
              "name": "gameNum",
              "type": "uint32"
            },
            {
              "internalType": "address",
              "name": "winner",
              "type": "address"
            },
            {
              "internalType": "uint256",
              "name": "gameStartTimeInSeconds",
              "type": "uint256"
            },
            {
              "internalType": "uint256",
              "name": "elapsedSecs",
              "type": "uint256"
            },
            {
              "internalType": "uint256[]",
              "name": "ufoIds",
              "type": "uint256[]"
            }
          ],
          "internalType": "struct UfoInvasion.GameStats",
          "name": "",
          "type": "tuple"
        }
      ],
      "stateMutability": "view",
      "type": "function"
    },
    {
      "inputs": [],
      "name": "getTotalHpForUFOs",
      "outputs": [
        {
          "internalType": "uint256",
          "name": "",
          "type": "uint256"
        }
      ],
      "stateMutability": "view",
      "type": "function"
    },
    {
      "inputs": [
        {
          "internalType": "bool",
          "name": "to",
          "type": "bool"
        }
      ],
      "name": "setIsGameActive",
      "outputs": [],
      "stateMutability": "nonpayable",
      "type": "function"
    },
    {
      "inputs": [
        {
          "internalType": "uint8",
          "name": "min",
          "type": "uint8"
        },
        {
          "internalType": "uint8",
          "name": "max",
          "type": "uint8"
        }
      ],
      "name": "updateMinMaxUFOs",
      "outputs": [],
      "stateMutability": "nonpayable",
      "type": "function"
    },
    {
      "inputs": [
        {
          "internalType": "uint16",
          "name": "newWantedGameLength",
          "type": "uint16"
        }
      ],
      "name": "updateWantedGameLengthInHours",
      "outputs": [],
      "stateMutability": "nonpayable",
      "type": "function"
    },
    {
      "inputs": [
        {
          "internalType": "uint64",
          "name": "to",
          "type": "uint64"
        }
      ],
      "name": "setGameWinnerTotalScoreMultiplier",
      "outputs": [],
      "stateMutability": "nonpayable",
      "type": "function"
    },
    {
      "inputs": [
        {
          "internalType": "uint64",
          "name": "to",
          "type": "uint64"
        }
      ],
      "name": "setUfoKillDmgScoreMultiplier",
      "outputs": [],
      "stateMutability": "nonpayable",
      "type": "function"
    },
    {
      "inputs": [
        {
          "internalType": "uint16",
          "name": "to",
          "type": "uint16"
        }
      ],
      "name": "setStartGameScoreReward",
      "outputs": [],
      "stateMutability": "nonpayable",
      "type": "function"
    },
    {
      "inputs": [
        {
          "internalType": "uint256",
          "name": "newMax",
          "type": "uint256"
        }
      ],
      "name": "setMaxNumMissilesInOneTxn",
      "outputs": [],
      "stateMutability": "nonpayable",
      "type": "function"
    },
    {
      "inputs": [
        {
          "internalType": "uint256",
          "name": "newMin",
          "type": "uint256"
        }
      ],
      "name": "setMinNumMintedBeforeYouCanAttack",
      "outputs": [],
      "stateMutability": "nonpayable",
      "type": "function"
    }
  ],
  "bytecode": "0x60806040526011805460ff191690556013805463ffffffff199081169091556005601455606460155560188054909116620509c41790556000601955601b80546001600160a01b0319167230000000000000009600000000000000960f07179055601e805461ffff191690553480156200007857600080fd5b50604080518082018252600c81526b2aa3279024b73b30b9b4b7b760a11b60208083019182528351808501909452600384526255464f60e81b90840152815191929183918391620000cc916000916200015d565b508051620000e29060019060208401906200015d565b505050620000ff620000f96200010760201b60201c565b6200010b565b505062000240565b3390565b600b80546001600160a01b038381166001600160a01b0319831681179093556040519116919082907f8be0079c531659141344cd1fd0a4f28419497f9722a3daafe3b4186f6b6457e090600090a35050565b8280546200016b9062000203565b90600052602060002090601f0160209004810192826200018f5760008555620001da565b82601f10620001aa57805160ff1916838001178555620001da565b82800160010185558215620001da579182015b82811115620001da578251825591602001919060010190620001bd565b50620001e8929150620001ec565b5090565b5b80821115620001e85760008155600101620001ed565b600181811c908216806200021857607f821691505b602082108114156200023a57634e487b7160e01b600052602260045260246000fd5b50919050565b61559880620002506000396000f3fe608060405234801561001057600080fd5b50600436106102565760003560e01c806370a082311161014257806370a082311461049b578063715018a6146104ae5780638462151c146104b657806384e637cb146104d65780638da5cb5b146104f657806395d89b41146104fe578063975b944d14610506578063a22cb46514610519578063a4a2650f1461052c578063b2e02d6714610594578063b88d4fde146105a0578063c263d7d0146105b3578063c87b56dd146105c1578063cab27f0c146105d4578063d286b968146105e7578063d53794ef146105ef578063d547cfb71461065e578063db44fe0714610666578063dfadeece14610679578063e985e9c51461068c578063f2fde38b1461069f578063f4761010146106b2578063f98a8e6a146106c5578063fa407920146106d8578063fc9881d1146106eb57600080fd5b806301ffc9a71461025b57806306fdde0314610283578063081812fc14610298578063095ea7b3146102c35780630b2e9679146102d85780630c0ef2b0146102eb57806318160ddd146102f65780631bbb62c0146103085780631e9890891461031b57806320f97a3e1461032e57806323b872dd14610336578063285111ed146103495780632ea5f68d146103695780632f745c591461037c57806331750b041461038f57806336416ab01461039b57806342842e0e146103ae578063466ade87146103c157806349699c73146103d45780634f6ccce71461043257806355f804b314610445578063592ca603146104585780636352211e1461046b57806364d081da1461047e5780636fef5cf814610488575b600080fd5b61026e610269366004614e2a565b6106fe565b60405190151581526020015b60405180910390f35b61028b610729565b60405161027a9190615128565b6102ab6102a6366004614ec9565b6107bb565b6040516001600160a01b03909116815260200161027a565b6102d66102d1366004614de5565b610848565b005b61026e6102e6366004614ec9565b610959565b60115460ff1661026e565b6008545b60405190815260200161027a565b6102d6610316366004614ec9565b610973565b6102d6610329366004614ea7565b6109a7565b6021546102fa565b6102d6610344366004614cf5565b6109f8565b61035c610357366004614ec9565b610a29565b60405161027a919061527f565b6102d6610377366004614fd5565b610b2e565b6102fa61038a366004614de5565b610b9f565b60185461ffff166102fa565b6102d66103a9366004614e10565b610c35565b6102d66103bc366004614cf5565b610c70565b6102d66103cf36600461500d565b610c8b565b6103e76103e2366004614ec9565b610cde565b60405161027a919081511515815260208083015161ffff16908201526040808301516001600160401b0316908201526060918201516001600160a01b03169181019190915260800190565b6102fa610440366004614ec9565b610e00565b6102d6610453366004614e62565b610ea1565b6102d6610466366004614ef9565b610ee7565b6102ab610479366004614ec9565b6111ac565b600f546102fa9081565b6102d6610496366004614ec9565b611223565b6102fa6104a9366004614c3b565b611257565b6102d66112de565b6104c96104c4366004614c3b565b611319565b60405161027a9190615115565b6104e96104e4366004614ec9565b6113d6565b60405161027a9190615213565b6102ab6113e7565b61028b6113f6565b6102d6610514366004614ea7565b611405565b6102d6610527366004614db1565b611465565b61053f61053a366004614fb4565b611470565b60405161027a9190815161ffff90811682526020808401519091169082015260408083015163ffffffff16908201526060808301516001600160a01b0316908201526080918201519181019190915260a00190565b601e5461ffff166102fa565b6102d66105ae366004614d35565b611489565b60135463ffffffff166102fa565b61028b6105cf366004614ec9565b6114c1565b61026e6105e2366004614ec9565b61158b565b6102fa611596565b6106026105fd366004614ec9565b6115d9565b6040805182511515815260208084015163ffffffff908116918301919091528383015116918101919091526060808301516001600160401b0316908201526080918201516001600160a01b03169181019190915260a00161027a565b61028b611717565b61026e610674366004614ec9565b6117a5565b6102d6610687366004614fd5565b6117bc565b61026e61069a366004614c73565b61182f565b6102d66106ad366004614c3b565b61185d565b61053f6106c0366004614ec9565b6118fa565b6102d66106d3366004614ec9565b6119b9565b6102d66106e6366004614cab565b611b46565b6102fa6106f9366004614ec9565b611bce565b60006001600160e01b0319821663780e9d6360e01b1480610723575061072382611be4565b92915050565b6060600080546107389061541a565b80601f01602080910402602001604051908101604052809291908181526020018280546107649061541a565b80156107b15780601f10610786576101008083540402835291602001916107b1565b820191906000526020600020905b81548152906001019060200180831161079457829003601f168201915b5050505050905090565b60006107c682611c34565b61082c5760405162461bcd60e51b815260206004820152602c60248201527f4552433732313a20617070726f76656420717565727920666f72206e6f6e657860448201526b34b9ba32b73a103a37b5b2b760a11b60648201526084015b60405180910390fd5b506000908152600460205260409020546001600160a01b031690565b6000610853826111ac565b9050806001600160a01b0316836001600160a01b031614156108c15760405162461bcd60e51b815260206004820152602160248201527f4552433732313a20617070726f76616c20746f2063757272656e74206f776e656044820152603960f91b6064820152608401610823565b336001600160a01b03821614806108dd57506108dd813361182f565b61094a5760405162461bcd60e51b815260206004820152603860248201527f4552433732313a20617070726f76652063616c6c6572206973206e6f74206f776044820152771b995c881b9bdc88185c1c1c9bdd995908199bdc88185b1b60421b6064820152608401610823565b6109548383611c51565b505050565b60008181526016602052604081205461ffff161515610723565b3361097c6113e7565b6001600160a01b0316146109a25760405162461bcd60e51b81526004016108239061518d565b601555565b336109b06113e7565b6001600160a01b0316146109d65760405162461bcd60e51b81526004016108239061518d565b601b805461ffff909216600160901b0261ffff60901b19909216919091179055565b610a023382611cbf565b610a1e5760405162461bcd60e51b8152600401610823906151c2565b610954838383611d89565b6040805161012081018252600080825260208201819052918101829052606081018290526080810182905260a0810182905260c0810182905260e0810182905261010081019190915260008281526025602052604090205461ffff16610a8e57600080fd5b50600090815260256020908152604091829020825161012081018452815461ffff8082168352620100008204811694830194909452600160201b81049093169381019390935263ffffffff600160301b830481166060850152600160501b909204909116608083015260018101546001600160a01b0390811660a084015260028201541660c0830152600381015460e08301526004015461010082015290565b33610b376113e7565b6001600160a01b031614610b5d5760405162461bcd60e51b81526004016108239061518d565b6064816001600160401b03161015610b7457600080fd5b601b80546001600160401b03909216620100000269ffffffffffffffff000019909216919091179055565b6000610baa83611257565b8210610c0c5760405162461bcd60e51b815260206004820152602b60248201527f455243373231456e756d657261626c653a206f776e657220696e646578206f7560448201526a74206f6620626f756e647360a81b6064820152608401610823565b506001600160a01b03919091166000908152600660209081526040808320938352929052205490565b33610c3e6113e7565b6001600160a01b031614610c645760405162461bcd60e51b81526004016108239061518d565b610c6d81611f1e565b50565b61095483838360405180602001604052806000815250611489565b33610c946113e7565b6001600160a01b031614610cba5760405162461bcd60e51b81526004016108239061518d565b601b805460ff9283166101000261ffff199091169290931691909117919091179055565b6040805160808101825260008082526020808301829052928201819052606082015290548210610d0d57600080fd5b601f600060208481548110610d3257634e487b7160e01b600052603260045260246000fd5b60009182526020808320909101546001600160a01b0316835282019290925260400190205460ff16610d6357600080fd5b601f600060208481548110610d8857634e487b7160e01b600052603260045260246000fd5b60009182526020808320909101546001600160a01b0390811684528382019490945260409283019091208251608081018452905460ff81161515825261ffff610100820416928201929092526001600160401b03630100000083041692810192909252600160581b9004909116606082015292915050565b6000610e0b60085490565b8210610e6e5760405162461bcd60e51b815260206004820152602c60248201527f455243373231456e756d657261626c653a20676c6f62616c20696e646578206f60448201526b7574206f6620626f756e647360a01b6064820152608401610823565b60088281548110610e8f57634e487b7160e01b600052603260045260246000fd5b90600052602060002001549050919050565b33610eaa6113e7565b6001600160a01b031614610ed05760405162461bcd60e51b81526004016108239061518d565b8051610ee3906010906020840190614a6b565b5050565b601354610f1490610eff9063ffffffff166002615363565b63ffffffff1684611f3190919063ffffffff16565b9250601554600c60000160009054906101000a90046001600160a01b03166001600160a01b03166318160ddd6040518163ffffffff1660e01b815260040160206040518083038186803b158015610f6a57600080fd5b505afa158015610f7e573d6000803e3d6000fd5b505050506040513d601f19601f82011682018060405250810190610fa29190614ee1565b11610fac57600080fd5b60115460ff16610fbb57600080fd5b601454825110610fca57600080fd5b60135463ffffffff908116600090815260176020526040902060010154610ff491429190611f3d16565b6013805463ffffffff9081166000908152601760205260408082206002019490945591541681529081206003015461105490859084116110345783611f58565b60135463ffffffff16600090815260176020526040902060030154611f58565b905060005b835181101561117057600061106d83612264565b9050825181146110845761108181846122e1565b92505b82516110905750611170565b61109a828761534b565b95506000836110bf85516110b942878c6123dd9092919063ffffffff16565b90612427565b815181106110dd57634e487b7160e01b600052603260045260246000fd5b602002602001015190506110f081610959565b6110fb57505061115e565b600261112f3388868151811061112157634e487b7160e01b600052603260045260246000fd5b602002602001015184612447565b600281111561114e57634e487b7160e01b600052602160045260246000fd5b141561115b575050611170565b50505b8061116881615477565b915050611059565b506024805463ffffffff1690600061118783615492565b91906101000a81548163ffffffff021916908363ffffffff1602179055505050505050565b6000818152600260205260408120546001600160a01b0316806107235760405162461bcd60e51b815260206004820152602960248201527f4552433732313a206f776e657220717565727920666f72206e6f6e657869737460448201526832b73a103a37b5b2b760b91b6064820152608401610823565b3361122c6113e7565b6001600160a01b0316146112525760405162461bcd60e51b81526004016108239061518d565b601455565b60006001600160a01b0382166112c25760405162461bcd60e51b815260206004820152602a60248201527f4552433732313a2062616c616e636520717565727920666f7220746865207a65604482015269726f206164647265737360b01b6064820152608401610823565b506001600160a01b031660009081526003602052604090205490565b336112e76113e7565b6001600160a01b03161461130d5760405162461bcd60e51b81526004016108239061518d565b6113176000612abb565b565b6060600061132683611257565b90506000816001600160401b0381111561135057634e487b7160e01b600052604160045260246000fd5b604051908082528060200260200182016040528015611379578160200160208202803683370190505b50905060005b828110156113ce576113918582610b9f565b8282815181106113b157634e487b7160e01b600052603260045260246000fd5b6020908102919091010152806113c681615477565b91505061137f565b509392505050565b6113de614aef565b61072382612b0d565b600b546001600160a01b031690565b6060600180546107389061541a565b3361140e6113e7565b6001600160a01b0316146114345760405162461bcd60e51b81526004016108239061518d565b60648161ffff161061144557600080fd5b6018805461ffff909216620100000263ffff000019909216919091179055565b610ee3338383612c13565b611478614b41565b6114828383612cde565b9392505050565b6114933383611cbf565b6114af5760405162461bcd60e51b8152600401610823906151c2565b6114bb84848484612e45565b50505050565b60606114cc82611c34565b6115305760405162461bcd60e51b815260206004820152602f60248201527f4552433732314d657461646174613a2055524920717565727920666f72206e6f60448201526e3732bc34b9ba32b73a103a37b5b2b760891b6064820152608401610823565b600061153a612e78565b9050600081511161155a5760405180602001604052806000815250611482565b8061156484612e87565b6040516020016115759291906150a9565b6040516020818303038152906040529392505050565b600061072382612fa0565b60115460009060ff161580156115b2575060135463ffffffff16155b156115bd5750600090565b6013546115cf9063ffffffff16612b0d565b60c0015151905090565b6040805160a081018252600080825260208201819052918101829052606081018290526080810191909152602354821061161257600080fd5b602260006023848154811061163757634e487b7160e01b600052603260045260246000fd5b60009182526020808320909101546001600160a01b0316835282019290925260400190205460ff1661166857600080fd5b602260006023848154811061168d57634e487b7160e01b600052603260045260246000fd5b6000918252602080832091909101546001600160a01b039081168452838201949094526040928301909120825160a081018452815460ff811615158252610100810463ffffffff90811694830194909452600160281b810490931693810193909352600160481b9091046001600160401b0316606083015260010154909116608082015292915050565b601080546117249061541a565b80601f01602080910402602001604051908101604052809291908181526020018280546117509061541a565b801561179d5780601f106117725761010080835404028352916020019161179d565b820191906000526020600020905b81548152906001019060200180831161178057829003601f168201915b505050505081565b6000818152600a602052604081205460ff16610723565b336117c56113e7565b6001600160a01b0316146117eb5760405162461bcd60e51b81526004016108239061518d565b6064816001600160401b0316101561180257600080fd5b601b80546001600160401b03909216600160501b0267ffffffffffffffff60501b19909216919091179055565b6001600160a01b03918216600090815260056020908152604080832093909416825291909152205460ff1690565b336118666113e7565b6001600160a01b03161461188c5760405162461bcd60e51b81526004016108239061518d565b6001600160a01b0381166118f15760405162461bcd60e51b815260206004820152602660248201527f4f776e61626c653a206e6577206f776e657220697320746865207a65726f206160448201526564647265737360d01b6064820152608401610823565b610c6d81612abb565b611902614b41565b60135463ffffffff1615158061191a575060115460ff165b6119725760405162461bcd60e51b815260206004820152602360248201527f746865726520686173206e65766572206265656e20612067616d65206265666f60448201526272652160e81b6064820152608401610823565b60115460009060ff1661199d576013546119989063ffffffff90811690600190612fc116565b6119a7565b60135463ffffffff165b9050611482838263ffffffff16612cde565b6013546119e6906119d19063ffffffff166001615363565b63ffffffff1682611f3190919063ffffffff16565b60115490915060ff16156119f957600080fd5b611a036001611f1e565b60195415801590611a155750601a5415155b15611ac057601954601a54601b54601854611a4093929161ffff600160901b90910481169116612fcd565b6018805461ffff191661ffff9290921691909117905560005b601e5461ffff16811015611ab35760208181548110611a8857634e487b7160e01b600052603260045260246000fd5b600091825260209091200180546001600160a01b031916905580611aab81615477565b915050611a59565b50601e805461ffff191690555b611ac981613061565b601854611af090606490611aea9061ffff80821691620100009004166133ee565b906133fa565b336000908152601f602052604090208054600390611b1f908490630100000090046001600160401b0316615382565b92506101000a8154816001600160401b0302191690836001600160401b0316021790555050565b33611b4f6113e7565b6001600160a01b031614611b755760405162461bcd60e51b81526004016108239061518d565b604080516060810182526001600160a01b0394851680825293851660208201819052929094169301839052600c80546001600160a01b03199081169093179055600d805483169091179055600e80549091169091179055565b6000611bd982612b0d565b60c001515192915050565b60006001600160e01b031982166380ac58cd60e01b1480611c1557506001600160e01b03198216635b5e139f60e01b145b8061072357506301ffc9a760e01b6001600160e01b0319831614610723565b6000908152600260205260409020546001600160a01b0316151590565b600081815260046020526040902080546001600160a01b0319166001600160a01b0384169081179091558190611c86826111ac565b6001600160a01b03167f8c5be1e5ebec7d5bd14f71427d1e84f3dd0314c0f7b2291e5b200ac8c7c3b92560405160405180910390a45050565b6000611cca82611c34565b611d2b5760405162461bcd60e51b815260206004820152602c60248201527f4552433732313a206f70657261746f7220717565727920666f72206e6f6e657860448201526b34b9ba32b73a103a37b5b2b760a11b6064820152608401610823565b6000611d36836111ac565b9050806001600160a01b0316846001600160a01b03161480611d715750836001600160a01b0316611d66846107bb565b6001600160a01b0316145b80611d815750611d81818561182f565b949350505050565b826001600160a01b0316611d9c826111ac565b6001600160a01b031614611e005760405162461bcd60e51b815260206004820152602560248201527f4552433732313a207472616e736665722066726f6d20696e636f72726563742060448201526437bbb732b960d91b6064820152608401610823565b6001600160a01b038216611e625760405162461bcd60e51b8152602060048201526024808201527f4552433732313a207472616e7366657220746f20746865207a65726f206164646044820152637265737360e01b6064820152608401610823565b611e6d838383613406565b611e78600082611c51565b6001600160a01b0383166000908152600360205260408120805460019290611ea19084906153d7565b90915550506001600160a01b0382166000908152600360205260408120805460019290611ecf90849061534b565b909155505060008181526002602052604080822080546001600160a01b0319166001600160a01b03868116918217909255915184939187169160008051602061554383398151915291a4505050565b6011805460ff1916911515919091179055565b6000611482828461534b565b6000828210611f4e57506000610723565b6114828383612fc1565b60606000805b60135463ffffffff166000908152601760205260409020600301548110156120045760135463ffffffff1660009081526017602052604081206003018054601692919084908110611fbf57634e487b7160e01b600052603260045260246000fd5b6000918252602080832090910154835282019290925260400190205461ffff1615611ff25781611fee81615477565b9250505b80611ffc81615477565b915050611f5e565b506000816001600160401b0381111561202d57634e487b7160e01b600052604160045260246000fd5b604051908082528060200260200182016040528015612056578160200160208202803683370190505b5090506000805b60135463ffffffff166000908152601760205260409020600301548110156121735760135463ffffffff16600090815260176020526040812060030180546016929190849081106120be57634e487b7160e01b600052603260045260246000fd5b6000918252602080832090910154835282019290925260400190205461ffff16156121615760135463ffffffff16600090815260176020526040902060030180548290811061211d57634e487b7160e01b600052603260045260246000fd5b906000526020600020015483838151811061214857634e487b7160e01b600052603260045260246000fd5b60209081029190910101528161215d81615477565b9250505b8061216b81615477565b91505061205d565b5061217f8642846134be565b915060008386116121905785612192565b835b90506000816001600160401b038111156121bc57634e487b7160e01b600052604160045260246000fd5b6040519080825280602002602001820160405280156121e5578160200160208202803683370190505b50905060005b828110156122585784818151811061221357634e487b7160e01b600052603260045260246000fd5b602002602001015182828151811061223b57634e487b7160e01b600052603260045260246000fd5b60209081029190910101528061225081615477565b9150506121eb565b50979650505050505050565b600081516000141561227857506000919050565b6000805b83518110156122da576122b58482815181106122a857634e487b7160e01b600052603260045260246000fd5b6020026020010151610959565b156122c857816122c481615477565b9250505b806122d281615477565b91505061227c565b5092915050565b60606000836001600160401b0381111561230b57634e487b7160e01b600052604160045260246000fd5b604051908082528060200260200182016040528015612334578160200160208202803683370190505b5090506000805b84518110156123d3576123678582815181106122a857634e487b7160e01b600052603260045260246000fd5b156123c15784818151811061238c57634e487b7160e01b600052603260045260246000fd5b60200260200101518383815181106123b457634e487b7160e01b600052603260045260246000fd5b6020026020010181815250505b806123cb81615477565b91505061233b565b5090949350505050565b6000826123f56123ee846001611f31565b8690611f31565b60408051602081019390935282015260600160408051601f198184030181529190528051602090910120949350505050565b6000806000831161243957600161243b565b825b9050611d8184826135f5565b600061245282611c34565b61249e5760405162461bcd60e51b815260206004820152601f60248201527f746869732063616e6e6f742062652061747461636b656420616e796d6f7265006044820152606401610823565b600d54604051631f4139fb60e01b81526001600160a01b038681166004830152602482018690526000921690631f4139fb90604401602060405180830381600087803b1580156124ed57600080fd5b505af1158015612501573d6000803e3d6000fd5b505050506040513d601f19601f820116820180604052508101906125259190614ff1565b90506125318582613601565b60008381526016602052604090205461ffff16612557816001600160401b038416611f3d565b6000858152601660209081526040808320805461ffff191661ffff95909516949094179093556001600160a01b0389168252601f90522080548391906003906125b1908490630100000090046001600160401b0316615382565b82546101009290920a6001600160401b038181021990931691831602179091556001600160a01b038816600090815260226020526040902080548593509091600991612606918591600160481b900416615382565b82546001600160401b039182166101009390930a9283029190920219909116179055506013546024546040805163ffffffff93841681526001600160a01b038a1660208201529290911690820152606081018690527faa2c73bcb9ab0dda0298f8349e926ba1c8b550a94eab2be55013e8055d7cc35e9060800160405180910390a1604080516101208101825261ffff80851682528381166020808401919091526000888152601690915283902054169181019190915260245463ffffffff90811660608301526013541660808201526001600160a01b03871660a082015260c081016126f2866111ac565b6001600160a01b0390811682526020808301899052604092830188905260008981526025825283812085518154878501518888015160608a015160808b015161ffff95861663ffffffff199095169490941762010000938616939093029290921765ffffffffffff60201b1916600160201b9185169190910263ffffffff60301b191617600160301b63ffffffff928316021763ffffffff60501b1916600160501b919092160217825560a08701516001830180546001600160a01b031990811692881692909217905560c088015160028401805490921696169590951790945560e08601516003820155610100909501516004909501949094558784526016905291205416612aaf57601b5461282f906001600160401b038085169161282991606491611aea918591600160501b9004166133ee565b90611f3d565b6001600160a01b0387166000908152601f602052604090208054919350839160039061286c908490630100000090046001600160401b0316615382565b82546101009290920a6001600160401b038181021990931691831602179091556001600160a01b0388166000908152602260205260409020805485935090916009916128c1918591600160481b900416615382565b92506101000a8154816001600160401b0302191690836001600160401b031602179055506128ee84613ac8565b6128f6613aea565b15612aa457612903613c11565b60135463ffffffff908116600090815260176020908152604080832080546001600160a01b03968716600160381b02600160381b600160d81b0319909116179055938a168252601f90529190912054601b54612987926001600160401b03630100000090930483169261282992606492611aea92869262010000900416906133ee16565b60135463ffffffff16600090815260176020908152604080832054600160381b90046001600160a01b03168352601f9091529020805491935083916003906129e0908490630100000090046001600160401b0316615382565b82546101009290920a6001600160401b0381810219909316918316021790915560135463ffffffff16600090815260176020908152604080832054600160381b90046001600160a01b031683526022909152902080548593509091600991612a51918591600160481b900416615382565b82546001600160401b039182166101009390930a9283029190920219909116179055505060135463ffffffff166000908152601760205260409020805460ff19166001179055505042601a556002611482565b600192505050611482565b50600095945050505050565b600b80546001600160a01b038381166001600160a01b0319831681179093556040519116919082907f8be0079c531659141344cd1fd0a4f28419497f9722a3daafe3b4186f6b6457e090600090a35050565b612b15614aef565b60135463ffffffff16821115612b2a57600080fd5b6000828152601760209081526040808320815160e081018352815460ff811615158252610100810461ffff16828601526301000000810463ffffffff1682850152600160381b90046001600160a01b0316606082015260018201546080820152600282015460a08201526003820180548451818702810187019095528085529194929360c0860193909290830182828015612be457602002820191906000526020600020905b815481526020019060010190808311612bd0575b50505050508152505090508060000151610723576080810151612c08904290612fc1565b60a082015292915050565b816001600160a01b0316836001600160a01b03161415612c715760405162461bcd60e51b815260206004820152601960248201527822a9219b99189d1030b8383937bb32903a379031b0b63632b960391b6044820152606401610823565b6001600160a01b03838116600081815260056020908152604080832094871680845294825291829020805460ff191686151590811790915591519182527f17307eab39ab6107e8899845ad3d59bd9653f200f220920489ca2b5937696c31910160405180910390a3505050565b612ce6614b41565b6000612cf183612b0d565b90508060c00151518410612d0457600080fd5b612d388160c001518581518110612d2b57634e487b7160e01b600052603260045260246000fd5b6020026020010151612fa0565b612d4157600080fd5b6000601660008360c001518781518110612d6b57634e487b7160e01b600052603260045260246000fd5b6020908102919091018101518252818101929092526040908101600020815160a081018352815461ffff80821683526201000082041694820194909452600160201b840463ffffffff1692810192909252600160401b9092046001600160a01b03166060820152600190910154608082015260c08301518051919250612e169187908110612e0957634e487b7160e01b600052603260045260246000fd5b60200260200101516117a5565b15612e22576000612e2f565b612e2f81608001516111ac565b6001600160a01b03166060820152949350505050565b612e50848484611d89565b612e5c84848484613da5565b6114bb5760405162461bcd60e51b81526004016108239061513b565b6060601080546107389061541a565b606081612eab5750506040805180820190915260018152600360fc1b602082015290565b8160005b8115612ed55780612ebf81615477565b9150612ece9050600a836153a4565b9150612eaf565b6000816001600160401b03811115612efd57634e487b7160e01b600052604160045260246000fd5b6040519080825280601f01601f191660200182016040528015612f27576020820181803683370190505b5090505b8415611d8157612f3c6001836153d7565b9150612f49600a866154ac565b612f5490603061534b565b60f81b818381518110612f7757634e487b7160e01b600052603260045260246000fd5b60200101906001600160f81b031916908160001a905350612f99600a866153a4565b9450612f2b565b6000818152600a602052604081205460ff1680610723575061072382611c34565b600061148282846153d7565b600080612fe1603c611aea8181898b612fc1565b61ffff1690506000848211612fff57612ffa8583612fc1565b613009565b6130098286612fc1565b9050600061303061301f87611aea8560646133ee565b61302a8760646133fa565b906133ee565b9050600086841161304a576130458683611f31565b613054565b6130548683612fc1565b9998505050505050505050565b601b546000906130ba9060ff808216916130b4916130859161010090041683612fc1565b6040805142602080830191909152818301899052825180830384018152606090920190925280519101206110b9565b90611f31565b905060006130d083836130cb613eaf565b6142c3565b80516018549192506000916130ed91429187919061ffff166143c3565b9050600082516001600160401b0381111561311857634e487b7160e01b600052604160045260246000fd5b604051908082528060200260200182016040528015613141578160200160208202803683370190505b50905060005b83518110156132fc57600084828151811061317257634e487b7160e01b600052603260045260246000fd5b6020026020010151905060006131878261456c565b6000818152601260205260409020849055845190915081908590859081106131bf57634e487b7160e01b600052603260045260246000fd5b6020026020010181815250506040518060a001604052808685815181106131f657634e487b7160e01b600052603260045260246000fd5b602002602001015161ffff16815260200186858151811061322757634e487b7160e01b600052603260045260246000fd5b60209081029190910181015161ffff908116835260135463ffffffff908116848401526001600160a01b0396871660408086019190915260609485018790526000968752601684529586902085518154948701519787015195870151909816600160401b02600160401b600160e01b031995909216600160201b0294909416600160201b600160e01b0319968316620100000263ffffffff19909416979092169690961791909117939093169290921792909217815560809091015160019190910155806132f481615477565b915050613147565b506040805160e081018252600080825260185461ffff908116602080850191825260135463ffffffff9081168688018181526060880187815260195460808a0190815260a08a0189815260c08b018d8152948a52601787529a909820895181549751935192516001600160a01b0316600160381b02600160381b600160d81b031993909616630100000002929092166301000000600160d81b0319939098166101000262ffff00199215159290921662ffffff199097169690961717169490941717825592516001820155935160028501555180519293926133e49260038501920190614b6f565b5050505050505050565b600061148282846153b8565b600061148282846153a4565b6001600160a01b0383166134615761345c81600880546000838152600960205260408120829055600182018355919091527ff3f7a9fe364faab93b216da50a3214154f22a0a2b415b23a84c8169e8b636ee30155565b613484565b816001600160a01b0316836001600160a01b031614613484576134848382614592565b6001600160a01b03821661349b576109548161462f565b826001600160a01b0316826001600160a01b031614610954576109548282614708565b606060005b82518110156135ec5760006135286135216134e8848751612fc190919063ffffffff16565b60408051602081018b90529081018990526060810186905260800160408051601f198184030181529190528051602090910120906135f5565b8390611f31565b9050600084828151811061354c57634e487b7160e01b600052603260045260246000fd5b6020026020010151905084838151811061357657634e487b7160e01b600052603260045260246000fd5b602002602001015185838151811061359e57634e487b7160e01b600052603260045260246000fd5b602002602001018181525050808584815181106135cb57634e487b7160e01b600052603260045260246000fd5b602002602001018181525050505080806135e490615477565b9150506134c3565b50909392505050565b600061148282846154ac565b6001600160a01b0382166000908152601f602052604090205460ff166137b75760408051608081018252600180825260208083019182526001600160401b038581168486019081526001600160a01b03888116606087018181526000918252601f86529790209551865495519251975162ffffff1990961690151562ffff0019161761010061ffff93841602176301000000600160f81b03191663010000009790931696909602600160581b600160f81b03191691909117600160581b9390951692909202939093179091559054601e549091161061372a57602080546001810182556000919091527fc97bfaf2f8ee708c303a06d134f5ecd8389ae0432af62dc132a24118292866bb0180546001600160a01b0319166001600160a01b038416179055613783565b601e5460208054849261ffff1690811061375457634e487b7160e01b600052603260045260246000fd5b9060005260206000200160006101000a8154816001600160a01b0302191690836001600160a01b031602179055505b601e805461ffff1690600061379783615455565b91906101000a81548161ffff021916908361ffff1602179055505061385d565b6001600160a01b0382166000908152601f6020526040902080548291906003906137f2908490630100000090046001600160401b0316615382565b82546001600160401b0391821661010093840a90810292021916179091556001600160a01b0384166000908152601f60205260409020805461ffff929004919091169150600161384183615455565b91906101000a81548161ffff021916908361ffff160217905550505b6001600160a01b03821660009081526022602052604090205460ff16613a13576040805160a0810182526001808252600060208084018281528486018481526001600160401b03888116606088019081526001600160a01b038b811660808a018181529088526022909652989095209651875493519251955164ffffffffff1990941690151564ffffffff0019161761010063ffffffff9384160217600160281b600160881b031916600160281b929095169190910267ffffffffffffffff60481b191693909317600160481b919093160291909117835551910180546001600160a01b0319169190921617905560235460215414156139a757602380546001810182556000919091527fd57b2b5166478fd4318d2acc6cc2c704584312bdd8781b32d5d06abda57f42300180546001600160a01b0319166001600160a01b0384161790556139fa565b816023602154815481106139cb57634e487b7160e01b600052603260045260246000fd5b9060005260206000200160006101000a8154816001600160a01b0302191690836001600160a01b031602179055505b60218054906000613a0a83615477565b91905055505050565b6001600160a01b03821660009081526022602052604090208054829190600990613a4e908490600160481b90046001600160401b0316615382565b82546001600160401b039182166101009390930a9283029190920219909116179055506001600160a01b0382166000908152602260205260409020805463ffffffff600160281b90910416906005613aa583615492565b91906101000a81548163ffffffff021916908363ffffffff160217905550505050565b6000818152600a60205260409020805460ff19166001179055610c6d8161474c565b6000805b60135463ffffffff16600090815260176020526040902060030154811015613b8e5760135463ffffffff1660009081526017602052604081206003018054601692919084908110613b4f57634e487b7160e01b600052603260045260246000fd5b6000918252602080832090910154835282019290925260400190205461ffff1615613b7c57600091505090565b80613b8681615477565b915050613aee565b5060135460405163ffffffff90911681527f3496ed15a97ad1d154265bf94e0068b3b45bed65b26cb72ecc4e1b8a44d9b3d79060200160405180910390a16013805463ffffffff16906000613be283615492565b91906101000a81548163ffffffff021916908363ffffffff16021790555050613c0b6000611f1e565b50600190565b60008080805b601e5461ffff16811015613d4c57600060208281548110613c4857634e487b7160e01b600052603260045260246000fd5b60009182526020808320909101546001600160a01b03908116808452601f83526040938490208451608081018652905460ff81161515825261ffff610100820416948201949094526001600160401b036301000000850416948101859052600160581b9093049091166060830152925090841080613d1557508381604001516001600160401b0316148015613d1557506001600160a01b038086166000908152602260205260408082205492851682529020546001600160401b03600160481b9283900481169290910416115b80613d1e575083155b15613d375780604001516001600160401b031693508194505b50508080613d4490615477565b915050613c17565b506001600160a01b03821660009081526022602052604090208054610100900463ffffffff16906001613d7e83615492565b91906101000a81548163ffffffff021916908363ffffffff16021790555050819250505090565b60006001600160a01b0384163b15613ea757604051630a85bd0160e11b81526001600160a01b0385169063150b7a0290613de99033908990889088906004016150d8565b602060405180830381600087803b158015613e0357600080fd5b505af1925050508015613e33575060408051601f3d908101601f19168201909252613e3091810190614e46565b60015b613e8d573d808015613e61576040519150601f19603f3d011682016040523d82523d6000602084013e613e66565b606091505b508051613e855760405162461bcd60e51b81526004016108239061513b565b805181602001fd5b6001600160e01b031916630a85bd0160e11b149050611d81565b506001611d81565b600c54604080516318160ddd60e01b815290516060926000926001600160a01b0390911691839183916318160ddd91600480820192602092909190829003018186803b158015613efe57600080fd5b505afa158015613f12573d6000803e3d6000fd5b505050506040513d601f19601f82011682018060405250810190613f369190614ee1565b905060005b8181101561415857604051634f6ccce760e01b8152600481018290526000906001600160a01b03851690634f6ccce79060240160206040518083038186803b158015613f8657600080fd5b505afa158015613f9a573d6000803e3d6000fd5b505050506040513d601f19601f82011682018060405250810190613fbe9190614ee1565b6040516331a9108f60e11b8152600481018290529091506000906001600160a01b03861690636352211e9060240160206040518083038186803b15801561400457600080fd5b505afa158015614018573d6000803e3d6000fd5b505050506040513d601f19601f8201168201806040525081019061403c9190614c57565b6001600160a01b0381166000908152601c602052604090205490915060ff1615614067575050614146565b8561407181615477565b6001600160a01b0383166000908152601c60205260409020805460ff19166001179055601d54909750841090506140f257601d80546001810182556000919091527f6d4407e7be21f808e6509aa9fa9143369579dd7d760fe20a2c09680fc146134f0180546001600160a01b0319166001600160a01b038316179055614143565b80601d848154811061411457634e487b7160e01b600052603260045260246000fd5b9060005260206000200160006101000a8154816001600160a01b0302191690836001600160a01b031602179055505b50505b8061415081615477565b915050613f3b565b506000836001600160401b0381111561418157634e487b7160e01b600052604160045260246000fd5b6040519080825280602002602001820160405280156141aa578160200160208202803683370190505b50905060005b8481101561424157601d81815481106141d957634e487b7160e01b600052603260045260246000fd5b9060005260206000200160009054906101000a90046001600160a01b031682828151811061421757634e487b7160e01b600052603260045260246000fd5b6001600160a01b03909216602092830291909101909101528061423981615477565b9150506141b0565b5060005b848110156142ba576000601c6000601d848154811061427457634e487b7160e01b600052603260045260246000fd5b6000918252602080832091909101546001600160a01b031683528201929092526040019020805460ff1916911515919091179055806142b281615477565b915050614245565b50949350505050565b60606142d08442846147e1565b9150600083835111156142e357836142e6565b82515b90506000816001600160401b0381111561431057634e487b7160e01b600052604160045260246000fd5b604051908082528060200260200182016040528015614339578160200160208202803683370190505b50905060005b828110156143b95784818151811061436757634e487b7160e01b600052603260045260246000fd5b602002602001015182828151811061438f57634e487b7160e01b600052603260045260246000fd5b6001600160a01b0390921660209283029190910190910152806143b181615477565b91505061433f565b5095945050505050565b6060600080600080866001600160401b038111156143f157634e487b7160e01b600052604160045260246000fd5b60405190808252806020026020018201604052801561441a578160200160208202803683370190505b50905060005b8781101561455f576144336001896153d7565b811415614476578682828151811061445b57634e487b7160e01b600052603260045260246000fd5b602002602001019061ffff16908161ffff168152505061455f565b61448e6144838983612fc1565b61ffff8916906133fa565b94506144a561449e86600a6133fa565b8690611f3d565b93506144b56123ee86600a6133fa565b92506144d3846130b46144c88683612fc1565b6110b98d8f876123dd565b8282815181106144f357634e487b7160e01b600052603260045260246000fd5b602002602001019061ffff16908161ffff168152505061454b82828151811061452c57634e487b7160e01b600052603260045260246000fd5b602002602001015161ffff168861ffff16611f3d90919063ffffffff16565b96508061455781615477565b915050614420565b5098975050505050505050565b600080614578600f5490565b905061458483826148f7565b610723600f80546001019055565b6000600161459f84611257565b6145a991906153d7565b6000838152600760205260409020549091508082146145fc576001600160a01b03841660009081526006602090815260408083208584528252808320548484528184208190558352600790915290208190555b5060009182526007602090815260408084208490556001600160a01b039094168352600681528383209183525290812055565b600854600090614641906001906153d7565b6000838152600960205260408120546008805493945090928490811061467757634e487b7160e01b600052603260045260246000fd5b9060005260206000200154905080600883815481106146a657634e487b7160e01b600052603260045260246000fd5b60009182526020808320909101929092558281526009909152604080822084905585825281205560088054806146ec57634e487b7160e01b600052603160045260246000fd5b6001900381819060005260206000200160009055905550505050565b600061471383611257565b6001600160a01b039093166000908152600660209081526040808320868452825280832085905593825260079052919091209190915550565b6000614757826111ac565b905061476581600084613406565b614770600083611c51565b6001600160a01b03811660009081526003602052604081208054600192906147999084906153d7565b909155505060008281526002602052604080822080546001600160a01b0319169055518391906001600160a01b03841690600080516020615543833981519152908390a45050565b606060005b82518110156135ec57600061480b6135216134e8848751612fc190919063ffffffff16565b9050600084828151811061482f57634e487b7160e01b600052603260045260246000fd5b6020026020010151905084838151811061485957634e487b7160e01b600052603260045260246000fd5b602002602001015185838151811061488157634e487b7160e01b600052603260045260246000fd5b60200260200101906001600160a01b031690816001600160a01b031681525050808584815181106148c257634e487b7160e01b600052603260045260246000fd5b60200260200101906001600160a01b031690816001600160a01b031681525050505080806148ef90615477565b9150506147e6565b610ee3828260405180602001604052806000815250614916838361493f565b6149236000848484613da5565b6109545760405162461bcd60e51b81526004016108239061513b565b6001600160a01b0382166149955760405162461bcd60e51b815260206004820181905260248201527f4552433732313a206d696e7420746f20746865207a65726f20616464726573736044820152606401610823565b61499e81611c34565b156149ea5760405162461bcd60e51b815260206004820152601c60248201527b115490cdcc8c4e881d1bdad95b88185b1c9958591e481b5a5b9d195960221b6044820152606401610823565b6149f660008383613406565b6001600160a01b0382166000908152600360205260408120805460019290614a1f90849061534b565b909155505060008181526002602052604080822080546001600160a01b0319166001600160a01b0386169081179091559051839290600080516020615543833981519152908290a45050565b828054614a779061541a565b90600052602060002090601f016020900481019282614a995760008555614adf565b82601f10614ab257805160ff1916838001178555614adf565b82800160010185558215614adf579182015b82811115614adf578251825591602001919060010190614ac4565b50614aeb929150614ba9565b5090565b6040518060e00160405280600015158152602001600061ffff168152602001600063ffffffff16815260200160006001600160a01b031681526020016000815260200160008152602001606081525090565b6040805160a08101825260008082526020820181905291810182905260608101829052608081019190915290565b828054828255906000526020600020908101928215614adf5791602002820182811115614adf578251825591602001919060010190614ac4565b5b80821115614aeb5760008155600101614baa565b60006001600160401b03831115614bd757614bd76154ec565b614bea601f8401601f191660200161531b565b9050828152838383011115614bfe57600080fd5b828260208301376000602084830101529392505050565b80358015158114614c2557600080fd5b919050565b803560ff81168114614c2557600080fd5b600060208284031215614c4c578081fd5b813561148281615502565b600060208284031215614c68578081fd5b815161148281615502565b60008060408385031215614c85578081fd5b8235614c9081615502565b91506020830135614ca081615502565b809150509250929050565b600080600060608486031215614cbf578081fd5b8335614cca81615502565b92506020840135614cda81615502565b91506040840135614cea81615502565b809150509250925092565b600080600060608486031215614d09578283fd5b8335614d1481615502565b92506020840135614d2481615502565b929592945050506040919091013590565b60008060008060808587031215614d4a578081fd5b8435614d5581615502565b93506020850135614d6581615502565b92506040850135915060608501356001600160401b03811115614d86578182fd5b8501601f81018713614d96578182fd5b614da587823560208401614bbe565b91505092959194509250565b60008060408385031215614dc3578182fd5b8235614dce81615502565b9150614ddc60208401614c15565b90509250929050565b60008060408385031215614df7578182fd5b8235614e0281615502565b946020939093013593505050565b600060208284031215614e21578081fd5b61148282614c15565b600060208284031215614e3b578081fd5b813561148281615517565b600060208284031215614e57578081fd5b815161148281615517565b600060208284031215614e73578081fd5b81356001600160401b03811115614e88578182fd5b8201601f81018413614e98578182fd5b611d8184823560208401614bbe565b600060208284031215614eb8578081fd5b813561ffff81168114611482578182fd5b600060208284031215614eda578081fd5b5035919050565b600060208284031215614ef2578081fd5b5051919050565b600080600060608486031215614f0d578081fd5b833592506020808501356001600160401b0380821115614f2b578384fd5b818701915087601f830112614f3e578384fd5b813581811115614f5057614f506154ec565b8060051b9150614f6184830161531b565b8181528481019084860184860187018c1015614f7b578788fd5b8795505b83861015614f9d578035835260019590950194918601918601614f7f565b50979a979950505050604095909501359450505050565b60008060408385031215614fc6578182fd5b50508035926020909101359150565b600060208284031215614fe6578081fd5b81356114828161552d565b600060208284031215615002578081fd5b81516114828161552d565b6000806040838503121561501f578182fd5b61502883614c2a565b9150614ddc60208401614c2a565b6001600160a01b03169052565b6000815180845260208085019450808401835b8381101561507257815187529582019590820190600101615056565b509495945050505050565b600081518084526150958160208601602086016153ee565b601f01601f19169290920160200192915050565b600083516150bb8184602088016153ee565b8351908301906150cf8183602088016153ee565b01949350505050565b6001600160a01b038581168252841660208201526040810183905260806060820181905260009061510b9083018461507d565b9695505050505050565b6020815260006114826020830184615043565b602081526000611482602083018461507d565b60208082526032908201527f4552433732313a207472616e7366657220746f206e6f6e20455243373231526560408201527131b2b4bb32b91034b6b83632b6b2b73a32b960711b606082015260800190565b6020808252818101527f4f776e61626c653a2063616c6c6572206973206e6f7420746865206f776e6572604082015260600190565b60208082526031908201527f4552433732313a207472616e736665722063616c6c6572206973206e6f74206f6040820152701ddb995c881b9bdc88185c1c1c9bdd9959607a1b606082015260800190565b6020815281511515602082015261ffff602083015116604082015263ffffffff604083015116606082015260018060a01b036060830151166080820152608082015160a082015260a082015160c0820152600060c083015160e080840152611d81610100840182615043565b815161ffff9081168252602080840151821690830152604080840151918216908301526101208201905060608301516152c0606084018263ffffffff169052565b5060808301516152d8608084018263ffffffff169052565b5060a08301516152eb60a0840182615036565b5060c08301516152fe60c0840182615036565b5060e083015160e083015261010080840151818401525092915050565b604051601f8201601f191681016001600160401b0381118282101715615343576153436154ec565b604052919050565b6000821982111561535e5761535e6154c0565b500190565b600063ffffffff8083168185168083038211156150cf576150cf6154c0565b60006001600160401b038083168185168083038211156150cf576150cf6154c0565b6000826153b3576153b36154d6565b500490565b60008160001904831182151516156153d2576153d26154c0565b500290565b6000828210156153e9576153e96154c0565b500390565b60005b838110156154095781810151838201526020016153f1565b838111156114bb5750506000910152565b600181811c9082168061542e57607f821691505b6020821081141561544f57634e487b7160e01b600052602260045260246000fd5b50919050565b600061ffff8083168181141561546d5761546d6154c0565b6001019392505050565b600060001982141561548b5761548b6154c0565b5060010190565b600063ffffffff8083168181141561546d5761546d6154c0565b6000826154bb576154bb6154d6565b500690565b634e487b7160e01b600052601160045260246000fd5b634e487b7160e01b600052601260045260246000fd5b634e487b7160e01b600052604160045260246000fd5b6001600160a01b0381168114610c6d57600080fd5b6001600160e01b031981168114610c6d57600080fd5b6001600160401b0381168114610c6d57600080fdfeddf252ad1be2c89b69c2b068fc378daa952ba7f163c4a11628f55a4df523b3efa2646970667358221220b9c59d6c1348ea1c32200c0f20b6fc33f88cf2d31aee1950e0531126e4aa815364736f6c63430008040033",
  "immutableReferences": {},
  "source": "// SPDX-License-Identifier: MIT\r\npragma solidity ^0.8.4;\r\n\r\nimport \"./Helpers.sol\";\r\nimport \"./BaseNft.sol\";\r\nimport \"./WorldLeader.sol\";\r\nimport \"./MissileMaker.sol\";\r\n\r\n///////////////////////////////////////////////////////////////////////////////////////////////////////////////////////\r\n// this handles the destroy UFO gameplay loop, including dynamically adjusting the difficulty of a match\r\n// so that games approach taking the same amount of time regardless of the # of players playing.\r\n///////////////////////////////////////////////////////////////////////////////////////////////////////////////////////\r\ncontract UfoInvasion is BaseNft(\"UFO Invasion\", \"UFO\") {\r\n    using Helpers for uint;\r\n    using Helpers for uint16;\r\n    using SafeMath for uint8;\r\n    using SafeMath for uint16;\r\n    using SafeMath for uint32;\r\n    using SafeMath for uint64;\r\n    using SafeMath for uint256;\r\n    using Counters for Counters.Counter;\r\n\r\n    struct UfoState {\r\n        uint16 curHp;\r\n        uint16 startingHp;\r\n        uint32 gameNum;\r\n        address locationAddress;\r\n        uint ufoId;\r\n    }\r\n\r\n    bool _gameActive = false;\r\n    mapping(uint => uint) _ufoIdxLookup;\r\n\r\n    uint32 _totalNumGamesPlayed = 0;\r\n    uint _maxMissilesAtOnce = 5;\r\n    uint _minNumMintedBeforeYouCanAttack = 100;\r\n\r\n    mapping(uint => UfoState) _ufoStateLookup;\r\n    struct GameStats {\r\n        bool isOver;\r\n        uint16 totalUfoHp;\r\n        uint32 gameNum;\r\n        address winner;\r\n        uint gameStartTimeInSeconds;\r\n        uint elapsedSecs;\r\n        uint[] ufoIds;\r\n    }\r\n\r\n    mapping(uint => GameStats) _gameStats;\r\n\r\n    uint16 _totalUfoHp = 2500;\r\n\r\n    uint16 _startGameScoreReward = 5;\r\n    uint _gameStartTime = 0;\r\n    uint _gameEndTime;\r\n\r\n    uint8 _minNumUFOs = 7;\r\n    uint8 _maxNumUFOs = 15;\r\n\r\n    uint64 _gameWinnerTotalScoreMultiplier = 150; // 150%\r\n    uint64 _ufoKillDmgScoreMultiplier = 150; // 150%\r\n    uint16 _wantedGameLengthInHours = 48;\r\n\r\n    // mapping of holder addresses to their index in the _airdropToAddresses array to ensure we get unique addresses\r\n    mapping(address => bool) _airdropToIdx;\r\n    address[] _airdropToAddresses;\r\n\r\n    struct CurGameScore {\r\n        bool active;\r\n        uint16 nukesUsed;\r\n        uint64 score;\r\n        address playerAddress;\r\n    }\r\n\r\n    struct AllTimeLeaderboard {\r\n        bool exists;\r\n        uint32 wins;\r\n        uint32 nukesUsed;\r\n        uint64 score;\r\n        address playerAddress;\r\n    }\r\n\r\n    uint16 _numPlayersWithScoreInGame = 0;\r\n    mapping(address => CurGameScore) _curGamePlayerScoreLookup;\r\n    address[] _curGameAddresses;\r\n\r\n    uint _numPlayersOnLeaderboard;\r\n    mapping(address => AllTimeLeaderboard) _allTimeLeaderboardLookup;\r\n    address[] _allTimeLeaderboardAddresses;\r\n\r\n    uint32 private _missileTxnId;\r\n    struct MissileAttack {\r\n        uint16 dmg;\r\n        uint16 hpBefore;\r\n        uint16 hpAfter;\r\n        uint32 missileTxnId;\r\n        uint32 gameNum;\r\n        address attacker;\r\n        address locationAddress;\r\n        uint missileId;\r\n        uint ufoId;\r\n    }\r\n    mapping(uint => MissileAttack) _missileAttackLookup;\r\n    function getMissileAttackInfo(uint missileId) public view returns (MissileAttack memory) {\r\n        require(_missileAttackLookup[missileId].dmg > 0\r\n//        , \"this attack doesn't exist!\"\r\n        );\r\n        return _missileAttackLookup[missileId];\r\n    }\r\n\r\n    event MissileAttackedUFO(uint32 gameNum, address attacker, uint missileTxnId, uint missileId);\r\n    event GameOver(uint gameNum);\r\n\r\n    enum AttackUfoResult {\r\n        OnlyDamageDealt,\r\n        UfoDestroyed,\r\n        UfoDestroyedAndGameOver\r\n    }\r\n\r\n    function findNumUfosStillAlive(uint[] memory ufos) private view returns (uint) {\r\n        if (ufos.length == 0) {\r\n            return 0;\r\n        }\r\n        uint stillAliveNum = 0;\r\n        for (uint i = 0; i < ufos.length; i++) {\r\n            if (ufoIsAlive(ufos[i])) {\r\n                stillAliveNum++;\r\n            }\r\n        }\r\n        return stillAliveNum;\r\n    }\r\n\r\n    function filterUfosAlive(uint stillAliveNum, uint[] memory ufos) private view returns (uint[] memory) {\r\n        uint[] memory newUfos = new uint[](stillAliveNum);\r\n        uint added = 0;\r\n        for (uint i = 0; i < ufos.length; i++) {\r\n            if (ufoIsAlive(ufos[i])) {\r\n                newUfos[added] = ufos[i];\r\n            }\r\n        }\r\n        return newUfos;\r\n    }\r\n\r\n    function attackRandomUFOs(uint randVal, uint[] memory missileIds, uint amountUFOs) external  {\r\n        randVal = randVal.add(_totalNumGamesPlayed + 2);\r\n        require(WorldLeader(_ownedContracts.leader).totalSupply() > _minNumMintedBeforeYouCanAttack\r\n//        , \"not enough world leader NFTs minted yet!\"\r\n        );\r\n        require(_gameActive\r\n//        , \"the game is not active!\"\r\n        );\r\n        require(missileIds.length < _maxMissilesAtOnce\r\n//        , string(abi.encodePacked(\"you can only use \", MAX_MISSILES_AT_ONCE.uint2str(), \"at once!\"))\r\n        );\r\n        _gameStats[_totalNumGamesPlayed].elapsedSecs = block.timestamp.subSafe(_gameStats[_totalNumGamesPlayed].gameStartTimeInSeconds);\r\n        uint[] memory randomUfoIds = getRandomUfoIds(randVal, amountUFOs > _gameStats[_totalNumGamesPlayed].ufoIds.length ? _gameStats[_totalNumGamesPlayed].ufoIds.length : amountUFOs);\r\n        for (uint i = 0; i < missileIds.length; i++) {\r\n            uint stillAliveNum = findNumUfosStillAlive(randomUfoIds);\r\n            if (stillAliveNum != randomUfoIds.length) {\r\n                randomUfoIds = filterUfosAlive(stillAliveNum, randomUfoIds);\r\n            }\r\n            if (randomUfoIds.length == 0) {\r\n                break;\r\n            }\r\n            randVal = randVal + i;\r\n            uint ufoId = randomUfoIds[uint(randVal.randomize(block.timestamp, i).modSafe(randomUfoIds.length))];\r\n            if (!ufoIsAlive(ufoId)) {\r\n                continue;\r\n            }\r\n            if (attackOneUFO(msg.sender, missileIds[i], ufoId) == AttackUfoResult.UfoDestroyedAndGameOver) {\r\n                break;\r\n            }\r\n        }\r\n        _missileTxnId++;\r\n    }\r\n\r\n    function attackOneUFO(address sender, uint missileId, uint ufoId) private returns (AttackUfoResult) {\r\n        require(_exists(ufoId), \"this cannot be attacked anymore\");\r\n        uint64 missileDmg = MissileMaker(_ownedContracts.missileMaker)._getMissileDmg(sender, missileId);\r\n        updatePlayerScore(sender, missileDmg);\r\n        uint16 hpBefore = _ufoStateLookup[ufoId].curHp;\r\n        _ufoStateLookup[ufoId].curHp = uint16(_ufoStateLookup[ufoId].curHp.subSafe(missileDmg));\r\n        _curGamePlayerScoreLookup[sender].score += missileDmg;\r\n        _allTimeLeaderboardLookup[sender].score += missileDmg;\r\n        emit MissileAttackedUFO(_totalNumGamesPlayed, sender, _missileTxnId, missileId);\r\n        _missileAttackLookup[missileId] = MissileAttack(uint16(missileDmg), hpBefore,  _ufoStateLookup[ufoId].curHp, _missileTxnId, _totalNumGamesPlayed, sender, ownerOf(ufoId), missileId, ufoId);\r\n        if (_ufoStateLookup[ufoId].curHp == 0) {\r\n            missileDmg = uint64(missileDmg.mul(_ufoKillDmgScoreMultiplier).div(100).subSafe(missileDmg));\r\n            _curGamePlayerScoreLookup[sender].score += missileDmg;\r\n            _allTimeLeaderboardLookup[sender].score += missileDmg;\r\n            burn(ufoId);\r\n            if (isGameOver()) {\r\n                _gameStats[_totalNumGamesPlayed].winner = getWinner();\r\n                missileDmg = uint64(_curGamePlayerScoreLookup[sender].score.mul(_gameWinnerTotalScoreMultiplier).div(100).subSafe(_curGamePlayerScoreLookup[sender].score));\r\n                _curGamePlayerScoreLookup[_gameStats[_totalNumGamesPlayed].winner].score += missileDmg;\r\n                _allTimeLeaderboardLookup[_gameStats[_totalNumGamesPlayed].winner].score += missileDmg;\r\n                _gameStats[_totalNumGamesPlayed].isOver = true;\r\n                _gameEndTime = block.timestamp;\r\n                return AttackUfoResult.UfoDestroyedAndGameOver;\r\n            }\r\n            return AttackUfoResult.UfoDestroyed;\r\n        }\r\n        return AttackUfoResult.OnlyDamageDealt;\r\n    }\r\n\r\n    function updatePlayerScore(address sender, uint64 missileDmg) internal {\r\n        if (!_curGamePlayerScoreLookup[sender].active) {\r\n            _curGamePlayerScoreLookup[sender] = CurGameScore(true, 1, missileDmg, sender);\r\n            if (_numPlayersWithScoreInGame >= _curGameAddresses.length) {\r\n                _curGameAddresses.push(sender);\r\n            } else {\r\n                _curGameAddresses[_numPlayersWithScoreInGame] = sender;\r\n            }\r\n            _numPlayersWithScoreInGame++;\r\n        } else {\r\n            _curGamePlayerScoreLookup[sender].score += missileDmg;\r\n            _curGamePlayerScoreLookup[sender].nukesUsed++;\r\n        }\r\n\r\n        if (!_allTimeLeaderboardLookup[sender].exists) {\r\n            _allTimeLeaderboardLookup[sender] = AllTimeLeaderboard(true, 0, 1, missileDmg, sender);\r\n            if (_numPlayersOnLeaderboard == _allTimeLeaderboardAddresses.length) {\r\n                _allTimeLeaderboardAddresses.push(sender);\r\n            } else {\r\n                _allTimeLeaderboardAddresses[_numPlayersOnLeaderboard] = sender;\r\n            }\r\n            _numPlayersOnLeaderboard++;\r\n        } else {\r\n            _allTimeLeaderboardLookup[sender].score += missileDmg;\r\n            _allTimeLeaderboardLookup[sender].nukesUsed++;\r\n        }\r\n    }\r\n\r\n    function isGameOver() internal returns (bool) {\r\n        for (uint i = 0; i < _gameStats[_totalNumGamesPlayed].ufoIds.length; i++) {\r\n            if (_ufoStateLookup[_gameStats[_totalNumGamesPlayed].ufoIds[i]].curHp != 0) {\r\n                return false;\r\n            }\r\n        }\r\n        emit GameOver(_totalNumGamesPlayed);\r\n        _totalNumGamesPlayed++;\r\n        _setIsGameActive(false);\r\n        return true;\r\n    }\r\n\r\n    function getWinner() internal returns (address) {\r\n        address highestSeenAddr = address(0x0);\r\n        uint highestSeenScore = 0;\r\n        for (uint i = 0; i < _numPlayersWithScoreInGame; i++) {\r\n            address playerAddr = _curGameAddresses[i];\r\n            CurGameScore memory curGameScore = _curGamePlayerScoreLookup[playerAddr];\r\n            if (\r\n                curGameScore.score > highestSeenScore\r\n                || ( // if there's a tie, take the player with more score all-time, if this is also a tie we take who's first\r\n                    curGameScore.score == highestSeenScore\r\n                    && _allTimeLeaderboardLookup[playerAddr].score > _allTimeLeaderboardLookup[highestSeenAddr].score\r\n                )\r\n                || highestSeenScore == 0\r\n            ) {\r\n                highestSeenScore = curGameScore.score;\r\n                highestSeenAddr = playerAddr;\r\n            }\r\n        }\r\n        _allTimeLeaderboardLookup[highestSeenAddr].wins++;\r\n        return highestSeenAddr;\r\n    }\r\n\r\n    function startNewUfoInvasionGame(uint randVal) public {\r\n        randVal = randVal.add(_totalNumGamesPlayed + 1);\r\n        require(!_gameActive);\r\n        _setIsGameActive(true);\r\n        if (_gameStartTime != 0 && _gameEndTime != 0) { // use the default total UFO health when there has never been a game before\r\n            _totalUfoHp = getNewTotalUfoHealth(_gameStartTime, _gameEndTime, uint(_wantedGameLengthInHours), uint(_totalUfoHp));\r\n            for (uint i = 0; i < _numPlayersWithScoreInGame; i++) {\r\n                delete _curGameAddresses[i];\r\n            }\r\n            _numPlayersWithScoreInGame = 0;\r\n        }\r\n        airdropNewUFOs(randVal);\r\n        // reward players for paying to start new game\r\n        _curGamePlayerScoreLookup[msg.sender].score += uint64(_totalUfoHp.mul(_startGameScoreReward).div(100));\r\n    }\r\n\r\n    // roll new random number of UFOs\r\n    //\r\n    function airdropNewUFOs(uint randVal) internal  {\r\n        uint newNumUFOs = uint(randVal.randomize(block.timestamp).modSafe(_maxNumUFOs.sub(_minNumUFOs)).add(_minNumUFOs));\r\n\r\n        address[] memory ufoAirdropWinners = getHoldersToSendUFOs(randVal, newNumUFOs, findUniqueHolders());\r\n\r\n        uint16[] memory newUfoHps = rollHpForUFOs(block.timestamp, randVal, ufoAirdropWinners.length, _totalUfoHp);\r\n\r\n        uint[] memory ufoIds = new uint[](ufoAirdropWinners.length);\r\n\r\n        for (uint i = 0; i < ufoAirdropWinners.length; i++) {\r\n            address locationAddress = ufoAirdropWinners[i];\r\n            uint ufoId = _mintSingleNFT(locationAddress);\r\n            _ufoIdxLookup[ufoId] = i;\r\n            ufoIds[i] = ufoId;\r\n            _ufoStateLookup[ufoId] = UfoState(newUfoHps[i], newUfoHps[i], _totalNumGamesPlayed, locationAddress, ufoId);\r\n        }\r\n        _gameStats[_totalNumGamesPlayed] = GameStats(\r\n            false,\r\n            _totalUfoHp,\r\n            _totalNumGamesPlayed,\r\n            address(0x0),\r\n            _gameStartTime,\r\n            0,\r\n            ufoIds\r\n        );\r\n    }\r\n\r\n    function _mintSingleNFT(address to) private returns (uint) {\r\n        uint newTokenID = tokenIdx.current();\r\n        _safeMint(to, newTokenID);\r\n        tokenIdx.increment();\r\n        return newTokenID;\r\n    }\r\n\r\n    // in the case the last game was completed faster than the length wanted (given by _wantedGameLengthInHours),\r\n    // make the next game's total UFO HP larger as a percentage of the gap and vice-versa\r\n    //\r\n    function getNewTotalUfoHealth(uint gameStartTime, uint gameEndTime, uint wantedGameLengthInHours, uint prevTotalUfoHp) internal pure returns (uint16) {\r\n        uint gameLengthHours = uint16(gameEndTime.sub(gameStartTime).div(60).div(60));\r\n        uint diff = gameLengthHours > wantedGameLengthInHours\r\n            ? gameLengthHours.sub(wantedGameLengthInHours)\r\n            : wantedGameLengthInHours.sub(gameLengthHours);\r\n        uint adjustment = prevTotalUfoHp.div(100).mul(diff.mul(100).div(wantedGameLengthInHours));\r\n        uint newTotalUfoHp = gameLengthHours > wantedGameLengthInHours\r\n            ? prevTotalUfoHp.sub(adjustment)\r\n            : prevTotalUfoHp.add(adjustment);\r\n        return uint16(newTotalUfoHp);\r\n    }\r\n\r\n    function rollHpForUFOs(uint blockTimestamp, uint randVal, uint numUFOs, uint16 totalUfoHp) internal pure returns (uint16[] memory) {\r\n        uint avgHpPerUfoNeeded;\r\n        uint min;\r\n        uint max;\r\n        uint16[] memory ufoHps = new uint16[](numUFOs);\r\n        for (uint i = 0; i < numUFOs; i++) {\r\n            // setting hp values for individual UFOs to values within a range (so they're not all the same every\r\n            // match, but ensuring that the total UFO hp ends up roughly around where we want it. this should\r\n            // make the gameplay more varied between matches\r\n            if (i == numUFOs - 1) {\r\n                ufoHps[i] = totalUfoHp;\r\n                break;\r\n            }\r\n            avgHpPerUfoNeeded = totalUfoHp.div(numUFOs.sub(i));\r\n            min = avgHpPerUfoNeeded.subSafe(avgHpPerUfoNeeded.div(10));\r\n            max = avgHpPerUfoNeeded.add(avgHpPerUfoNeeded.div(10));\r\n            ufoHps[i] = uint16(randVal.randomize(blockTimestamp, i).modSafe(max.sub(min)).add(min));\r\n            totalUfoHp = uint16(totalUfoHp.subSafe(ufoHps[i]));\r\n        }\r\n        return ufoHps;\r\n    }\r\n\r\n    function findUniqueHolders() internal returns (address[] memory) {\r\n        uint totalUnique = 0;\r\n        WorldLeader leader = WorldLeader(_ownedContracts.leader);\r\n        uint numLeaderNfts = leader.totalSupply();\r\n\r\n        for (uint i = 0; i < numLeaderNfts; i++) {\r\n            uint256 leaderNftId = leader.tokenByIndex(i);\r\n            address owner = leader.ownerOf(leaderNftId);\r\n            if (_airdropToIdx[owner]) {\r\n                continue;\r\n            }\r\n            totalUnique++;\r\n            _airdropToIdx[owner] = true;\r\n            if (i >= _airdropToAddresses.length) {\r\n                _airdropToAddresses.push(owner);\r\n            } else {\r\n                _airdropToAddresses[i] = owner;\r\n            }\r\n        }\r\n        address[] memory uniqueAddresses = new address[](totalUnique);\r\n        for (uint i = 0; i < totalUnique; i++) {\r\n            uniqueAddresses[i] = _airdropToAddresses[i];\r\n        }\r\n\r\n        for (uint i = 0; i < totalUnique; i++) {\r\n            _airdropToIdx[_airdropToAddresses[i]] = false;\r\n        }\r\n\r\n        return uniqueAddresses;\r\n    }\r\n\r\n    // get a random subset of unique holders of World Leader tokens to send UFOs to\r\n    //\r\n    function getHoldersToSendUFOs(uint randVal, uint numUFOs, address[] memory uniqueHolders) internal view returns (address[] memory) {\r\n        uniqueHolders = randVal.shuffle(block.timestamp, uniqueHolders);\r\n        uint numWinners = uniqueHolders.length <= numUFOs ? uniqueHolders.length : numUFOs;\r\n\r\n        address[] memory winners = new address[](numWinners);\r\n\r\n        for (uint i = 0; i < numWinners; i++) {\r\n            winners[i] = uniqueHolders[i];\r\n        }\r\n\r\n        return winners;\r\n    }\r\n\r\n    function getRandomUfoIds(uint randVal, uint amountUFOs) private view returns (uint[] memory) {\r\n        uint numAliveUfos = 0;\r\n        for (uint i = 0; i < _gameStats[_totalNumGamesPlayed].ufoIds.length; i++) {\r\n            if (_ufoStateLookup[_gameStats[_totalNumGamesPlayed].ufoIds[i]].curHp != 0) {\r\n                numAliveUfos++;\r\n            }\r\n        }\r\n        uint[] memory ufoIds = new uint[](numAliveUfos);\r\n        uint foundAlive = 0;\r\n        for (uint i = 0; i < _gameStats[_totalNumGamesPlayed].ufoIds.length; i++) {\r\n            if (_ufoStateLookup[_gameStats[_totalNumGamesPlayed].ufoIds[i]].curHp != 0) {\r\n                ufoIds[foundAlive] = _gameStats[_totalNumGamesPlayed].ufoIds[i];\r\n                foundAlive++;\r\n            }\r\n        }\r\n        ufoIds = randVal.shuffle(block.timestamp, ufoIds);\r\n        uint numRandom = amountUFOs > numAliveUfos ? numAliveUfos : amountUFOs;\r\n        uint[] memory randomUfos = new uint[](numRandom);\r\n        for (uint i = 0; i < numRandom; i++) {\r\n            randomUfos[i] = ufoIds[i];\r\n        }\r\n        return randomUfos;\r\n    }\r\n\r\n    function _ufoIsAlive(uint ufoId) internal view returns (bool) {\r\n        return _ufoStateLookup[ufoId].curHp > 0;\r\n    }\r\n\r\n    function ufoIsAlive(uint ufoId) public view returns (bool) {\r\n        return _ufoIsAlive(ufoId);\r\n    }\r\n\r\n    function _getUfoAtIdxByGameNum(uint ufoIdx, uint gameNum) internal view returns (UfoState memory) {\r\n        GameStats memory gameStats = _getGameStatsByGameNum(gameNum);\r\n        require(ufoIdx < gameStats.ufoIds.length\r\n//        , \"there are not that many ufos in the current game!\"\r\n        );\r\n        require(_existsOrBurned(gameStats.ufoIds[ufoIdx])\r\n//        , \"ufo at this id does not exist!\"\r\n        );\r\n        UfoState memory ufoState = _ufoStateLookup[gameStats.ufoIds[ufoIdx]];\r\n        ufoState.locationAddress = !isBurned(gameStats.ufoIds[ufoIdx]) ? ownerOf(ufoState.ufoId) : address(0x0);\r\n        return ufoState;\r\n    }\r\n\r\n    function _getGameStatsByGameNum(uint gameNum) internal view returns (GameStats memory) {\r\n        require(gameNum <= _totalNumGamesPlayed\r\n//        , \"there have not been that many games yet!\"\r\n        );\r\n        GameStats memory gameStats = _gameStats[gameNum];\r\n        if (!gameStats.isOver) {\r\n            gameStats.elapsedSecs = block.timestamp.sub(gameStats.gameStartTimeInSeconds);\r\n        }\r\n        return gameStats;\r\n    }\r\n\r\n    function _setIsGameActive(bool to) internal {\r\n        _gameActive = to;\r\n    }\r\n\r\n    // ********** PUBLIC DATA QUERY METHODS **********\r\n\r\n    // returns whether there is currently a game active or not\r\n    function isGameActive() external view returns (bool) {\r\n        return _gameActive;\r\n    }\r\n\r\n    // returns the number of UFOs in the game index by `gameNum`\r\n    function getNumUFOsInGameByGameNum(uint gameNum) external view returns (uint) {\r\n        return _getGameStatsByGameNum(gameNum).ufoIds.length;\r\n    }\r\n\r\n    // calls getNumUFOsInGameByGameNum(_totalNumGamesPlayed)\r\n    function getCurGameNumUFOs() external view returns (uint) {\r\n        if (!_gameActive && _totalNumGamesPlayed == 0) {\r\n            return 0;\r\n        }\r\n        return _getGameStatsByGameNum(_totalNumGamesPlayed).ufoIds.length;\r\n    }\r\n\r\n    // returns information about the UFO at the index `ufoIdx` for the game number `gameNum`\r\n    function getUfoAtIdxByGameNum(uint ufoIdx, uint gameNum) external view returns (UfoState memory) {\r\n        return _getUfoAtIdxByGameNum(ufoIdx, gameNum);\r\n    }\r\n\r\n    // calls getNumUFOsInGameByGameNum(_totalNumGamesPlayed)\r\n    function getUfoAtIdxInCurrentGame(uint ufoIdx) external view returns (UfoState memory) {\r\n        require(_totalNumGamesPlayed > 0 || _gameActive\r\n        , \"there has never been a game before!\"\r\n        );\r\n        uint32 curOrPrevGameNum = _gameActive ? _totalNumGamesPlayed : uint32(_totalNumGamesPlayed.sub(1));\r\n        return _getUfoAtIdxByGameNum(ufoIdx, curOrPrevGameNum);\r\n    }\r\n\r\n    // returns the number of players in the current game's stats\r\n    function getCurGameNumPlayers() external view returns (uint) {\r\n        return _numPlayersWithScoreInGame;\r\n    }\r\n\r\n    // returns the stats for the player at the index `idx` for the current game\r\n    function getCurGamePlayerAtIdx(uint idx) external view returns (CurGameScore memory) {\r\n        require(idx < _curGameAddresses.length\r\n        //        , \"there is no leaderboard entry at this index!\"\r\n        );\r\n        require(_curGamePlayerScoreLookup[_curGameAddresses[idx]].active\r\n        //        , \"this player has not yet played the current game!\"\r\n        );\r\n        return _curGamePlayerScoreLookup[_curGameAddresses[idx]];\r\n    }\r\n\r\n    // returns the total number of players who have stats on the leaderboard\r\n    function getNumLeaderboardPlayers() external view returns (uint) {\r\n        return _numPlayersOnLeaderboard;\r\n    }\r\n\r\n    // returns the leaderboard information for the player at the index `idx`\r\n    function getLeaderboardPlayerAtIdx(uint idx) external view returns (AllTimeLeaderboard memory) {\r\n        require(idx < _allTimeLeaderboardAddresses.length\r\n        //        , \"there is no leaderboard entry at this index!\"\r\n        );\r\n        require(_allTimeLeaderboardLookup[_allTimeLeaderboardAddresses[idx]].exists\r\n        //        , \"this player has never scored any points before!\"\r\n        );\r\n        return _allTimeLeaderboardLookup[_allTimeLeaderboardAddresses[idx]];\r\n    }\r\n\r\n    // returns the total number of games played so far\r\n    function getTotalNumberOfGames() public view returns (uint) {\r\n        return _totalNumGamesPlayed;\r\n    }\r\n\r\n    // returns the game stats for the game with the idx `gameNum`\r\n    function getGameStatsByGameNum(uint gameNum) public view returns (GameStats memory) {\r\n        return _getGameStatsByGameNum(gameNum);\r\n    }\r\n\r\n    // returns the total hp for all UFOs in the current or last game\r\n    function getTotalHpForUFOs() public view returns (uint) {\r\n        return _totalUfoHp;\r\n    }\r\n\r\n    // ********** ONLY OWNER PARAMETER CHANGING **********\r\n    function setIsGameActive(bool to) public onlyOwner {\r\n        _setIsGameActive(to);\r\n    }\r\n\r\n    function updateMinMaxUFOs(uint8 min, uint8 max) public onlyOwner {\r\n        _minNumUFOs = min;\r\n        _maxNumUFOs = max;\r\n    }\r\n\r\n    function updateWantedGameLengthInHours(uint16 newWantedGameLength) public onlyOwner {\r\n        _wantedGameLengthInHours = newWantedGameLength;\r\n    }\r\n\r\n    function setGameWinnerTotalScoreMultiplier(uint64 to) public onlyOwner {\r\n        require(to >= 100\r\n//        , \"game winner score multiplier must be at least 100 (150x)!\"\r\n        );\r\n        _gameWinnerTotalScoreMultiplier = to;\r\n    }\r\n\r\n    function setUfoKillDmgScoreMultiplier(uint64 to) public onlyOwner {\r\n        require(to >= 100\r\n//        , \"ufo kill damage multiplier must be at least 100 (150x)!\"\r\n        );\r\n        _ufoKillDmgScoreMultiplier = to;\r\n    }\r\n\r\n    function setStartGameScoreReward(uint16 to) public onlyOwner {\r\n        require(to < 100\r\n//        , \"start game score reward must be less than 100 because it's a %!\"\r\n        );\r\n        _startGameScoreReward = to;\r\n    }\r\n\r\n    function setMaxNumMissilesInOneTxn(uint newMax) public onlyOwner {\r\n        _maxMissilesAtOnce = newMax;\r\n    }\r\n\r\n    function setMinNumMintedBeforeYouCanAttack(uint newMin) public onlyOwner {\r\n        _minNumMintedBeforeYouCanAttack = newMin;\r\n    }\r\n}\r\n\r\n\r\n",
  "sourcePath": "C:\\data\\source\\Webstorm Projects\\metis-nfts\\contracts\\UfoInvasion.sol",
  "compiler": {
    "name": "solc",
    "version": "0.8.4+commit.c7e474f2.Emscripten.clang"
  },
  "schemaVersion": "3.4.5",
  "updatedAt": "2022-03-29T22:34:55.949Z",
  "devdoc": {
    "kind": "dev",
    "methods": {
      "approve(address,uint256)": {
        "details": "See {IERC721-approve}."
      },
      "balanceOf(address)": {
        "details": "See {IERC721-balanceOf}."
      },
      "getApproved(uint256)": {
        "details": "See {IERC721-getApproved}."
      },
      "isApprovedForAll(address,address)": {
        "details": "See {IERC721-isApprovedForAll}."
      },
      "name()": {
        "details": "See {IERC721Metadata-name}."
      },
      "owner()": {
        "details": "Returns the address of the current owner."
      },
      "ownerOf(uint256)": {
        "details": "See {IERC721-ownerOf}."
      },
      "renounceOwnership()": {
        "details": "Leaves the contract without owner. It will not be possible to call `onlyOwner` functions anymore. Can only be called by the current owner. NOTE: Renouncing ownership will leave the contract without an owner, thereby removing any functionality that is only available to the owner."
      },
      "safeTransferFrom(address,address,uint256)": {
        "details": "See {IERC721-safeTransferFrom}."
      },
      "safeTransferFrom(address,address,uint256,bytes)": {
        "details": "See {IERC721-safeTransferFrom}."
      },
      "setApprovalForAll(address,bool)": {
        "details": "See {IERC721-setApprovalForAll}."
      },
      "supportsInterface(bytes4)": {
        "details": "See {IERC165-supportsInterface}."
      },
      "symbol()": {
        "details": "See {IERC721Metadata-symbol}."
      },
      "tokenByIndex(uint256)": {
        "details": "See {IERC721Enumerable-tokenByIndex}."
      },
      "tokenOfOwnerByIndex(address,uint256)": {
        "details": "See {IERC721Enumerable-tokenOfOwnerByIndex}."
      },
      "tokenURI(uint256)": {
        "details": "See {IERC721Metadata-tokenURI}."
      },
      "totalSupply()": {
        "details": "See {IERC721Enumerable-totalSupply}."
      },
      "transferFrom(address,address,uint256)": {
        "details": "See {IERC721-transferFrom}."
      },
      "transferOwnership(address)": {
        "details": "Transfers ownership of the contract to a new account (`newOwner`). Can only be called by the current owner."
      }
    },
    "version": 1
  },
  "userdoc": {
    "kind": "user",
    "methods": {},
    "version": 1
  }
}