{
  "contractName": "WorldLeader",
  "abi": [
    {
      "inputs": [
        {
          "internalType": "string",
          "name": "name",
          "type": "string"
        },
        {
          "internalType": "address",
          "name": "leaderStoreAddress",
          "type": "address"
        },
        {
          "internalType": "contract MissileMaker",
          "name": "missileMaker",
          "type": "address"
        }
      ],
      "stateMutability": "nonpayable",
      "type": "constructor"
    },
    {
      "anonymous": false,
      "inputs": [
        {
          "indexed": true,
          "internalType": "address",
          "name": "owner",
          "type": "address"
        },
        {
          "indexed": true,
          "internalType": "address",
          "name": "approved",
          "type": "address"
        },
        {
          "indexed": true,
          "internalType": "uint256",
          "name": "tokenId",
          "type": "uint256"
        }
      ],
      "name": "Approval",
      "type": "event"
    },
    {
      "anonymous": false,
      "inputs": [
        {
          "indexed": true,
          "internalType": "address",
          "name": "owner",
          "type": "address"
        },
        {
          "indexed": true,
          "internalType": "address",
          "name": "operator",
          "type": "address"
        },
        {
          "indexed": false,
          "internalType": "bool",
          "name": "approved",
          "type": "bool"
        }
      ],
      "name": "ApprovalForAll",
      "type": "event"
    },
    {
      "anonymous": false,
      "inputs": [
        {
          "indexed": true,
          "internalType": "address",
          "name": "previousOwner",
          "type": "address"
        },
        {
          "indexed": true,
          "internalType": "address",
          "name": "newOwner",
          "type": "address"
        }
      ],
      "name": "OwnershipTransferred",
      "type": "event"
    },
    {
      "anonymous": false,
      "inputs": [
        {
          "indexed": false,
          "internalType": "address payable",
          "name": "recipient",
          "type": "address"
        }
      ],
      "name": "SetRecipient",
      "type": "event"
    },
    {
      "anonymous": false,
      "inputs": [
        {
          "indexed": true,
          "internalType": "address",
          "name": "from",
          "type": "address"
        },
        {
          "indexed": true,
          "internalType": "address",
          "name": "to",
          "type": "address"
        },
        {
          "indexed": true,
          "internalType": "uint256",
          "name": "tokenId",
          "type": "uint256"
        }
      ],
      "name": "Transfer",
      "type": "event"
    },
    {
      "inputs": [],
      "name": "MAX_PER_MINT",
      "outputs": [
        {
          "internalType": "uint256",
          "name": "",
          "type": "uint256"
        }
      ],
      "stateMutability": "view",
      "type": "function"
    },
    {
      "inputs": [],
      "name": "MAX_SUPPLY",
      "outputs": [
        {
          "internalType": "uint256",
          "name": "",
          "type": "uint256"
        }
      ],
      "stateMutability": "view",
      "type": "function"
    },
    {
      "inputs": [],
      "name": "PRICE",
      "outputs": [
        {
          "internalType": "uint256",
          "name": "",
          "type": "uint256"
        }
      ],
      "stateMutability": "view",
      "type": "function"
    },
    {
      "inputs": [],
      "name": "WHITELIST_MAX_AMOUNT",
      "outputs": [
        {
          "internalType": "uint256",
          "name": "",
          "type": "uint256"
        }
      ],
      "stateMutability": "view",
      "type": "function"
    },
    {
      "inputs": [
        {
          "internalType": "uint256",
          "name": "_count",
          "type": "uint256"
        }
      ],
      "name": "_mintNFTs",
      "outputs": [],
      "stateMutability": "payable",
      "type": "function"
    },
    {
      "inputs": [],
      "name": "_releaseStatus",
      "outputs": [
        {
          "internalType": "enum MetisERC721.ReleaseStatus",
          "name": "",
          "type": "uint8"
        }
      ],
      "stateMutability": "view",
      "type": "function"
    },
    {
      "inputs": [
        {
          "internalType": "address[]",
          "name": "addresses",
          "type": "address[]"
        }
      ],
      "name": "addAddressesForFreeMint",
      "outputs": [],
      "stateMutability": "nonpayable",
      "type": "function"
    },
    {
      "inputs": [
        {
          "internalType": "address[]",
          "name": "addresses",
          "type": "address[]"
        }
      ],
      "name": "addAddressesForWhitelist",
      "outputs": [],
      "stateMutability": "nonpayable",
      "type": "function"
    },
    {
      "inputs": [
        {
          "internalType": "address",
          "name": "_addr",
          "type": "address"
        }
      ],
      "name": "addressToString",
      "outputs": [
        {
          "internalType": "string",
          "name": "",
          "type": "string"
        }
      ],
      "stateMutability": "pure",
      "type": "function"
    },
    {
      "inputs": [
        {
          "internalType": "address",
          "name": "to",
          "type": "address"
        },
        {
          "internalType": "uint256",
          "name": "tokenId",
          "type": "uint256"
        }
      ],
      "name": "approve",
      "outputs": [],
      "stateMutability": "nonpayable",
      "type": "function"
    },
    {
      "inputs": [
        {
          "internalType": "address",
          "name": "owner",
          "type": "address"
        }
      ],
      "name": "balanceOf",
      "outputs": [
        {
          "internalType": "uint256",
          "name": "",
          "type": "uint256"
        }
      ],
      "stateMutability": "view",
      "type": "function"
    },
    {
      "inputs": [],
      "name": "baseTokenURI",
      "outputs": [
        {
          "internalType": "string",
          "name": "",
          "type": "string"
        }
      ],
      "stateMutability": "view",
      "type": "function"
    },
    {
      "inputs": [
        {
          "internalType": "uint256",
          "name": "nftId",
          "type": "uint256"
        }
      ],
      "name": "exists",
      "outputs": [
        {
          "internalType": "bool",
          "name": "",
          "type": "bool"
        }
      ],
      "stateMutability": "view",
      "type": "function"
    },
    {
      "inputs": [
        {
          "internalType": "uint256",
          "name": "tokenId",
          "type": "uint256"
        }
      ],
      "name": "getApproved",
      "outputs": [
        {
          "internalType": "address",
          "name": "",
          "type": "address"
        }
      ],
      "stateMutability": "view",
      "type": "function"
    },
    {
      "inputs": [],
      "name": "getReleaseStatus",
      "outputs": [
        {
          "internalType": "enum MetisERC721.ReleaseStatus",
          "name": "",
          "type": "uint8"
        }
      ],
      "stateMutability": "view",
      "type": "function"
    },
    {
      "inputs": [
        {
          "internalType": "address",
          "name": "addr",
          "type": "address"
        }
      ],
      "name": "hasFreeMint",
      "outputs": [
        {
          "internalType": "bool",
          "name": "",
          "type": "bool"
        }
      ],
      "stateMutability": "view",
      "type": "function"
    },
    {
      "inputs": [
        {
          "internalType": "address",
          "name": "owner",
          "type": "address"
        },
        {
          "internalType": "address",
          "name": "operator",
          "type": "address"
        }
      ],
      "name": "isApprovedForAll",
      "outputs": [
        {
          "internalType": "bool",
          "name": "",
          "type": "bool"
        }
      ],
      "stateMutability": "view",
      "type": "function"
    },
    {
      "inputs": [
        {
          "internalType": "address payable",
          "name": "recipient",
          "type": "address"
        }
      ],
      "name": "isRecipient",
      "outputs": [
        {
          "internalType": "bool",
          "name": "",
          "type": "bool"
        }
      ],
      "stateMutability": "view",
      "type": "function"
    },
    {
      "inputs": [],
      "name": "leaderName",
      "outputs": [
        {
          "internalType": "string",
          "name": "",
          "type": "string"
        }
      ],
      "stateMutability": "view",
      "type": "function"
    },
    {
      "inputs": [],
      "name": "mainContract",
      "outputs": [
        {
          "internalType": "address",
          "name": "",
          "type": "address"
        }
      ],
      "stateMutability": "view",
      "type": "function"
    },
    {
      "inputs": [],
      "name": "name",
      "outputs": [
        {
          "internalType": "string",
          "name": "",
          "type": "string"
        }
      ],
      "stateMutability": "view",
      "type": "function"
    },
    {
      "inputs": [
        {
          "internalType": "address",
          "name": "addr",
          "type": "address"
        }
      ],
      "name": "numWhitelistMintsRemaining",
      "outputs": [
        {
          "internalType": "uint256",
          "name": "",
          "type": "uint256"
        }
      ],
      "stateMutability": "view",
      "type": "function"
    },
    {
      "inputs": [],
      "name": "owner",
      "outputs": [
        {
          "internalType": "address",
          "name": "",
          "type": "address"
        }
      ],
      "stateMutability": "view",
      "type": "function"
    },
    {
      "inputs": [
        {
          "internalType": "uint256",
          "name": "tokenId",
          "type": "uint256"
        }
      ],
      "name": "ownerOf",
      "outputs": [
        {
          "internalType": "address",
          "name": "",
          "type": "address"
        }
      ],
      "stateMutability": "view",
      "type": "function"
    },
    {
      "inputs": [],
      "name": "renounceOwnership",
      "outputs": [],
      "stateMutability": "nonpayable",
      "type": "function"
    },
    {
      "inputs": [],
      "name": "reserveNFTs",
      "outputs": [],
      "stateMutability": "nonpayable",
      "type": "function"
    },
    {
      "inputs": [
        {
          "internalType": "address",
          "name": "from",
          "type": "address"
        },
        {
          "internalType": "address",
          "name": "to",
          "type": "address"
        },
        {
          "internalType": "uint256",
          "name": "tokenId",
          "type": "uint256"
        }
      ],
      "name": "safeTransferFrom",
      "outputs": [],
      "stateMutability": "nonpayable",
      "type": "function"
    },
    {
      "inputs": [
        {
          "internalType": "address",
          "name": "from",
          "type": "address"
        },
        {
          "internalType": "address",
          "name": "to",
          "type": "address"
        },
        {
          "internalType": "uint256",
          "name": "tokenId",
          "type": "uint256"
        },
        {
          "internalType": "bytes",
          "name": "_data",
          "type": "bytes"
        }
      ],
      "name": "safeTransferFrom",
      "outputs": [],
      "stateMutability": "nonpayable",
      "type": "function"
    },
    {
      "inputs": [
        {
          "internalType": "address",
          "name": "operator",
          "type": "address"
        },
        {
          "internalType": "bool",
          "name": "approved",
          "type": "bool"
        }
      ],
      "name": "setApprovalForAll",
      "outputs": [],
      "stateMutability": "nonpayable",
      "type": "function"
    },
    {
      "inputs": [
        {
          "internalType": "string",
          "name": "_baseTokenURI",
          "type": "string"
        }
      ],
      "name": "setBaseURI",
      "outputs": [],
      "stateMutability": "nonpayable",
      "type": "function"
    },
    {
      "inputs": [
        {
          "internalType": "address",
          "name": "to",
          "type": "address"
        }
      ],
      "name": "setMainContract",
      "outputs": [],
      "stateMutability": "nonpayable",
      "type": "function"
    },
    {
      "inputs": [
        {
          "internalType": "address payable",
          "name": "recipient",
          "type": "address"
        }
      ],
      "name": "setRecipient",
      "outputs": [],
      "stateMutability": "nonpayable",
      "type": "function"
    },
    {
      "inputs": [
        {
          "internalType": "enum MetisERC721.ReleaseStatus",
          "name": "releaseStatus",
          "type": "uint8"
        }
      ],
      "name": "setReleaseStatus",
      "outputs": [],
      "stateMutability": "nonpayable",
      "type": "function"
    },
    {
      "inputs": [
        {
          "internalType": "bytes4",
          "name": "interfaceId",
          "type": "bytes4"
        }
      ],
      "name": "supportsInterface",
      "outputs": [
        {
          "internalType": "bool",
          "name": "",
          "type": "bool"
        }
      ],
      "stateMutability": "view",
      "type": "function"
    },
    {
      "inputs": [],
      "name": "symbol",
      "outputs": [
        {
          "internalType": "string",
          "name": "",
          "type": "string"
        }
      ],
      "stateMutability": "view",
      "type": "function"
    },
    {
      "inputs": [
        {
          "internalType": "uint256",
          "name": "index",
          "type": "uint256"
        }
      ],
      "name": "tokenByIndex",
      "outputs": [
        {
          "internalType": "uint256",
          "name": "",
          "type": "uint256"
        }
      ],
      "stateMutability": "view",
      "type": "function"
    },
    {
      "inputs": [
        {
          "internalType": "address",
          "name": "owner",
          "type": "address"
        },
        {
          "internalType": "uint256",
          "name": "index",
          "type": "uint256"
        }
      ],
      "name": "tokenOfOwnerByIndex",
      "outputs": [
        {
          "internalType": "uint256",
          "name": "",
          "type": "uint256"
        }
      ],
      "stateMutability": "view",
      "type": "function"
    },
    {
      "inputs": [
        {
          "internalType": "uint256",
          "name": "tokenId",
          "type": "uint256"
        }
      ],
      "name": "tokenURI",
      "outputs": [
        {
          "internalType": "string",
          "name": "",
          "type": "string"
        }
      ],
      "stateMutability": "view",
      "type": "function"
    },
    {
      "inputs": [
        {
          "internalType": "address",
          "name": "_owner",
          "type": "address"
        }
      ],
      "name": "tokensOfOwner",
      "outputs": [
        {
          "internalType": "uint256[]",
          "name": "",
          "type": "uint256[]"
        }
      ],
      "stateMutability": "view",
      "type": "function"
    },
    {
      "inputs": [],
      "name": "totalSupply",
      "outputs": [
        {
          "internalType": "uint256",
          "name": "",
          "type": "uint256"
        }
      ],
      "stateMutability": "view",
      "type": "function"
    },
    {
      "inputs": [
        {
          "internalType": "address",
          "name": "from",
          "type": "address"
        },
        {
          "internalType": "address",
          "name": "to",
          "type": "address"
        },
        {
          "internalType": "uint256",
          "name": "tokenId",
          "type": "uint256"
        }
      ],
      "name": "transferFrom",
      "outputs": [],
      "stateMutability": "nonpayable",
      "type": "function"
    },
    {
      "inputs": [
        {
          "internalType": "address",
          "name": "newOwner",
          "type": "address"
        }
      ],
      "name": "transferOwnership",
      "outputs": [],
      "stateMutability": "nonpayable",
      "type": "function"
    },
    {
      "inputs": [],
      "name": "withdraw",
      "outputs": [],
      "stateMutability": "nonpayable",
      "type": "function"
    },
    {
      "inputs": [
        {
          "internalType": "uint256",
          "name": "amount",
          "type": "uint256"
        }
      ],
      "name": "withdrawAuto",
      "outputs": [],
      "stateMutability": "nonpayable",
      "type": "function"
    },
    {
      "inputs": [
        {
          "internalType": "uint256",
          "name": "count",
          "type": "uint256"
        }
      ],
      "name": "mintNFTs",
      "outputs": [],
      "stateMutability": "payable",
      "type": "function"
    },
    {
      "inputs": [
        {
          "internalType": "address",
          "name": "addr",
          "type": "address"
        }
      ],
      "name": "doesUserOwnAnyOfThisWorldLeader",
      "outputs": [
        {
          "internalType": "bool",
          "name": "",
          "type": "bool"
        }
      ],
      "stateMutability": "view",
      "type": "function"
    },
    {
      "inputs": [
        {
          "internalType": "address",
          "name": "sender",
          "type": "address"
        }
      ],
      "name": "numMissilesReadyToRoll",
      "outputs": [
        {
          "internalType": "uint256",
          "name": "",
          "type": "uint256"
        }
      ],
      "stateMutability": "view",
      "type": "function"
    },
    {
      "inputs": [
        {
          "internalType": "address",
          "name": "sender",
          "type": "address"
        },
        {
          "internalType": "uint256",
          "name": "randVal",
          "type": "uint256"
        },
        {
          "internalType": "uint256",
          "name": "missilePercChance",
          "type": "uint256"
        }
      ],
      "name": "maybeGetMissiles",
      "outputs": [
        {
          "components": [
            {
              "internalType": "uint256",
              "name": "numMissilesToMint",
              "type": "uint256"
            },
            {
              "internalType": "uint256[]",
              "name": "leaderNftIds",
              "type": "uint256[]"
            }
          ],
          "internalType": "struct WorldLeader.MissileOdds",
          "name": "",
          "type": "tuple"
        }
      ],
      "stateMutability": "nonpayable",
      "type": "function"
    },
    {
      "inputs": [],
      "name": "getBalance",
      "outputs": [
        {
          "internalType": "uint256",
          "name": "",
          "type": "uint256"
        }
      ],
      "stateMutability": "view",
      "type": "function"
    },
    {
      "inputs": [
        {
          "internalType": "address",
          "name": "newMissileMaker",
          "type": "address"
        }
      ],
      "name": "updateMissileMaker",
      "outputs": [],
      "stateMutability": "nonpayable",
      "type": "function"
    },
    {
      "inputs": [
        {
          "internalType": "address",
          "name": "to",
          "type": "address"
        }
      ],
      "name": "setMoreMissilesPlzAddress",
      "outputs": [],
      "stateMutability": "nonpayable",
      "type": "function"
    }
  ],
  "bytecode": "0x6080604052600d805460ff191690553480156200001b57600080fd5b5060405162003c9b38038062003c9b8339810160408190526200003e9162000230565b826040516020016200005191906200030b565b604051602081830303815290604052604051806040016040528060068152602001652622a0a222a960d11b81525081818160009080519060200190620000999291906200016d565b508051620000af9060019060208401906200016d565b505050620000cc620000c66200011760201b60201c565b6200011b565b50508251620000e39060129060208601906200016d565b50601680546001600160a01b039384166001600160a01b0319918216179091556015805492909316911617905550620003c8565b3390565b600a80546001600160a01b038381166001600160a01b0319831681179093556040519116919082907f8be0079c531659141344cd1fd0a4f28419497f9722a3daafe3b4186f6b6457e090600090a35050565b8280546200017b9062000375565b90600052602060002090601f0160209004810192826200019f5760008555620001ea565b82601f10620001ba57805160ff1916838001178555620001ea565b82800160010185558215620001ea579182015b82811115620001ea578251825591602001919060010190620001cd565b50620001f8929150620001fc565b5090565b5b80821115620001f85760008155600101620001fd565b80516001600160a01b03811681146200022b57600080fd5b919050565b60008060006060848603121562000245578283fd5b83516001600160401b03808211156200025c578485fd5b818601915086601f83011262000270578485fd5b815181811115620002855762000285620003b2565b604051601f8201601f19908116603f01168101908382118183101715620002b057620002b0620003b2565b81604052828152896020848701011115620002c9578788fd5b620002dc83602083016020880162000342565b8097505050505050620002f26020850162000213565b9150620003026040850162000213565b90509250925092565b6c02bb7b93632102632b0b232b91609d1b8152600082516200033581600d85016020870162000342565b91909101600d0192915050565b60005b838110156200035f57818101518382015260200162000345565b838111156200036f576000848401525b50505050565b600181811c908216806200038a57607f821691505b60208210811415620003ac57634e487b7160e01b600052602260045260246000fd5b50919050565b634e487b7160e01b600052604160045260246000fd5b6138c380620003d86000396000f3fe6080604052600436106102b45760003560e01c80636352211e11610170578063ab602630116100cc578063d547cfb711610085578063d547cfb71461081c578063d5cde1f214610831578063d9afaa621461086a578063e985e9c51461088a578063ebcc1985146108aa578063f2d3024b146108bd578063f2fde38b146108d257600080fd5b8063ab60263014610772578063b88d4fde14610787578063c0aa503f146107a7578063c87b56dd146107c7578063c8d1f75b146107e7578063d270e7ab1461080757600080fd5b80638d859f3e116101295780638d859f3e146106a05780638da5cb5b146106ba5780638f425e98146106cf5780638f90b2f01461070557806395d89b4114610725578063a22cb4651461073a578063a5fede1d1461075a57600080fd5b80636352211e146105de5780636f56891e146105fe57806370a082311461061e578063715018a61461063e5780638462151c146106535780638c5143ea1461068057600080fd5b806332cb6b0c1161021f57806342842e0e116101d857806342842e0e146104fe5780634d7e33211461051e5780634f558e791461053e5780634f6ccce71461055e57806350810a2a1461057e57806355f804b31461059e5780635e57966d146105be57600080fd5b806332cb6b0c146104535780633b4b1381146104695780633bbed4a01461047c5780633ccfd60b1461049c5780633d131a6b146104b15780633ded33bc146104de57600080fd5b8063144100c711610271578063144100c7146103a257806318160ddd146103b757806323b872dd146103cc57806328eb9ca5146103ec5780632f745c591461040c578063321483981461042c57600080fd5b806301ffc9a7146102b957806306fdde03146102ee578063081812fc14610310578063095ea7b31461034857806309d42b301461036a57806312065fe01461038d575b600080fd5b3480156102c557600080fd5b506102d96102d436600461336b565b6108f2565b60405190151581526020015b60405180910390f35b3480156102fa57600080fd5b5061030361091d565b6040516102e5919061352c565b34801561031c57600080fd5b5061033061032b366004613407565b6109af565b6040516001600160a01b0390911681526020016102e5565b34801561035457600080fd5b5061036861036336600461323d565b610a3c565b005b34801561037657600080fd5b5061037f601581565b6040519081526020016102e5565b34801561039957600080fd5b5061037f610b4d565b3480156103ae57600080fd5b50610368610b9d565b3480156103c357600080fd5b5060085461037f565b3480156103d857600080fd5b506103686103e7366004613154565b610c5e565b3480156103f857600080fd5b506103686104073660046133a3565b610c8f565b34801561041857600080fd5b5061037f61042736600461323d565b610d0d565b34801561043857600080fd5b50600d546104469060ff1681565b6040516102e59190613504565b34801561045f57600080fd5b5061037f61271081565b610368610477366004613407565b610da3565b34801561048857600080fd5b50610368610497366004613100565b610daf565b3480156104a857600080fd5b50610368610ed2565b3480156104bd57600080fd5b506104d16104cc366004613268565b611054565b6040516102e591906136c5565b3480156104ea57600080fd5b506103686104f9366004613100565b611358565b34801561050a57600080fd5b50610368610519366004613154565b6113a9565b34801561052a57600080fd5b506102d9610539366004613100565b6113c4565b34801561054a57600080fd5b506102d9610559366004613407565b6113d7565b34801561056a57600080fd5b5061037f610579366004613407565b6113e2565b34801561058a57600080fd5b50610368610599366004613100565b611483565b3480156105aa57600080fd5b506103686105b93660046133c2565b6114ee565b3480156105ca57600080fd5b506103036105d9366004613100565b611530565b3480156105ea57600080fd5b506103306105f9366004613407565b61178b565b34801561060a57600080fd5b50610368610619366004613100565b611802565b34801561062a57600080fd5b5061037f610639366004613100565b6118c4565b34801561064a57600080fd5b5061036861194b565b34801561065f57600080fd5b5061067361066e366004613100565b611986565b6040516102e591906134f1565b34801561068c57600080fd5b506102d961069b366004613100565b611a43565b3480156106ac57600080fd5b5061037f6509184e72a00081565b3480156106c657600080fd5b50610330611aff565b3480156106db57600080fd5b5061037f6106ea366004613100565b6001600160a01b031660009081526011602052604090205490565b34801561071157600080fd5b5061037f610720366004613100565b611b0e565b34801561073157600080fd5b50610303611c26565b34801561074657600080fd5b50610368610755366004613210565b611c35565b34801561076657600080fd5b50600d5460ff16610446565b34801561077e57600080fd5b5061037f600581565b34801561079357600080fd5b506103686107a2366004613194565b611c40565b3480156107b357600080fd5b506103686107c2366004613407565b611c78565b3480156107d357600080fd5b506103036107e2366004613407565b611db7565b3480156107f357600080fd5b5061036861080236600461329c565b611e82565b34801561081357600080fd5b50610330611f3c565b34801561082857600080fd5b50610303611f4b565b34801561083d57600080fd5b506102d961084c366004613100565b6001600160a01b031660009081526010602052604090205460ff1690565b34801561087657600080fd5b5061036861088536600461329c565b611fd9565b34801561089657600080fd5b506102d96108a536600461311c565b612098565b6103686108b8366004613407565b6120c6565b3480156108c957600080fd5b506103036123cc565b3480156108de57600080fd5b506103686108ed366004613100565b6123d9565b60006001600160e01b0319821663780e9d6360e01b1480610917575061091782612476565b92915050565b60606000805461092c906137a8565b80601f0160208091040260200160405190810160405280929190818152602001828054610958906137a8565b80156109a55780601f1061097a576101008083540402835291602001916109a5565b820191906000526020600020905b81548152906001019060200180831161098857829003601f168201915b5050505050905090565b60006109ba826124c6565b610a205760405162461bcd60e51b815260206004820152602c60248201527f4552433732313a20617070726f76656420717565727920666f72206e6f6e657860448201526b34b9ba32b73a103a37b5b2b760a11b60648201526084015b60405180910390fd5b506000908152600460205260409020546001600160a01b031690565b6000610a478261178b565b9050806001600160a01b0316836001600160a01b03161415610ab55760405162461bcd60e51b815260206004820152602160248201527f4552433732313a20617070726f76616c20746f2063757272656e74206f776e656044820152603960f91b6064820152608401610a17565b336001600160a01b0382161480610ad15750610ad18133612098565b610b3e5760405162461bcd60e51b815260206004820152603860248201527f4552433732313a20617070726f76652063616c6c6572206973206e6f74206f776044820152771b995c881b9bdc88185c1c1c9bdd995908199bdc88185b1b60421b6064820152608401610a17565b610b4883836124e3565b505050565b600033610b58611aff565b6001600160a01b03161480610b7c575033610b71611f3c565b6001600160a01b0316145b610b985760405162461bcd60e51b8152600401610a1790613591565b504790565b33610ba6611aff565b6001600160a01b031614610bcc5760405162461bcd60e51b8152600401610a17906135c8565b6000610bd7600c5490565b9050612710610be7826064612551565b10610c345760405162461bcd60e51b815260206004820152601f60248201527f4e6f7420656e6f756768204e465473206c65667420746f2072657365727665006044820152606401610a17565b60005b6064811015610c5a57610c4861255d565b80610c52816137e3565b915050610c37565b5050565b610c683382612582565b610c845760405162461bcd60e51b8152600401610a1790613627565b610b4883838361264c565b33610c98611aff565b6001600160a01b03161480610cbc575033610cb1611f3c565b6001600160a01b0316145b610cd85760405162461bcd60e51b8152600401610a1790613591565b600d805482919060ff19166001836002811115610d0557634e487b7160e01b600052602160045260246000fd5b021790555050565b6000610d18836118c4565b8210610d7a5760405162461bcd60e51b815260206004820152602b60248201527f455243373231456e756d657261626c653a206f776e657220696e646578206f7560448201526a74206f6620626f756e647360a81b6064820152608401610a17565b506001600160a01b03919091166000908152600660209081526040808320938352929052205490565b610dac816120c6565b50565b33610db8611aff565b6001600160a01b03161480610ddc575033610dd1611f3c565b6001600160a01b0316145b610df85760405162461bcd60e51b8152600401610a1790613591565b610e0181611a43565b15610e4e5760405162461bcd60e51b815260206004820152601d60248201527f7468697320726563697069656e7420616c7265616479206578697374730000006044820152606401610a17565b600e80546001810182556000919091527fbb7b4a454dc3493923482f07822329ed19e8244eff582cc204f8554c3620c3fd0180546001600160a01b0319166001600160a01b0383169081179091556040519081527f6289af53036db620876878549739b5988b2b5efa2ddf870235821d774f8b37d79060200160405180910390a150565b33610edb611aff565b6001600160a01b03161480610eff575033610ef4611f3c565b6001600160a01b0316145b610f1b5760405162461bcd60e51b8152600401610a1790613591565b600e54610f3a5760405162461bcd60e51b8152600401610a1790613678565b4780610f845760405162461bcd60e51b81526020600482015260196024820152784e6f206574686572206c65667420746f20776974686472617760381b6044820152606401610a17565b600e54600090610f959083906127f3565b905060005b600e54811015610b48576000600e8281548110610fc757634e487b7160e01b600052603260045260246000fd5b60009182526020822001546040516001600160a01b039091169185919081818185875af1925050503d806000811461101b576040519150601f19603f3d011682016040523d82523d6000602084013e611020565b606091505b50509050806110415760405162461bcd60e51b8152600401610a17906135fd565b508061104c816137e3565b915050610f9a565b60408051808201909152600081526060602082015233611072611aff565b6001600160a01b0316148061109657503361108b611f3c565b6001600160a01b0316145b6110b25760405162461bcd60e51b8152600401610a1790613591565b60006110bd85611986565b905060008060005b835181101561131c576110fe8482815181106110f157634e487b7160e01b600052603260045260246000fd5b60200260200101516124c6565b6111455760405162461bcd60e51b815260206004820152601860248201527774686973206e667420646f6573206e6f742065786973742160401b6044820152606401610a17565b876001600160a01b031661117f85838151811061117257634e487b7160e01b600052603260045260246000fd5b602002602001015161178b565b6001600160a01b0316146111cb5760405162461bcd60e51b8152602060048201526013602482015272796f7520646f6e2774206f776e20746869732160681b6044820152606401610a17565b60155484516001600160a01b0390911690633f0090c39060149060009088908690811061120857634e487b7160e01b600052603260045260246000fd5b60200260200101518152602001908152602001600020546040518263ffffffff1660e01b815260040161123d91815260200190565b60206040518083038186803b15801561125557600080fd5b505afa158015611269573d6000803e3d6000fd5b505050506040513d601f19601f8201168201806040525081019061128d919061334f565b1561130a5742601460008684815181106112b757634e487b7160e01b600052603260045260246000fd5b60200260200101518152602001908152602001600020819055506112e4868461255190919063ffffffff16565b92506064831061130a57816112f8816137e3565b925061130790508360646127ff565b92505b80611314816137e3565b9150506110c5565b50611327868361280b565b1561133a5780611336816137e3565b9150505b60408051808201909152908152602081019290925250949350505050565b33611361611aff565b6001600160a01b0316146113875760405162461bcd60e51b8152600401610a17906135c8565b600b80546001600160a01b0319166001600160a01b0392909216919091179055565b610b4883838360405180602001604052806000815250611c40565b6000806113d0836118c4565b1192915050565b6000610917826124c6565b60006113ed60085490565b82106114505760405162461bcd60e51b815260206004820152602c60248201527f455243373231456e756d657261626c653a20676c6f62616c20696e646578206f60448201526b7574206f6620626f756e647360a01b6064820152608401610a17565b6008828154811061147157634e487b7160e01b600052603260045260246000fd5b90600052602060002001549050919050565b3361148c611aff565b6001600160a01b031614806114b05750336114a5611f3c565b6001600160a01b0316145b6114cc5760405162461bcd60e51b8152600401610a1790613591565b601380546001600160a01b0319166001600160a01b0392909216919091179055565b336114f7611aff565b6001600160a01b03161461151d5760405162461bcd60e51b8152600401610a17906135c8565b8051610c5a90600f906020840190613010565b604080518082018252601081526f181899199a1a9b1b9c1cb0b131b232b360811b60208201528151603380825260608281019094526001600160a01b0385169291600091602082018180368337019050509050600360fc1b816000815181106115a957634e487b7160e01b600052603260045260246000fd5b60200101906001600160f81b031916908160001a905350600f60fb1b816001815181106115e657634e487b7160e01b600052603260045260246000fd5b60200101906001600160f81b031916908160001a90535060005b6014811015611782578260048561161884600c61371a565b6020811061163657634e487b7160e01b600052603260045260246000fd5b1a60f81b6001600160f81b031916901c60f81c60ff168151811061166a57634e487b7160e01b600052603260045260246000fd5b01602001516001600160f81b03191682611685836002613746565b61169090600261371a565b815181106116ae57634e487b7160e01b600052603260045260246000fd5b60200101906001600160f81b031916908160001a90535082846116d283600c61371a565b602081106116f057634e487b7160e01b600052603260045260246000fd5b825191901a600f1690811061171557634e487b7160e01b600052603260045260246000fd5b01602001516001600160f81b03191682611730836002613746565b61173b90600361371a565b8151811061175957634e487b7160e01b600052603260045260246000fd5b60200101906001600160f81b031916908160001a9053508061177a816137e3565b915050611600565b50949350505050565b6000818152600260205260408120546001600160a01b0316806109175760405162461bcd60e51b815260206004820152602960248201527f4552433732313a206f776e657220717565727920666f72206e6f6e657869737460448201526832b73a103a37b5b2b760b91b6064820152608401610a17565b6016546001600160a01b0316331480611833575061181e611f3c565b6001600160a01b0316336001600160a01b0316145b806118565750611841611aff565b6001600160a01b0316336001600160a01b0316145b6118a25760405162461bcd60e51b815260206004820152601f60248201527f796f7520617265206e6f7420616c6c6f77656420746f20646f207468617421006044820152606401610a17565b601580546001600160a01b0319166001600160a01b0392909216919091179055565b60006001600160a01b03821661192f5760405162461bcd60e51b815260206004820152602a60248201527f4552433732313a2062616c616e636520717565727920666f7220746865207a65604482015269726f206164647265737360b01b6064820152608401610a17565b506001600160a01b031660009081526003602052604090205490565b33611954611aff565b6001600160a01b03161461197a5760405162461bcd60e51b8152600401610a17906135c8565b6119846000612855565b565b60606000611993836118c4565b90506000816001600160401b038111156119bd57634e487b7160e01b600052604160045260246000fd5b6040519080825280602002602001820160405280156119e6578160200160208202803683370190505b50905060005b82811015611a3b576119fe8582610d0d565b828281518110611a1e57634e487b7160e01b600052603260045260246000fd5b602090810291909101015280611a33816137e3565b9150506119ec565b509392505050565b600033611a4e611aff565b6001600160a01b03161480611a72575033611a67611f3c565b6001600160a01b0316145b611a8e5760405162461bcd60e51b8152600401610a1790613591565b60005b600e54811015611af657600e8181548110611abc57634e487b7160e01b600052603260045260246000fd5b6000918252602090912001546001600160a01b0384811691161415611ae45750600192915050565b80611aee816137e3565b915050611a91565b50600092915050565b600a546001600160a01b031690565b6000611b19826118c4565b611b2557506000919050565b6000611b3083611986565b90506000805b8251811015611a3b5760155483516001600160a01b0390911690633f0090c390601490600090879086908110611b7c57634e487b7160e01b600052603260045260246000fd5b60200260200101518152602001908152602001600020546040518263ffffffff1660e01b8152600401611bb191815260200190565b60206040518083038186803b158015611bc957600080fd5b505afa158015611bdd573d6000803e3d6000fd5b505050506040513d601f19601f82011682018060405250810190611c01919061334f565b15611c145781611c10816137e3565b9250505b80611c1e816137e3565b915050611b36565b60606001805461092c906137a8565b610c5a3383836128a7565b611c4a3383612582565b611c665760405162461bcd60e51b8152600401610a1790613627565b611c7284848484612972565b50505050565b600e54611c975760405162461bcd60e51b8152600401610a1790613678565b60008111611ce75760405162461bcd60e51b815260206004820152601e60248201527f4e6f206574686572206c65667420746f206175746f20776974686472617700006044820152606401610a17565b600e54600090611cf89083906127f3565b905060005b600e54811015610b48576000600e8281548110611d2a57634e487b7160e01b600052603260045260246000fd5b60009182526020822001546040516001600160a01b039091169185919081818185875af1925050503d8060008114611d7e576040519150601f19603f3d011682016040523d82523d6000602084013e611d83565b606091505b5050905080611da45760405162461bcd60e51b8152600401610a17906135fd565b5080611daf816137e3565b915050611cfd565b6060611dc2826124c6565b611e265760405162461bcd60e51b815260206004820152602f60248201527f4552433732314d657461646174613a2055524920717565727920666f72206e6f60448201526e3732bc34b9ba32b73a103a37b5b2b760891b6064820152608401610a17565b6000611e306129a5565b90506000815111611e505760405180602001604052806000815250611e7b565b80611e5a846129b4565b604051602001611e6b929190613485565b6040516020818303038152906040525b9392505050565b33611e8b611aff565b6001600160a01b03161480611eaf575033611ea4611f3c565b6001600160a01b0316145b611ecb5760405162461bcd60e51b8152600401610a1790613591565b60005b8151811015610c5a57600560116000848481518110611efd57634e487b7160e01b600052603260045260246000fd5b60200260200101516001600160a01b03166001600160a01b03168152602001908152602001600020819055508080611f34906137e3565b915050611ece565b600b546001600160a01b031690565b600f8054611f58906137a8565b80601f0160208091040260200160405190810160405280929190818152602001828054611f84906137a8565b8015611fd15780601f10611fa657610100808354040283529160200191611fd1565b820191906000526020600020905b815481529060010190602001808311611fb457829003601f168201915b505050505081565b33611fe2611aff565b6001600160a01b03161480612006575033611ffb611f3c565b6001600160a01b0316145b6120225760405162461bcd60e51b8152600401610a1790613591565b60005b8151811015610c5a5760016010600084848151811061205457634e487b7160e01b600052603260045260246000fd5b6020908102919091018101516001600160a01b03168252810191909152604001600020805460ff191691151591909117905580612090816137e3565b915050612025565b6001600160a01b03918216600090815260056020908152604080832093909416825291909152205460ff1690565b6000600d5460ff1660028111156120ed57634e487b7160e01b600052602160045260246000fd5b14156121375760405162461bcd60e51b815260206004820152601960248201527874686973206973206e6f74207965742072656c65617365642160381b6044820152606401610a17565b6001600d5460ff16600281111561215e57634e487b7160e01b600052602160045260246000fd5b141561222557336000908152601160205260409020546121d15760405162461bcd60e51b815260206004820152602860248201527f796f752068617665206e6f2077686974656c6973746564206d696e74732072656044820152676d61696e696e672160c01b6064820152608401610a17565b336000908152601160205260409020548111156121fa5750336000908152601160205260409020545b3360009081526011602052604090205461221490826127ff565b336000908152601160205260409020555b6000612230600c5490565b9050600082600a14156122455750600c612259565b826011141561225657506015612259565b50815b6127106122668383612551565b11156122ac5760405162461bcd60e51b81526020600482015260156024820152744e6f7420656e6f756768204e465473206c6566742160581b6044820152606401610a17565b6000831180156122bd575060158311155b6122fb5760405162461bcd60e51b815260206004820152600f60248201526e636f756e7420697320656d7074792160881b6044820152606401610a17565b3360009081526010602052604081205460ff16612327576123226509184e72a00085612acd565b612342565b612342612335600186613765565b6509184e72a00090612acd565b336000908152601060205260409020805460ff1916905590503481111561239d5760405162461bcd60e51b815260206004820152600f60248201526e4e656564206d6f7265204d6574697360881b6044820152606401610a17565b60005b828110156123c2576123b061255d565b806123ba816137e3565b9150506123a0565b50611c7234611c78565b60128054611f58906137a8565b336123e2611aff565b6001600160a01b0316146124085760405162461bcd60e51b8152600401610a17906135c8565b6001600160a01b03811661246d5760405162461bcd60e51b815260206004820152602660248201527f4f776e61626c653a206e6577206f776e657220697320746865207a65726f206160448201526564647265737360d01b6064820152608401610a17565b610dac81612855565b60006001600160e01b031982166380ac58cd60e01b14806124a757506001600160e01b03198216635b5e139f60e01b145b8061091757506301ffc9a760e01b6001600160e01b0319831614610917565b6000908152600260205260409020546001600160a01b0316151590565b600081815260046020526040902080546001600160a01b0319166001600160a01b03841690811790915581906125188261178b565b6001600160a01b03167f8c5be1e5ebec7d5bd14f71427d1e84f3dd0314c0f7b2291e5b200ac8c7c3b92560405160405180910390a45050565b6000611e7b828461371a565b6000612568600c5490565b90506125743382612ad9565b610dac600c80546001019055565b600061258d826124c6565b6125ee5760405162461bcd60e51b815260206004820152602c60248201527f4552433732313a206f70657261746f7220717565727920666f72206e6f6e657860448201526b34b9ba32b73a103a37b5b2b760a11b6064820152608401610a17565b60006125f98361178b565b9050806001600160a01b0316846001600160a01b031614806126345750836001600160a01b0316612629846109af565b6001600160a01b0316145b8061264457506126448185612098565b949350505050565b826001600160a01b031661265f8261178b565b6001600160a01b0316146126c35760405162461bcd60e51b815260206004820152602560248201527f4552433732313a207472616e736665722066726f6d20696e636f72726563742060448201526437bbb732b960d91b6064820152608401610a17565b6001600160a01b0382166127255760405162461bcd60e51b8152602060048201526024808201527f4552433732313a207472616e7366657220746f20746865207a65726f206164646044820152637265737360e01b6064820152608401610a17565b612730838383612af3565b61273b6000826124e3565b6001600160a01b0383166000908152600360205260408120805460019290612764908490613765565b90915550506001600160a01b038216600090815260036020526040812080546001929061279290849061371a565b909155505060008181526002602052604080822080546001600160a01b0319166001600160a01b0386811691821790925591518493918716917fddf252ad1be2c89b69c2b068fc378daa952ba7f163c4a11628f55a4df523b3ef91a4505050565b6000611e7b8284613732565b6000611e7b8284613765565b60008061284a60646128448642604080516020808201939093528082019390935280518084038201815260609093019052815191012090565b90612bab565b909210159392505050565b600a80546001600160a01b038381166001600160a01b0319831681179093556040519116919082907f8be0079c531659141344cd1fd0a4f28419497f9722a3daafe3b4186f6b6457e090600090a35050565b816001600160a01b0316836001600160a01b031614156129055760405162461bcd60e51b815260206004820152601960248201527822a9219b99189d1030b8383937bb32903a379031b0b63632b960391b6044820152606401610a17565b6001600160a01b03838116600081815260056020908152604080832094871680845294825291829020805460ff191686151590811790915591519182527f17307eab39ab6107e8899845ad3d59bd9653f200f220920489ca2b5937696c31910160405180910390a3505050565b61297d84848461264c565b61298984848484612bcb565b611c725760405162461bcd60e51b8152600401610a179061353f565b6060600f805461092c906137a8565b6060816129d85750506040805180820190915260018152600360fc1b602082015290565b8160005b8115612a0257806129ec816137e3565b91506129fb9050600a83613732565b91506129dc565b6000816001600160401b03811115612a2a57634e487b7160e01b600052604160045260246000fd5b6040519080825280601f01601f191660200182016040528015612a54576020820181803683370190505b5090505b841561264457612a69600183613765565b9150612a76600a866137fe565b612a8190603061371a565b60f81b818381518110612aa457634e487b7160e01b600052603260045260246000fd5b60200101906001600160f81b031916908160001a905350612ac6600a86613732565b9450612a58565b6000611e7b8284613746565b610c5a828260405180602001604052806000815250612cd8565b6001600160a01b038316612b4e57612b4981600880546000838152600960205260408120829055600182018355919091527ff3f7a9fe364faab93b216da50a3214154f22a0a2b415b23a84c8169e8b636ee30155565b612b71565b816001600160a01b0316836001600160a01b031614612b7157612b718382612d0b565b6001600160a01b038216612b8857610b4881612da8565b826001600160a01b0316826001600160a01b031614610b4857610b488282612e81565b60008060008311612bbd576001612bbf565b825b90506126448482612ec5565b60006001600160a01b0384163b15612ccd57604051630a85bd0160e11b81526001600160a01b0385169063150b7a0290612c0f9033908990889088906004016134b4565b602060405180830381600087803b158015612c2957600080fd5b505af1925050508015612c59575060408051601f3d908101601f19168201909252612c5691810190613387565b60015b612cb3573d808015612c87576040519150601f19603f3d011682016040523d82523d6000602084013e612c8c565b606091505b508051612cab5760405162461bcd60e51b8152600401610a179061353f565b805181602001fd5b6001600160e01b031916630a85bd0160e11b149050612644565b506001949350505050565b612ce28383612ed1565b612cef6000848484612bcb565b610b485760405162461bcd60e51b8152600401610a179061353f565b60006001612d18846118c4565b612d229190613765565b600083815260076020526040902054909150808214612d75576001600160a01b03841660009081526006602090815260408083208584528252808320548484528184208190558352600790915290208190555b5060009182526007602090815260408084208490556001600160a01b039094168352600681528383209183525290812055565b600854600090612dba90600190613765565b60008381526009602052604081205460088054939450909284908110612df057634e487b7160e01b600052603260045260246000fd5b906000526020600020015490508060088381548110612e1f57634e487b7160e01b600052603260045260246000fd5b6000918252602080832090910192909255828152600990915260408082208490558582528120556008805480612e6557634e487b7160e01b600052603160045260246000fd5b6001900381819060005260206000200160009055905550505050565b6000612e8c836118c4565b6001600160a01b039093166000908152600660209081526040808320868452825280832085905593825260079052919091209190915550565b6000611e7b82846137fe565b6001600160a01b038216612f275760405162461bcd60e51b815260206004820181905260248201527f4552433732313a206d696e7420746f20746865207a65726f20616464726573736044820152606401610a17565b612f30816124c6565b15612f7d5760405162461bcd60e51b815260206004820152601c60248201527f4552433732313a20746f6b656e20616c7265616479206d696e746564000000006044820152606401610a17565b612f8960008383612af3565b6001600160a01b0382166000908152600360205260408120805460019290612fb290849061371a565b909155505060008181526002602052604080822080546001600160a01b0319166001600160a01b03861690811790915590518392907fddf252ad1be2c89b69c2b068fc378daa952ba7f163c4a11628f55a4df523b3ef908290a45050565b82805461301c906137a8565b90600052602060002090601f01602090048101928261303e5760008555613084565b82601f1061305757805160ff1916838001178555613084565b82800160010185558215613084579182015b82811115613084578251825591602001919060010190613069565b50613090929150613094565b5090565b5b808211156130905760008155600101613095565b60006001600160401b038311156130c2576130c261383e565b6130d5601f8401601f19166020016136ea565b90508281528383830111156130e957600080fd5b828260208301376000602084830101529392505050565b600060208284031215613111578081fd5b8135611e7b81613854565b6000806040838503121561312e578081fd5b823561313981613854565b9150602083013561314981613854565b809150509250929050565b600080600060608486031215613168578081fd5b833561317381613854565b9250602084013561318381613854565b929592945050506040919091013590565b600080600080608085870312156131a9578081fd5b84356131b481613854565b935060208501356131c481613854565b92506040850135915060608501356001600160401b038111156131e5578182fd5b8501601f810187136131f5578182fd5b613204878235602084016130a9565b91505092959194509250565b60008060408385031215613222578182fd5b823561322d81613854565b9150602083013561314981613869565b6000806040838503121561324f578182fd5b823561325a81613854565b946020939093013593505050565b60008060006060848603121561327c578283fd5b833561328781613854565b95602085013595506040909401359392505050565b600060208083850312156132ae578182fd5b82356001600160401b03808211156132c4578384fd5b818501915085601f8301126132d7578384fd5b8135818111156132e9576132e961383e565b8060051b91506132fa8483016136ea565b8181528481019084860184860187018a1015613314578788fd5b8795505b83861015613342578035945061332d85613854565b84835260019590950194918601918601613318565b5098975050505050505050565b600060208284031215613360578081fd5b8151611e7b81613869565b60006020828403121561337c578081fd5b8135611e7b81613877565b600060208284031215613398578081fd5b8151611e7b81613877565b6000602082840312156133b4578081fd5b813560038110611e7b578182fd5b6000602082840312156133d3578081fd5b81356001600160401b038111156133e8578182fd5b8201601f810184136133f8578182fd5b612644848235602084016130a9565b600060208284031215613418578081fd5b5035919050565b6000815180845260208085019450808401835b8381101561344e57815187529582019590820190600101613432565b509495945050505050565b6000815180845261347181602086016020860161377c565b601f01601f19169290920160200192915050565b6000835161349781846020880161377c565b8351908301906134ab81836020880161377c565b01949350505050565b6001600160a01b03858116825284166020820152604081018390526080606082018190526000906134e790830184613459565b9695505050505050565b602081526000611e7b602083018461341f565b602081016003831061352657634e487b7160e01b600052602160045260246000fd5b91905290565b602081526000611e7b6020830184613459565b60208082526032908201527f4552433732313a207472616e7366657220746f206e6f6e20455243373231526560408201527131b2b4bb32b91034b6b83632b6b2b73a32b960711b606082015260800190565b6020808252601a908201527f6e6f74206f776e6572206f72206d61696e20636f6e7472616374000000000000604082015260600190565b6020808252818101527f4f776e61626c653a2063616c6c6572206973206e6f7420746865206f776e6572604082015260600190565b60208082526010908201526f2a3930b739b332b9103330b4b632b21760811b604082015260600190565b60208082526031908201527f4552433732313a207472616e736665722063616c6c6572206973206e6f74206f6040820152701ddb995c881b9bdc88185c1c1c9bdd9959607a1b606082015260800190565b6020808252602d908201527f6e6f20726563697069656e74732068617665206265656e20616464656420746f60408201526c20776974686472617720746f2160981b606082015260800190565b602081528151602082015260006020830151604080840152612644606084018261341f565b604051601f8201601f191681016001600160401b03811182821017156137125761371261383e565b604052919050565b6000821982111561372d5761372d613812565b500190565b60008261374157613741613828565b500490565b600081600019048311821515161561376057613760613812565b500290565b60008282101561377757613777613812565b500390565b60005b8381101561379757818101518382015260200161377f565b83811115611c725750506000910152565b600181811c908216806137bc57607f821691505b602082108114156137dd57634e487b7160e01b600052602260045260246000fd5b50919050565b60006000198214156137f7576137f7613812565b5060010190565b60008261380d5761380d613828565b500690565b634e487b7160e01b600052601160045260246000fd5b634e487b7160e01b600052601260045260246000fd5b634e487b7160e01b600052604160045260246000fd5b6001600160a01b0381168114610dac57600080fd5b8015158114610dac57600080fd5b6001600160e01b031981168114610dac57600080fdfea264697066735822122049bb852debe5448158a60998d6e529fe6801dac2edb31e308070c7de65e09f3864736f6c63430008040033",
  "immutableReferences": {},
  "source": "// SPDX-License-Identifier: MIT\r\npragma solidity ^0.8.4;\r\n\r\nimport \"./MetisERC721.sol\";\r\nimport \"./MissileMaker.sol\";\r\nimport \"./Helpers.sol\";\r\n///////////////////////////////////////////////////////////////////////////////////////////////////////////////////////\r\n// a world leader MoreMissilesPlz NFT collection\r\n///////////////////////////////////////////////////////////////////////////////////////////////////////////////////////\r\ncontract WorldLeader is MetisERC721 {\r\n    using SafeMath for uint;\r\n    using Helpers for uint;\r\n\r\n    string public leaderName;\r\n    address internal _moreMissilesPlzAddress;\r\n\r\n    mapping(uint => uint) _lastRunLookup;\r\n\r\n    MissileMaker internal _missileMaker;\r\n    address internal _leaderStoreAddress;\r\n\r\n    struct MissileOdds {\r\n        uint numMissilesToMint;\r\n        uint[] leaderNftIds;\r\n    }\r\n\r\n    constructor(\r\n        string memory name,\r\n        address leaderStoreAddress,\r\n        MissileMaker missileMaker\r\n    ) MetisERC721(string(abi.encodePacked(\"World Leader \", name)), \"LEADER\") {\r\n        leaderName = name;\r\n        _leaderStoreAddress = leaderStoreAddress;\r\n        _missileMaker = missileMaker;\r\n    }\r\n\r\n    function mintNFTs(uint count) public payable {\r\n        _mintNFTs(count);\r\n    }\r\n\r\n    function doesUserOwnAnyOfThisWorldLeader(address addr) external view returns (bool) {\r\n        return balanceOf(addr) > 0;\r\n    }\r\n\r\n    function numMissilesReadyToRoll(address sender) public view returns (uint) {\r\n        if (balanceOf(sender) == 0) {\r\n            return 0;\r\n        }\r\n        uint[] memory leaderNftIds = tokensOfOwner(sender);\r\n        uint numReady = 0;\r\n        for (uint i = 0; i < leaderNftIds.length; i++) {\r\n            if (_missileMaker.isRollForMissileReady(_lastRunLookup[leaderNftIds[i]])) {\r\n                numReady++;\r\n            }\r\n        }\r\n        return numReady;\r\n    }\r\n\r\n    function maybeGetMissiles(address sender, uint randVal, uint missilePercChance) public onlyOwnerOrMain returns (MissileOdds memory) {\r\n        uint[] memory leaderNftIds = tokensOfOwner(sender);\r\n        uint currentPercentage = 0;\r\n        uint numMissilesToMint = 0;\r\n\r\n        //\r\n        // increment the % chance of rolling a missile according to the missilePercChance depending on number of NFTs owned.\r\n        // when this reaches or exceeds 100%, consider this a guaranteed missile for the user and start back at 0 again\r\n        // for their chance of rolling another one. repeat this for the amount of NFTs they own until you have an\r\n        // amount of guaranteed missiles, and a % chance of getting one more.\r\n        //\r\n        // each unique world leader collection calculates these odds separately.\r\n        //\r\n        for (uint i = 0; i < leaderNftIds.length; i++) {\r\n            require(_exists(leaderNftIds[i]), \"this nft does not exist!\");\r\n            require(ownerOf(leaderNftIds[i]) == sender, \"you don't own this!\");\r\n            if (_missileMaker.isRollForMissileReady(_lastRunLookup[leaderNftIds[i]])) {\r\n                _lastRunLookup[leaderNftIds[i]] = block.timestamp;\r\n                currentPercentage = currentPercentage.add(missilePercChance);\r\n                if (currentPercentage >= 100) {\r\n                    numMissilesToMint++;\r\n                    currentPercentage = currentPercentage.sub(100);\r\n                }\r\n            }\r\n        }\r\n\r\n        if (userDidRollMissile(randVal, currentPercentage)) {\r\n            numMissilesToMint++;\r\n        }\r\n\r\n        return MissileOdds(numMissilesToMint, leaderNftIds);\r\n    }\r\n\r\n    function userDidRollMissile(uint randVal, uint thisMissilePercChance) internal view returns (bool){\r\n        uint num = uint(randVal.randomize(block.timestamp).modSafe(100));\r\n        return num <= thisMissilePercChance;\r\n    }\r\n\r\n    function getBalance() external view onlyOwnerOrMain returns (uint) {\r\n        return address(this).balance;\r\n    }\r\n\r\n    // see MoreMissilesPlz.sol bottom section before using\r\n    //\r\n    function updateMissileMaker(address newMissileMaker) public {\r\n        require(msg.sender == _leaderStoreAddress || msg.sender == mainContract() || msg.sender == owner(), \"you are not allowed to do that!\");\r\n        _missileMaker = MissileMaker(newMissileMaker);\r\n    }\r\n\r\n    function setMoreMissilesPlzAddress(address to) public onlyOwnerOrMain {\r\n        _moreMissilesPlzAddress = to;\r\n    }\r\n}\r\n\r\n\r\n",
  "sourcePath": "C:\\data\\source\\Webstorm Projects\\metis-nfts\\contracts\\WorldLeader.sol",
  "compiler": {
    "name": "solc",
    "version": "0.8.4+commit.c7e474f2.Emscripten.clang"
  },
  "schemaVersion": "3.4.5",
  "updatedAt": "2022-03-24T19:46:27.282Z",
  "devdoc": {
    "kind": "dev",
    "methods": {
      "approve(address,uint256)": {
        "details": "See {IERC721-approve}."
      },
      "balanceOf(address)": {
        "details": "See {IERC721-balanceOf}."
      },
      "getApproved(uint256)": {
        "details": "See {IERC721-getApproved}."
      },
      "isApprovedForAll(address,address)": {
        "details": "See {IERC721-isApprovedForAll}."
      },
      "name()": {
        "details": "See {IERC721Metadata-name}."
      },
      "owner()": {
        "details": "Returns the address of the current owner."
      },
      "ownerOf(uint256)": {
        "details": "See {IERC721-ownerOf}."
      },
      "renounceOwnership()": {
        "details": "Leaves the contract without owner. It will not be possible to call `onlyOwner` functions anymore. Can only be called by the current owner. NOTE: Renouncing ownership will leave the contract without an owner, thereby removing any functionality that is only available to the owner."
      },
      "safeTransferFrom(address,address,uint256)": {
        "details": "See {IERC721-safeTransferFrom}."
      },
      "safeTransferFrom(address,address,uint256,bytes)": {
        "details": "See {IERC721-safeTransferFrom}."
      },
      "setApprovalForAll(address,bool)": {
        "details": "See {IERC721-setApprovalForAll}."
      },
      "supportsInterface(bytes4)": {
        "details": "See {IERC165-supportsInterface}."
      },
      "symbol()": {
        "details": "See {IERC721Metadata-symbol}."
      },
      "tokenByIndex(uint256)": {
        "details": "See {IERC721Enumerable-tokenByIndex}."
      },
      "tokenOfOwnerByIndex(address,uint256)": {
        "details": "See {IERC721Enumerable-tokenOfOwnerByIndex}."
      },
      "tokenURI(uint256)": {
        "details": "See {IERC721Metadata-tokenURI}."
      },
      "totalSupply()": {
        "details": "See {IERC721Enumerable-totalSupply}."
      },
      "transferFrom(address,address,uint256)": {
        "details": "See {IERC721-transferFrom}."
      },
      "transferOwnership(address)": {
        "details": "Transfers ownership of the contract to a new account (`newOwner`). Can only be called by the current owner."
      }
    },
    "version": 1
  },
  "userdoc": {
    "kind": "user",
    "methods": {},
    "version": 1
  }
}