{
  "contractName": "WorldLeader",
  "abi": [
    {
      "inputs": [],
      "stateMutability": "nonpayable",
      "type": "constructor"
    },
    {
      "anonymous": false,
      "inputs": [
        {
          "indexed": true,
          "internalType": "address",
          "name": "owner",
          "type": "address"
        },
        {
          "indexed": true,
          "internalType": "address",
          "name": "approved",
          "type": "address"
        },
        {
          "indexed": true,
          "internalType": "uint256",
          "name": "tokenId",
          "type": "uint256"
        }
      ],
      "name": "Approval",
      "type": "event"
    },
    {
      "anonymous": false,
      "inputs": [
        {
          "indexed": true,
          "internalType": "address",
          "name": "owner",
          "type": "address"
        },
        {
          "indexed": true,
          "internalType": "address",
          "name": "operator",
          "type": "address"
        },
        {
          "indexed": false,
          "internalType": "bool",
          "name": "approved",
          "type": "bool"
        }
      ],
      "name": "ApprovalForAll",
      "type": "event"
    },
    {
      "anonymous": false,
      "inputs": [
        {
          "indexed": true,
          "internalType": "address",
          "name": "previousOwner",
          "type": "address"
        },
        {
          "indexed": true,
          "internalType": "address",
          "name": "newOwner",
          "type": "address"
        }
      ],
      "name": "OwnershipTransferred",
      "type": "event"
    },
    {
      "anonymous": false,
      "inputs": [
        {
          "indexed": false,
          "internalType": "address payable",
          "name": "recipient",
          "type": "address"
        }
      ],
      "name": "SetRecipient",
      "type": "event"
    },
    {
      "anonymous": false,
      "inputs": [
        {
          "indexed": true,
          "internalType": "address",
          "name": "from",
          "type": "address"
        },
        {
          "indexed": true,
          "internalType": "address",
          "name": "to",
          "type": "address"
        },
        {
          "indexed": true,
          "internalType": "uint256",
          "name": "tokenId",
          "type": "uint256"
        }
      ],
      "name": "Transfer",
      "type": "event"
    },
    {
      "inputs": [],
      "name": "MAX_PER_MINT",
      "outputs": [
        {
          "internalType": "uint256",
          "name": "",
          "type": "uint256"
        }
      ],
      "stateMutability": "view",
      "type": "function"
    },
    {
      "inputs": [],
      "name": "MAX_SUPPLY",
      "outputs": [
        {
          "internalType": "uint256",
          "name": "",
          "type": "uint256"
        }
      ],
      "stateMutability": "view",
      "type": "function"
    },
    {
      "inputs": [],
      "name": "PRICE",
      "outputs": [
        {
          "internalType": "uint256",
          "name": "",
          "type": "uint256"
        }
      ],
      "stateMutability": "view",
      "type": "function"
    },
    {
      "inputs": [],
      "name": "WHITELIST_MAX_AMOUNT",
      "outputs": [
        {
          "internalType": "uint256",
          "name": "",
          "type": "uint256"
        }
      ],
      "stateMutability": "view",
      "type": "function"
    },
    {
      "inputs": [],
      "name": "_releaseStatus",
      "outputs": [
        {
          "internalType": "enum WorldLeader.ReleaseStatus",
          "name": "",
          "type": "uint8"
        }
      ],
      "stateMutability": "view",
      "type": "function"
    },
    {
      "inputs": [
        {
          "internalType": "address",
          "name": "leader",
          "type": "address"
        },
        {
          "internalType": "address",
          "name": "missileMaker",
          "type": "address"
        },
        {
          "internalType": "address",
          "name": "ufoInvasion",
          "type": "address"
        }
      ],
      "name": "_setOwnedContracts",
      "outputs": [],
      "stateMutability": "nonpayable",
      "type": "function"
    },
    {
      "inputs": [
        {
          "internalType": "address",
          "name": "to",
          "type": "address"
        },
        {
          "internalType": "uint256",
          "name": "tokenId",
          "type": "uint256"
        }
      ],
      "name": "approve",
      "outputs": [],
      "stateMutability": "nonpayable",
      "type": "function"
    },
    {
      "inputs": [
        {
          "internalType": "address",
          "name": "owner",
          "type": "address"
        }
      ],
      "name": "balanceOf",
      "outputs": [
        {
          "internalType": "uint256",
          "name": "",
          "type": "uint256"
        }
      ],
      "stateMutability": "view",
      "type": "function"
    },
    {
      "inputs": [],
      "name": "baseTokenURI",
      "outputs": [
        {
          "internalType": "string",
          "name": "",
          "type": "string"
        }
      ],
      "stateMutability": "view",
      "type": "function"
    },
    {
      "inputs": [
        {
          "internalType": "uint256",
          "name": "tokenId",
          "type": "uint256"
        }
      ],
      "name": "getApproved",
      "outputs": [
        {
          "internalType": "address",
          "name": "",
          "type": "address"
        }
      ],
      "stateMutability": "view",
      "type": "function"
    },
    {
      "inputs": [
        {
          "internalType": "address",
          "name": "owner",
          "type": "address"
        },
        {
          "internalType": "address",
          "name": "operator",
          "type": "address"
        }
      ],
      "name": "isApprovedForAll",
      "outputs": [
        {
          "internalType": "bool",
          "name": "",
          "type": "bool"
        }
      ],
      "stateMutability": "view",
      "type": "function"
    },
    {
      "inputs": [],
      "name": "name",
      "outputs": [
        {
          "internalType": "string",
          "name": "",
          "type": "string"
        }
      ],
      "stateMutability": "view",
      "type": "function"
    },
    {
      "inputs": [],
      "name": "owner",
      "outputs": [
        {
          "internalType": "address",
          "name": "",
          "type": "address"
        }
      ],
      "stateMutability": "view",
      "type": "function"
    },
    {
      "inputs": [
        {
          "internalType": "uint256",
          "name": "tokenId",
          "type": "uint256"
        }
      ],
      "name": "ownerOf",
      "outputs": [
        {
          "internalType": "address",
          "name": "",
          "type": "address"
        }
      ],
      "stateMutability": "view",
      "type": "function"
    },
    {
      "inputs": [],
      "name": "renounceOwnership",
      "outputs": [],
      "stateMutability": "nonpayable",
      "type": "function"
    },
    {
      "inputs": [
        {
          "internalType": "address",
          "name": "from",
          "type": "address"
        },
        {
          "internalType": "address",
          "name": "to",
          "type": "address"
        },
        {
          "internalType": "uint256",
          "name": "tokenId",
          "type": "uint256"
        }
      ],
      "name": "safeTransferFrom",
      "outputs": [],
      "stateMutability": "nonpayable",
      "type": "function"
    },
    {
      "inputs": [
        {
          "internalType": "address",
          "name": "from",
          "type": "address"
        },
        {
          "internalType": "address",
          "name": "to",
          "type": "address"
        },
        {
          "internalType": "uint256",
          "name": "tokenId",
          "type": "uint256"
        },
        {
          "internalType": "bytes",
          "name": "_data",
          "type": "bytes"
        }
      ],
      "name": "safeTransferFrom",
      "outputs": [],
      "stateMutability": "nonpayable",
      "type": "function"
    },
    {
      "inputs": [
        {
          "internalType": "address",
          "name": "operator",
          "type": "address"
        },
        {
          "internalType": "bool",
          "name": "approved",
          "type": "bool"
        }
      ],
      "name": "setApprovalForAll",
      "outputs": [],
      "stateMutability": "nonpayable",
      "type": "function"
    },
    {
      "inputs": [
        {
          "internalType": "bytes4",
          "name": "interfaceId",
          "type": "bytes4"
        }
      ],
      "name": "supportsInterface",
      "outputs": [
        {
          "internalType": "bool",
          "name": "",
          "type": "bool"
        }
      ],
      "stateMutability": "view",
      "type": "function"
    },
    {
      "inputs": [],
      "name": "symbol",
      "outputs": [
        {
          "internalType": "string",
          "name": "",
          "type": "string"
        }
      ],
      "stateMutability": "view",
      "type": "function"
    },
    {
      "inputs": [
        {
          "internalType": "uint256",
          "name": "index",
          "type": "uint256"
        }
      ],
      "name": "tokenByIndex",
      "outputs": [
        {
          "internalType": "uint256",
          "name": "",
          "type": "uint256"
        }
      ],
      "stateMutability": "view",
      "type": "function"
    },
    {
      "inputs": [
        {
          "internalType": "address",
          "name": "owner",
          "type": "address"
        },
        {
          "internalType": "uint256",
          "name": "index",
          "type": "uint256"
        }
      ],
      "name": "tokenOfOwnerByIndex",
      "outputs": [
        {
          "internalType": "uint256",
          "name": "",
          "type": "uint256"
        }
      ],
      "stateMutability": "view",
      "type": "function"
    },
    {
      "inputs": [
        {
          "internalType": "uint256",
          "name": "tokenId",
          "type": "uint256"
        }
      ],
      "name": "tokenURI",
      "outputs": [
        {
          "internalType": "string",
          "name": "",
          "type": "string"
        }
      ],
      "stateMutability": "view",
      "type": "function"
    },
    {
      "inputs": [],
      "name": "totalSupply",
      "outputs": [
        {
          "internalType": "uint256",
          "name": "",
          "type": "uint256"
        }
      ],
      "stateMutability": "view",
      "type": "function"
    },
    {
      "inputs": [
        {
          "internalType": "address",
          "name": "from",
          "type": "address"
        },
        {
          "internalType": "address",
          "name": "to",
          "type": "address"
        },
        {
          "internalType": "uint256",
          "name": "tokenId",
          "type": "uint256"
        }
      ],
      "name": "transferFrom",
      "outputs": [],
      "stateMutability": "nonpayable",
      "type": "function"
    },
    {
      "inputs": [
        {
          "internalType": "address",
          "name": "newOwner",
          "type": "address"
        }
      ],
      "name": "transferOwnership",
      "outputs": [],
      "stateMutability": "nonpayable",
      "type": "function"
    },
    {
      "inputs": [],
      "name": "reserveNFTs",
      "outputs": [],
      "stateMutability": "nonpayable",
      "type": "function"
    },
    {
      "inputs": [
        {
          "internalType": "string",
          "name": "_baseTokenURI",
          "type": "string"
        }
      ],
      "name": "setBaseURI",
      "outputs": [],
      "stateMutability": "nonpayable",
      "type": "function"
    },
    {
      "inputs": [
        {
          "internalType": "uint256",
          "name": "_count",
          "type": "uint256"
        }
      ],
      "name": "mintNFTs",
      "outputs": [],
      "stateMutability": "payable",
      "type": "function"
    },
    {
      "inputs": [
        {
          "internalType": "uint256",
          "name": "nftId",
          "type": "uint256"
        }
      ],
      "name": "exists",
      "outputs": [
        {
          "internalType": "bool",
          "name": "",
          "type": "bool"
        }
      ],
      "stateMutability": "view",
      "type": "function"
    },
    {
      "inputs": [
        {
          "internalType": "address",
          "name": "_owner",
          "type": "address"
        }
      ],
      "name": "tokensOfOwner",
      "outputs": [
        {
          "internalType": "uint256[]",
          "name": "",
          "type": "uint256[]"
        }
      ],
      "stateMutability": "view",
      "type": "function"
    },
    {
      "inputs": [
        {
          "internalType": "uint256",
          "name": "amount",
          "type": "uint256"
        }
      ],
      "name": "withdrawAuto",
      "outputs": [],
      "stateMutability": "nonpayable",
      "type": "function"
    },
    {
      "inputs": [],
      "name": "withdraw",
      "outputs": [],
      "stateMutability": "nonpayable",
      "type": "function"
    },
    {
      "inputs": [
        {
          "internalType": "address payable",
          "name": "recipient",
          "type": "address"
        }
      ],
      "name": "isRecipient",
      "outputs": [
        {
          "internalType": "bool",
          "name": "",
          "type": "bool"
        }
      ],
      "stateMutability": "view",
      "type": "function"
    },
    {
      "inputs": [
        {
          "internalType": "address payable",
          "name": "recipient",
          "type": "address"
        }
      ],
      "name": "setRecipient",
      "outputs": [],
      "stateMutability": "nonpayable",
      "type": "function"
    },
    {
      "inputs": [
        {
          "internalType": "address",
          "name": "addr",
          "type": "address"
        }
      ],
      "name": "hasFreeMint",
      "outputs": [
        {
          "internalType": "bool",
          "name": "",
          "type": "bool"
        }
      ],
      "stateMutability": "view",
      "type": "function"
    },
    {
      "inputs": [
        {
          "internalType": "address[]",
          "name": "addresses",
          "type": "address[]"
        }
      ],
      "name": "addAddressesForFreeMint",
      "outputs": [],
      "stateMutability": "nonpayable",
      "type": "function"
    },
    {
      "inputs": [
        {
          "internalType": "address",
          "name": "addr",
          "type": "address"
        }
      ],
      "name": "numWhitelistMintsRemaining",
      "outputs": [
        {
          "internalType": "uint256",
          "name": "",
          "type": "uint256"
        }
      ],
      "stateMutability": "view",
      "type": "function"
    },
    {
      "inputs": [
        {
          "internalType": "address[]",
          "name": "addresses",
          "type": "address[]"
        }
      ],
      "name": "addAddressesForWhitelist",
      "outputs": [],
      "stateMutability": "nonpayable",
      "type": "function"
    },
    {
      "inputs": [],
      "name": "getReleaseStatus",
      "outputs": [
        {
          "internalType": "enum WorldLeader.ReleaseStatus",
          "name": "",
          "type": "uint8"
        }
      ],
      "stateMutability": "view",
      "type": "function"
    },
    {
      "inputs": [
        {
          "internalType": "enum WorldLeader.ReleaseStatus",
          "name": "releaseStatus",
          "type": "uint8"
        }
      ],
      "name": "setReleaseStatus",
      "outputs": [],
      "stateMutability": "nonpayable",
      "type": "function"
    }
  ],
  "bytecode": "0x6080604052600f805460ff191690553480156200001b57600080fd5b50604080518082018252600c81526b109a59195b9cd49bd8dad95d60a21b6020808301918252835180850190945260068452652622a0a222a960d11b9084015281519192916200006e91600091620000fd565b50805162000084906001906020840190620000fd565b505050620000a16200009b620000a760201b60201c565b620000ab565b620001e0565b3390565b600a80546001600160a01b038381166001600160a01b0319831681179093556040519116919082907f8be0079c531659141344cd1fd0a4f28419497f9722a3daafe3b4186f6b6457e090600090a35050565b8280546200010b90620001a3565b90600052602060002090601f0160209004810192826200012f57600085556200017a565b82601f106200014a57805160ff19168380011785556200017a565b828001600101855582156200017a579182015b828111156200017a5782518255916020019190600101906200015d565b50620001889291506200018c565b5090565b5b808211156200018857600081556001016200018d565b600181811c90821680620001b857607f821691505b60208210811415620001da57634e487b7160e01b600052602260045260246000fd5b50919050565b612d6480620001f06000396000f3fe6080604052600436106101e65760003560e01c806370a082311161010957806370a0823114610463578063715018a6146104835780638462151c146104985780638c5143ea146104c55780638d859f3e146104e55780638da5cb5b146104ff5780638f425e981461051457806395d89b411461054a578063a22cb4651461055f578063a5fede1d1461057f578063ab60263014610597578063b88d4fde146105ac578063c0aa503f146105cc578063c87b56dd146105ec578063c8d1f75b1461060c578063d547cfb71461062c578063d5cde1f214610641578063d9afaa621461067a578063e985e9c51461069a578063f2fde38b146106ba578063fa407920146106da57600080fd5b806301ffc9a7146101eb57806306fdde0314610220578063081812fc14610242578063095ea7b31461026f57806309d42b3014610291578063144100c7146102b457806318160ddd146102c957806323b872dd146102de57806328eb9ca5146102fe5780632f745c591461031e578063321483981461033e57806332cb6b0c146103655780633b4b13811461037b5780633bbed4a01461038e5780633ccfd60b146103ae57806342842e0e146103c35780634f558e79146103e35780634f6ccce71461040357806355f804b3146104235780636352211e14610443575b600080fd5b3480156101f757600080fd5b5061020b61020636600461286b565b6106fa565b60405190151581526020015b60405180910390f35b34801561022c57600080fd5b50610235610725565b6040516102179190612a37565b34801561024e57600080fd5b5061026261025d366004612907565b6107b7565b604051610217919061297a565b34801561027b57600080fd5b5061028f61028a36600461278d565b610844565b005b34801561029d57600080fd5b506102a6601581565b604051908152602001610217565b3480156102c057600080fd5b5061028f610955565b3480156102d557600080fd5b506008546102a6565b3480156102ea57600080fd5b5061028f6102f93660046126a0565b610a16565b34801561030a57600080fd5b5061028f6103193660046128a3565b610a47565b34801561032a57600080fd5b506102a661033936600461278d565b610aab565b34801561034a57600080fd5b50600f546103589060ff1681565b6040516102179190612a0f565b34801561037157600080fd5b506102a661271081565b61028f610389366004612907565b610b41565b34801561039a57600080fd5b5061028f6103a9366004612602565b610e4d565b3480156103ba57600080fd5b5061028f610f58565b3480156103cf57600080fd5b5061028f6103de3660046126a0565b6110c0565b3480156103ef57600080fd5b5061020b6103fe366004612907565b6110db565b34801561040f57600080fd5b506102a661041e366004612907565b6110e6565b34801561042f57600080fd5b5061028f61043e3660046128c2565b611187565b34801561044f57600080fd5b5061026261045e366004612907565b6111c9565b34801561046f57600080fd5b506102a661047e366004612602565b611240565b34801561048f57600080fd5b5061028f6112c7565b3480156104a457600080fd5b506104b86104b3366004612602565b611302565b60405161021791906129cb565b3480156104d157600080fd5b5061020b6104e0366004612602565b6113bf565b3480156104f157600080fd5b506102a66509184e72a00081565b34801561050b57600080fd5b50610262611461565b34801561052057600080fd5b506102a661052f366004612602565b6001600160a01b031660009081526013602052604090205490565b34801561055657600080fd5b50610235611470565b34801561056b57600080fd5b5061028f61057a36600461275c565b61147f565b34801561058b57600080fd5b50600f5460ff16610358565b3480156105a357600080fd5b506102a6600581565b3480156105b857600080fd5b5061028f6105c73660046126e0565b61148a565b3480156105d857600080fd5b5061028f6105e7366004612907565b6114bc565b3480156105f857600080fd5b50610235610607366004612907565b6115fb565b34801561061857600080fd5b5061028f6106273660046127b8565b6116c6565b34801561063857600080fd5b50610235611766565b34801561064d57600080fd5b5061020b61065c366004612602565b6001600160a01b031660009081526012602052604090205460ff1690565b34801561068657600080fd5b5061028f6106953660046127b8565b6117f4565b3480156106a657600080fd5b5061020b6106b536600461261e565b611899565b3480156106c657600080fd5b5061028f6106d5366004612602565b6118c7565b3480156106e657600080fd5b5061028f6106f5366004612656565b611967565b60006001600160e01b0319821663780e9d6360e01b148061071f575061071f826119ef565b92915050565b60606000805461073490612c57565b80601f016020809104026020016040519081016040528092919081815260200182805461076090612c57565b80156107ad5780601f10610782576101008083540402835291602001916107ad565b820191906000526020600020905b81548152906001019060200180831161079057829003601f168201915b5050505050905090565b60006107c282611a3f565b6108285760405162461bcd60e51b815260206004820152602c60248201527f4552433732313a20617070726f76656420717565727920666f72206e6f6e657860448201526b34b9ba32b73a103a37b5b2b760a11b60648201526084015b60405180910390fd5b506000908152600460205260409020546001600160a01b031690565b600061084f826111c9565b9050806001600160a01b0316836001600160a01b031614156108bd5760405162461bcd60e51b815260206004820152602160248201527f4552433732313a20617070726f76616c20746f2063757272656e74206f776e656044820152603960f91b606482015260840161081f565b336001600160a01b03821614806108d957506108d98133611899565b6109465760405162461bcd60e51b815260206004820152603860248201527f4552433732313a20617070726f76652063616c6c6572206973206e6f74206f776044820152771b995c881b9bdc88185c1c1c9bdd995908199bdc88185b1b60421b606482015260840161081f565b6109508383611a5c565b505050565b3361095e611461565b6001600160a01b0316146109845760405162461bcd60e51b815260040161081f90612a9c565b600061098f600e5490565b905061271061099f826064611aca565b106109ec5760405162461bcd60e51b815260206004820152601f60248201527f4e6f7420656e6f756768204e465473206c65667420746f207265736572766500604482015260640161081f565b60005b6064811015610a1257610a00611ad6565b80610a0a81612c92565b9150506109ef565b5050565b610a203382611afb565b610a3c5760405162461bcd60e51b815260040161081f90612afb565b610950838383611bc5565b33610a50611461565b6001600160a01b031614610a765760405162461bcd60e51b815260040161081f90612a9c565b600f805482919060ff19166001836002811115610aa357634e487b7160e01b600052602160045260246000fd5b021790555050565b6000610ab683611240565b8210610b185760405162461bcd60e51b815260206004820152602b60248201527f455243373231456e756d657261626c653a206f776e657220696e646578206f7560448201526a74206f6620626f756e647360a81b606482015260840161081f565b506001600160a01b03919091166000908152600660209081526040808320938352929052205490565b6000600f5460ff166002811115610b6857634e487b7160e01b600052602160045260246000fd5b1415610bb25760405162461bcd60e51b815260206004820152601960248201527874686973206973206e6f74207965742072656c65617365642160381b604482015260640161081f565b6001600f5460ff166002811115610bd957634e487b7160e01b600052602160045260246000fd5b1415610ca05733600090815260136020526040902054610c4c5760405162461bcd60e51b815260206004820152602860248201527f796f752068617665206e6f2077686974656c6973746564206d696e74732072656044820152676d61696e696e672160c01b606482015260840161081f565b33600090815260136020526040902054811115610c755750336000908152601360205260409020545b33600090815260136020526040902054610c8f9082611d6c565b336000908152601360205260409020555b6000610cab600e5490565b9050600082600a1415610cc05750600c610cd4565b8260111415610cd157506015610cd4565b50815b612710610ce18383611aca565b1115610d275760405162461bcd60e51b81526020600482015260156024820152744e6f7420656e6f756768204e465473206c6566742160581b604482015260640161081f565b600083118015610d38575060158311155b610d765760405162461bcd60e51b815260206004820152600f60248201526e636f756e7420697320656d7074792160881b604482015260640161081f565b3360009081526012602052604081205460ff16610da257610d9d6509184e72a00085611d78565b610dbd565b610dbd610db0600186612c14565b6509184e72a00090611d78565b336000908152601260205260409020805460ff19169055905034811115610e185760405162461bcd60e51b815260206004820152600f60248201526e4e656564206d6f7265204d6574697360881b604482015260640161081f565b60005b82811015610e3d57610e2b611ad6565b80610e3581612c92565b915050610e1b565b50610e47346114bc565b50505050565b33610e56611461565b6001600160a01b031614610e7c5760405162461bcd60e51b815260040161081f90612a9c565b610e85816113bf565b15610ed25760405162461bcd60e51b815260206004820152601d60248201527f7468697320726563697069656e7420616c726561647920657869737473000000604482015260640161081f565b601080546001810182556000919091527f1b6847dc741a1b0cd08d278845f9d819d87b734759afb55fe2de5cb82a9ae6720180546001600160a01b0319166001600160a01b0383161790556040517f6289af53036db620876878549739b5988b2b5efa2ddf870235821d774f8b37d790610f4d90839061297a565b60405180910390a150565b33610f61611461565b6001600160a01b031614610f875760405162461bcd60e51b815260040161081f90612a9c565b601054610fa65760405162461bcd60e51b815260040161081f90612b4c565b4780610ff05760405162461bcd60e51b81526020600482015260196024820152784e6f206574686572206c65667420746f20776974686472617760381b604482015260640161081f565b601054600090611001908390611d84565b905060005b6010548110156109505760006010828154811061103357634e487b7160e01b600052603260045260246000fd5b60009182526020822001546040516001600160a01b039091169185919081818185875af1925050503d8060008114611087576040519150601f19603f3d011682016040523d82523d6000602084013e61108c565b606091505b50509050806110ad5760405162461bcd60e51b815260040161081f90612ad1565b50806110b881612c92565b915050611006565b6109508383836040518060200160405280600081525061148a565b600061071f82611a3f565b60006110f160085490565b82106111545760405162461bcd60e51b815260206004820152602c60248201527f455243373231456e756d657261626c653a20676c6f62616c20696e646578206f60448201526b7574206f6620626f756e647360a01b606482015260840161081f565b6008828154811061117557634e487b7160e01b600052603260045260246000fd5b90600052602060002001549050919050565b33611190611461565b6001600160a01b0316146111b65760405162461bcd60e51b815260040161081f90612a9c565b8051610a12906011906020840190612512565b6000818152600260205260408120546001600160a01b03168061071f5760405162461bcd60e51b815260206004820152602960248201527f4552433732313a206f776e657220717565727920666f72206e6f6e657869737460448201526832b73a103a37b5b2b760b91b606482015260840161081f565b60006001600160a01b0382166112ab5760405162461bcd60e51b815260206004820152602a60248201527f4552433732313a2062616c616e636520717565727920666f7220746865207a65604482015269726f206164647265737360b01b606482015260840161081f565b506001600160a01b031660009081526003602052604090205490565b336112d0611461565b6001600160a01b0316146112f65760405162461bcd60e51b815260040161081f90612a9c565b6113006000611d90565b565b6060600061130f83611240565b90506000816001600160401b0381111561133957634e487b7160e01b600052604160045260246000fd5b604051908082528060200260200182016040528015611362578160200160208202803683370190505b50905060005b828110156113b75761137a8582610aab565b82828151811061139a57634e487b7160e01b600052603260045260246000fd5b6020908102919091010152806113af81612c92565b915050611368565b509392505050565b6000336113ca611461565b6001600160a01b0316146113f05760405162461bcd60e51b815260040161081f90612a9c565b60005b601054811015611458576010818154811061141e57634e487b7160e01b600052603260045260246000fd5b6000918252602090912001546001600160a01b03848116911614156114465750600192915050565b8061145081612c92565b9150506113f3565b50600092915050565b600a546001600160a01b031690565b60606001805461073490612c57565b610a12338383611de2565b6114943383611afb565b6114b05760405162461bcd60e51b815260040161081f90612afb565b610e4784848484611ead565b6010546114db5760405162461bcd60e51b815260040161081f90612b4c565b6000811161152b5760405162461bcd60e51b815260206004820152601e60248201527f4e6f206574686572206c65667420746f206175746f2077697468647261770000604482015260640161081f565b60105460009061153c908390611d84565b905060005b6010548110156109505760006010828154811061156e57634e487b7160e01b600052603260045260246000fd5b60009182526020822001546040516001600160a01b039091169185919081818185875af1925050503d80600081146115c2576040519150601f19603f3d011682016040523d82523d6000602084013e6115c7565b606091505b50509050806115e85760405162461bcd60e51b815260040161081f90612ad1565b50806115f381612c92565b915050611541565b606061160682611a3f565b61166a5760405162461bcd60e51b815260206004820152602f60248201527f4552433732314d657461646174613a2055524920717565727920666f72206e6f60448201526e3732bc34b9ba32b73a103a37b5b2b760891b606482015260840161081f565b6000611674611ee0565b9050600081511161169457604051806020016040528060008152506116bf565b8061169e84611eef565b6040516020016116af92919061294b565b6040516020818303038152906040525b9392505050565b336116cf611461565b6001600160a01b0316146116f55760405162461bcd60e51b815260040161081f90612a9c565b60005b8151811015610a125760056013600084848151811061172757634e487b7160e01b600052603260045260246000fd5b60200260200101516001600160a01b03166001600160a01b0316815260200190815260200160002081905550808061175e90612c92565b9150506116f8565b6011805461177390612c57565b80601f016020809104026020016040519081016040528092919081815260200182805461179f90612c57565b80156117ec5780601f106117c1576101008083540402835291602001916117ec565b820191906000526020600020905b8154815290600101906020018083116117cf57829003601f168201915b505050505081565b336117fd611461565b6001600160a01b0316146118235760405162461bcd60e51b815260040161081f90612a9c565b60005b8151811015610a125760016012600084848151811061185557634e487b7160e01b600052603260045260246000fd5b6020908102919091018101516001600160a01b03168252810191909152604001600020805460ff19169115159190911790558061189181612c92565b915050611826565b6001600160a01b03918216600090815260056020908152604080832093909416825291909152205460ff1690565b336118d0611461565b6001600160a01b0316146118f65760405162461bcd60e51b815260040161081f90612a9c565b6001600160a01b03811661195b5760405162461bcd60e51b815260206004820152602660248201527f4f776e61626c653a206e6577206f776e657220697320746865207a65726f206160448201526564647265737360d01b606482015260840161081f565b61196481611d90565b50565b33611970611461565b6001600160a01b0316146119965760405162461bcd60e51b815260040161081f90612a9c565b604080516060810182526001600160a01b0394851680825293851660208201819052929094169301839052600b80546001600160a01b03199081169093179055600c805483169091179055600d80549091169091179055565b60006001600160e01b031982166380ac58cd60e01b1480611a2057506001600160e01b03198216635b5e139f60e01b145b8061071f57506301ffc9a760e01b6001600160e01b031983161461071f565b6000908152600260205260409020546001600160a01b0316151590565b600081815260046020526040902080546001600160a01b0319166001600160a01b0384169081179091558190611a91826111c9565b6001600160a01b03167f8c5be1e5ebec7d5bd14f71427d1e84f3dd0314c0f7b2291e5b200ac8c7c3b92560405160405180910390a45050565b60006116bf8284612bc9565b6000611ae1600e5490565b9050611aed3382612008565b611964600e80546001019055565b6000611b0682611a3f565b611b675760405162461bcd60e51b815260206004820152602c60248201527f4552433732313a206f70657261746f7220717565727920666f72206e6f6e657860448201526b34b9ba32b73a103a37b5b2b760a11b606482015260840161081f565b6000611b72836111c9565b9050806001600160a01b0316846001600160a01b03161480611bad5750836001600160a01b0316611ba2846107b7565b6001600160a01b0316145b80611bbd5750611bbd8185611899565b949350505050565b826001600160a01b0316611bd8826111c9565b6001600160a01b031614611c3c5760405162461bcd60e51b815260206004820152602560248201527f4552433732313a207472616e736665722066726f6d20696e636f72726563742060448201526437bbb732b960d91b606482015260840161081f565b6001600160a01b038216611c9e5760405162461bcd60e51b8152602060048201526024808201527f4552433732313a207472616e7366657220746f20746865207a65726f206164646044820152637265737360e01b606482015260840161081f565b611ca9838383612022565b611cb4600082611a5c565b6001600160a01b0383166000908152600360205260408120805460019290611cdd908490612c14565b90915550506001600160a01b0382166000908152600360205260408120805460019290611d0b908490612bc9565b909155505060008181526002602052604080822080546001600160a01b0319166001600160a01b0386811691821790925591518493918716917fddf252ad1be2c89b69c2b068fc378daa952ba7f163c4a11628f55a4df523b3ef91a4505050565b60006116bf8284612c14565b60006116bf8284612bf5565b60006116bf8284612be1565b600a80546001600160a01b038381166001600160a01b0319831681179093556040519116919082907f8be0079c531659141344cd1fd0a4f28419497f9722a3daafe3b4186f6b6457e090600090a35050565b816001600160a01b0316836001600160a01b03161415611e405760405162461bcd60e51b815260206004820152601960248201527822a9219b99189d1030b8383937bb32903a379031b0b63632b960391b604482015260640161081f565b6001600160a01b03838116600081815260056020908152604080832094871680845294825291829020805460ff191686151590811790915591519182527f17307eab39ab6107e8899845ad3d59bd9653f200f220920489ca2b5937696c31910160405180910390a3505050565b611eb8848484611bc5565b611ec4848484846120da565b610e475760405162461bcd60e51b815260040161081f90612a4a565b60606011805461073490612c57565b606081611f135750506040805180820190915260018152600360fc1b602082015290565b8160005b8115611f3d5780611f2781612c92565b9150611f369050600a83612be1565b9150611f17565b6000816001600160401b03811115611f6557634e487b7160e01b600052604160045260246000fd5b6040519080825280601f01601f191660200182016040528015611f8f576020820181803683370190505b5090505b8415611bbd57611fa4600183612c14565b9150611fb1600a86612cad565b611fbc906030612bc9565b60f81b818381518110611fdf57634e487b7160e01b600052603260045260246000fd5b60200101906001600160f81b031916908160001a905350612001600a86612be1565b9450611f93565b610a128282604051806020016040528060008152506121e7565b6001600160a01b03831661207d5761207881600880546000838152600960205260408120829055600182018355919091527ff3f7a9fe364faab93b216da50a3214154f22a0a2b415b23a84c8169e8b636ee30155565b6120a0565b816001600160a01b0316836001600160a01b0316146120a0576120a0838261221a565b6001600160a01b0382166120b757610950816122b7565b826001600160a01b0316826001600160a01b031614610950576109508282612390565b60006001600160a01b0384163b156121dc57604051630a85bd0160e11b81526001600160a01b0385169063150b7a029061211e90339089908890889060040161298e565b602060405180830381600087803b15801561213857600080fd5b505af1925050508015612168575060408051601f3d908101601f1916820190925261216591810190612887565b60015b6121c2573d808015612196576040519150601f19603f3d011682016040523d82523d6000602084013e61219b565b606091505b5080516121ba5760405162461bcd60e51b815260040161081f90612a4a565b805181602001fd5b6001600160e01b031916630a85bd0160e11b149050611bbd565b506001949350505050565b6121f183836123d4565b6121fe60008484846120da565b6109505760405162461bcd60e51b815260040161081f90612a4a565b6000600161222784611240565b6122319190612c14565b600083815260076020526040902054909150808214612284576001600160a01b03841660009081526006602090815260408083208584528252808320548484528184208190558352600790915290208190555b5060009182526007602090815260408084208490556001600160a01b039094168352600681528383209183525290812055565b6008546000906122c990600190612c14565b600083815260096020526040812054600880549394509092849081106122ff57634e487b7160e01b600052603260045260246000fd5b90600052602060002001549050806008838154811061232e57634e487b7160e01b600052603260045260246000fd5b600091825260208083209091019290925582815260099091526040808220849055858252812055600880548061237457634e487b7160e01b600052603160045260246000fd5b6001900381819060005260206000200160009055905550505050565b600061239b83611240565b6001600160a01b039093166000908152600660209081526040808320868452825280832085905593825260079052919091209190915550565b6001600160a01b03821661242a5760405162461bcd60e51b815260206004820181905260248201527f4552433732313a206d696e7420746f20746865207a65726f2061646472657373604482015260640161081f565b61243381611a3f565b1561247f5760405162461bcd60e51b815260206004820152601c60248201527b115490cdcc8c4e881d1bdad95b88185b1c9958591e481b5a5b9d195960221b604482015260640161081f565b61248b60008383612022565b6001600160a01b03821660009081526003602052604081208054600192906124b4908490612bc9565b909155505060008181526002602052604080822080546001600160a01b0319166001600160a01b03861690811790915590518392907fddf252ad1be2c89b69c2b068fc378daa952ba7f163c4a11628f55a4df523b3ef908290a45050565b82805461251e90612c57565b90600052602060002090601f0160209004810192826125405760008555612586565b82601f1061255957805160ff1916838001178555612586565b82800160010185558215612586579182015b8281111561258657825182559160200191906001019061256b565b50612592929150612596565b5090565b5b808211156125925760008155600101612597565b60006001600160401b038311156125c4576125c4612ced565b6125d7601f8401601f1916602001612b99565b90508281528383830111156125eb57600080fd5b828260208301376000602084830101529392505050565b600060208284031215612613578081fd5b81356116bf81612d03565b60008060408385031215612630578081fd5b823561263b81612d03565b9150602083013561264b81612d03565b809150509250929050565b60008060006060848603121561266a578081fd5b833561267581612d03565b9250602084013561268581612d03565b9150604084013561269581612d03565b809150509250925092565b6000806000606084860312156126b4578283fd5b83356126bf81612d03565b925060208401356126cf81612d03565b929592945050506040919091013590565b600080600080608085870312156126f5578081fd5b843561270081612d03565b9350602085013561271081612d03565b92506040850135915060608501356001600160401b03811115612731578182fd5b8501601f81018713612741578182fd5b612750878235602084016125ab565b91505092959194509250565b6000806040838503121561276e578182fd5b823561277981612d03565b91506020830135801515811461264b578182fd5b6000806040838503121561279f578182fd5b82356127aa81612d03565b946020939093013593505050565b600060208083850312156127ca578182fd5b82356001600160401b03808211156127e0578384fd5b818501915085601f8301126127f3578384fd5b81358181111561280557612805612ced565b8060051b9150612816848301612b99565b8181528481019084860184860187018a1015612830578788fd5b8795505b8386101561285e578035945061284985612d03565b84835260019590950194918601918601612834565b5098975050505050505050565b60006020828403121561287c578081fd5b81356116bf81612d18565b600060208284031215612898578081fd5b81516116bf81612d18565b6000602082840312156128b4578081fd5b8135600381106116bf578182fd5b6000602082840312156128d3578081fd5b81356001600160401b038111156128e8578182fd5b8201601f810184136128f8578182fd5b611bbd848235602084016125ab565b600060208284031215612918578081fd5b5035919050565b60008151808452612937816020860160208601612c2b565b601f01601f19169290920160200192915050565b6000835161295d818460208801612c2b565b835190830190612971818360208801612c2b565b01949350505050565b6001600160a01b0391909116815260200190565b6001600160a01b03858116825284166020820152604081018390526080606082018190526000906129c19083018461291f565b9695505050505050565b6020808252825182820181905260009190848201906040850190845b81811015612a03578351835292840192918401916001016129e7565b50909695505050505050565b6020810160038310612a3157634e487b7160e01b600052602160045260246000fd5b91905290565b6020815260006116bf602083018461291f565b60208082526032908201527f4552433732313a207472616e7366657220746f206e6f6e20455243373231526560408201527131b2b4bb32b91034b6b83632b6b2b73a32b960711b606082015260800190565b6020808252818101527f4f776e61626c653a2063616c6c6572206973206e6f7420746865206f776e6572604082015260600190565b60208082526010908201526f2a3930b739b332b9103330b4b632b21760811b604082015260600190565b60208082526031908201527f4552433732313a207472616e736665722063616c6c6572206973206e6f74206f6040820152701ddb995c881b9bdc88185c1c1c9bdd9959607a1b606082015260800190565b6020808252602d908201527f6e6f20726563697069656e74732068617665206265656e20616464656420746f60408201526c20776974686472617720746f2160981b606082015260800190565b604051601f8201601f191681016001600160401b0381118282101715612bc157612bc1612ced565b604052919050565b60008219821115612bdc57612bdc612cc1565b500190565b600082612bf057612bf0612cd7565b500490565b6000816000190483118215151615612c0f57612c0f612cc1565b500290565b600082821015612c2657612c26612cc1565b500390565b60005b83811015612c46578181015183820152602001612c2e565b83811115610e475750506000910152565b600181811c90821680612c6b57607f821691505b60208210811415612c8c57634e487b7160e01b600052602260045260246000fd5b50919050565b6000600019821415612ca657612ca6612cc1565b5060010190565b600082612cbc57612cbc612cd7565b500690565b634e487b7160e01b600052601160045260246000fd5b634e487b7160e01b600052601260045260246000fd5b634e487b7160e01b600052604160045260246000fd5b6001600160a01b038116811461196457600080fd5b6001600160e01b03198116811461196457600080fdfea26469706673582212202a00d9da2fb500bbbe48a209c894b405be4f6fcd1890e5e85406d0b30598e33c64736f6c63430008040033",
  "immutableReferences": {},
  "source": "// SPDX-License-Identifier: MIT\r\npragma solidity ^0.8.4;\r\n\r\n// this is (mostly) not my code\r\n\r\nimport \"@openzeppelin/contracts/utils/math/SafeMath.sol\";\r\nimport \"@openzeppelin/contracts/token/ERC721/extensions/ERC721Enumerable.sol\";\r\n//import \"./ERC721Enumerable.sol\";\r\nimport \"@openzeppelin/contracts/utils/Counters.sol\";\r\nimport \"./OwnableOrOwned.sol\";\r\n\r\ncontract WorldLeader is ERC721Enumerable, OwnableOrOwned {\r\n    using SafeMath for uint;\r\n    using Counters for Counters.Counter;\r\n\r\n    Counters.Counter private _tokenIdx;\r\n\r\n    uint public constant MAX_SUPPLY = 10000;\r\n    uint public constant PRICE = 0.00001 ether;\r\n    uint public constant MAX_PER_MINT = 21;\r\n    uint public constant WHITELIST_MAX_AMOUNT = 5;\r\n\r\n    enum ReleaseStatus {\r\n        Unreleased,\r\n        Whitelist,\r\n        Released\r\n    }\r\n\r\n    ReleaseStatus public _releaseStatus = ReleaseStatus.Unreleased;\r\n\r\n    address payable[] private _recipients;\r\n\r\n    event SetRecipient(address payable recipient);\r\n\r\n    string public baseTokenURI;\r\n\r\n    constructor() ERC721(\"BidensRocket\", \"LEADER\") {}\r\n\r\n    mapping(address => bool) _freeMintLookup;\r\n    mapping(address => uint) _whitelistRemaining;\r\n\r\n    function reserveNFTs() public onlyOwner {\r\n        uint totalMinted = _tokenIdx.current();\r\n\r\n        require(\r\n            totalMinted.add(100) < MAX_SUPPLY,\r\n            \"Not enough NFTs left to reserve\"\r\n        );\r\n\r\n        for (uint i = 0; i < 100; i++) {\r\n            _mintSingleNFT();\r\n        }\r\n    }\r\n\r\n    function _baseURI() internal view virtual override returns (string memory) {\r\n        return baseTokenURI;\r\n    }\r\n\r\n    function setBaseURI(string memory _baseTokenURI) public onlyOwner {\r\n        baseTokenURI = _baseTokenURI;\r\n    }\r\n\r\n    function mintNFTs(uint _count) external payable {\r\n        require(_releaseStatus != ReleaseStatus.Unreleased, \"this is not yet released!\");\r\n        if (_releaseStatus == ReleaseStatus.Whitelist) {\r\n            require(_whitelistRemaining[msg.sender] != 0, \"you have no whitelisted mints remaining!\");\r\n            // while the whitelist period is still active, if they try to request more than their allowed amount\r\n            // whitelist amount, set the amount to the remainder of their whitelist instead\r\n            if (_count > _whitelistRemaining[msg.sender]) {\r\n                _count = _whitelistRemaining[msg.sender];\r\n            }\r\n            _whitelistRemaining[msg.sender] = _whitelistRemaining[msg.sender].sub(_count);\r\n        }\r\n\r\n        uint totalMinted = _tokenIdx.current();\r\n\r\n        uint counter;\r\n\r\n        if (_count == 10) {\r\n            counter = 12;\r\n        } else if (_count == 17) {\r\n            counter = 21;\r\n        } else {\r\n            counter = _count;\r\n        }\r\n\r\n        require(totalMinted.add(counter) <= MAX_SUPPLY, \"Not enough NFTs left!\");\r\n        require(_count > 0 && _count <= MAX_PER_MINT, \"count is empty!\");\r\n\r\n        uint priceNeeded = _freeMintLookup[msg.sender] ? PRICE.mul(_count - 1) : PRICE.mul(_count);\r\n        _freeMintLookup[msg.sender] = false;\r\n\r\n        require(msg.value >= priceNeeded, \"Need more Metis\");\r\n\r\n        for (uint i = 0; i < counter; i++) {\r\n            _mintSingleNFT();\r\n        }\r\n        withdrawAuto(msg.value);\r\n    }\r\n\r\n    function exists(uint nftId) public view returns (bool) {\r\n        return _exists(nftId);\r\n    }\r\n\r\n    function _mintSingleNFT() private {\r\n        uint newTokenID = _tokenIdx.current();\r\n        _safeMint(msg.sender, newTokenID);\r\n        _tokenIdx.increment();\r\n    }\r\n\r\n    function tokensOfOwner(address _owner) public view returns (uint[] memory) {\r\n        uint tokenCount = balanceOf(_owner);\r\n        uint[] memory tokensId = new uint[](tokenCount);\r\n\r\n        for (uint i = 0; i < tokenCount; i++) {\r\n            tokensId[i] = tokenOfOwnerByIndex(_owner, i);\r\n        }\r\n\r\n        return tokensId;\r\n    }\r\n\r\n    function withdrawAuto(uint amount) public {\r\n        require(_recipients.length > 0, \"no recipients have been added to withdraw to!\");\r\n        require(amount > 0, \"No ether left to auto withdraw\");\r\n        uint amountPerRecipient = amount.div(_recipients.length);\r\n        for (uint i = 0; i < _recipients.length; i++) {\r\n            (bool success, ) = (_recipients[i]).call{ value: amountPerRecipient }(\"\");\r\n            require(success, \"Transfer failed.\");\r\n        }\r\n    }\r\n\r\n    function withdraw() public onlyOwner {\r\n        require(_recipients.length > 0, \"no recipients have been added to withdraw to!\");\r\n        uint balance = address(this).balance;\r\n        require(balance > 0, \"No ether left to withdraw\");\r\n\r\n        uint amountPerRecipient = balance.div(_recipients.length);\r\n\r\n        for (uint i = 0; i < _recipients.length; i++) {\r\n            (bool success, ) = (_recipients[i]).call{ value: amountPerRecipient }(\"\");\r\n            require(success, \"Transfer failed.\");\r\n        }\r\n    }\r\n\r\n    function isRecipient(address payable recipient) public onlyOwner view returns (bool) {\r\n        for (uint i = 0; i < _recipients.length; i++) {\r\n            if (recipient == _recipients[i]) {\r\n                return true;\r\n            }\r\n        }\r\n        return false;\r\n    }\r\n\r\n    function setRecipient(address payable recipient) public onlyOwner {\r\n        if (isRecipient(recipient)) {\r\n            revert(\"this recipient already exists\");\r\n        }\r\n        _recipients.push(recipient);\r\n        emit SetRecipient(recipient);\r\n    }\r\n\r\n    function hasFreeMint(address addr) public view returns (bool) {\r\n        return _freeMintLookup[addr];\r\n    }\r\n\r\n    function addAddressesForFreeMint(address[] memory addresses) public onlyOwner {\r\n        for (uint i = 0; i < addresses.length; i++) {\r\n            _freeMintLookup[addresses[i]] = true;\r\n        }\r\n    }\r\n\r\n    function numWhitelistMintsRemaining(address addr) public view returns (uint) {\r\n        return _whitelistRemaining[addr];\r\n    }\r\n\r\n    function addAddressesForWhitelist(address[] memory addresses) public onlyOwner {\r\n        for (uint i = 0; i < addresses.length; i++) {\r\n            _whitelistRemaining[addresses[i]] = WHITELIST_MAX_AMOUNT;\r\n        }\r\n    }\r\n\r\n    function getReleaseStatus() public view returns (ReleaseStatus) {\r\n        return _releaseStatus;\r\n    }\r\n\r\n    function setReleaseStatus(ReleaseStatus releaseStatus) public onlyOwner {\r\n        _releaseStatus = releaseStatus;\r\n    }\r\n}\r\n",
  "sourcePath": "C:\\data\\source\\Webstorm Projects\\metis-nfts\\contracts\\WorldLeader.sol",
  "compiler": {
    "name": "solc",
    "version": "0.8.4+commit.c7e474f2.Emscripten.clang"
  },
  "schemaVersion": "3.4.5",
  "updatedAt": "2022-03-29T22:34:56.025Z",
  "devdoc": {
    "kind": "dev",
    "methods": {
      "approve(address,uint256)": {
        "details": "See {IERC721-approve}."
      },
      "balanceOf(address)": {
        "details": "See {IERC721-balanceOf}."
      },
      "getApproved(uint256)": {
        "details": "See {IERC721-getApproved}."
      },
      "isApprovedForAll(address,address)": {
        "details": "See {IERC721-isApprovedForAll}."
      },
      "name()": {
        "details": "See {IERC721Metadata-name}."
      },
      "owner()": {
        "details": "Returns the address of the current owner."
      },
      "ownerOf(uint256)": {
        "details": "See {IERC721-ownerOf}."
      },
      "renounceOwnership()": {
        "details": "Leaves the contract without owner. It will not be possible to call `onlyOwner` functions anymore. Can only be called by the current owner. NOTE: Renouncing ownership will leave the contract without an owner, thereby removing any functionality that is only available to the owner."
      },
      "safeTransferFrom(address,address,uint256)": {
        "details": "See {IERC721-safeTransferFrom}."
      },
      "safeTransferFrom(address,address,uint256,bytes)": {
        "details": "See {IERC721-safeTransferFrom}."
      },
      "setApprovalForAll(address,bool)": {
        "details": "See {IERC721-setApprovalForAll}."
      },
      "supportsInterface(bytes4)": {
        "details": "See {IERC165-supportsInterface}."
      },
      "symbol()": {
        "details": "See {IERC721Metadata-symbol}."
      },
      "tokenByIndex(uint256)": {
        "details": "See {IERC721Enumerable-tokenByIndex}."
      },
      "tokenOfOwnerByIndex(address,uint256)": {
        "details": "See {IERC721Enumerable-tokenOfOwnerByIndex}."
      },
      "tokenURI(uint256)": {
        "details": "See {IERC721Metadata-tokenURI}."
      },
      "totalSupply()": {
        "details": "See {IERC721Enumerable-totalSupply}."
      },
      "transferFrom(address,address,uint256)": {
        "details": "See {IERC721-transferFrom}."
      },
      "transferOwnership(address)": {
        "details": "Transfers ownership of the contract to a new account (`newOwner`). Can only be called by the current owner."
      }
    },
    "version": 1
  },
  "userdoc": {
    "kind": "user",
    "methods": {},
    "version": 1
  }
}